:0753EE004403A800000000C9
:1089E0007F807C019000E9E0F8A3E0F9A3E0FAA31E
:1089F000E0FBC3022F84E6FFAD9FC3ED9FFFE4942D
:088A000000FE3395E0FDFC22AD
:105FC80043BA80E59D602078FA1289F67BE07A284A
:105FD80079017800122E59E42FFFEE3451FEED348A
:105FE80025FDEC3402801D78FB1289F6E47B807A6B
:105FF800BBF9F8122E59E42FFFEE3436FEED346E5D
:10600800FDEC3401FC9000E9122FA89000E9E0FCB7
:10601800A3E0FDA3E0FEA3E0FFC00790FE01E0FBC4
:10602800E4FAF9F8D007122EE49000E9122FA87FBD
:10603800C07EF67D577C001289E450097F007E609F
:106048007D547C00227FC07E267D827C001289E4FC
:1060580050097F807E8D7D5B7C00227F807EED7D78
:10606800AF7C001289E450097F007EC07DA87C00C7
:10607800227F807E2D7DE87C001289E450097F0014
:106088007E1B7DB77C00227E367D251289E0500973
:106098007F007E407D197C01227E567D411289E079
:1060A80050097F007E2D7D317C01227F007EDB7DC3
:1060B8005F1289E250097F007E807D517C01227F3A
:1060C800607E197D851289E250097F007E367D6EDB
:1060D8007C01227F207EE07DB21289E250097FC0D8
:1060E8007EFC7D9B7C01227FE07EA67DE01289E21A
:1060F80050097F807EC37DC97C01227F607E2B7D15
:10610800FF1289E250097F007E407DFA7C01227FE0
:07611800C07E0E7D167C0223
:01611F00225D
:1080E500125FC89003A8122FA8E4F594F593F592B2
:1080F500F591F596F595F5B2F5B1F5B4F5B3F5CA83
:10810500F5C9F5D8F5D9F5DEF58EF598F59AF5ACFE
:10811500F584F5A2F5BAF5AFF589F5E9F5F9128912
:10812500B79000EC122FB40001C2009000F0740269
:09813500F07B01E4FDFF0259C1D9
:108D3F00900119EFF0FDE4FF1282E0900119E0FFBE
:018D4F002201
:03001E00C2AF224C
:03003E00D2AF221C
:108A7900900385E0FBA3E0FAA3E0F9EF022D7EA9BC
:108A89000553BACFEF142290FE82F090FE8174054F
:028A9900F022C9
:108CF500EF1FAA0670011E4A60087D091DED60F090
:028D050080FAF2
:018D07002249
:10873A00E49003BDF0A3F0FC90FE82E020E61E7FE9
:10874A00017E00128CF59003BDE475F001122E43F0
:10875A00FEC3E5F0941EEE940040DD7C0190FE829B
:06876A00E054BFF0AF0473
:0187700022E6
:098DEB0090FE817401F002873A48
:0E8D7D0090FE86EFF090FE817402F002873ABD
:098DF40090FE817403F002873A3D
:0F8D500090FE817404F012873A90FE87E0FF22B4
:078E3A00E4128A9002873A5E
:088E2A007401128A9002873ADC
:098DFD0090FE817406F002873A31
:1084400053BACF43BA80EF14600A14600C14600E64
:108450002403800D43BA10800843BA20800343BA36
:108460003090FE80E04440F0E04480F0C083C08261
:10847000E0FB90037EA3A3A3E0FFEB4FD082D08369
:07848000F090FE82E4F022FF
:107DB900128A88600A14600C14600E2403800D4333
:107DC900BA10800843BA20800343BA30128DEBEF12
:107DD90060037F0122AF01EF25E0FF128D7DEF6087
:107DE900037F0122128DF4EF60037F0122AF03129A
:107DF9008D7DEF60037F0122128DF4EF60037F0117
:107E0900229003AFE0FF128D7DEF60037F01221204
:107E19008DF4EF60037F0122128DFDEF60037F0176
:047E2900227F002292
:10794900128A88600A14600C14600E2403800D43A7
:10795900BA10800843BA20800343BA30128DEBEF86
:1079690060037F0122E925E0FF128D7DEF60037F2F
:107979000122128DF4EF60037F0122AF03128D7D86
:10798900EF60037F0122128DF4EF60037F0122AFC4
:1079990001EF25E04401FF128D7DEF60037F012295
:1079A900128DF4EF60037F0122128D509003931220
:1079B9008A7C128E3AEF60037F0122128DFDEF60FF
:0779C900037F01227F002271
:10749300128A88600A14600C14600E2403800D4362
:1074A300BA10800843BA20800343BA30128DEBEF41
:1074B30060037F0122E925E0FF128D7DEF60037FEA
:1074C3000122128DF4EF60037F0122AF03128D7D41
:1074D300EF60037F0122128DF4EF60037F0122AF7F
:1074E30001EF25E04401FF128D7DEF60037F012250
:1074F300128DF4EF60037F0122900388E014F060A3
:107503001B128D50128A79128E3AEF60037F01228B
:10751300900386E475F001122E2D80DD128D50123A
:107523008A79128E3AEF60037F0122128DFDEF609C
:07753300037F01227F00220B
:10005E0043BA8053BACFEF14600A14600C14600ECA
:10006E002403800D43BA10800843BA20800343BA9C
:05007E003053BA7F229F
:108A0800439A108DD7ECF5D6438E14229000F0E0EF
:108A1800FB7A00229000EAE0FF7E0022EBF0A3EA56
:078A2800F0A3E9F0AE072204
:0B59C1009000E9EFF0A3EDF0A3EBF085
:1059CC00A3E0F8A3E0F9A3E0FAA3E0FB9003A8E0BE
:1059DC00FCA3E0FDA3E0FEA3E0FF122EE4E47B04B5
:1059EC00FAF9F8122EE4C3E49FFFE49EAD07FC9095
:1059FC0000E9E0147003025A96147003025ACD1495
:105A0C007003025B1624036003025B66128A146443
:105A1C000170144398508D8BECF58D438E40D28ED3
:105A2C00E4900295F08011EB64024A700B4398509D
:105A3C008DD7ECF5D6438E1553A23F9000EAE0F9D2
:105A4C00FF7E007008A3E0640170028035EF6402F1
:105A5C004E700D9000EBE06403700543A240802271
:105A6C00E96404700D9000EBE06405700543A280BE
:105A7C008010E96406700B9000EBE0640770034340
:105A8C00A2C0E4900295F0D2AC229000F0E0640247
:105A9C007003128A0853BAFE128A1C64087008A399
:105AAC00E0640970028011EF640A4E700B9000EBF9
:105ABC00E0640B700343BA0143AF01E4900296F02B
:105ACC0022128A1464027005128A088011EB640396
:105ADC004A700B43AC508DD5ECF5D443D10A53BA74
:105AEC00FD128A1C640C7008A3E0640D7002801116
:105AFC00EF640E4E700B9000EBE0640F700343BA32
:105B0C000243AF08E4900297F022128A14640270E8
:105B1C0008438410128A0B8011EB64044A700B4307
:105B2C0084508DD3ECF5D243D1A053BAFB128A1C0E
:105B3C0064107008A3E0641170028016EF64124EBA
:105B4C0070109000EBE064137008F5CA75C904433B
:0A5B5C00BA0443AF10E4900298F081
:015B6600221C
:0F82D100A3E475F001122E43A9F0FA122D38FD27
:1082E000EF14601514601D1460252403702D900296
:1082F00095E070FA04F08D9922900296E070FA04ED
:10830000F08D9B22900297E070FA04F08DAD2290E0
:0C8310000298E070FA04F0AF058F85229F
:108B2300900397128A2490039A74FFF5F0122E4350
:108B330045F0600CAF06900397E0FB1282D180E60C
:018B4300220F
:108B44009003B4128A249003B4E0FBA3E0FAA3E0F8
:108B5400F9122D38600AAF069003B41282D180E670
:018B640022EE
:10831C0043BC80EF131313541FFB7A0064017017D6
:10832C00EF5407FEF87401088002C333D8FCFEF446
:10833C005294EE42938019EB4A7015EF5407FEF8F5
:10834C007401088002C333D8FCFEF45292EE4291C1
:09835C00ED540F42DE43DE202245
:02896100A90566
:1089630053BCF0EF42BC43BC40E5BC30E5FB53BC19
:10897300DFAFBDEFFEADBEEDFFAD01A8050880057D
:08898300CEC313CE13D8F9FF97
:01898B0022C9
:10851100EF14601814602014602614602C24047079
:1085210030E4F58AF58C438904D28C22E4F58BF58D
:108531008D438940D28E22E4F5D7F5D6438E182299
:10854100E4F5D5F5D443D10C22E4F5D3F5D243D1EA
:02855100C02246
:10848700EF14601714601E14602514602C24047008
:1084970030AF8CEFFCAF8AEFFD8026AF8DEFFCAFDE
:1084A7008BEFFD801CAFD6EFFCAFD7EFFD8012AF8F
:1084B700D4EFFCAFD5EFFD8008AFD2EFFCAFD3EF21
:0584C700FDAF05AE044D
:0184CC00228D
:10836500EF14601714601E14602714603024047025
:1083750037C28CE4F58CF58AD28C22C28EE4F58D59
:10838500F58BD28E22538EEFE4F5D6F5D7438E10BA
:108395002253D1F7E4F5D4F5D543D1082253D17F43
:0983A500E4F5D2F5D343D18022A6
:0577A3009000E9EFF089
:1077A8007E037FE8122DA27C007D0C122D90AB0782
:1077B800AA06E4F9F89003A8E0FCA3E0FDA3E0FE24
:1077C800A3E0FF122EE4C3E49FFFE49EFE9000E9CD
:1077D800E0F9FD7C00700A8F8AEEF58CD28CD2A974
:1077E80022ED64014C700A8F8BEEF58DD28ED2ABF0
:1077F80022E9FD7C006402700C8FD7EEF5D6438E2B
:107808001043AF0422ED64034C700C8FD5EEF5D411
:1078180043D10843AF2022E96404700B8FD3EEF5FF
:07782800D243D18043AF40C1
:01782F002236
:106FD600F090031CE0F8A3E0F9A3E0FAA3E0FB902D
:106FE60003A8E0FCA3E0FDA3E0FEA3E0FF229000DF
:106FF600E9FAE0540F75F008A42BFFE5F03A8F820A
:10700600F583ECF0A3EDF0228D82F583EEF0A3EF8D
:10701600F0900322A3A3E0FEA3E0FDAC06E975F021
:1070260050A42410FBE5F022E0FCA3E0FDE41229C5
:10703600D67B007A40791C78460228BB1227B2120A
:107046002A0F9000F3EEF0A3EFF09000F3E0FCA31C
:10705600E0FD9000F0E0F9228B82F583EDF09000E0
:10706600F2E0FCA3E0FDE42224D0C4540FF975F04D
:1070760050A422E02401FFE433AB07FA3395E0F98C
:10708600F8228F82F583E0FCA3E0FDE40229D6E036
:10709600C394307480948022C4540F75F050A42495
:1070A60000FFE5F022E975F050A42414FDE5F02276
:0B70B6008F82F583EDF0900326A322EB
:056514009000E9EFF02A
:10651900E49000F4F07D011251CD9000E9E0C454FB
:106529000FFFF87401088002C333D8FC42F143BA63
:10653900809000EA126FDA122EE4780F122F9590EC
:1065490000F4EFF09000EA126FDA122EE4C006C0F0
:10655900079000F4127079D007D006122EE490004B
:10656900F2EEF0A3EFF09000EE12702EC004C00519
:10657900C006C0071270641229D6D003D002D00118
:10658900D0001227B2122A0F9000F0EEF0A3EFF01C
:106599009000E9E0FF1270969000F4E0FD502FEFB3
:1065A900127070FFAEF02402FBEE34FF12705E2F02
:1065B900FFEE34FF1270049000F0E0FCA3E0FD123E
:1065C900702334FF126FF41270AB34FF80309000E7
:1065D900E9E012706EFFAEF02402FBEE34FC12709B
:1065E9005E2FFFEE34FC1270049000F0E0FCA3E093
:1065F900FD12702334FC126FF41270AB34FCFC9062
:1066090000E9E0540F75F008A42DFFE5F03C8F82F6
:10661900F583E04480F09000E9E0C4540F1460155C
:1066290014601714601914601B14601D2405701C74
:1066390043F601801743F610801243F701800D439A
:0F664900F710800843FE01800343FE1053BA7F11
:01665800221F
:0B7B5A009000F0EFF0A3ECF0A3EDF0C2
:107B650043BA809000F0127095502DA312702EC06C
:107B750004C005C006C0079000F0E012709E34FFF7
:107B8500127088D003D002D001D000127042C454C4
:107B95000F12702434FF80319000F112702EC00452
:107BA500C005C006C0079000F0E024D012709E34D6
:107BB500FC127088D003D002D001D000127042248C
:107BC500D0C4540F12702434FCFAE9126FF953BA79
:017BD5007F30
:017BD600228C
:056EE50090031BEFF01B
:106EEA00E490032A126FD6122EE4780F122F95908F
:106EFA00032AEF126FD6122EE4C006C00790032AA7
:106F0A00127079D007D006122EE4900326122FA809
:106F1A0090032012702EC004C005C006C00790035B
:106F2A0026126FE8E41229D1D003D002D001D00092
:106F3A001227B2122A0F900322122FA843BA809066
:106F4A00031B12709590032AE0FD90031BE0501F6B
:106F5A00127070FBAAF02402FFEA34FF1270B61214
:106F6A006FEDE42BFDEA34FF12700E34FF801D1220
:106F7A00706EFBAAF02402FFEA34FC1270B6126F9C
:106F8A00EDE42BFDEA34FC12700E34FC90031B1264
:106F9A006FF790031BE0C4540F14601514601714A4
:106FAA00601914601B14601D2405701C43F60180CF
:106FBA001743F610801243F701800D43F71080083B
:0B6FCA0043FE01800343FE1053BA7F1A
:016FD5002299
:1053F50046033F000000000000460339000000009E
:025405000000A5
:1084CD007E037FE8122DA27C007D0C122D90AB0750
:1084DD00AA06E4F9F89003A8E0FCA3E0FDA3E0FEF2
:1084ED00A3E0FF022EE42FFFE03EFE9003B9E02F44
:1084FD00FF9003B8E03E22900339E0FEA3E0FF9029
:04850D000340E02225
:107FCF00E4F5D875D906EF64017054EDB40A00508A
:107FDF004E907FE7F82828730280050280090280FF
:107FEF000D02801102801502801902801D0280216E
:107FFF0002802502802BE4F5DA2275DA422275DA47
:10800F00632275DA532275DA732275DA202275DA54
:10801F00102275DA302275DA49D2DE2275DA4C2257
:108D1B00EF64017008AFFAEFFCAFEAEFFDAF05AE01
:018D2B000443
:018D2C002224
:0A8DD700EF64017004F5F9F5E922DC
:057CCD009003B7EFF089
:107CD200C2DEAFF9EFFFABE9EBA3CFF0A3EFF09079
:107CE20003B7E0702A1284CDAC06AD07900339ECDD
:107CF200F0A3EDF075DA49E5E904F5EA85F9FA123F
:107D0200850490033F1284F390033FF0A3EFF090B9
:107D120003B7E0640170271284CD90033BEEF0A319
:107D2200EFF075DB49E5E904F5EA85F9FA900342DB
:107D3200E09003411284F3900341F0A3EFF0D2DE0E
:017D4200221E
:107E2D00AD07EDFB7A00701790033FE0FEA3E0F580
:107E3D00EAEEF5FA1285042FF090033FE03EF0EBE9
:107E4D0064014A7020900341E0FEA3E0F5EBEEF5EE
:107E5D00FB90033BE0FEA3E0FF900342E02FF09088
:107E6D000341E03EF0ED64027020900343E0FEA379
:107E7D00E0F5ECEEF5FC90033DE0FEA3E0FF900392
:0B7E8D0044E02FF0900343E03EF022A1
:10881200EF7007ED24FF9288D2A8EF64017007ED94
:1088220024FF928AD2AAEFFD7C0064027003758F46
:1088320010ED64034C7003758F20ED64044C7003DB
:04884200758F4022CC
:055407004203BF00009C
:1089B700E47BE07A2EF9F89003A8E0FCA3E0FDA39E
:1089C700E0FEA3E0FF122EE49003BFEEF0A3EFF06A
:0989D70075DC48E4F5D9D2DE227A
:1000A600AFF9EFFEADE9EDFF9003C0E02FFF90033F
:0C00B600BFE03E8FECF5FC30DAFDC2DA52
:0100C200221B
:108CE100AB07AA06EB1BAE0270011A4E600512001B
:048CF100A680F12246
:10884600EF540FFEF874010822EFC4540F2410FDF4
:10885600E434FE8D82F58322EF54F0F9FB7A002290
:10886600E0FEEF540FFFF874010822E9FB7A00647A
:028876003022AE
:10877100EDFB7A006401701312884FC083C082122E
:1087810088668002C333D8FC4E8016EB4A701712FC
:10879100884FC083C0821288668002C333D8FCF43C
:0787A1005ED082D083F022BC
:1051CD00ED707812885E700E1288468002C333D857
:1051DD00FCF452935294EB64104A700E1288468080
:1051ED0002C333D8FCF452915292E96420700E122E
:1051FD0088468002C333D8FCF452955296128871BA
:10520D00700E1288468002C333D8FCF452B152B2EC
:10521D00EB64404A700E1288468002C333D8FCF40A
:10522D0052B352B4E9645060030253ED12884680C4
:10523D0002C333D8FCF452C952CA22ED6401600393
:10524D000252D312885E70101288468002C333D882
:10525D00FCFEF45293EE4294EB64104A70101288E7
:10526D00468002C333D8FCFEF45291EE4292E964BB
:10527D002070101288468002C333D8FCFEF452957C
:10528D00EE429612887170101288468002C333D890
:10529D00FCFEF452B1EE42B2EB64404A701012883B
:1052AD00468002C333D8FCFEF452B3EE42B4E96437
:1052BD005060030253ED1288468002C333D8FCFEC2
:1052CD00F452C90253EAED6402600302535F12887F
:1052DD005E70101288468002C333D8FCFE4293EEF6
:1052ED00F45294EB64104A70101288468002C33356
:1052FD00D8FCFE4291EEF45292E9642070101288AF
:10530D00468002C333D8FCFE4295EEF452961288C5
:10531D007170101288468002C333D8FCFE42B1EE84
:10532D00F452B2EB64404A70101288468002C333C7
:10533D00D8FCFE42B3EEF452B4E96450600302535C
:10534D00ED1288468002C333D8FCFE42C9EEF452FA
:10535D00CA22ED640360030253EDEF54F0FD7C00AF
:10536D00700F1288468002C333D8FCFE4293EE4282
:10537D0094ED64104C700F1288468002C333D8FC34
:10538D00FE4291EE4292EF54F06420700F12884667
:10539D008002C333D8FCFE4295EE4296EF54F0FDE9
:1053AD007C006430700F1288468002C333D8FCFE37
:1053BD0042B1EE42B2ED64404C700F12884680024D
:1053CD00C333D8FCFE42B3EE42B4EF54F0645070D8
:1053DD000F1288468002C333D8FCFE42C9EE42CA82
:0153ED00229D
:108A5500E0FBA3E475F001122E43A9F0FA22EBF036
:108A6500A3EAF0A3E9F0AD07AC0622F5C375C65A33
:048A750075C6A522FB
:068E4F0043C780028BA561
:0400160053C77F222B
:0E8D8B00E5C75401640170037F01227F0022BE
:108BA5007B407A42790F78009003A8E0FCA3E0FDB2
:0D8BB500A3E0FEA3E0FF122EE4EF04F5F5AF
:018BC2002290
:108908009000F1128A6375C5019000F4E0FF14F03D
:10891800EF60198DC4EC128A709000F1128A55E547
:0D892800C2122D7E0DBD00010C0080DD226D
:1088AA009000F1128A6375C5029000F4E0FF14F09B
:1088BA00EF601B8DC4ECF5C39000F1128A55122D9E
:0F88CA0038F5C20DBD00010C128A720080DB224E
:0B8DC10075C5038FC4EE128A700022FB
:1000C600C1C1B5F7BDDABBF9B4A1CABEDDB4E6B4A9
:1000D600A2D0ADD2E9D2BBB6FEC8CBC4CEE5C1F93B
:1000E600C6DFE3D0D6B5CFDEC1E3D2BCB7A1C8FE2A
:1000F600CBC1CEE9C2BDC6E2BDD7CEC2B9F6B6AF58
:10010600B7BDCFF2CBD9C2CAB2CBB5A5C0E4B6CB88
:10011600B2B9B3A5C8ABBED6B2CECAD5FBB6A8D0C7
:10012600DDC3DFCAB1BCE4C9E8D6C3C6C1C4BBB22D
:10013600BDB6C8B5E7D4B4B9DCC0EDBAB8BED7D041
:10014600A3D7BCCDBCB1EAB4F3D0A1B9F6B6AFC95A
:10015600CFCFC2B7D6C3EBC9E8B1C8C0BBB7D6CEFE
:10016600A2B7B4C9ABCFD4CABEB7ADD7AA000004F4
:100176000474745455575654547474040400848794
:10018600C3613D1D050505057DFD8185E7E340420B
:10019600CECC00FEFE9292FEFE9292FEFE00000083
:1001A6003F3F98FF7F1E1E12125EDEFF7F00044453
:1001B60044445F5FC4C444445F5FC4C40404000095
:1001C60000000000FFFF000818180F0700000004D9
:1001D6000404FFFF54545454FFFF04040400111197
:1001E600998D979391FDFD9193978D9911110484A3
:1001F600E4FC5CC4C47C7C40FFFF407C7C000203C2
:100206007F7F103F3F7E7E407F7F40FEFE0090D284
:100216007634FFFF3476D2F0FF8F08F8F808829A1A
:10022600DE776372DE8E80C0733F3F73C08010102E
:10023600FFFF9090FEFE9292F2F2929E9E8042C244
:10024600FF7F81E07F1FFCFC474744FCFC00040461
:1002560084E4FC1F27242424A4E464240404020365
:1002660001FFFF020242C2FF7F020202020280E099
:10027600F8FF879C982024A4FF7F343C2C240000A0
:10028600FFFF007F7F3613FFFF4949FFFF00101075
:10029600FFFF10109090FFFF10F0F08000000000AC
:1002A600FFFF0486C3713F4FC0FF7F010706404032
:1002B60042CECC001CFCE10706E0FE1E000000005A
:1002C600003FBF98C860331F1F3360C080808080A6
:1002D6008080808080808080808080808080000018
:1002E6000000000000000000000000000000000008
:1002F6000808080808080808080808080000101078
:100306001010101010101010101010101010000403
:100316008484848484848484848484840400202063
:10032600202020202020202020202020202000FC0B
:10033600FC0404FCFC0404FCFC0404FCFC00007F3C
:100346007F2C2723202020212322227F7F000002CA
:10035600424242C2FE7E424242C2C20202004040C5
:100366004040787F47404040407F7F4040402020CB
:100376002020202021232E2C202020202020004059
:1003860060301C0F0300000103061C7860008080AB
:10039600808080C0FFFF40406020202020000000B9
:1003A600000000003F7F404040404078780000F861
:1003B600F923A2A2A2A2FEFEAABA32FEFE0000FF06
:1003C600FF10131B4B6B371F1F3BB8FFFF0000804E
:1003D600E0F8FF07E4E4A4BFBFA4E4E404000101DD
:1003E60000FFFF407F7F4A4A4A4A7F7F404000FE27
:1003F600FE7ADE86FEFE92929292FEFE000000FFDC
:10040600FF0C0F07FFFF60230F1C36634140101CD3
:100416000D555555D5FFFFD5555555151C0C0404DE
:10042600060A0B292B6E4CE9B91B0206040400C40C
:10043600C4545454545F5F5454545444C4C08181CA
:10044600809DBDF5D59595D5F5BD9D8181800444EA
:100456005454545454545454FFFF05070604008062
:100466009FDF613D3D61DF9F010F3E70F0F0002090
:1004760020A8EC6E3B39282A6EECA8202000020248
:100486004341484949494949494841430202000014
:10049600FEFE929292125454FFFF547C7C1044E468
:1004A600FF5F4454F4F61212FFFF1212121000807E
:1004B600E0F8FF074242C2FE7E42C2C202000101CC
:1004C60000FFFF4040787F4740407F7F404000FE6E
:1004D600FE22FADE86888888FFFF8888888000FFEB
:1004E600FF18180F077C7C407F7F40FCFC000088CB
:1004F60099D3622808087FFF888C84E4E40044448A
:100506006525341C0CFFFF0C1C342464444400FE97
:10051600FE22FADE4660B09C0F0F9CB0604000FFE2
:10052600FF18180F87E07F1F0000FFFF0000107004
:10053600628E8C00FEFE92929292FEFE00000404F1
:100546007E7F417E7E427E7E7E7E427E7E40107033
:10055600628E8C24B4DCEDB7D6CC9C342400040423
:100566007E7F213018FCFE662C1D376240404044D9
:10057600C4C44444445010FFFF1010F0F000103C77
:100586003F1314BCF8703E0F41C0C07F3F000808FF
:10059600080808F8F98F8E88888888080808008077
:1005A600C060381F070040C0C07F3F00000000F851
:1005B600F8080CCECB4948C8C80808F8F80000FF70
:1005C600FF00001F1F08081F1F40C0FF7F0040409C
:1005D60042CECC04F4F494FFFF94F4F404000040FB
:1005E600603F3F684C46435F5F43464C48400014BB
:1005F600B4E46434BDEF66B49444E4B4140008096A
:100606000908090909FDFD090B0B08090908040475
:1006160044C4CF4F44C4E4242FBFB424040440444C
:100626006424351D0CFEFE0C1D3524644440000078
:10063600F8F94B4E4CF8F84C4E4BF9F800001010F8
:100646001313121212FFFF121212131310100002CC
:100656000ECCC04060301C2FEFDC30604040020200
:100666007F7F000001091931F1DD0F030000C8C8C2
:10067600090FEEE8485E5E50DFDF505E5E40206F99
:100686006F3C1F1310FEFE7F7F7EFEFEFE000008FD
:100696000889CBEAB89800FFFF60C080000000021E
:1006A6000301FFFF070600FFFF00000303000080B1
:1006B600E0F8FF773296949F9F949652703001012E
:1006C60000FFFF44E4F45C4C445474E4C4008080AE
:1006D600C06070584CC7C74C587060C080800040DE
:1006E60040444444447F7F44444444404000000026
:1006F600FEFE92929292929292929E9E80004070FC
:100706003F0F001E1E1212125EDEC07F3F00002049
:1007160020A8EC6E3B39A8AA6EECA8202000028225
:10072600839192DA4B4D652632180903020290D264
:100736007634FFFF3476D2F0FF8F08F8F808829AF5
:10074600DE776372DE8E80C0733F3F73C0800474B1
:10075600F4D4FFFFD4F4741C7FF7C47C3C04828B72
:1007660089E8EB8B88F9F9AAABA9A9AB8A82101C98
:100776004C44444445C7C644444444541C0C80C0BD
:10078600603E3E60407F7F44444444444040008095
:10079600E0F8FF171010D0FFFFD010101010010165
:1007A60000FFFF180C0703FFFF03070C181000FCDF
:1007B600FC2424FCFCFEFE22E2E2223E3E00003F38
:1007C6003F11113F3FFFFF61271F3961F1F100FC27
:1007D600FC8484FCFC1010101010FFFF1010003F6A
:1007E6003F10103F3F00010746C0FF7F000000F8A2
:1007F600F90706F0F21212F2F20202FEFE0000FF04
:10080600FF00001F1F11111F1F40C0FF7F00404047
:1008160042CECC40E0BE9E82829EBEA0202000003A
:10082600003FBF98C8436F3C386E47C180800017B1
:1008360017D5D557577D7D5757D5D5171700404043
:10084600407F7F5555555555557F7F4040400000A8
:10085600FEFE92B2F2D29292D2F2BE9E000040709A
:100866003F0F84E47F1F0404FFFF0404040000021A
:1008760002FAFAAFAFAAAAAFAFFAFA020200121250
:100886001A7E7E0B0BFEFE2A6A7E3E1A121240402C
:10089600407C7C4040FFFF444444444440408090B8
:1008A60098CE4640602F3F10180C0602000000004C
:1008B600FCFC2424FCFD2726FCFC24242404407094
:1008C600BF8F84CC5D752525755DCC80808000004A
:1008D600F8F8888888FFFF888888F8F80000000004
:1008E6001F1F0808087FFF8888889F9FF0F01070F8
:1008F600628E8CFEFEF2F25A5E5652F2F202040448
:100906007E7F713F2F335BC9FF7F091B332088EC45
:1009160067A3A6AEAABABEA7A3A62EAAE262000045
:1009260000FFFF4A4A4A4A4A4BFBF800000004848B
:1009360084FCFC8484FEFE92FEFE92FEFE00206095
:10094600603F1F10504444447F7F4444444080F03D
:1009560070FFFF30103E3E2A2A2A2A3E3E0080E0E3
:10096600781F0F3838090909FFFF0909090800FC33
:10097600FC04FCFC00FEFE222222FEFE0000000F0C
:100986000F040F4F407F7F4242427F7F404010104E
:10099600D0FFFF9090C868290F0E2868C888040702
:1009A60003FFFF018180C36F3C3C6FC38080000260
:1009B6000EECE060F8FF4F49FFFE48484808040483
:1009C6007F7F0000FFFF22223F3F2222222000FEDF
:1009D600FE4262327EDED272321202FEFE0000FF5C
:1009E600FF42425355756D69434242FFFF001010A6
:1009F600D0FFFF9030222222E2E2222222200407A8
:100A060003FFFF131F0F43C0FF7F01071E1820209F
:100A16002020202020FFFF20202020202020808052
:100A2600C060301C0F03030F1C3060C080800000C4
:100A360000E0E00000FFFF00002060C08000080C1E
:100A460007030040C0FF7F00000000010F0E10707A
:100A5600628E8C24B4DCEDB7D6CC9C34240004041E
:100A66007E7F213018FCFE662C1D376240404044D4
:100A7600C4C44444445010FFFF1010F0F000103C72
:100A86003F1314BCF8703E0F41C0C07F3F0000000A
:100A960000000000FFFF4040404040400000404052
:100AA600404040407F7F404040404040404002023E
:100AB60002020202FEFE0242C2820202020200009C
:100AC60000000000FFFF000000010706000080C0D4
:100AD60060B0988E868080838F9C3060C080008056
:100AE600C060381F0740C0C07F3F000000002424BC
:100AF600A4FEFF2322C0F838FFFF08187060080E16
:100B060007FFFF078781C04067371C0F030040407F
:100B160042CECC40E0BE9E82829EBEA02020000037
:100B2600003FBF98C8436F3C386E47C180800000C5
:100B3600FEFE40404040FFFFC06030180800000045
:100B46007F7F203010103F7F40404040787880E023
:100B5600F8FF0784FC7C24E4E4F8F8FFFF000000BB
:100B6600FFFF84C763331E0F034FCFFF7F00202490
:100B760024A4FEFF2322FCFC040404FCFC00101841
:100B86000E07FFFF0786E37B1901093BF3C080C010
:100B960060B0988E868080838F9C3060C080008095
:100BA600C060381F0740C0C07F3F0000000010989B
:100BB600CCF7B39E9E9F9F9EBEF8DFF7F010010113
:100BC600FFFFC07E3E023E3E98EF7F7FE78000003B
:100BD600FCFC24E4E424262222A3E3620000407005
:100BE600BF8FC04063371C1C366341C080802030F5
:100BF600F8EC272724E4E4343C2CE0E00000000075
:100C06003F7F424242434342424243437878000098
:100C160000FEFE929292929292FEFE0000004042E8
:100C2600465C587F7F40407F7F50584E464040404C
:100C36004242424242C2C2424242424240402030C6
:100C4600180E0640C0FF7F000002060C383096DE04
:100C56007A7E7F79DD9732FEFE1232FEFE0000FFBD
:100C6600FF7F7FFFFF44C6FF7F46C3FF7F00C8F8B4
:100C7600BFEFE888C84848E8FF5F4848484008187A
:100C860018FFFF0404020B1B32F2DA0E060000E026
:100C9600E0FFFF302888F87F0FE8E8088888010120
:100CA60000FFFF101C8FC7673B1F1F7AE3812030B0
:100CB60018FFF7545454545454F4F4040400809028
:100CC60090D94D5F772525755D4DC58080800000E4
:100CD6007C7C404040FFFF404040FCFC0000007C24
:100CE6007C404040407F7F40404040FCFC0000008C
:100CF600FEFE02020202020202020202020280E07A
:100D06007F1F0000000000000000000000004040BF
:100D160042CECC808888FFFF88FFFF88888000400D
:100D2600603F3F60505C4F43405F5F40404002E29F
:100D3600E2223E3E809E9E92F2F2929E9E8000436A
:100D4600C3C27E7E474744447F7F4454F7E7080882
:100D560089EBFA98880404FCFC0404FCFC000203FA
:100D660001FFFF87C660381F47C0C07F3F008082F3
:100D76008282FEFE82828282FEFE828282800080E3
:100D8600C0703F0F00000000FFFF000000001010C1
:100D9600F0FF1FF0F040E0F85F475070E0C040629F
:100DA600371D1E372100FEFE424242FEFE0000F8BD
:100DB600F8FFFFF8F890DC5FF7F45CCC84802063E2
:100DC600633F1F3939101515FFFF1515101000FC6C
:100DD600FC04FCFC00FCFC16776584FCFC00000FA0
:100DE6000F040F0F101313121252D2D27E3E404040
:100DF6004444547465474664745444444040000077
:100E060000FFFF494949494949FFFF0000002020EA
:100E160020BEBEAAAAAAAAAAAABEBE2020200080D8
:100E260080AFAFAAAAFFFFAAAAAFAF8080008082D8
:100E36008282FEFE82828282FEFE82828280008022
:100E4600C0703F0F00000000FFFF00000000000020
:100E56001011171610F0F0101417131000008181EE
:100E6600C14161311D0F0F1D316141C1818140407A
:100E76004242424242FEFE4242424242404000005C
:100E860000000040C0FF7F000000000000008090CE
:100E960090D84C5F772424745C4CC480808000001A
:100EA60000FFFF49497F7F4949FFFF00000000809E
:100EB600C0703F0F08E8E8080848683818008080C6
:100EC600C06030180E07070E183060C08080000022
:100ED600FEFE82828282FAFA82828282820280E028
:100EE6007F5F404040407F7F40445C5840400080E8
:100EF600E0F8FF073E3E22E2E2223E3E000001010C
:100F060000FFFF31190D07FFFF070D1931201010E3
:100F160010FFFF9090F8F8898F8E8888F8F80444BF
:100F2600C6FFFFC1703F0F00000000000101000076
:100F3600000000000000002F00000000070007006E
:100F460000147F147F1400242A7F2A12006264088A
:100F56001323003649552250000005030000000007
:100F66001C224100000041221C000014083E081407
:100F76000008083E0808000000A0600000080808F5
:100F86000808000060600000002010080402003E0F
:100F96005149453E0000427F4000004261514946AA
:100FA600002141454B31001814127F10002745459A
:100FB6004539003C4A4949300001710905030036AC
:100FC6004949493600064949291E000036360000BF
:100FD60000005636000000081422410000141414C4
:100FE60014140000412214080002015109060032BF
:100FF6004959513E007C1211127C007F49494936FD
:10100600003E41414122007F4141221C007F494967
:101016004941007F09090901003E4149497A007F9B
:101026000808087F0000417F4100002040413F0141
:10103600007F08142241007F40404040007F020CA0
:10104600027F007F0408107F003E4141413E007F41
:1010560009090906003E4151215E007F091929460A
:101066000046494949310001017F0101003F4040E6
:10107600403F001F2040201F003F4038403F006394
:1010860014081463000708700807006151494543B6
:1010960000007F41410000552A552A550000414174
:1010A6007F00000238444428004040404040000091
:1010B60001020400002054545478007F4844443808
:1010C60000384444442000384444487F003854548F
:1010D600541800087E0901020018A4A4A47C007F0D
:1010E600080404780000447D4000004080847D00B0
:1010F600007F102844000000417F4000007C041857
:101106000478007C0804047800384444443800FC21
:10111600242424180018242418FC007C080404083D
:1011260000485454542000043F444020003C4040B2
:10113600207C001C2040201C003C4030403C0044E9
:1011460028102844001CA0A0A07C004464544C44F1
:101156001414141414140000000000000000000011
:10116600000000000000000000F800000000000081
:1011760000333000000000100C06100C06000000C2
:1011860000000000000040C07840C0784000043FE6
:1011960004043F040400007088FC083000000018B6
:1011A60020FF211E0000F008F000E01800000021DA
:1011B6001C031E211E0000F00888700000001E217E
:1011C60023241927211010160E000000000000002D
:1011D600000000000000000000E01804020000000B
:1011E60000071820400000020418E000000000403C
:1011F600201807000000404080F0804040000202B6
:10120600010F01020200000000F0000000000101D1
:10121600011F01010100000000000000000080B075
:101226007000000000000000000000000000000147
:101236000101010101010000000000000000003072
:10124600300000000000000000008060180400600C
:1012560018060100000000F8F8F838F8F800003F1A
:101266003F3F383F0F00002038F8F8F80000000034
:10127600003F3F3F000000383838B8F8F800003823
:101286003E3F3F3B390000383838F8F8B8000038A0
:101296003839393F1F000080F8F800F8F800000FD1
:1012A6000F0F3E3F3F0000F8F8F8B8B8B800003B13
:1012B6003B39393F1F0000F8F8F8B8B8B800003FCE
:1012C6003F3B393F1F0000383838B8F8F8000000B7
:1012D600203C3F0F000000F8F8D898F8F800003ED0
:1012E6003F393B3F1C0000F0F8D898F8F800003B67
:1012F6003B3B3B3F1F00000000C0C0000000000059
:1013060000303000000000000080000000000000F7
:1013160080600000000080C0E0F0F8FCFEFF0103E2
:10132600070F1F3F7FFF40404040404040000404FD
:10133600040404040400FFFEFCF8F0E0C080FF7F14
:101346003F1F0F070301007048080808F00000005F
:10135600003036010000C030C828E810E000071849
:10136600272423140B000000C038E0000000203CB6
:1013760023020227382008F8888888700000203F5A
:10138600202020110E00C030080808083800071871
:1013960020202010080008F808080810E000203F68
:1013A600202020100F0008F88888E8081000203F49
:1013B60020202320180008F88888E8081000203F1D
:1013C600200003000000C030080808380000071895
:1013D6002020221E020008F808000008F808203F16
:1013E600210101213F20000808F80808000000201C
:1013F600203F2020000000000808F8080800C080F0
:1014060080807F00000008F888C028180800203F68
:1014160020012638200008F8080000000000203FC0
:1014260020202020300008F8F800F8F80800203FB7
:10143600003F003F200008F830C00008F808203FB1
:10144600200007183F00E01008080810E0000F1001
:10145600202020100F0008F808080808F000203F98
:10146600210101010000E01008080810E0000F1833
:10147600242438504F0008F8888888887000203F58
:101486002000030C30200070880808083800003857
:10149600202121221C00180808F80808180000005E
:1014A600203F2000000008F808000008F808001F88
:1014B600202020201F000878880000C83808000077
:1014C60007380E010000F80800F80008F800033C91
:1014D6000700073C03000818688080681808203059
:1014E6002C03032C30200838C800C8380800000038
:1014F600203F2000000010080808C83808002038DF
:10150600262120201800000000FE02020200000032
:10151600007F40404000000C30C00000000000008A
:1015260000010638C00000020202FE000000004072
:1015360040407F0000000000040202020400000098
:101546000000000000000000000000000000808095
:10155600808080808080000202040000000000007D
:10156600000000000000000080808080000000195C
:10157600242222223F2008F8008080000000003F3D
:10158600112020110E000000008080800000000E57
:10159600112020201100000000808088F800000E35
:1015A600112020103F200000808080800000001F56
:1015B600222222221300008080F0888888180020CA
:1015C600203F202000000000808080808000006B8B
:1015D60094949493600008F8008080800000203F77
:1015E600210000203F200080989800000000002085
:1015F600203F20200000000000809898000000C0D6
:101606008080807F000008F8000080808000203FF6
:1016160024022D302000000808F8000000000020F9
:10162600203F202000008080808080808000203F36
:1016360020003F20003F8080008080800000203F07
:10164600210000203F200000808080800000001FD5
:10165600202020201F00808000808000000080FF66
:10166600A12020110E000000008080808000000E66
:10167600112020A0FF8080808000808080002020B4
:101686003F21200001000000808080808000003320
:10169600242424241900008080E0808000000000BB
:1016A600001F202000008080000000808000001FB6
:1016B600202020103F208080800000808080000154
:1016C6000E300806010080800080008080800F3088
:1016D6000C030C300F00008080008080800000200A
:1016E600312E0E3120008080800000808080808135
:1016F6008E701806010000808080808080000021A6
:10170600302C2221300000000000807C0202000004
:101716000000003F404000000000FF000000000005
:101726000000FF0000000002027C80000000004074
:10173600403F000000000006010102020404000010
:1017460000000000000000F0F0F0F0F0F8F8F8F803
:10175600F8F8F8F8F80000FFFFFFFFFFFF070703A0
:10176600FFFFFFFFFF0000FFFFFFFFFFFF8080FE80
:10177600FFFFFFFFFF00003F3F3F3F3F3F3F3F3F31
:101786001F1F0F070100000080F0F0F0F0F0F0F0EE
:10179600F8F800000000000007070707FFFFFFFF3B
:1017A600FFFF00000000000000000000FFFFFFFF39
:1017B600FFFF000000000000000000003F3F3F3F29
:1017C6003F1F0000000000F0F0F0F0F0F0F0F0F045
:1017D600F8F8F8F8F8000007070707070787C7FFB4
:1017E600FFFFFFFFFF0000C0E0F0F8FEFFFFFFBFB6
:1017F6009F8F87838000003F3F3F3F3F3F3F3F1F14
:101806001F1F1F1F1F0000F0F0F0F0F0F0F8F8F8AF
:10181600F8F8F8F8E000000707070707C7FFFFFF1B
:10182600FFFFDFCF830000C080808081838387E74E
:10183600FFFFFFFFFF00003F3F3F3F3F1F1F1F1FF0
:101846001F1F0F0703000000F0F0F0F0F00000F893
:10185600F8F8F8F8000000F8FFFFFFFF0F0000FFA0
:10186600FFFFFFFF0000F0FFFFFFFFFFFCFCFCFF98
:10187600FFFFFFFFFC0001010101010101013F3FE4
:101886003F3F3F3F00000000F0F0F0F0F0F0F0F0D6
:10189600F0F0F0F8F80000FFFFFFFFFFFFE7E7E7D3
:1018A600E3E3E3E3E300008F8F8F8F8F87878787DC
:1018B600FFFFFFFFFF00003F3F3F3F3F1F1F1F1F70
:1018C6001F1F0F07030000F0F0F0F0F0F0F0F0F04B
:1018D600F0F8F8F8F80000FFFFFFFFFFFFE7E7E783
:1018E600E7E7E7E7E70000FFFFFFFFFF8F8F8F8F38
:1018F600FFFFFFFFFF00003F3F3F3F3F3F1F1F1F10
:101906001F1F1F07030000F0F0F0F0F0F0F0F0F0FA
:10191600F8F8F8F8F8000007070707070707C7FFF2
:10192600FFFFFFFF0F00000000000080F0FEFFFF3A
:10193600FF7F07000000000000203C3F3F3F3F3F85
:1019460003000000000000F0F0F0F0F0F0F0F0F01E
:10195600F0F8F8F8F800003FFFFFFFFFE3E1E1E1F0
:10196600FFFFFFFF1F0000FEFFFFFFFF878787CFF8
:10197600FFFFFFFFFF00003F3F3F3F3F1F1F1F1FAF
:101986001F1F1F07030000F0F0F0F0F0F0F0F0F07A
:10199600F8F8F8F8F80000FFFFFFFFFF8787C7C7D2
:1019A600FFFFFFFFFF00009F9F9F9F9F9F9F9F9F9F
:1019B600FFFFFFFFFF00003F3F3F3F3F3F1F1F1F4F
:1019C6001F1F0F070300FC0201C181C1F1FF7DF952
:1019D600E1F1E18102FC3F408EBFBF8781838080B9
:1019E60083BF9F8F403F000000C000C0F8FCFEC0D0
:1019F600E0F0E00000000000021F3F3F7F7F7F7F96
:101A06003F3F1F070000000080C080F008041C2034
:101A1600601060C0000000000F18212340404040C5
:101A26006020180F0000000080FE03FD017E80008C
:101A3600021212121200003E410C9E9F9E8C4033F1
:101A46000C4049494900000C12120CC0F0F87838D5
:101A560038383878700000000000001F3F7F78702B
:101A6600707070783800FC0201E1F9FD0D1D1D1D36
:101A76000101010102FC3F408E8F8F9F9E9FBFBFD9
:101A8600BFBF9F8E403FFC0281818181810101C5DC
:101A9600E5B59D8D02FC3F40B1B9ADA7A38080811D
:101AA60081818181403FFFFF8181818181818181A7
:101AB6008181818181818181818181818181818110
:101AC6008181818181818181818181818181818100
:101AD600818181818181818181818181FFFF607026
:101AE600707070F8FCFE8E0E8EDEFCF86000707072
:101AF60070707070707070707070707070600000D0
:101B060000000000000000008080808080808183CB
:101B160083838383818180800080E0F0F0383838C9
:101B2600F0F0E0808080808000000000000000006F
:101B3600000001010101010181C1C1C1C1C1818151
:101B460001010001070F0E1C1C1C0F0F07030101EA
:101B5600010100000000000000000000060E0E0E4D
:101B66000E1F3F7F7171717B3F3F0E000E0E0E0EF2
:101B76000E0E0E0E0E0E0E0E0E0E0E0400000000C1
:101B8600000000000000E0F8FC1E0E07070707072C
:101B96000707070707070787C7C7C7C7C7C787074F
:101BA600070E1EFCF8E00000000000000000000028
:101BB600FFFFFF0000000000000000000000000022
:101BC60000000101010101037FFF7C0000FFFFFF10
:101BD60000000000000000000000FFFFFF00000002
:101BE600FCFEFC8000000000000000000000000079
:101BF60000000000000000FFFFFF000000000000E2
:101C060000000000071F3F7870E0E0E1E3E7E7E748
:101C1600E7E7E7E2E0E0E0E0E0E0E0E0E0E0E07017
:101C2600783F1F0F000000000000000000000000C9
:101C360080C0F07060E0C0C0E07F3F030303030391
:101C4600033F7FE0C0C0E06070F0C080000000008D
:101C56000000000000000000181E3F73E0C00000F6
:101C66000000C0F038180C0C0C0C1838F0C000003E
:101C76000000C0E0733F1E180000000000000000D6
:101C860000001878FCCE070700000000030F1C18A0
:101C960030303030181C0F07000000000707CEFC5C
:101CA60078100000000000000000000000000103A2
:101CB6000F0E0607030307FEFCC0C0C0C0C0C0FC71
:101CC600FE07030306060E0F0301000000000000D6
:101CD600000000000000000080C0E070381C0C0E00
:101CE60006060703039F9F03030706060E0C1C3810
:101CF60070E0C0800000000000000000000000004E
:101D0600F0FE9F838000000000000000000000FF3E
:101D1600FF0000000000000000000080839FFEF02E
:101D2600000000000000000000000F7FF1C101006C
:101D36000000000000000000000303060E0C1C1843
:101D4600100000000001C1F17F0F0000000000003C
:101D56000000000000000103070E1C1830706060D0
:101D6600E0C0C0F8F8C0C0E060607030381C0E07F4
:101D76000301000000000000000000000000000059
:101D860000000060E0C080000000808080DEDE0091
:101D960000F0FC1C0E060E1CFCF00000000000000B
:101DA600000000000000000000808080800080F1BC
:101DB600FD1E070303010101010000FFFF00F8F803
:101DC600F800FFFF00000000000000000000000017
:101DD6000000000101010100018F3F78E0C0C080D2
:101DE6000000E0F83C0FC7E0FFFFFFE0870F3CF87C
:101DF600E0000000000000000000000000000000FD
:101E0600000607030100000001010000030F1E3851
:101E160031736367677331381E0F030000000000DB
:101E26000000000000000000000000C0E060303844
:101E3600181C0C0C0C1F1F0C0C0C1C18383060E006
:101E4600C0000000000000000000000000000000CC
:101E56008080F8FE8F030000F0180C02030181C198
:101E6600C1810103060418F00000038FFEF880808C
:101E76000000000000000000000001011F7FE1C01B
:101E860000000F182040C0808183838180C04020DD
:101E9600180F0000C0F17F1F0101000000000000C4
:101EA60000000000000000000003070E0C1C18389C
:101EB600303030F8F830303038181C0C0E0703017B
:101EC600000000000000000000000000000000000C
:101ED60000C0E0F078381C1E0E0E06070000000059
:101EE60007060E0E1E1C3C78F0E0C08000000000C5
:101EF6000000000000000000303E3F1F030000000D
:101F06000000000080C0E0F0F8BC86808000000081
:101F1600000000030F3F3E300000000000000000FC
:101F260000000C7CFCF0C000000000000000006017
:101F3600381F0F07030100000000000000C0F0FC7E
:101F46007C0C0000000000000000000000000103FF
:101F5600070F1E1C3878707060E000000000E0601B
:101F6600707078383C1E0F07030100000000000067
:101F760000000000000000E0F81C0C06060606063D
:101F8600060C1CF8F00000008C8C8C8C8C8C8C8CD5
:101F96008C8C8C8C0000000000000000000000000B
:101FA60000071F387060606060606070381F0F0047
:101FB60000003131313131313131313131310000CF
:101FC6000000000000000000000000E0F81C0C0605
:101FD60006060606060E1CF8F00000E0F81C0C06C5
:101FE60006060606060E1CF8E000000000000000CB
:101FF6000000000000071F3870606060606060705D
:10200600381F0F00000F1F387060606060606070DE
:10201600381F0F0000000000000000000000000054
:102026000080C0E0F0F8F8FCFCFEFEFE7E3E3E7E40
:10203600FEFEFEFCFCF8F8F0E0C0800000000000A8
:10204600000000000000000000F8FEFFFFFFFFFF99
:10205600FFFFFFFF0F0F0C0C0C0CFFFFFFFFFFFF36
:10206600FFFFFFFFFFFEF800000000000000000079
:102076000000001F7FFFFFFFFFFFFFFFFFFF0F0FA7
:10208600000000000F0FFFFFFFFFFFFFFFFFFF7FB6
:102096001F0000000000000000000000000000011A
:1020A60003070F1F1F3F3F7F7F7F7F7F7F7F7F7FDE
:1020B6007F3F3F1F1F0F07030100000000000000C5
:1020C6000000000000000000386C446C38000080FE
:1020D600C0C0C0C0C0C0C0C0C0C0800000000000FA
:1020E6000000000000FCFFFFFFFF070303030303DC
:1020F60007070707000000000000000000070F1F89
:102106003F3F3E3C3C3C3C3C3E3E1E0E0000000039
:1021160000000000000000000000000000000000B9
:1021260000000000000000000000000000000000A9
:102136000000000000000000000000000000000099
:102146000000000000000000000000000000000089
:102156000000000000000080C0F0F8783C1E1E0E53
:102166000E8FCFCFCECE1E1E3C78F8F0C08038FF43
:10217600FFFF0100000000383EFFFF7F3B08000024
:10218600000001FFFFFF0003071F3F3C78F0F0E06F
:10219600E0E3E1E0E0E0E0F0787C3E1F0F030000C2
:1021A600107CC4C46C7C10000000FC000000000021
:1021B600FC0000000000000000000000000000001D
:1021C6000000000000FF0000001C3E73E3321E000A
:1021D6000000FF00000000000000000000000000FA
:1021E600000000000000003F0000000000003F006B
:1021F60000003E3663233E18000000000000000089
:1022060000000000F8FC0E070703030303030303A3
:10221600036363636363E3C3070EFCF80000000017
:10222600000000000000FFFF000000E0E0000000EA
:1022360000000000000000000F070000FFFF000084
:1022460000000000000000001F3F70E0C0C7CFCCB8
:10225600CCCCCCCCC0C0C0C0C0C0C0C0E0703F1F9A
:102266000000000000000000000000000080C0C068
:10227600F0F8F8FCFCF8F0F8FCF8F8F0C080800004
:102286000000000000000000000000000000E7FF62
:10229600FFFFFFC70100000000000001C7FFFFFFAE
:1022A600FFCF00000000000000000000000000005A
:1022B600010707071F3F3F7E7E3E3E7E7E7F3F3FF4
:1022C60007070701000000000000000000000000F2
:1022D600000000C0E07018180C0C0C84840C0C0C68
:1022E600181830E0C00000000000000000000000E8
:1022F60000000000FFE7000000000000001F3F6034
:10230600C08000000000E7FF0000000000000000A1
:102316000000000000000003070C181830303020C1
:102326002030303018180C070301000000000000B0
:102336000000000000000000000000FC0203F9039A
:1023460002FC00000006C6C6C6C6C6C6C600000019
:10235600000000000000000000C070180CC7E0E09C
:10236600FFE0E0C70C18F0C0000018181818180095
:102376000000000000000000000000071C30604361
:10238600C78F8F8FC74360301C07606063636363CA
:1023960063000000000000000000000000000000D4
:1023A60000C02020109088CFCF8890102020C00039
:1023B60000000000000000000000000000001818E7
:1023C600183CC300187EFFFFFFFFFFFFFFFF7E18CC
:1023D60000C33C18181800000000000000000000B0
:1023E6000000000000030404080911F3F3110908B2
:1023F60004040300000000000000000000000000CC
:10240600000000C0E070381C0C06060703000083BD
:102416000706060E1C3870E0C00000000000000031
:102426000000000066E7C3000000000000088CFE04
:102436007F311000000000000083C7C600000000C6
:102446000000000000000003070E1C38706060E00A
:10245600C10000C0E0606070381C0E070300000079
:102466000000000000000000F0DC06030301030387
:10247600020EF80000F80C060303010303069CF89D
:10248600000000000000000000000081C366242454
:1024960024242424E70000E724242424242466C2D8
:1024A6008300000000000000000000001F3B60C029
:1024B600C08080C040301F00001F3040C0C080C0B8
:1024C600C0603B1F0000000000000000000000800C
:1024D600E0F0F8F8FCFEFEFE1E1F1EFEFEFEFCFCF3
:1024E600F8F0E0C00000000000000000000000005E
:1024F6007EFFFFFFFFFFFFFFFF710101037FFFFF6D
:10250600FFFFFFFFFFFFFF180000000000000000B4
:1025160000000003070F1F3F7F7F7FFCFCFCFCFCD5
:10252600FF7F7F3F1F1F0703000000000000000021
:1025360000000000FFFF83838387FEFC0000FFFF8F
:10254600636363E3FFBE00FFFF007FFFC08080C0C0
:10255600FF7F0000FFFFB3B3B3B3B300FFFF6363B6
:1025660063E3FFBE010101F1F1F1F1E1C080010178
:10257600000000000101F0F1F1F00000010101C1CD
:10258600E0F0F0F0F1F1F1F1F1F1F1F0F1F1F0F04C
:10259600E0C00101000000FFFFFFFF071F3F7FFEB5
:1025A600F8F0E0C08000FFFFFFFF0000000000FF22
:1025B600FFFFFF0000000000000000000000FFFF1A
:1025C600FFFF0000000000FFFFFFFF00000000000B
:1025D60001030F1F3F7EFFFFFFFF00000000003FCB
:1025E6007FFFFFF0F0F0F0F0F0F0F0F0F0F0FFFF1A
:1025F6007F3F0000FCFC8C8C8C8CFCF800F8FC0CFB
:102606000C0C0CFCF800FCFC000000FCFC0000FCC0
:10261600FC0000FCFCCCCCCCCCCC00FCFC8C8C8C28
:102626008CFCF800070701010101010000070706FD
:102636000606060707000103070607030307070345
:102646000100000707060606060600070701010146
:102656000307060000FFFFFF000000000000000067
:10266600000000FEFFFF070707070707FFFFFE0042
:10267600000000FFFFFF000000FFFFFF000000005A
:10268600FFFFFF00001F1F1F1C1C1C1C1C1C1C1C0A
:102696000000000F1F1F1C1C1C1C1C1C1F1F0F00F2
:1026A60000000003070F1E1C1E0F070F1E1C1C1E1A
:0426B6000F07010009
:108D2D001287A890038BE0FBA3E0FAA3E0F9EF0212
:028D3D002D7E89
:01001A0022C3
:078CB500C295128CBCD295A0
:0E8CBC007F027E00EF1FAC0670011E4C70F6AA
:018CCA002287
:0F8D5F00D294D295128CBCC294128CBCC29522B5
:0A8DE100C294128CB5D294028CBC2F
:108C5000AD07C295128CBCED6004C2948002D29420
:0A8C6000D295128CBCC295028CBCA8
:108CCB00128CB5309406C295E4FEFF22C295128C2D
:068CDB00BC7E007F0122B7
:048A2F00E025E0FF5F
:028A3300AD078D
:108A35007B08AF031BEF6015ED30E704D29480028D
:108A4500C294ED25E0FD128CB7C29580E5028CCB72
:0287A800AD071B
:1087AA00E4FBC295128CBCD294E4FAEAC39408742E
:1087BA008094805011128CBC128CB5EB25E0FB30F2
:1087CA0094010B0A80E5C295128CBCAF05128C503D
:0287DA00AF03EB
:0187DC00227A
:108BE000900125EFF0AA03A905128D5F128A2FAF1D
:0C8BF00001128A33AF02128A33028DE1B9
:098616009003C3EDF0AA07A903CB
:10861F00128D5FEA25E0FF128A33E0FF128A33E9F9
:10862F0064017003128DE1128D5FAF02EF25E044FC
:10863F0001FF128A33E4FF1287A8AD07128DE1AF55
:01864F000525
:018650002207
:10802F00900389EFF0A3EDF0A3EBF0A3EAF0A3E93F
:10803F00F0128D5F900389128A2FA3E0FF128A330B
:10804F0090038FE064017003128DE1128D5F900336
:10805F0089E025E04401FF128A3390038EE014F08B
:10806F0060117F01128D2D90038CE475F001122E9B
:0B807F002D80E7E4FF128D2D028DE143
:068E5500250000000000F2
:10415A00A3E0FEA3E024E4F582741A3EF583E49317
:10416A00FF7E007D017C0022900334E0FCA3E0FD89
:10417A00A3E0FEA3E02401900334FFE43EFEE43D05
:10418A00FDE43CFC022FA8900332E0C39410748033
:10419A009480229000EFE09000F275F0A8A4FFE569
:1041AA00F0F0A3EFF02290011FE075F010A42FF5B4
:1041BA0082E435F0F583E58222FF3395E0FEC3748D
:1041CA00409FFFE49EFEE0C39FEE6480F8748098EF
:1041DA0022A3A3E0FEA3E0900347FFE0FBA3E0FADB
:1041EA00A3E0F922F090034DE0FCA3E0FDA3E0FE7A
:1041FA00A3E0229000EDE0FF3395E0FE22C3900099
:10420A00F6E09000F59404E06480948022900334F0
:10421A00E47F01FEFDFCE0F8A3E0F9A3E0FAA3E0E5
:10422A00FBC3022F84EFF0A3EDF0A3EBF0A3EAF0B7
:10423A00A3E9F022FE9000F3E02FF09000F2E03EB6
:10424A00F09000EEE004F09000F6E004F022900115
:10425A0020E0FFC394087480948022900334A3A3BF
:10426A00E0FEA3E02474F582740122C3900331E0D6
:10427A009003309402E06480948022E0FFE4FCFD25
:10428A00FE900112122FA89001167401F0A3740C6B
:10429A00F022C39000F3E09000F29403E06480946B
:1042AA0080227D017C00E4FFFE22C390037AE09025
:1042BA0003799404E06480948022FE9000F1E02F58
:1042CA00F09000F0E03EF09000EDE004F09000F392
:1042DA00E004F022FE900378E02FF0900377E03EAE
:1042EA00F0900374E004F090037AE004F022900165
:1042FA001FE075F006A42434F582E5F0340FF58347
:10430A00E5822FF582E43583229000F1E0C3942AF6
:10431A007480948022E0F582758300022D51EE2488
:10432A0001FFE433FE8F828E83022D519000EEE06E
:10433A00FDFF3395E0FE2290032CE004F090033158
:10434A00E004F022E0FD3395E0FCC364809480220F
:10435A007C00AF03AE02122DA27C007D0A122DA2B0
:10436A00A3EDF022FFE43EFEE43DFDE43CFC022F17
:10437A00A8E09000C693FFD3947F7480948022EFC4
:10438A00F0FCA3EDF0E4A3F02275F0A8A4C39DFE0F
:10439A00E5F09CF0A3CEF022900333E004F0E49021
:1043AA000330F0A3F022A3E0FEA3E024A4F5827474
:1043BA002122C3EF9416EE6480948022F0E4A3F0E5
:1043CA00900345E0FFA3E0FD7B017A03794A22903E
:1043DA0000F2E004F0229000F1E004F0229000F5EF
:1043EA00E004F022FEC39000F6E09FEE6480F890AD
:1043FA0000F5E064809822900338E004F022EF246C
:10440A00B0FFEE33FEE4FDFC22EE75F010A4FFAE21
:10441A00F0E4FCFD022FA8E0C3948074809480220B
:10442A00245CF582E5833411222464F582E5833421
:10443A001122F583E493F4FFE4F4FE7D017C00226B
:10444A009000EEE075F066A422EFF0A3EDF0A3EB86
:10445A00F022900120E0FFC394067480948022E445
:10446A00F0EF3395E0FEC36480948022C3E49FFF9B
:10447A00E49E22900332E004F022900330E004F03C
:10448A0022900119E0FEA3E0FF900113E022E582E9
:10449A002FF582E5833EF583E49322A4FF90011071
:1044AA00E02FFFA3E0FD229000F0E02430FF22A3DA
:1044BA00A3A3E0F5828E83022D51E4F0A3E0240247
:1044CA00F022E4FDFC7F10FE22E4A3F0A3F0A32275
:1044DA009000F0E004F0229000EFE004F022900057
:1044EA00F2E004F022900377E004F022900376E0F1
:1044FA0004F022900379E004F022E0FCA3E0FDEC52
:10450A000229D6F08F828E83A3022D51F0900110DA
:06451A00E0FFA3E0FD221A
:098E0600AB07E4FD7F3C028BE0A8
:098E0F00AB077D407F3C028BE0C3
:108BFC00900123EEF0A3EFF0ED4C9001236006A35F
:0C8C0C00E0FF028E0FA3E0FF128E062294
:0581E4009003BAEFF06A
:1081E900E4A3F09003BBE0FF7E0012425D503B1216
:1081F9004408128BFCE4FDFCFFFE128BFC1244CCFC
:10820900128BFCE49003BCF09003BC124421501281
:108219009003BAE012416A128BFC9003BCE004F0AF
:0A82290080E69003BBE004F080B98A
:018233002228
:10887800900122EFF0ED24B0FFE433FE12889F54FC
:10888800F0C4540F7E004410FF12889F540FFF7EDF
:1088980000E4FDFC028BFCE4FDFC128BFC90012241
:0288A800E022CC
:1083AE00E49000E9F09000E9E0FF7E0012425D509B
:1083BE0037124408128BFCE4FDFCFFFE128BFC12FC
:1083CE0044CC128BFCE49000EAF09000EA124421B7
:1083DE00500E1242AC128BFC9000EAE004F080EAE0
:0883EE009000E9E004F080BDFD
:0183F6002264
:10828300E49003C1F09003C1E0FF7E0012425D5011
:108293003C124408128BFCE4FDFCFFFE128BFC1223
:1082A30044CC128BFCE49003C2F09003C21244212D
:1082B30050137D017C007F017E00128BFC9003C272
:0D82C300E004F080E59003C1E004F080B815
:0182D000228B
:0B69C90090011CEDF090011BEFF0FDB1
:1069D400E490011FF0A3F0EB24E090011FF0ED120E
:1069E40043814007E490011B1244C5900000E0700D
:1069F4004790011EE06410702C126A9512425850A0
:106A04000E1241B012442A124166126AB880ED1285
:106A14006AA612425850621241B0124433124166BF
:106A2400126AB880ED126A9512445C504C1242F816
:106A3400124166126AD380F090011EE06410702641
:106A4400126AC2124258500B1241B012442A126AFE
:106A54007E80F0126AA6124258501E1241B01244AF
:106A640033126A7E80F0126AC212445C500B1242E6
:096A7400F812443C126AD380F0D0
:106A7D0022F583E493F4FFE4F4FE7D017C00128B98
:106A8D00FC900120E004F02290011BE0FFA3E0FD4B
:106A9D00128878E4900120F02290011BE0FFA3E022
:106AAD0004FD128878E4900120F022128BFC9001F5
:106ABD0020E004F02290011BE0FFA3E0FD12887896
:106ACD00E4900120F022128BFC900120E004F022D2
:0675DB009000E912422FAE
:1075E1001244D3F09000EB1241E59000F012431FDA
:1075F100607024E09000EEF09000E9E0D3947A749A
:107601008094804006E4F0A3E004F09000E9E0FFFC
:10761100A3E01276649000EF12425B50119000EEED
:107621001241B312442A12416612766E80E790002D
:10763100E9E0FFA3E0041276649000EF12425B5090
:10764100119000EE1241B312443312416612766E6C
:1076510080E79000E9E02408F09000F0E004F002F7
:0276610075E5CD
:1076630022FD128878E49000EFF022128BFC900048
:05767300EFE004F0222D
:0885530090011BEFF0A3EDF015
:10855B00A3122FB40000000190011CE0FF14F0EFF8
:10856B006020A3E0F8A3E0F9A3E0FAA3E0FB9001FD
:10857B001BE0FFE4FCFDFE122E5990011D122FA8EB
:09858B0080D690011D1241F2FF9F
:0185940022C4
:0873EB00900110EFF0A3EDF09A
:1073F300E490011AF0900118F0900116E0FF90015B
:1074030018E0FEC39F4003027492C3EF9E14FD7FF6
:107413000A128553A804A905AA06AB079001121204
:1074230041F2FF122EE4E47B0AFAF9F8122EE490FB
:107433000119EBF0A3E0702E900116E014FF900108
:1074430018E0FEC39F501FA3E07015900117E0FCE6
:10745300C3138EF01244A590011EECF07B20802311
:1074630090011A7401F0900117E0FEC313FFA3E02B
:10747300FDEF8DF01244A5900119E02430FB90013B
:0F7483001EEEF01269C9900118E004F00273FCCC
:0174920022D7
:06808A0090011012422FCC
:10809000E4900116F09001121241E590011612438E
:1080A0001FFB6040900110E0FFA3E0FD900115E090
:1080B00090011EF01269C9900115E0641090011042
:1080C0007006E02408F08004E02406F0900110E03F
:1080D000D394787480948040031244C4900116E0D5
:0480E00004F080B177
:0180E4002279
:0A78300090035DEFF090035FEBF0B2
:10783A00E4900364F0A3F0900360E0FF540770083B
:10784A00EF131313541F800A900360E013131354A9
:10785A001F04900367F0900367EDF0900360E0FF68
:10786A00900367E0FDC39F504990035DE0FF1288D3
:10787A007890035DE0900366F090035FE0FF900369
:10788A0066E0C39F50249003611241E5A3E475F0BA
:10789A0001122E4385F082F583122D5112416A128C
:1078AA008BFC900366E004F080CF900367E004F05D
:0278BA0080A9A3
:0178BC0022A9
:107272007FAE1273087F40FE128BFC7FB01272F455
:107282007F81FE128BFCE4FDFC7FFFFE128BFC7FF4
:10729200A01272F47FA6FE128BFC7FA81273087FE5
:1072A2001FFE128BFC7FD3127313FFFE128BFC7F27
:1072B200D51273137FF0FE128BFC7FD912731E7FDF
:1072C20022FE128BFC7FDA12731E7F02FE128BFCEF
:1072D2007FDB1273297F49FE128BFC7F8D1273298B
:1072E2007F14FE128BFCE4FDFC7FAFFE128BFC02CE
:1072F20083AEE4FDFCFE128BFCE4FDFC7FC0FE12BB
:107302008BFCE4FDFC22E4FDFCFE128BFCE4FDFCA4
:1073120022E4FDFCFE128BFCE4FDFC22E4FDFCFEFB
:10732200128BFCE4FDFC22E4FDFCFE128BFCE4FD6E
:02733200FC223B
:037BD7009000F427
:107BDA00124389EB75F040A4FFA31241A9AF041226
:107BEA008878E49000F9F0A3F09000F4E0FFA3E0B5
:107BFA00FD128878E49000F6F09000F61241945055
:107C0A0027A3E0FEA3E0244CF58274171241651203
:107C1A008BFC9000F8E004F070069000F7E004F0A6
:107C2A009000F6E004F080D19000F5E004F09000B6
:107C3A00FAE004F070069000F9E004F0C39000FA4C
:097C4A00E09000F912420F40A085
:017C5300220E
:037A56009000F4A9
:107A5900124389EB75F048A4FFA31241A9AF0412A0
:107A69008878E49000F9F0A3F09000F4E0FFA3E037
:107A7900FD128878E49000F6F09000F6E0C39418BF
:107A8900748094805027A3E0FEA3E024CCF582748F
:107A990020124165128BFC9000F8E004F07006900A
:107AA90000F7E004F09000F6E004F080CC9000F5D7
:107AB900E004F09000FAE004F070069000F9E004A8
:0E7AC900F0C39000FAE09000F91242A4409B36
:017AD700228C
:037AD8009000F427
:107ADB00124389EB75F0C0A4FFA31241A9AF0412A6
:107AEB008878E49000F9F0A3F09000F4E0FFA3E0B5
:107AFB00FD128878E49000F6F09000F6E0C3943025
:107B0B00748094805027A3E0FEA3E0243AF582749E
:107B1B0025124165128BFC9000F8E004F070069082
:107B2B0000F7E004F09000F6E004F080CC9000F554
:107B3B00E004F09000FAE004F070069000F9E00425
:0E7B4B00F0C39000FAE09000F91242BC409B9B
:017B59002209
:058595009003B0EFF0BF
:10859A0012438CA3F09003B0E0FFA3E0FD128878A9
:1085AA001242AC128BFC9003B1E004F09003B3E0EA
:1085BA0004F070069003B2E004F0C39003B3E094B1
:0B85CA00039003B2E06480948040CA7C
:0185D5002283
:05770F009003A2EDF063
:107714001244D3F0EF12434F50030277A2D3ED94F7
:1077240000EC648094804076ED9436EC6480948020
:10773400506C9003A2E0FD128878E49003A6F0A3B5
:10774400F09003A2E0FDFF128878E49003A3F09088
:1077540003A3E0C3940A74809480501C1242AC12B8
:107764008BFC9003A5E004F070069003A4E004F001
:107774009003A3E004F080D79003A2E004F0900308
:10778400A7E004F070069003A6E004F0C39003A7FA
:0E779400E094039003A6E06480948040A42259
:0177A20022C4
:0D5D01009000EDEDF0A3EBF09000ECEFF062
:105D0E009000EF1244694052EF941EEE648094802E
:105D1E00504812444AFF9000F01241A9125E4D9075
:105D2E0000F2F0A3F0125E4D9000EFF09000EFE065
:105D3E00C394227480948050131243B012416512A2
:105D4E005E5A70031244DA1244E180E01242D170BE
:105D5E00031244E812429C40CC229000EC12434EB7
:105D6E00506812444AC39DFEE5F09C9000F0F0A3EB
:105D7E00CEF09000EDE0FDE4FF125E649000EDE0E9
:105D8E00FDE4FF128878E49000EFF09000EC1242F0
:105D9E0000EF2422FFE43EFE9000EF1241D050139C
:105DAE001243B0124165125E5A70031244DA124465
:105DBE00E180D89000EC1242001244761242C47078
:105DCE00031244E812429C40B3229000EC12433975
:105DDE00C3EF941EEE64809480406312444AFF9099
:105DEE0000F01241A9AF059000EDE0FD125E649047
:105DFE0000ECE0FFA3E0FD128878E49000EFF09055
:105E0E0000ECE09000EF1241C350191243B0124162
:105E1E0065128BFC9000F1E004F070031244DA126C
:105E2E0044E180DB9000EC124200EF24E2FFEE34FE
:0E5E3E00FF1242C470031244E812429C40B1AD
:105E4C00229000ECE0FFA3E0FD128878E422128B94
:105E5C00FC9000F1E004F022128878E49000F2F05B
:035E6C00A3F0227E
:0D612000900374EDF0A3EBF0900373EFF02B
:10612D0090037612446940451243BD50409003756B
:10613D00E09003771241A4126252900379F0A3F01C
:10614D00126252900376F09003761243165010129D
:10615D00415A12625F70031244EF1244F680E81246
:10616D0042EB70031244FD1242B440D422900373EB
:10617D0012434E505F900375E09003771243939056
:10618D000374E0FDE4FF126269900374E0FDE4FF27
:10619D00128878E4900376F0900373124200EF2496
:1061AD002AFFE43EFE9003761241D0501012415A60
:1061BD0012625F70031244EF1244F680DB9003739A
:1061CD001242001244761242DE70031244FD124256
:1061DD00B440B6229003731243391243BC4065900C
:1061ED000375E075F0A8A4FF9003771241A9AF05E0
:1061FD00900374E0FD126269900373E0FFA3E0FD6C
:10620D00128878E4900376F0900373E09003761291
:10621D0041C3501612415A128BFC900378E004F0E2
:10622D0070031244EF1244F680DE900373124200A5
:10623D00EF24EAFFEE34FF1242DE70031244FD122A
:04624D0042B440B463
:1062510022900373E0FFA3E0FD128878E422128B01
:10626100FC900378E004F022128878E4900379F03E
:03627100A3F02275
:0D79D0009000F2EBF09000F0EFF0A3EDF06E
:1079DD00E49000F3F09000F6F0128878E49000F453
:1079ED00F0A3F09000F0E0FFA3E0FD128878E490A2
:1079FD0000F3F09000F3124194502C9000F6E0FF4C
:107A0D009000F2E075F020A424CCF582E5F0341955
:107A1D00124308124166128BFC9000F6E004F090C0
:107A2D0000F3E004F080CC9000F1E004F09000F55C
:107A3D00E004F070069000F4E004F0C39000F5E06F
:087A4D009000F412427D409B01
:017A5500220E
:0970C1009000F0EFF0AB05AA0409
:1070CA007D6412435A7D0A12435AAE02AF03124339
:1070DA006390009B124504C004C005C006C0079017
:1070EA000314124504A804A905AA06AB07D007D0C1
:1070FA0006D005D0041229585043127176401A90CE
:10710A0000A7E07004A3E06401700E9000F0E0FFB5
:10711A007B01E4FD127AD880489000F0E0A3127156
:10712A008D24109000F212718D2420FF9000F3E05C
:10713A00FBE4FD127BD71244B1E4FB802A9000F0F5
:10714A00E0FFE4FBFD127AD812717640149000A792
:10715A00E07004A3E0640170081244B17B02E48089
:0B716A00061244B17B01E4FD127A56CE
:1071750022125B67122A0FD39000A6E09F7480F855
:107185009000A5E064809822FFE0FBE4FD127BD728
:057195009000F0E02273
:108A9B00C007C005AE02AF03E4FCFD900112122F1C
:108AAB00A89001167403F0A37410F0D005D0070240
:028ABB0073EB5B
:066DED009000F012445377
:106DF300E0FE75F0648475F00A849000F4E5F0F029
:106E0300EE75F00A8475F00A84A3E5F0F0EB75F0F3
:106E13000A84A3E5F0F0128878E49000F3F0900080
:106E2300F3E0FFC39438748094805048C3EF940315
:106E3300748094804029D3EF943574809480501FDC
:106E43009000F2E0C313FFA3E024FDFEEFD39E7D89
:106E5300017C0040047FBD80027F817E00800A9018
:106E630000F3E0901AAC124169128BFC9000F3E03E
:106E730004F080AA9000F0E02420FFC007A3E014F0
:106E8300FDC0059000F4124285D005D007126EDDD7
:106E93002426FFC007A3E014FDC0059000F51242AD
:106EA30085D005D007126EDD242CFFC007A3E014A4
:106EB300FDC0059000F6124285D005D0071273EB92
:106EC3009000F0E02432FFA3E014FD7BFF7A8E797B
:0A6ED300559001157408F002808A42
:086EDD001273EB9000F0E022BB
:065E6F0090036812422FAF
:105E75001244D3122FB40000000190036A1241E5C9
:105E850090036E12431F7003025F9FE490036DF051
:105E950090036F122FB40000000190036D12437B35
:105EA500403490036A1241E590036EE0FE124320F0
:105EB500FDEF6D7018124328FF90036DE0FE900012
:105EC500C793B5070890036F124413800990036DBB
:105ED500E02402F080C4900368E0D3947A7480943F
:105EE5008040031244C4125FB290036F12421A60DD
:105EF5005F125FB2E490036DF090036D1241945010
:105F05002290036F124268124165128BFC90036F59
:105F15001241F2240190036F12418490036DE00455
:105F2500F080D6125FA090036D124194505B9003F0
:105F35006F124268124165128BFC90036F1241F299
:105F4500240190036F12436E90036DE004F080D638
:105F550090036EE004F0900368E0FFA3E0FD128873
:105F650078E490036DF090036D124194500812424D
:105F7500AC125FBE80F0125FA090036D1241945089
:105F8500081242AC125FBE80F0900368E02410F066
:0A5F950090036EE02402F0025E7F2C
:105F9F0022900368E0FFA3E004FD128878E49003E9
:105FAF006DF022900368E0FFA3E0FD1288782212C3
:095FBF008BFC90036DE004F0225C
:067F030090034512422F1D
:107F090090034D122FB40000000090034D1241DB85
:107F190012432F604A12438190034D401F1244B906
:107F290090034A12450D90034B1243C6125E6F909F
:107F39000345E024101241EE2402801A1241DB129B
:107F4900432F90034A1243C61275DB900345E02480
:0F7F5900081241EE240190034D12436E027F1374
:017F680022F6
:064F41009000ED12445344
:104F4700E49000F1F09000F4F09000F0E0600302CC
:104F570050511241FDC36480948040371243BD50C5
:104F67003212419D9000EDE0FFA31251A012517241
:104F7700124313501012415A12518370031243D92E
:104F87001243E080EB12424B70031243E7124207D1
:104F970040DB229000ED12434E50589000EFE09016
:104FA70000F21243939000EEE0FDE41251B7900037
:104FB700EEE0FDE4FF128878E49000F1F01241FD85
:104FC700EF242AFFE43EFE9000F11241D050101268
:104FD700415A12518370031243D91243E080DE1203
:104FE70041FD12447612423E70031243E712420714
:104FF70040BC229000ED1243391243BC50030251CA
:105007007112419DAF059000EE1251A0125172121C
:1050170041FDC374409FFFE49EFE9000F11241D012
:10502700501012415A1251AD70031243D91243E086
:1050370080DD1241FDEF24EAFFEE34FF12423E709D
:10504700031243E712420740C3229000F0E06401D5
:10505700600302517112419D9000EEE03395E0C369
:105067006480948050689000EDE0FFE4FD1288783A
:105077009000EE124200124476FE7C007D2A122D2B
:10508700909000F3E02FF09000F2E03EF0E4900003
:10509700F5F0A3F09000EE124200EF2404FFE43E87
:1050A7001243EE400302517112518D1243135010F7
:1050B70012415A1251AD70031243D91243E080EBEB
:1050C7009000F412424E70031243E702509B1243C2
:1050D70036EF4E703A9000EDE01251B79000EDE0D8
:1050E700FFA3E0FD128878E49000F1F0124313501B
:1050F7001012415A1251C370031243D91243E08070
:10510700EB12424B70031243E712420740CE2212C2
:105117004336D3EF9400EE64809480404D9000EDC9
:10512700E0FF1288789000EEE09000F4F0E4A3F03E
:10513700A3F09000EE124200C374049FFFE49E1296
:1051470043EE502612518D124313501012415A123A
:1051570051C370031243D91243E080EB9000F4125D
:0A516700424E70031243E702513973
:10517100229000EDE0FFA3E0FD128878E49000F1B9
:10518100F022128BFC9000F3E004F0229000EDE09D
:10519100FF9000F4E0FD128878E49000F1F022E045
:1051A100FD128878E49000F5F0A3F022128BFC90B8
:1051B10000F3E004F022FF128878E49000F5F0A3F8
:0C51C100F022128BFC9000F3E004F022BE
:063D7B0090032B12422F01
:103D8100E4900332F0A3F0A3122FB400000001E489
:103D9100900338F090032D1241E590033312431F35
:103DA100700302402AE4900332F0900334122FB4DE
:103DB1000000000190033212437B403490032D1226
:103DC10041E5900333E0FE124320FDEF6D701812C0
:103DD1004328FF900332E0FE9000C793B507089097
:103DE10003341244138009900332E02402F080C4AA
:103DF10090032B124200D3EF947AEE6480948040BA
:103E010006E4F0A3E004F090032C124200EFF470FA
:103E110002EEF4705C12413D1242176026900334A9
:103E21001241F2241012418112413DE4900338F015
:103E3100900338124194400302401912402B12445E
:103E41000180ED900333E004F090032BE0FFE4FDEB
:103E5100128878E4900338F09003381241944003BB
:103E61000240191242AC128BFC12417212440180C1
:103E7100E790032C124200EF64FE7002EEF470032F
:103E8100024019EF4E70501240A96027124115905F
:103E91000332F0124191500812402B12447D80F3FD
:103EA1001240E0124191400302401912406912444C
:103EB1007D80F01240CD900332F0124191500812F2
:103EC10042AC12413380F31240E0124191400302AF
:103ED100401912410380F390032C124339EF64011E
:103EE1004E706490032BE0FF12887812421760260F
:103EF1001243A81240F29003381241945008124024
:103F01006912440180F01243417003124484124249
:103F11007540E00240191243A21240F29003381298
:103F2100419450137D017C007FFF7E00128BFC12B7
:103F3100417212440180E51243417003124484121C
:103F4100427540D502401990032C124339EF6402A7
:103F51004E706890032BE0FF128878124217603A86
:103F6100124115900332F012419150121242653EF6
:103F710012443C128BFC12417212447D80E91241C1
:103F810048124191400302401912426512416512E3
:103F91008BFC12417212447D80E71240CD900332B6
:103FA100F0124191500512410380F612414812412D
:103FB1009150651242AC12413380F31240A9602F37
:103FC1001243A81241229003381241945011124217
:103FD10065124165128BFC12417212440180E71295
:103FE1004341700312448412427540D702401912B2
:103FF10043A2124122900338124194500E1242AC56
:10400100128BFC12417212440180EA124341700387
:1040110012448412427540DA90032BE02410F09090
:094021000333E02402F0023D9596
:10402A0022900334A3A3E0FEA3E02474F582740172
:10403A003EF583E493FF7E007D017C00128BFC90A9
:10404A000334E0FCA3E0FDA3E0FEA3E02401FFE4C7
:10405A003EFEE43DFDE43CFC900334122FA822907E
:10406A000334A3A3E0FEA3E02474F58274013EF5B1
:10407A0083E493F4FFE4F4FE7D017C00128BFC9050
:10408A000334E0FCA3E0FDA3E0FEA3E02401FFE487
:10409A003EFEE43DFDE43CFC900334122FA822903E
:1040AA00032BE0FFA3E0FD128878E47F01FEFDFC0C
:1040BA00900334E0F8A3E0F9A3E0FAA3E0FBC3120B
:1040CA002F8422900333E004F090032BE0FFA3E057
:1040DA00FD128878E42290032BE0FFA3E004FD128E
:1040EA008878E4900332F02290032BE0FFA3E0FDEE
:1040FA00128878E4900338F0227D017C007FFF7EED
:10410A0000128BFC900332E004F02290032BE0FFB4
:10411A00A3E0FD128878E42290032BE0FFA3E0FDE0
:10412A00128878E4900338F022128BFC900332E074
:10413A0004F02290032BE0FFE4FD1288782290031A
:10414A002BE0FFA3E004FD128878E4900332F0220A
:0676780090035112422FA5
:10767E00900359122FB400000000900359A3A3E009
:10768E00FEA3E09003531241E412432F60581243BD
:10769E0081900359401C1244B990035612450D9027
:1076AE0003571276F52410F09003591241F224027A
:1076BE008021A3A3E0FEA3E0FF9003531241E51245
:1076CE00432F9003561276F52408F0900359124179
:1076DE00F22401FFE43EFEE43DFDE43CFC90035940
:0676EE00122FA8027688AD
:1076F40022F0E4A3F0900351E0FFA3E0FD7B017AC4
:0B770400037956123D7B900351E022F8
:037C540090011B81
:107C5700124389EB75F020A4FFA31241A9AF0412C8
:107C67008878E4900120F0A3F090011BE0FFA3E0E7
:107C7700FD128878E490011DF090011D1241945087
:107C87001F124269124165128BFC90011FE004F03C
:107C9700700690011EE004F090011DE004F080D909
:107CA70090011CE004F0900121E004F070069001BF
:107CB70020E004F0C3900121E09402900120E064E9
:057CC70080948040A440
:017CCC002295
:06719A00900110124453A5
:1071A00078157C017D017BFF7A8E79577E007F0404
:1071B000122D12E4900119F0A3F0900119F0A3F040
:1071C000900112E06401702D12448B25E025E0242B
:1071D000F6F582E43430F583124498FD74152FF5EA
:1071E0008274013EF583ED124516900119E0FAA371
:1071F000E024158047900112E06402705212448B23
:1072000075F028A4241AF582E5F03431F583C083A3
:10721000C082900114E0D082D08375F004122FE573
:10722000124498FF900119E0FAA3E0FB2415F582BF
:1072300074013AF583EF12451674152BF58274012B
:107240003AF583E0FB127C54900110E02410F0909A
:10725000011AE004F07006900119E004F0C39001F7
:107260001AE09404900119E0648094805003027144
:01727000C05D
:0172710022FA
:0300230002813E19
:0F813E00C0E0C083C082C0D075D000C005C007AC
:10814D00309907C299900295E4F030982AC298AF01
:10815D0099EFFD647F6005ED648070169003C4E0B7
:10816D00FF04F0D3EF941474809480400A75C760B7
:07817D0080059003C4E4F04B
:0D818400D007D005D0D0D082D083D0E0321B
:03004300028ABD71
:108ABD00C0E0C083C082E59A30E108539AFD900270
:108ACD0096E4F0E59A30E003539AFED082D083D03D
:028ADD00E03285
:03008B00028ADF07
:108ADF00C0E0C083C082E5AC30E10853ACFD90022A
:108AEF0097E4F0E5AC30E00353ACFED082D083D0F6
:028AFF00E03263
:03009300028B01DC
:108B0100C0E0C083C082E58430E1085384FD900257
:108B110098E4F0E58430E0035384FED082D083D022
:028B2100E03240
:03003B00027F69D8
:107F6900C0E0C083C082C0D075D000C006C0073051
:107F7900D822C2D890033FE0FEA3E0F5EAEEF5FA75
:107F8900900339E0FEA3E0FF900340E02FF0900357
:107F99003FE03EF030D922C2D9900341E0FEA3E090
:107FA900F5EBEEF5FB90033BE0FEA3E0FF90034207
:107FB900E02FF0900341E03EF0D007D006D0D0D0BA
:067FC90082D083D0E032FB
:03000300020021D7
:0100210032AC
:03001300020022C6
:0100220032AB
:0300530002004167
:01004100328C
:03005B000200425E
:01004200328B
:0300830002005226
:01005200327B
:078E410025642C25640A00E2
:0E8D9900E0FCA3E0FDA3E0FEA3E0FF022A0F32
:106BE90012001E1280E5120026128C1812898C12CE
:106BF90072727F01126CE07F04126CE07D0A7C00E6
:106C09007F031277A3D2A2C2A0C2A112003E7B00C9
:106C19007A0079229000EE7420F0E4FFFE128C6A6B
:106C29007B007A0079429000EE7420F0FF7E00121A
:106C39008C6A126ADD126786128191122A0FAB07DC
:106C4900C007125B67122A0F9000EEEFF09002EE78
:106C5900128D99C006C0079002CE128D99AD07AC6E
:106C690006C004C005E4FFFE7DC87C429002FEE038
:106C7900F8A3E0F9A3E0FAA3E0FB1227B27B007ABC
:106C890040791C78461228BB122A0F9000EFEFF0CA
:106C9900D005D004D007D006D003126CF412733497
:106CA90012394E1287011288D9128C34126CE812EB
:106CB9004C29126CE89000ECEEF0A3EFF09002CAB8
:106CC900128D999000EEEEF0A3EFF07BFF7A8E79AA
:106CD90041123536026C417D0A7C001277A322905D
:0B6CE9000314E0FEA3E0FF1283F7227B
:10303700426C616300576869740020205550004452
:103047004F574E0020204E6F002059657300204FC8
:1030570046460020204F4E00202B355600202B39A6
:1030670056002B313256002B313556002B32305655
:10307700002B0056004C61726700536D616C002095
:103087004C2652002055264400563A007600543A02
:10309700005E002056657273696F6E3A312E322ECC
:1030A700392E416C70686120002020486172647776
:1030B7006172653A4C49204A49414E202020002040
:1030C70020536F6674776172653A20414C4F4E47C3
:1030D700202020200020205765623A414C4F4E4760
:1030E7005849492E58595A202020003E003C002DAF
:1030F7002E2F303738353603043536313233341E08
:103107003A12133F4041423B3C3D3E252635366748
:103117006835694E4F2F3050512F3052512F3000A4
:103127000000000000000000000000000000000098
:1031370000000000000000000000005354555649ED
:103147004A5758003A010200000000000000000042
:103157000000000000000000000000000000000068
:1031670000000005060708595A5B5C6263666764DE
:103177006545460000000000000000000000000058
:1031870000000000000000000000004B0535304C37
:10319700053530313266670000000000000000008E
:1031A7000000000000000000000000000000000018
:1031B7000000001E3A4A141E3A49145F1335301EA8
:1031C7003A395D5E1E353631321E3A000000000086
:1031D7000000000000000000000000151D41420B28
:1031E7001D41420C1D41420D1D41420E1D41420F22
