:0751B200440381000000002E
:1086B7007F807C019000E9E0F8A3E0F9A3E0FAA34A
:1086C700E0FBC3022DDCE6FFAD9FC3ED9FFFE49403
:0886D70000FE3395E0FDFC22DA
:105D7E0043BA80E59D602078FA1286CD7BE07A28C2
:105D8E0079017800122CB1E42FFFEE3451FEED3480
:105D9E0025FDEC3402801D78FB1286CDE47B807AE3
:105DAE00BBF9F8122CB1E42FFFEE3436FEED346E53
:105DBE00FDEC3401FC9000E9122E009000E9E0FCAD
:105DCE00A3E0FDA3E0FEA3E0FFC00790FE01E0FB11
:105DDE00E4FAF9F8D007122D3C9000E9122E007F5C
:105DEE00C07EF67D577C001286BB50097F007E6018
:105DFE007D547C00227FC07E267D827C001286BB75
:105E0E0050097F807E8D7D5B7C00227F807EED7DC4
:105E1E00AF7C001286BB50097F007EC07DA87C003F
:105E2E00227F807E2D7DE87C001286BB50097F008C
:105E3E007E1B7DB77C00227E367D251286B75009EB
:105E4E007F007E407D197C01227E567D411286B7F1
:105E5E0050097F007E2D7D317C01227F007EDB7D0F
:105E6E005F1286B950097F007E807D517C01227FB2
:105E7E00607E197D851286B950097F007E367D6E53
:105E8E007C01227F207EE07DB21286B950097FC050
:105E9E007EFC7D9B7C01227FE07EA67DE01286B992
:105EAE0050097F807EC37DC97C01227F607E2B7D61
:105EBE00FF1286B950097F007E407DFA7C01227F59
:075ECE00C07E0E7D167C0270
:015ED50022AA
:107E2F00125D7E900381122E00E4F594F593F59286
:107E3F00F591F596F595F5B2F5B1F5B4F5B3F5CA3B
:107E4F00F5C9F5D8F5D9F5DEF58EF598F59AF5ACB7
:107E5F00F584F5A2F5BAF5AFF589F5E9F5F91286CE
:107E6F008E9000EC122E0C0001C2009000F07402F4
:097E7F00F07B01E4FDFF025777DE
:1089E300900119EFF0FDE4FF12802A900119E0FFD6
:0189F3002261
:03001E00C2AF224C
:03003E00D2AF221C
:1087500090035EE0FBA3E0FAA3E0F9EF022BD6A9B9
:108760000553BACFEF142290FE82F090FE8174057B
:02877000F022F5
:1089AC00EF1FAA0670011E4A60087D091DED60F0DC
:0289BC0080FA3F
:0189BE002296
:10844700E4900396F0A3F0FC90FE82E020E61E7F06
:10845700017E001289AC900396E475F001122C9B03
:10846700FEC3E5F0941EEE940040DD7C0190FE8291
:06847700E054BFF0AF0469
:01847D0022DC
:098A500090FE817401F0028447DC
:0E8A120090FE86EFF090FE817402F002844721
:098A590090FE817403F0028447D1
:0F89F40090FE817404F012844790FE87E0FF220A
:078A8500E412876702844739
:088A7D007401128767028447AF
:098A620090FE817406F0028447C5
:1081410053BACF43BA80EF14600A14600C14600E66
:108151002403800D43BA10800843BA20800343BA38
:108161003090FE80E04440F0E04480F0C083C08263
:10817100E0FB900357A3A3A3E0FFEB4FD082D08392
:07818100F090FE82E4F02201
:107B6E0012875F600A14600C14600E2403800D43AC
:107B7E00BA10800843BA20800343BA30128A50EFFD
:107B8E0060037F0122AF01EF25E0FF128A12EF6042
:107B9E00037F0122128A59EF60037F0122AF031285
:107BAE008A12EF60037F0122128A59EF60037F0170
:107BBE0022900388E0FF128A12EF60037F012212E7
:107BCE008A59EF60037F0122128A62EF60037F0100
:047BDE00227F0022E0
:1076FE0012875F600A14600C14600E2403800D4321
:10770E00BA10800843BA20800343BA30128A50EF71
:10771E0060037F0122E925E0FF128A12EF60037FEA
:10772E000122128A59EF60037F0122AF03128A12DF
:10773E00EF60037F0122128A59EF60037F0122AFAF
:10774E0001EF25E04401FF128A12EF60037F012250
:10775E00128A59EF60037F01221289F490036C1292
:10776E008753128A85EF60037F0122128A62EF60CF
:07777E00037F01227F0022BE
:1071240012875F600A14600C14600E2403800D4300
:10713400BA10800843BA20800343BA30128A50EF51
:1071440060037F0122E925E0FF128A12EF60037FCA
:107154000122128A59EF60037F0122AF03128A12BF
:10716400EF60037F0122128A59EF60037F0122AF8F
:1071740001EF25E04401FF128A12EF60037F012230
:10718400128A59EF60037F0122900361E014F060DA
:107194001B1289F4128750128A85EF60037F012243
:1071A40090035FE475F001122C8580DD1289F412DE
:1071B4008750128A85EF60037F0122128A62EF6092
:0771C400037F01227F00227E
:10005E0043BA8053BACFEF14600A14600C14600ECA
:10006E002403800D43BA10800843BA20800343BA9C
:05007E003053BA7F229F
:1086DF00439A108DD7ECF5D6438E14229000F0E01C
:1086EF00FB7A00229000EAE0FF7E0022EBF0A3EA83
:0786FF00F0A3E9F0AE072231
:0B5777009000E9EFF0A3EDF0A3EBF0D1
:10578200A3E0F8A3E0F9A3E0FAA3E0FB900381E031
:10579200FCA3E0FDA3E0FEA3E0FF122D3CE47B04AA
:1057A200FAF9F8122D3CC3E49FFFE49EAD07FC908A
:1057B20000E9E014700302584C1470030258831479
:1057C20070030258CC2403600302591C1286EB6456
:1057D2000170144398508D8BECF58D438E40D28E20
:1057E200E490028AF08011EB64024A700B439850F5
:1057F2008DD7ECF5D6438E1553A23F9000EAE0F91F
:10580200FF7E007008A3E0640170028035EF64023D
:105812004E700D9000EBE06403700543A2408022BD
:10582200E96404700D9000EBE06405700543A2800A
:105832008010E96406700B9000EBE064077003438C
:10584200A2C0E490028AF0D2AC229000F0E064029E
:1058520070031286DF53BAFE1286F364087008A33F
:10586200E0640970028011EF640A4E700B9000EB45
:10587200E0640B700343BA0143AF01E490028BF082
:10588200221286EB640270051286DF8011EB64033C
:105892004A700B43AC508DD5ECF5D443D10A53BAC0
:1058A200FD1286F3640C7008A3E0640D700280118F
:1058B200EF640E4E700B9000EBE0640F700343BA7E
:1058C2000243AF08E490028CF0221286EB6402706D
:1058D200084384101286E28011EB64044A700B4381
:1058E20084508DD3ECF5D243D1A053BAFB1286F388
:1058F20064107008A3E0641170028016EF64124E07
:1059020070109000EBE064137008F5CA75C9044387
:0A591200BA0443AF10E490028DF0D8
:01591C002268
:0F801B00A3E475F001122C9BA9F0FA122B90FD33
:10802A00EF14601514601D1460252403702D90024E
:10803A008AE070FA04F08D992290028BE070FA04BB
:10804A00F08D9B2290028CE070FA04F08DAD2290A4
:0C805A00028DE070FA04F0AF058F852263
:1087FA009003701286FB90037374FFF5F0122C9BA2
:10880A0045F0600CAF06900370E0FB12801B80E617
:01881A00223B
:10881B0090038D1286FB90038DE0FBA3E0FAA3E09F
:10882B00F9122B90600AAF0690038D12801B80E625
:01883B00221A
:1080660043BC80EF131313541FFB7A00640170178F
:10807600EF5407FEF87401088002C333D8FCFEF4FF
:108086005294EE42938019EB4A7015EF5407FEF8AE
:108096007401088002C333D8FCFEF45292EE42917A
:0980A600ED540F42DE43DE2022FE
:02860D00A905BD
:10860F0053BCF0EF42BC43BC40E5BC30E5FB53BC70
:10861F00DFAFBDEFFEADBEEDFFAD01A805088005D4
:08862F00CEC313CE13D8F9FFEE
:018637002220
:10825900EF14601814602014602614602C24047034
:1082690030E4F58AF58C438904D28C22E4F58BF548
:108279008D438940D28E22E4F5D7F5D6438E182254
:10828900E4F5D5F5D443D10C22E4F5D3F5D243D1A5
:02829900C02201
:1081CF00EF14601714601E14602514602C240470C3
:1081DF0030AF8CEFFCAF8AEFFD8026AF8DEFFCAF99
:1081EF008BEFFD801CAFD6EFFCAFD7EFFD8012AF4A
:1081FF00D4EFFCAFD5EFFD8008AFD2EFFCAFD3EFDC
:05820F00FDAF05AE0407
:018214002247
:1080AF00EF14601714601E146027146030240470DE
:1080BF0037C28CE4F58CF58AD28C22C28EE4F58D12
:1080CF00F58BD28E22538EEFE4F5D6F5D7438E1073
:1080DF002253D1F7E4F5D4F5D543D1082253D17FFC
:0980EF00E4F5D2F5D343D180225F
:0574CB009000E9EFF064
:1074D0007E037FE8122BFA7C007D0C122BE8AB07B1
:1074E000AA06E4F9F8900381E0FCA3E0FDA3E0FE26
:1074F000A3E0FF122D3CC3E49FFFE49EFE9000E951
:10750000E0F9FD7C00700A8F8AEEF58CD28CD2A94E
:1075100022ED64014C700A8F8BEEF58DD28ED2ABCA
:1075200022E9FD7C006402700C8FD7EEF5D6438E05
:107530001043AF0422ED64034C700C8FD5EEF5D4EC
:1075400043D10843AF2022E96404700B8FD3EEF5DA
:07755000D243D18043AF409C
:017557002211
:106C6B00F09002F5E0F8A3E0F9A3E0FAA3E0FB90C3
:106C7B000381E0FCA3E0FDA3E0FEA3E0FF22900074
:106C8B00E9FAE0540F75F008A42BFFE5F03A8F8278
:106C9B00F583ECF0A3EDF0228D82F583EEF0A3EFFC
:106CAB00F09002FBA3A3E0FEA3E0FDAC06E975F0B8
:106CBB0050A42410FBE5F022E0FCA3E0FDE4122835
:106CCB002E7B007A40791C784602271312260A1273
:106CDB0028679000F3EEF0A3EFF09000F3E0FCA335
:106CEB00E0FD9000F0E0F9228B82F583EDF090004F
:106CFB00F2E0FCA3E0FDE42224D0C4540FF975F0BC
:106D0B0050A422E02401FFE433AB07FA3395E0F9FA
:106D1B00F8228F82F583E0FCA3E0FDE402282EE04D
:106D2B00C394307480948022C4540F75F050A42403
:106D3B0000FFE5F022E975F050A42414FDE5F022E4
:0B6D4B008F82F583EDF09002FFA32281
:056177009000E9EFF0CB
:10617C00E49000F4F07D01124F919000E9E0C454DA
:10618C000FFFF87401088002C333D8FC42F143BA04
:10619C00809000EA126C6F122D3C780F122DED904E
:1061AC0000F4EFF09000EA126C6F122D3CC006C0A8
:1061BC00079000F4126D0ED007D006122D3C900003
:1061CC00F2EEF0A3EFF09000EE126CC3C004C00529
:1061DC00C006C007126CF912282ED003D002D001D1
:1061EC00D00012260A1228679000F0EEF0A3EFF010
:1061FC009000E9E0FF126D2B9000F4E0FD502FEFC2
:10620C00126D05FFAEF02402FBEE34FF126CF32F7F
:10621C00FFEE34FF126C999000F0E0FCA3E0FD124D
:10622C006CB834FF126C89126D4034FF80309000D2
:10623C00E9E0126D03FFAEF02402FBEE34FC126CAD
:10624C00F32FFFEE34FC126C999000F0E0FCA3E00D
:10625C00FD126CB834FC126C89126D4034FCFC904D
:10626C0000E9E0540F75F008A42DFFE5F03C8F8297
:10627C00F583E04480F09000E9E0C4540F146015FD
:10628C0014601714601914601B14601D2405701C15
:10629C0043F601801743F610801243F701800D433B
:0F62AC00F710800843FE01800343FE1053BA7FB2
:0162BB0022C0
:0B790F009000F0EFF0A3ECF0A3EDF00F
:10791A0043BA809000F0126D2A502DA3126CC3C096
:10792A0004C005C006C0079000F0E0126D3334FFB2
:10793A00126D1DD003D002D001D000126CD7C454EE
:10794A000F126CB934FF80319000F1126CC3C0047D
:10795A00C005C006C0079000F0E024D0126D333491
:10796A00FC126D1DD003D002D001D000126CD724B6
:10797A00D0C4540F126CB934FCFAE9126C8E53BAA3
:01798A007F7D
:01798B0022D9
:056B7A009002F4EFF0B1
:106B7F00E4900303126C6B122D3C780F122DED90E5
:106B8F000303EF126C6B122D3CC006C0079003037A
:106B9F00126D0ED007D006122D3C9002FF122E0060
:106BAF009002F9126CC3C004C005C006C007900262
:106BBF00FF126C7DE4122829D003D002D001D0003F
:106BCF0012260A1228679002FB122E0043BA8090F9
:106BDF0002F4126D2A900303E0FD9002F4E0501FBF
:106BEF00126D05FBAAF02402FFEA34FF126D4B125F
:106BFF006C82E42BFDEA34FF126CA334FF801D126C
:106C0F006D03FBAAF02402FFEA34FC126D4B126CE9
:106C1F0082E42BFDEA34FC126CA334FC9002F412D4
:106C2F006C8C9002F4E0C4540F14601514601714A8
:106C3F00601914601B14601D2405701C43F601803D
:106C4F001743F610801243F701800D43F7108008A9
:0B6C5F0043FE01800343FE1053BA7F88
:016C6A002207
:1051B900460318000000000000460312000000002A
:0251C9000000E4
:108215007E037FE8122BFA7C007D0C122BE8AB075E
:10822500AA06E4F9F8900381E0FCA3E0FDA3E0FED3
:10823500A3E0FF022D3C2FFFE03EFE900392E02FCE
:10824500FF900391E03E22900312E0FEA3E0FF9031
:048255000319E02207
:107D1900E4F5D875D906EF64017054EDB40A005042
:107D29004E907D31F8282873027D4F027D53027DE4
:107D390057027D5B027D5F027D63027D67027D6B79
:107D4900027D6F027D75E4F5DA2275DA422275DA71
:107D5900632275DA532275DA732275DA202275DA0D
:107D6900102275DA302275DA49D2DE2275DA4C2210
:1089BF00EF64017008AFFAEFFCAFEAEFFDAF05AE61
:0189CF0004A3
:0189D0002284
:0A8A3C00EF64017004F5F9F5E9227A
:057A8200900390EFF0FD
:107A8700C2DEAFF9EFFFABE9EBA3CFF0A3EFF090C6
:107A97000390E0702A128215AC06AD07900312EC32
:107AA700F0A3EDF075DA49E5E904F5EA85F9FA128C
:107AB700824C90031812823B900318F0A3EFF090CA
:107AC7000390E064017027128215900314EEF0A36F
:107AD700EFF075DB49E5E904F5EA85F9FA90031B50
:107AE700E090031A12823B90031AF0A3EFF0D2DE64
:017AF700226C
:107BE200AD07EDFB7A007017900318E0FEA3E0F5F5
:107BF200EAEEF5FA12824C2FF0900318E03EF0EB19
:107C020064014A702090031AE0FEA3E0F5EBEEF562
:107C1200FB900314E0FEA3E0FF90031BE02FF09023
:107C2200031AE03EF0ED6402702090031CE0FEA314
:107C3200E0F5ECEEF5FC900316E0FEA3E0FF900306
:0B7C42001DE02FF090031CE03EF0223C
:1084EA00EF7007ED24FF9288D2A8EF64017007EDC0
:1084FA0024FF928AD2AAEFFD7C0064027003758F72
:10850A0010ED64034C7003758F20ED64044C700306
:04851A00758F4022F7
:0551CB00420398000002
:10868E00E47BE07A2EF9F8900381E0FCA3E0FDA3F1
:10869E00E0FEA3E0FF122D3C900398EEF0A3EFF066
:0986AE0075DC48E4F5D9D2DE22A6
:10887A00AFF9EFFEADE9EDFF900399E02FFF90030A
:0C888A0098E03E8FECF5FC30DAFDC2DA1D
:0188960022BF
:10899800AB07AA06EB1BAE0270011A4E60051288DF
:0489A8007A80F122BE
:10851E00EF540FFEF874010822EFC4540F2410FD1F
:10852E00E434FE8D82F58322EF54F0F9FB7A0022BB
:10853E00E0FEEF540FFFF874010822E9FB7A0064A5
:02854E003022D9
:10847E00EDFB7A0064017013128527C083C082124F
:10848E00853E8002C333D8FC4E8016EB4A7017121D
:10849E008527C083C08212853E8002C333D8FCF488
:0784AE005ED082D083F022B2
:104F9100ED7078128536700E12851E8002C333D8EB
:104FA100FCF452935294EB64104A700E12851E80E9
:104FB10002C333D8FCF452915292E96420700E126C
:104FC100851E8002C333D8FCF4529552961285494E
:104FD100700E12851E8002C333D8FCF452B152B256
:104FE100EB64404A700E12851E8002C333D8FCF474
:104FF10052B352B4E9645060030251B112851E806C
:1050010002C333D8FCF452C952CA22ED64016003D1
:10501100025097128536701012851E8002C333D854
:10502100FCFEF45293EE4294EB64104A7010128528
:105031001E8002C333D8FCFEF45291EE4292E96421
:1050410020701012851E8002C333D8FCFEF45295E5
:10505100EE4296128549701012851E8002C333D824
:10506100FCFEF452B1EE42B2EB64404A701012857C
:105071001E8002C333D8FCFEF452B3EE42B4E9649D
:105081005060030251B112851E8002C333D8FCFE69
:10509100F452C90251AEED6402600302512312853C
:1050A10036701012851E8002C333D8FCFE4293EE87
:1050B100F45294EB64104A701012851E8002C333BF
:1050C100D8FCFE4291EEF45292E9642070101285F0
:1050D1001E8002C333D8FCFE4295EEF4529612852F
:1050E10049701012851E8002C333D8FCFE42B1EE16
:1050F100F452B2EB64404A701012851E8002C33331
:10510100D8FCFE42B3EEF452B4E96450600302519C
:10511100B112851E8002C333D8FCFE42C9EEF4529F
:10512100CA22ED640360030251B1EF54F0FD7C002B
:10513100700F12851E8002C333D8FCFE4293EE42EB
:1051410094ED64104C700F12851E8002C333D8FC9D
:10515100FE4291EE4292EF54F06420700F12851ED0
:105161008002C333D8FCFE4295EE4296EF54F0FD27
:105171007C006430700F12851E8002C333D8FCFEA0
:1051810042B1EE42B2ED64404C700F12851E8002B6
:10519100C333D8FCFE42B3EE42B4EF54F064507016
:1051A1000F12851E8002C333D8FCFE42C9EE42CAEB
:0151B10022DB
:10872C00E0FBA3E475F001122C9BA9F0FA22EBF00C
:10873C00A3EAF0A3E9F0AD07AC0622F5C375C65A5F
:04874C0075C6A52227
:068A930043C78002885C6D
:0400160053C77F222B
:0E8A2000E5C75401640170037F01227F00222C
:10885C007B407A42790F7800900381E0FCA3E0FD25
:0D886C00A3E0FEA3E0FF122D3CEF04F5F5A4
:0188790022DC
:1085E0009000F112873A75C5019000F4E0FF14F095
:1085F000EF60198DC4EC1287479000F112872CE5CB
:0D860000C2122BD60DBD00010C0080DD2242
:108582009000F112873A75C5029000F4E0FF14F0F2
:10859200EF601B8DC4ECF5C39000F112872C122BF7
:0F85A20090F5C20DBD00010C1287490080DB224D
:0B00460075C5038FC4EE12874700222F
:1000A600C1C1B5F7BDDABBF9B4A1CABEDDB4E6B4C9
:1000B600A2D0ADD2E9D2BBB6FEC8CBC4CEE5C1F95B
:1000C600C6DFE3D0D6B5CFDEC1E3D2BCB7A1C8FE4A
:1000D600CBC1CEE9C2BDC6E2BDD7CEC2B9F6B6AF78
:1000E600B7BDCFF2CBD9C2CAB2CBB5A5C0E4B6CBA9
:1000F600B2B9B3A5C8ABBED6B2CECAD5FBB6A8D0E8
:10010600DDC3DFCAB1BCE4C9E8D6C3C6C1C4BBB24D
:10011600BDB6C8B5E7D4B4B9DCC0EDBAB8BED7D061
:10012600A3D7BCCDBCB1EAB4F3D0A1B9F6B6AFC97A
:10013600CFCFC2B7D6C3EBC9E8B1C8C0BBB7D6CE1E
:10014600A2B7B4C9ABCFD4CABEB7ADD7AA00000414
:1001560004747454555756545474740404008487B4
:10016600C3613D1D050505057DFD8185E7E340422B
:10017600CECC00FEFE9292FEFE9292FEFE000000A3
:100186003F3F98FF7F1E1E12125EDEFF7F00044473
:1001960044445F5FC4C444445F5FC4C404040000B5
:1001A60000000000FFFF000818180F0700000004F9
:1001B6000404FFFF54545454FFFF040404001111B7
:1001C600998D979391FDFD9193978D9911110484C3
:1001D600E4FC5CC4C47C7C40FFFF407C7C000203E2
:1001E6007F7F103F3F7E7E407F7F40FEFE0090D2A5
:1001F6007634FFFF3476D2F0FF8F08F8F808829A3B
:10020600DE776372DE8E80C0733F3F73C08010104E
:10021600FFFF9090FEFE9292F2F2929E9E8042C264
:10022600FF7F81E07F1FFCFC474744FCFC00040481
:1002360084E4FC1F27242424A4E464240404020385
:1002460001FFFF020242C2FF7F020202020280E0B9
:10025600F8FF879C982024A4FF7F343C2C240000C0
:10026600FFFF007F7F3613FFFF4949FFFF00101095
:10027600FFFF10109090FFFF10F0F08000000000CC
:10028600FFFF0486C3713F4FC0FF7F010706404052
:1002960042CECC001CFCE10706E0FE1E000000007A
:1002A600003FBF98C860331F1F3360C080808080C6
:1002B6008080808080808080808080808080000038
:1002C6000000000000000000000000000000000028
:1002D6000808080808080808080808080000101098
:1002E6001010101010101010101010101010000424
:1002F6008484848484848484848484840400202084
:10030600202020202020202020202020202000FC2B
:10031600FC0404FCFC0404FCFC0404FCFC00007F5C
:100326007F2C2723202020212322227F7F000002EA
:10033600424242C2FE7E424242C2C20202004040E5
:100346004040787F47404040407F7F4040402020EB
:100356002020202021232E2C202020202020004079
:1003660060301C0F0300000103061C7860008080CB
:10037600808080C0FFFF40406020202020000000D9
:10038600000000003F7F404040404078780000F881
:10039600F923A2A2A2A2FEFEAABA32FEFE0000FF26
:1003A600FF10131B4B6B371F1F3BB8FFFF0000806E
:1003B600E0F8FF07E4E4A4BFBFA4E4E404000101FD
:1003C60000FFFF407F7F4A4A4A4A7F7F404000FE47
:1003D600FE7ADE86FEFE92929292FEFE000000FFFC
:1003E600FF0C0F07FFFF60230F1C36634140101CF4
:1003F6000D555555D5FFFFD5555555151C0C0404FF
:10040600060A0B292B6E4CE9B91B0206040400C42C
:10041600C4545454545F5F5454545444C4C08181EA
:10042600809DBDF5D59595D5F5BD9D81818004440A
:100436005454545454545454FFFF05070604008082
:100446009FDF613D3D61DF9F010F3E70F0F00020B0
:1004560020A8EC6E3B39282A6EECA8202000020268
:100466004341484949494949494841430202000034
:10047600FEFE929292125454FFFF547C7C1044E488
:10048600FF5F4454F4F61212FFFF1212121000809E
:10049600E0F8FF074242C2FE7E42C2C202000101EC
:1004A60000FFFF4040787F4740407F7F404000FE8E
:1004B600FE22FADE86888888FFFF8888888000FF0B
:1004C600FF18180F077C7C407F7F40FCFC000088EB
:1004D60099D3622808087FFF888C84E4E4004444AA
:1004E6006525341C0CFFFF0C1C342464444400FEB8
:1004F600FE22FADE4660B09C0F0F9CB0604000FF03
:10050600FF18180F87E07F1F0000FFFF0000107024
:10051600628E8C00FEFE92929292FEFE0000040411
:100526007E7F417E7E427E7E7E7E427E7E40107053
:10053600628E8C24B4DCEDB7D6CC9C342400040443
:100546007E7F213018FCFE662C1D376240404044F9
:10055600C4C44444445010FFFF1010F0F000103C97
:100566003F1314BCF8703E0F41C0C07F3F0008081F
:10057600080808F8F98F8E88888888080808008097
:10058600C060381F070040C0C07F3F00000000F871
:10059600F8080CCECB4948C8C80808F8F80000FF90
:1005A600FF00001F1F08081F1F40C0FF7F004040BC
:1005B60042CECC04F4F494FFFF94F4F4040000401B
:1005C600603F3F684C46435F5F43464C48400014DB
:1005D600B4E46434BDEF66B49444E4B4140008098A
:1005E6000908090909FDFD090B0B08090908040496
:1005F60044C4CF4F44C4E4242FBFB424040440446D
:100606006424351D0CFEFE0C1D3524644440000098
:10061600F8F94B4E4CF8F84C4E4BF9F80000101018
:100626001313121212FFFF121212131310100002EC
:100636000ECCC04060301C2FEFDC30604040020220
:100646007F7F000001091931F1DD0F030000C8C8E2
:10065600090FEEE8485E5E50DFDF505E5E40206FB9
:100666006F3C1F1310FEFE7F7F7EFEFEFE0000081D
:100676000889CBEAB89800FFFF60C080000000023E
:100686000301FFFF070600FFFF00000303000080D1
:10069600E0F8FF773296949F9F949652703001014E
:1006A60000FFFF44E4F45C4C445474E4C4008080CE
:1006B600C06070584CC7C74C587060C080800040FE
:1006C60040444444447F7F44444444404000000046
:1006D600FEFE92929292929292929E9E800040701C
:1006E6003F0F001E1E1212125EDEC07F3F0000206A
:1006F60020A8EC6E3B39A8AA6EECA8202000028246
:10070600839192DA4B4D652632180903020290D284
:100716007634FFFF3476D2F0FF8F08F8F808829A15
:10072600DE776372DE8E80C0733F3F73C0800474D1
:10073600F4D4FFFFD4F4741C7FF7C47C3C04828B92
:1007460089E8EB8B88F9F9AAABA9A9AB8A82101CB8
:100756004C44444445C7C644444444541C0C80C0DD
:10076600603E3E60407F7F444444444440400080B5
:10077600E0F8FF171010D0FFFFD010101010010185
:1007860000FFFF180C0703FFFF03070C181000FCFF
:10079600FC2424FCFCFEFE22E2E2223E3E00003F58
:1007A6003F11113F3FFFFF61271F3961F1F100FC47
:1007B600FC8484FCFC1010101010FFFF1010003F8A
:1007C6003F10103F3F00010746C0FF7F000000F8C2
:1007D600F90706F0F21212F2F20202FEFE0000FF24
:1007E600FF00001F1F11111F1F40C0FF7F00404068
:1007F60042CECC40E0BE9E82829EBEA0202000005B
:10080600003FBF98C8436F3C386E47C180800017D1
:1008160017D5D557577D7D5757D5D5171700404063
:10082600407F7F5555555555557F7F4040400000C8
:10083600FEFE92B2F2D29292D2F2BE9E00004070BA
:100846003F0F84E47F1F0404FFFF0404040000023A
:1008560002FAFAAFAFAAAAAFAFFAFA020200121270
:100866001A7E7E0B0BFEFE2A6A7E3E1A121240404C
:10087600407C7C4040FFFF444444444440408090D8
:1008860098CE4640602F3F10180C0602000000006C
:10089600FCFC2424FCFD2726FCFC242424044070B4
:1008A600BF8F84CC5D752525755DCC80808000006A
:1008B600F8F8888888FFFF888888F8F80000000024
:1008C6001F1F0808087FFF8888889F9FF0F0107018
:1008D600628E8CFEFEF2F25A5E5652F2F202040468
:1008E6007E7F713F2F335BC9FF7F091B332088EC66
:1008F60067A3A6AEAABABEA7A3A62EAAE262000066
:1009060000FFFF4A4A4A4A4A4BFBF80000000484AB
:1009160084FCFC8484FEFE92FEFE92FEFE002060B5
:10092600603F1F10504444447F7F4444444080F05D
:1009360070FFFF30103E3E2A2A2A2A3E3E0080E003
:10094600781F0F3838090909FFFF0909090800FC53
:10095600FC04FCFC00FEFE222222FEFE0000000F2C
:100966000F040F4F407F7F4242427F7F404010106E
:10097600D0FFFF9090C868290F0E2868C888040722
:1009860003FFFF018180C36F3C3C6FC38080000280
:100996000EECE060F8FF4F49FFFE484848080404A3
:1009A6007F7F0000FFFF22223F3F2222222000FEFF
:1009B600FE4262327EDED272321202FEFE0000FF7C
:1009C600FF42425355756D69434242FFFF001010C6
:1009D600D0FFFF9030222222E2E2222222200407C8
:1009E60003FFFF131F0F43C0FF7F01071E182020C0
:1009F6002020202020FFFF20202020202020808073
:100A0600C060301C0F03030F1C3060C080800000E4
:100A160000E0E00000FFFF00002060C08000080C3E
:100A260007030040C0FF7F00000000010F0E10709A
:100A3600628E8C24B4DCEDB7D6CC9C34240004043E
:100A46007E7F213018FCFE662C1D376240404044F4
:100A5600C4C44444445010FFFF1010F0F000103C92
:100A66003F1314BCF8703E0F41C0C07F3F0000002A
:100A760000000000FFFF4040404040400000404072
:100A8600404040407F7F404040404040404002025E
:100A960002020202FEFE0242C282020202020000BC
:100AA60000000000FFFF000000010706000080C0F4
:100AB60060B0988E868080838F9C3060C080008076
:100AC600C060381F0740C0C07F3F000000002424DC
:100AD600A4FEFF2322C0F838FFFF08187060080E36
:100AE60007FFFF078781C04067371C0F03004040A0
:100AF60042CECC40E0BE9E82829EBEA02020000058
:100B0600003FBF98C8436F3C386E47C180800000E5
:100B1600FEFE40404040FFFFC06030180800000065
:100B26007F7F203010103F7F40404040787880E043
:100B3600F8FF0784FC7C24E4E4F8F8FFFF000000DB
:100B4600FFFF84C763331E0F034FCFFF7F002024B0
:100B560024A4FEFF2322FCFC040404FCFC00101861
:100B66000E07FFFF0786E37B1901093BF3C080C030
:100B760060B0988E868080838F9C3060C0800080B5
:100B8600C060381F0740C0C07F3F000000001098BB
:100B9600CCF7B39E9E9F9F9EBEF8DFF7F010010133
:100BA600FFFFC07E3E023E3E98EF7F7FE78000005B
:100BB600FCFC24E4E424262222A3E3620000407025
:100BC600BF8FC04063371C1C366341C08080203015
:100BD600F8EC272724E4E4343C2CE0E00000000095
:100BE6003F7F4242424343424242434378780000B9
:100BF60000FEFE929292929292FEFE000000404209
:100C0600465C587F7F40407F7F50584E464040406C
:100C16004242424242C2C2424242424240402030E6
:100C2600180E0640C0FF7F000002060C383096DE24
:100C36007A7E7F79DD9732FEFE1232FEFE0000FFDD
:100C4600FF7F7FFFFF44C6FF7F46C3FF7F00C8F8D4
:100C5600BFEFE888C84848E8FF5F4848484008189A
:100C660018FFFF0404020B1B32F2DA0E060000E046
:100C7600E0FFFF302888F87F0FE8E8088888010140
:100C860000FFFF101C8FC7673B1F1F7AE3812030D0
:100C960018FFF7545454545454F4F4040400809048
:100CA60090D94D5F772525755D4DC5808080000004
:100CB6007C7C404040FFFF404040FCFC0000007C44
:100CC6007C404040407F7F40404040FCFC000000AC
:100CD600FEFE02020202020202020202020280E09A
:100CE6007F1F0000000000000000000000004040E0
:100CF60042CECC808888FFFF88FFFF88888000402E
:100D0600603F3F60505C4F43405F5F40404002E2BF
:100D1600E2223E3E809E9E92F2F2929E9E8000438A
:100D2600C3C27E7E474744447F7F4454F7E70808A2
:100D360089EBFA98880404FCFC0404FCFC0002031A
:100D460001FFFF87C660381F47C0C07F3F00808213
:100D56008282FEFE82828282FEFE82828280008003
:100D6600C0703F0F00000000FFFF000000001010E1
:100D7600F0FF1FF0F040E0F85F475070E0C04062BF
:100D8600371D1E372100FEFE424242FEFE0000F8DD
:100D9600F8FFFFF8F890DC5FF7F45CCC8480206302
:100DA600633F1F3939101515FFFF1515101000FC8C
:100DB600FC04FCFC00FCFC16776584FCFC00000FC0
:100DC6000F040F0F101313121252D2D27E3E404060
:100DD6004444547465474664745444444040000097
:100DE60000FFFF494949494949FFFF00000020200B
:100DF60020BEBEAAAAAAAAAAAABEBE2020200080F9
:100E060080AFAFAAAAFFFFAAAAAFAF8080008082F8
:100E16008282FEFE82828282FEFE82828280008042
:100E2600C0703F0F00000000FFFF00000000000040
:100E36001011171610F0F01014171310000081810E
:100E4600C14161311D0F0F1D316141C1818140409A
:100E56004242424242FEFE4242424242404000007C
:100E660000000040C0FF7F000000000000008090EE
:100E760090D84C5F772424745C4CC480808000003A
:100E860000FFFF49497F7F4949FFFF00000000003E
:100E9600000000000000002F00000000070007000F
:100EA60000147F147F1400242A7F2A12006264082B
:100EB60013230036495522500000050300000000A8
:100EC6001C224100000041221C000014083E0814A8
:100ED6000008083E0808000000A060000008080896
:100EE6000808000060600000002010080402003EB0
:100EF6005149453E0000427F40000042615149464B
:100F0600002141454B31001814127F10002745453A
:100F16004539003C4A49493000017109050300364C
:100F26004949493600064949291E0000363600005F
:100F36000000563600000008142241000014141464
:100F4600141400004122140800020151090600325F
:100F56004959513E007C1211127C007F494949369D
:100F6600003E41414122007F4141221C007F494908
:100F76004941007F09090901003E4149497A007F3C
:100F86000808087F0000417F4100002040413F01E2
:100F9600007F08142241007F40404040007F020C41
:100FA600027F007F0408107F003E4141413E007FE2
:100FB60009090906003E4151215E007F09192946AB
:100FC6000046494949310001017F0101003F404087
:100FD600403F001F2040201F003F4038403F006335
:100FE6001408146300070870080700615149454357
:100FF60000007F41410000552A552A550000414115
:101006007F00000238444428004040404040000031
:1010160001020400002054545478007F48444438A8
:1010260000384444442000384444487F003854542F
:10103600541800087E0901020018A4A4A47C007FAD
:10104600080404780000447D4000004080847D0050
:10105600007F102844000000417F4000007C0418F7
:101066000478007C0804047800384444443800FCC2
:10107600242424180018242418FC007C08040408DE
:1010860000485454542000043F444020003C404053
:10109600207C001C2040201C003C4030403C00448A
:1010A60028102844001CA0A0A07C004464544C4492
:1010B60014141414141400000000000000000000B2
:1010C600000000000000000000F800000000000022
:1010D60000333000000000100C06100C0600000063
:1010E60000000000000040C07840C0784000043F87
:1010F60004043F040400007088FC08300000001857
:1011060020FF211E0000F008F000E018000000217A
:101116001C031E211E0000F00888700000001E211E
:1011260023241927211010160E00000000000000CD
:10113600000000000000000000E0180402000000AB
:1011460000071820400000020418E00000000040DC
:10115600201807000000404080F080404000020256
:10116600010F01020200000000F000000000010172
:10117600011F01010100000000000000000080B016
:1011860070000000000000000000000000000001E8
:101196000101010101010000000000000000003013
:1011A60030000000000000000000806018040060AD
:1011B60018060100000000F8F8F838F8F800003FBB
:1011C6003F3F383F0F00002038F8F8F800000000D5
:1011D600003F3F3F000000383838B8F8F8000038C4
:1011E6003E3F3F3B390000383838F8F8B800003841
:1011F6003839393F1F000080F8F800F8F800000F72
:101206000F0F3E3F3F0000F8F8F8B8B8B800003BB3
:101216003B39393F1F0000F8F8F8B8B8B800003F6E
:101226003F3B393F1F0000383838B8F8F800000057
:10123600203C3F0F000000F8F8D898F8F800003E70
:101246003F393B3F1C0000F0F8D898F8F800003B07
:101256003B3B3B3F1F00000000C0C00000000000F9
:101266000030300000000000008000000000000098
:1012760080600000000080C0E0F0F8FCFEFF010383
:10128600070F1F3F7FFF404040404040400004049E
:10129600040404040400FFFEFCF8F0E0C080FF7FB5
:1012A6003F1F0F070301007048080808F000000000
:1012B600003036010000C030C828E810E0000718EA
:1012C600272423140B000000C038E0000000203C57
:1012D60023020227382008F8888888700000203FFB
:1012E600202020110E00C030080808083800071812
:1012F60020202010080008F808080810E000203F09
:10130600202020100F0008F88888E8081000203FE9
:1013160020202320180008F88888E8081000203FBD
:10132600200003000000C030080808380000071835
:101336002020221E020008F808000008F808203FB6
:10134600210101213F20000808F8080800000020BC
:10135600203F2020000000000808F8080800C08090
:1013660080807F00000008F888C028180800203F09
:1013760020012638200008F8080000000000203F61
:1013860020202020300008F8F800F8F80800203F58
:10139600003F003F200008F830C00008F808203F52
:1013A600200007183F00E01008080810E0000F10A2
:1013B600202020100F0008F808080808F000203F39
:1013C600210101010000E01008080810E0000F18D4
:1013D600242438504F0008F8888888887000203FF9
:1013E6002000030C302000708808080838000038F8
:1013F600202121221C00180808F8080818000000FF
:10140600203F2000000008F808000008F808001F28
:10141600202020201F000878880000C83808000017
:1014260007380E010000F80800F80008F800033C31
:101436000700073C030008186880806818082030F9
:101446002C03032C30200838C800C83808000000D8
:10145600203F2000000010080808C838080020387F
:10146600262120201800000000FE020202000000D3
:10147600007F40404000000C30C00000000000002B
:1014860000010638C00000020202FE000000004013
:1014960040407F0000000000040202020400000039
:1014A6000000000000000000000000000000808036
:1014B600808080808080000202040000000000001E
:1014C60000000000000000008080808000000019FD
:1014D600242222223F2008F8008080000000003FDE
:1014E600112020110E000000008080800000000EF8
:1014F600112020201100000000808088F800000ED6
:10150600112020103F200000808080800000001FF6
:10151600222222221300008080F08888881800206A
:10152600203F202000000000808080808000006B2B
:1015360094949493600008F8008080800000203F17
:10154600210000203F200080989800000000002025
:10155600203F20200000000000809898000000C076
:101566008080807F000008F8000080808000203F97
:1015760024022D302000000808F80000000000209A
:10158600203F202000008080808080808000203FD7
:1015960020003F20003F8080008080800000203FA8
:1015A600210000203F200000808080800000001F76
:1015B600202020201F00808000808000000080FF07
:1015C600A12020110E000000008080808000000E07
:1015D600112020A0FF808080800080808000202055
:1015E6003F212000010000008080808080000033C1
:1015F600242424241900008080E08080000000005C
:10160600001F202000008080000000808000001F56
:10161600202020103F2080808000008080800001F4
:101626000E300806010080800080008080800F3028
:101636000C030C300F0000808000808080000020AA
:10164600312E0E31200080808000008080808081D5
:101656008E70180601000080808080808000002146
:10166600302C2221300000000000807C02020000A5
:101676000000003F404000000000FF0000000000A6
:101686000000FF0000000002027C80000000004015
:10169600403F0000000000060101020204040000B1
:1016A60000000000000000F0F0F0F0F0F8F8F8F8A4
:1016B600F8F8F8F8F80000FFFFFFFFFFFF07070341
:1016C600FFFFFFFFFF0000FFFFFFFFFFFF8080FE21
:1016D600FFFFFFFFFF00003F3F3F3F3F3F3F3F3FD2
:1016E6001F1F0F070100000080F0F0F0F0F0F0F08F
:1016F600F8F800000000000007070707FFFFFFFFDC
:10170600FFFF00000000000000000000FFFFFFFFD9
:10171600FFFF000000000000000000003F3F3F3FC9
:101726003F1F0000000000F0F0F0F0F0F0F0F0F0E5
:10173600F8F8F8F8F8000007070707070787C7FF54
:10174600FFFFFFFFFF0000C0E0F0F8FEFFFFFFBF56
:101756009F8F87838000003F3F3F3F3F3F3F3F1FB4
:101766001F1F1F1F1F0000F0F0F0F0F0F0F8F8F850
:10177600F8F8F8F8E000000707070707C7FFFFFFBC
:10178600FFFFDFCF830000C080808081838387E7EF
:10179600FFFFFFFFFF00003F3F3F3F3F1F1F1F1F91
:1017A6001F1F0F0703000000F0F0F0F0F00000F834
:1017B600F8F8F8F8000000F8FFFFFFFF0F0000FF41
:1017C600FFFFFFFF0000F0FFFFFFFFFFFCFCFCFF39
:1017D600FFFFFFFFFC0001010101010101013F3F85
:1017E6003F3F3F3F00000000F0F0F0F0F0F0F0F077
:1017F600F0F0F0F8F80000FFFFFFFFFFFFE7E7E774
:10180600E3E3E3E3E300008F8F8F8F8F878787877C
:10181600FFFFFFFFFF00003F3F3F3F3F1F1F1F1F10
:101826001F1F0F07030000F0F0F0F0F0F0F0F0F0EB
:10183600F0F8F8F8F80000FFFFFFFFFFFFE7E7E723
:10184600E7E7E7E7E70000FFFFFFFFFF8F8F8F8FD8
:10185600FFFFFFFFFF00003F3F3F3F3F3F1F1F1FB0
:101866001F1F1F07030000F0F0F0F0F0F0F0F0F09B
:10187600F8F8F8F8F8000007070707070707C7FF93
:10188600FFFFFFFF0F00000000000080F0FEFFFFDB
:10189600FF7F07000000000000203C3F3F3F3F3F26
:1018A60003000000000000F0F0F0F0F0F0F0F0F0BF
:1018B600F0F8F8F8F800003FFFFFFFFFE3E1E1E191
:1018C600FFFFFFFF1F0000FEFFFFFFFF878787CF99
:1018D600FFFFFFFFFF00003F3F3F3F3F1F1F1F1F50
:1018E6001F1F1F07030000F0F0F0F0F0F0F0F0F01B
:1018F600F8F8F8F8F80000FFFFFFFFFF8787C7C773
:10190600FFFFFFFFFF00009F9F9F9F9F9F9F9F9F3F
:10191600FFFFFFFFFF00003F3F3F3F3F3F1F1F1FEF
:101926001F1F0F070300FC0201C181C1F1FF7DF9F2
:10193600E1F1E18102FC3F408EBFBF878183808059
:1019460083BF9F8F403F000000C000C0F8FCFEC070
:10195600E0F0E00000000000021F3F3F7F7F7F7F36
:101966003F3F1F070000000080C080F008041C20D5
:10197600601060C0000000000F1821234040404066
:101986006020180F0000000080FE03FD017E80002D
:10199600021212121200003E410C9E9F9E8C403392
:1019A6000C4049494900000C12120CC0F0F8783876
:1019B60038383878700000000000001F3F7F7870CC
:1019C600707070783800FC0201E1F9FD0D1D1D1DD7
:1019D6000101010102FC3F408E8F8F9F9E9FBFBF7A
:1019E600BFBF9F8E403FFC0281818181810101C57D
:1019F600E5B59D8D02FC3F40B1B9ADA7A3808081BE
:101A060081818181403FFFFF818181818181818147
:101A160081818181818181818181818181818181B0
:101A260081818181818181818181818181818181A0
:101A3600818181818181818181818181FFFF6070C6
:101A4600707070F8FCFE8E0E8EDEFCF86000707012
:101A56007070707070707070707070707060000070
:101A6600000000000000000080808080808081836C
:101A760083838383818180800080E0F0F03838386A
:101A8600F0F0E08080808080000000000000000010
:101A9600000001010101010181C1C1C1C1C18181F2
:101AA60001010001070F0E1C1C1C0F0F070301018B
:101AB600010100000000000000000000060E0E0EEE
:101AC6000E1F3F7F7171717B3F3F0E000E0E0E0E93
:101AD6000E0E0E0E0E0E0E0E0E0E0E040000000062
:101AE600000000000000E0F8FC1E0E0707070707CD
:101AF6000707070707070787C7C7C7C7C7C78707F0
:101B0600070E1EFCF8E000000000000000000000C8
:101B1600FFFFFF00000000000000000000000000C2
:101B260000000101010101037FFF7C0000FFFFFFB0
:101B360000000000000000000000FFFFFF000000A2
:101B4600FCFEFC8000000000000000000000000019
:101B560000000000000000FFFFFF00000000000082
:101B660000000000071F3F7870E0E0E1E3E7E7E7E9
:101B7600E7E7E7E2E0E0E0E0E0E0E0E0E0E0E070B8
:101B8600783F1F0F0000000000000000000000006A
:101B960080C0F07060E0C0C0E07F3F030303030332
:101BA600033F7FE0C0C0E06070F0C080000000002E
:101BB6000000000000000000181E3F73E0C0000097
:101BC6000000C0F038180C0C0C0C1838F0C00000DF
:101BD6000000C0E0733F1E18000000000000000077
:101BE60000001878FCCE070700000000030F1C1841
:101BF60030303030181C0F07000000000707CEFCFD
:101C06007810000000000000000000000000010342
:101C16000F0E0607030307FEFCC0C0C0C0C0C0FC11
:101C2600FE07030306060E0F030100000000000076
:101C3600000000000000000080C0E070381C0C0EA0
:101C460006060703039F9F03030706060E0C1C38B0
:101C560070E0C080000000000000000000000000EE
:101C6600F0FE9F838000000000000000000000FFDF
:101C7600FF0000000000000000000080839FFEF0CF
:101C8600000000000000000000000F7FF1C101000D
:101C96000000000000000000000303060E0C1C18E4
:101CA600100000000001C1F17F0F000000000000DD
:101CB6000000000000000103070E1C183070606071
:101CC600E0C0C0F8F8C0C0E060607030381C0E0795
:101CD60003010000000000000000000000000000FA
:101CE60000000060E0C080000000808080DEDE0032
:101CF60000F0FC1C0E060E1CFCF0000000000000AC
:101D0600000000000000000000808080800080F15C
:101D1600FD1E070303010101010000FFFF00F8F8A3
:101D2600F800FFFF000000000000000000000000B7
:101D36000000000101010100018F3F78E0C0C08072
:101D46000000E0F83C0FC7E0FFFFFFE0870F3CF81C
:101D5600E00000000000000000000000000000009D
:101D6600000607030100000001010000030F1E38F2
:101D760031736367677331381E0F0300000000007C
:101D86000000000000000000000000C0E0603038E5
:101D9600181C0C0C0C1F1F0C0C0C1C18383060E0A7
:101DA600C00000000000000000000000000000006D
:101DB6008080F8FE8F030000F0180C02030181C139
:101DC600C1810103060418F00000038FFEF880802D
:101DD6000000000000000000000001011F7FE1C0BC
:101DE60000000F182040C0808183838180C040207E
:101DF600180F0000C0F17F1F010100000000000065
:101E060000000000000000000003070E0C1C18383C
:101E1600303030F8F830303038181C0C0E0703011B
:101E260000000000000000000000000000000000AC
:101E360000C0E0F078381C1E0E0E060700000000F9
:101E460007060E0E1E1C3C78F0E0C0800000000065
:101E56000000000000000000303E3F1F03000000AD
:101E66000000000080C0E0F0F8BC86808000000022
:101E7600000000030F3F3E3000000000000000009D
:101E860000000C7CFCF0C0000000000000000060B8
:101E9600381F0F07030100000000000000C0F0FC1F
:101EA6007C0C0000000000000000000000000103A0
:101EB600070F1E1C3878707060E000000000E060BC
:101EC600707078383C1E0F07030100000000000008
:101ED60000000000000000E0F81C0C0606060606DE
:101EE600060C1CF8F00000008C8C8C8C8C8C8C8C76
:101EF6008C8C8C8C000000000000000000000000AC
:101F060000071F387060606060606070381F0F00E7
:101F1600000031313131313131313131313100006F
:101F26000000000000000000000000E0F81C0C06A5
:101F360006060606060E1CF8F00000E0F81C0C0665
:101F460006060606060E1CF8E0000000000000006B
:101F56000000000000071F387060606060606070FD
:101F6600381F0F00000F1F3870606060606060707F
:101F7600381F0F00000000000000000000000000F5
:101F86000080C0E0F0F8F8FCFCFEFEFE7E3E3E7EE1
:101F9600FEFEFEFCFCF8F8F0E0C080000000000049
:101FA600000000000000000000F8FEFFFFFFFFFF3A
:101FB600FFFFFFFF0F0F0C0C0C0CFFFFFFFFFFFFD7
:101FC600FFFFFFFFFFFEF80000000000000000001A
:101FD6000000001F7FFFFFFFFFFFFFFFFFFF0F0F48
:101FE600000000000F0FFFFFFFFFFFFFFFFFFF7F57
:101FF6001F000000000000000000000000000001BB
:1020060003070F1F1F3F3F7F7F7F7F7F7F7F7F7F7E
:102016007F3F3F1F1F0F0703010000000000000065
:102026000000000000000000386C446C380000809E
:10203600C0C0C0C0C0C0C0C0C0C08000000000009A
:102046000000000000FCFFFFFFFF0703030303037C
:1020560007070707000000000000000000070F1F29
:102066003F3F3E3C3C3C3C3C3E3E1E0E00000000DA
:10207600000000000000000000000000000000005A
:10208600000000000000000000000000000000004A
:10209600000000000000000000000000000000003A
:1020A600000000000000000000000000000000002A
:1020B6000000000000000000107CC4C46C7C10000E
:1020C6000000FC0000000000FC0000000000000012
:1020D60000000000000000000000000000FF0000FB
:1020E600001C3E73E3321E000000FF0000000000EB
:1020F6000000000000000000000000000000003F9B
:102106000000000000003F0000003E3663233E183A
:10211600000000000000000000000000F8FC0E07B0
:102126000703030303030303036363636363E3C3F5
:10213600070EFCF800000000000000000000FFFF92
:10214600000000E0E00000000000000000000000C9
:102156000F070000FFFF0000000000000000000065
:102166001F3F70E0C0C7CFCCCCCCCCCCC0C0C0C069
:10217600C0C0C0C0E0703F1F0000000000000000AB
:10218600000000000080C0C0F0F8F8FCFCF8F0F891
:10219600FCF8F8F0C080800000000000000000009D
:1021A600000000000000E7FFFFFFFFC7010000007E
:1021B60000000001C7FFFFFFFFCF00000000000086
:1021C6000000000000000000010707071F3F3F7ED8
:1021D6007E3E3E7E7E7F3F3F0707070100000000F0
:1021E6000000000000000000000000C0E0701818A9
:1021F6000C0C0C84840C0C0C181830E0C000000089
:10220600000000000000000000000000FFE70000E2
:1022160000000000001F3F60C08000000000E7FFD4
:1022260000000000000000000000000000000003A5
:10223600070C1818303030202030303018180C07B2
:102246000301000000000000000000000000000084
:10225600000000FC0203F90302FC00000006C6C6EB
:10226600C6C6C6C6C600000000000000000000008A
:1022760000C070180CC7E0E0FFE0E0C70C18F0C023
:1022860000001818181818000000000000000000D0
:10229600000000071C306043C78F8F8FC743603034
:1022A6001C07606063636363630000000000000056
:1022B600000000000000000000C02020109088CF21
:1022C600CF8890102020C000000000000000000011
:1022D6000000000000001818183CC300187EFFFF1D
:1022E600FFFFFFFFFFFF7E1800C33C181818000011
:1022F60000000000000000000000000000030404CD
:10230600080911F3F3110908040403000000000092
:102316000000000000000000000000C0E070381C53
:102326000C060607030000830706060E1C3870E03D
:10233600C0000000000000000000000066E7C300C7
:102346000000000000088CFE7F3110000000000035
:102356000083C7C600000000000000000000000364
:10236600070E1C38706060E0C10000C0E06060705D
:10237600381C0E07030000000000000000000000EB
:10238600F0DC060303010303020EF80000F80C0656
:102396000303010303069CF8000000000000000090
:1023A60000000081C366242424242424E70000E7D7
:1023B60024242424242466C2830000000000000094
:1023C600000000001F3B60C0C08080C040301F007E
:1023D600001F3040C0C080C0C0603B1F000000002E
:1023E6000000000000000080E0F0F8F8FCFEFEFEB1
:1023F6001E1F1EFEFEFEFCFCF8F0E0C00000000002
:1024060000000000000000007EFFFFFFFFFFFFFF4F
:10241600FF710101037FFFFFFFFFFFFFFFFFFF18B3
:10242600000000000000000000000003070F1F3F2F
:102436007F7F7FFCFCFCFCFCFF7F7F3F1F1F0703A9
:10244600000000000000000000000000FFFF838382
:102456008387FEFC0000FFFF636363E3FFBE00FFAC
:10246600FF007FFFC08080C0FF7F0000FFFFB3B387
:10247600B3B3B300FFFF636363E3FFBE010101F182
:10248600F1F1F1E1C0800101000000000101F0F16D
:10249600F1F00000010101C1E0F0F0F0F1F1F1F11D
:1024A600F1F1F1F0F1F1F0F0E0C00101000000FF00
:1024B600FFFFFF071F3F7FFEF8F0E0C08000FFFF31
:1024C600FFFF0000000000FFFFFFFF00000000000C
:1024D600000000000000FFFFFFFF0000000000FFFB
:1024E600FFFFFF000000000001030F1F3F7EFFFFFC
:1024F600FFFF00000000003F7FFFFFF0F0F0F0F06C
:0C250600F0F0F0F0F0F0FFFF7F3F00006D
:1089D1001284B5900364E0FBA3E0FAA3E0F9EF028F
:0289E1002BD693
:01001A0022C3
:07896C00C295128973D29538
:0E8973007F027E00EF1FAC0670011E4C70F6F6
:0189810022D3
:0F8A0300D294D295128973C294128973C29522AC
:0A8A4600C29412896CD29402897365
:10890700AD07C295128973ED6004C2948002D294B8
:0A891700D295128973C2950289738C
:1089820012896C309406C295E4FEFF22C2951289C8
:06899200737E007F01224C
:04870600E025E0FF8B
:02870A00AD07B9
:10870C007B08AF031BEF6015ED30E704D2948002B9
:10871C00C294ED25E0FD12896EC29580E502898236
:0284B500AD0711
:1084B700E4FBC295128973D294E4FAEAC394087470
:1084C700809480501112897312896CEB25E0FB3080
:1084D70094010B0A80E5C295128973AF05128907CB
:0284E700AF03E1
:0184E9002270
:10889700900125EFF0AA03A905128A03128706AFF4
:0C88A7000112870AAF0212870A028A46FB
:09835E0090039CEDF0AA07A903AD
:10836700128A03EA25E0FF12870AE0FF12870AE96B
:1083770064017003128A46128A03AF02EF25E044B4
:1083870001FF12870AE4FF1284B5AD07128A46AFD0
:0183970005E0
:0183980022C2
:107D7900900362EFF0A3EDF0A3EBF0A3EAF0A3E91F
:107D8900F0128A03900362128706A3E0FF12870AA2
:107D9900900368E064017003128A46128A03900313
:107DA90062E025E04401FF12870A900367E014F0BE
:107DB90060117F011289D1900365E475F001122CDD
:0B7DC9008580E7E4FF1289D1028A46A2
:068A9900250000000000B2
:103FAE00A3E0FEA3E02444F582741A3EF583E49365
:103FBE00FF7E007D017C002290030DE0FCA3E0FD5E
:103FCE00A3E0FEA3E0240190030DFFE43EFEE43DDA
:103FDE00FDE43CFC022E0090030BE0C394107480B1
:103FEE009480229000EFE09000F275F0A8A4FFE517
:103FFE00F0F0A3EFF02290011FE075F010A42FF562
:10400E0082E435F0F583E58222FF3395E0FEC3743A
:10401E00409FFFE49EFEE0C39FEE6480F87480989C
:10402E0022A3A3E0FEA3E0900320FFE0FBA3E0FAAF
:10403E00A3E0F922F0900326E0FCA3E0FDA3E0FE4E
:10404E00A3E0229000EDE0FF3395E0FE22C3900046
:10405E00F6E09000F59404E0648094802290030DC5
:10406E00E47F01FEFDFCE0F8A3E0F9A3E0FAA3E093
:10407E00FBC3022DDCEFF0A3EDF0A3EBF0A3EAF00F
:10408E00A3E9F022FE9000F3E02FF09000F2E03E64
:10409E00F09000EEE004F09000F6E004F0229001C3
:1040AE0020E0FFC39408748094802290030DA3A394
:1040BE00E0FEA3E02454F582740122C390030AE0CB
:1040CE009003099402E06480948022E0FFE4FCFDFA
:1040DE00FE900112122E009001167401F0A3740CC2
:1040EE00F022C39000F3E09000F29403E064809419
:1040FE0080227D017C00E4FFFE22C3900353E090FA
:10410E0003529404E06480948022FE9000F1E02F2C
:10411E00F09000F0E03EF09000EDE004F09000F33F
:10412E00E004F022FE900351E02FF0900350E03EA9
:10413E00F090034DE004F0900353E004F022900160
:10414E001FE075F006A42494F582E5F0340EF58395
:10415E00E5822FF582E43583229000F1E0C3942AA4
:10416E007480948022E0F582758300022BA9EE24E0
:10417E0001FFE433FE8F828E83022BA99000EEE0C6
:10418E00FDFF3395E0FE22900305E004F090030A54
:10419E00E004F022E0FD3395E0FCC36480948022BD
:1041AE007C00AF03AE02122BFA7C007D0A122BFAB2
:1041BE00A3EDF022FFE43EFEE43DFDE43CFC022EC6
:1041CE0000E09000A693FFD3947F7480948022EF3A
:1041DE00F0FCA3EDF0E4A3F02275F0A8A4C39DFEBD
:1041EE00E5F09CF0A3CEF02290030CE004F0E490F6
:1041FE000309F0A3F022A3E0FEA3E024BCF5827431
:10420E002022C3EF9416EE6480948022F0E4A3F093
:10421E0090031EE0FFA3E0FD7B017A037923229039
:10422E0000F2E004F0229000F1E004F0229000F59C
:10423E00E004F022FEC39000F6E09FEE6480F8905A
:10424E0000F5E064809822900311E004F022EF2440
:10425E00B0FFEE33FEE4FDFC22EE75F010A4FFAECF
:10426E00F0E4FCFD022E00E0C39480748094802262
:10427E0024BCF582E58334102224C4F582E5833410
:10428E001022F583E493F4FFE4F4FE7D017C00221A
:10429E009000EEE075F066A422EFF0A3EDF0A3EB34
:1042AE00F022900120E0FFC394067480948022E4F3
:1042BE00F0EF3395E0FEC36480948022C3E49FFF49
:1042CE00E49E2290030BE004F022900309E004F038
:1042DE0022900119E0FEA3E0FF900113E022E58297
:1042EE002FF582E5833EF583E49322A4FF9001101F
:1042FE00E02FFFA3E0FD22A3A3A3E0F5828E8302AD
:10430E002BA9E4F0A3E02402F022E4FDFC7F10FED2
:10431E0022E4A3F0A3F0A3229000F0E004F0229098
:10432E0000EFE004F0229000F2E004F0229003503F
:10433E00E004F02290034FE004F022900352E004D8
:10434E00F022E0FCA3E0FDEC02282EF08F828E839B
:0E435E00A3022BA9F0900110E0FFA3E0FD22C6
:098A6B00AB07E4FD7F3C02889793
:098A7400AB077D407F3C028897AE
:1088B300900123EEF0A3EFF0ED4C9001236006A3AB
:0C88C300E0FF028A74A3E0FF128A6B221F
:057F2E00900393EFF049
:107F3300E4A3F0900394E0FF7E001240B1503B12A3
:107F4300425C1288B3E4FDFCFFFE1288B3124318AF
:107F53001288B3E4900395F0900395124275501282
:107F6300900393E0123FBE1288B3900395E004F0B0
:0A7F730080E6900394E004F080B96A
:017F7D0022E1
:10855000900122EFF0ED24B0FFE433FE1285775452
:10856000F0C4540F7E004410FF128577540FFF7E35
:1085700000E4FDFC0288B3E4FDFC1288B390012204
:02858000E022F7
:1080F800E49000E9F09000E9E0FF7E001240B15002
:108108003712425C1288B3E4FDFCFFFE1288B312FA
:1081180043181288B3E49000EAF09000EA1242751E
:10812800500E1241001288B39000EAE004F080EA91
:088138009000E9E004F080BDB5
:01814000221C
:107FCD00E490039AF090039AE0FF7E001240B150C6
:107FDD003C12425C1288B3E4FDFCFFFE1288B31222
:107FED0043181288B3E490039BF090039B124275E3
:107FFD0050137D017C007F017E001288B390039B9E
:0D800D00E004F080E590039AE004F080B8F4
:01801A002243
:0B67620090011CEDF090011BEFF0FD1A
:10676D00E490011FF0A3F0EB24E090011FF0ED1277
:10677D0041D54007E490011B124311900000E070D9
:10678D004790011EE06410702C12682E1240AC5020
:10679D000E12400412427E123FBA12685180ED1261
:1067AD00683F1240AC5062124004124287123FBA49
:1067BD0012685180ED12682E1242B0504C12414CAD
:1067CD00123FBA12686C80F090011EE064107026C2
:1067DD0012685B1240AC500B12400412427E1268DC
:1067ED001780F012683F1240AC501E124004124246
:1067FD008712681780F012685B1242B0500B12417D
:09680D004C12429012686C80F0FC
:1068160022F583E493F4FFE4F4FE7D017C00128804
:10682600B3900120E004F02290011BE0FFA3E0FDFD
:10683600128550E4900120F02290011BE0FFA3E0B6
:1068460004FD128550E4900120F0221288B39001D5
:1068560020E004F02290011BE0FFA3E0FD1285502A
:10686600E4900120F0221288B3900120E004F02287
:06726F009000E9124083CB
:1072750012431FF09000EB1240399000F012417359
:10728500607024E09000EEF09000E9E0D3947A7409
:107295008094804006E4F0A3E004F09000E9E0FF6C
:1072A500A3E01272F89000EF1240AF50119000EE7B
:1072B50012400712427E123FBA12730280E7900015
:1072C500E9E0FFA3E0041272F89000EF1240AF501E
:1072D500119000EE124007124287123FBA12730254
:1072E50080E79000E9E02408F09000F0E004F00267
:0272F5007279AC
:1072F70022FD128550E49000EFF0221288B390002F
:05730700EFE004F0229C
:08829B0090011BEFF0A3EDF0D0
:1082A300A3122E0C0000000190011CE0FF14F0EF5C
:1082B3006020A3E0F8A3E0F9A3E0FAA3E0FB9001B8
:1082C3001BE0FFE4FCFDFE122CB190011D122E00F9
:0982D30080D690011D124046FF07
:0182DC00227F
:08707C00900110EFF0A3EDF00C
:10708400E490011AF0900118F0900116E0FF9001CD
:1070940018E0FEC39F4003027123C3EF9E14FD7FDB
:1070A4000A12829BA804A905AA06AB079001121232
:1070B4004046FF122D3CE47B0AFAF9F8122D3C906D
:1070C4000119EBF0A3E0702E900116E014FF90017B
:1070D40018E0FEC39F501FA3E07015900117E0FC59
:1070E400C3138EF01242F990011EECF07B20802332
:1070F40090011A7401F0900117E0FEC313FFA3E09E
:10710400FDEF8DF01242F9900119E02430FB90015B
:0F7114001EEEF0126762900118E004F002708D19
:017123002249
:067DD40090011012408333
:107DDA00E4900116F09001121240399001161241F6
:107DEA0073FB6040900110E0FFA3E0FD900115E0F5
:107DFA0090011EF0126762900115E0641090011064
:107E0A007006E02408F08004E02406F0900110E0F7
:107E1A00D39478748094804003124310900116E042
:047E2A0004F080B12F
:017E2E002231
:0A755800900336EFF0900338EBF0DB
:10756200E490033DF0A3F0900339E0FF5407700864
:10757200EF131313541F800A900339E013131354AB
:107582001F04900340F0900340EDF0900339E0FFB8
:10759200900340E0FDC39F5049900336E0FF1285FF
:1075A20050900336E090033FF0900338E0FF9003E1
:1075B2003FE0C39F502490033A124039A3E475F090
:1075C20001122C9B85F082F583122BA9123FBE1269
:1075D20088B390033FE004F080CF900340E004F0D2
:0275E20080A97E
:0175E4002284
:106EFC007F647E001289987FAE126F997F40FE12DC
:106F0C0088B37FB0126F857F81FE1288B3E4FDFCDD
:106F1C007FFFFE1288B37FA0126F857FA6FE1288BA
:106F2C00B37FA8126F997F1FFE1288B37FD3126FA5
:106F3C00A4FFFE1288B37FD5126FA47FF0FE1288D7
:106F4C00B37FD9126FAF7F22FE1288B37FDA126F34
:106F5C00AF7F02FE1288B37FDB126FBA7F49FE123D
:106F6C0088B37F8D126FBA7F14FE1288B3E4FDFCD8
:106F7C007FAFFE1288B30280F8E4FDFCFE1288B3EA
:106F8C00E4FDFC7FC0FE1288B3E4FDFC22E4FDFCB2
:106F9C00FE1288B3E4FDFC22E4FDFCFE1288B3E48F
:106FAC00FDFC22E4FDFCFE1288B3E4FDFC22E4FDB2
:096FBC00FCFE1288B3E4FDFC2286
:03798C009000F474
:10798F001241DDEB75F040A4FFA3123FFDAF0412CF
:10799F008550E49000F9F0A3F09000F4E0FFA3E02D
:1079AF00FD128550E49000F6F09000F6123FE8507B
:1079BF0027A3E0FEA3E024ACF5827416123FB912A0
:1079CF0088B39000F8E004F070069000F7E004F040
:1079DF009000F6E004F080D19000F5E004F0900004
:1079EF00FAE004F070069000F9E004F0C39000FA9A
:0979FF00E09000F912406340A081
:017A0800225B
:03780B009000F4F6
:10780E001241DDEB75F048A4FFA3123FFDAF041249
:10781E008550E49000F9F0A3F09000F4E0FFA3E0AF
:10782E00FD128550E49000F6F09000F6E0C3941837
:10783E00748094805027A3E0FEA3E0242CF582747C
:10784E0020123FB91288B39000F8E004F070069051
:10785E0000F7E004F09000F6E004F080CC9000F524
:10786E00E004F09000FAE004F070069000F9E004F5
:0E787E00F0C39000FAE09000F91240F8409B31
:01788C0022D9
:03788D009000F474
:107890001241DDEB75F0C0A4FFA3123FFDAF04124F
:1078A0008550E49000F9F0A3F09000F4E0FFA3E02D
:1078B000FD128550E49000F6F09000F6E0C394309D
:1078C000748094805027A3E0FEA3E02452F58274D4
:1078D00024123FB91288B39000F8E004F0700690CB
:1078E00000F7E004F09000F6E004F080CC9000F5A2
:1078F000E004F09000FAE004F070069000F9E00473
:0E790000F0C39000FAE09000F9124110409B95
:01790E002256
:0582DD00900389EFF0A1
:1082E2001241E0A3F0900389E0FFA3E0FD12855064
:1082F2001241001288B390038AE004F090038CE0EC
:1083020004F0700690038BE004F0C390038CE094B9
:0B8312000390038BE06480948040CA5D
:01831D00223D
:0573A30090037BEDF0FA
:1073A80012431FF0EF1241A35003027436D3ED9439
:1073B80000EC648094804076ED9436EC6480948090
:1073C800506C90037BE0FD128550E490037FF0A39E
:1073D800F090037BE0FDFF128550E490037CF09071
:1073E800037CE0C3940A74809480501C12410012FC
:1073F80088B390037EE004F0700690037DE004F00B
:1074080090037CE004F080D790037BE004F09003C5
:1074180080E004F0700690037FE004F0C3900380DE
:0E742800E0940390037FE06480948040A422EF
:017436002233
:0D5AB7009000EDEDF0A3EBF09000ECEFF0AF
:105AC4009000EF1242BD4052EF941EEE6480948029
:105AD400504812429EFF9000F0123FFD125C03906A
:105AE40000F2F0A3F0125C039000EFF09000EFE0FE
:105AF400C39422748094805013124204123FB9124A
:105B04005C10700312432612432D80E0124125706D
:105B1400031243341240F040CC229000EC1241A214
:105B2400506812429EC39DFEE5F09C9000F0F0A3E5
:105B3400CEF09000EDE0FDE4FF125C1A9000EDE081
:105B4400FDE4FF128550E49000EFF09000EC124069
:105B540054EF2422FFE43EFE9000EF124024501341
:105B6400124204123FB9125C10700312432612430E
:105B74002D80D89000EC1240541242CA1241187081
:105B8400031243341240F040B3229000EC12418DD2
:105B9400C3EF941EEE64809480406312429EFF9093
:105BA40000F0123FFDAF059000EDE0FD125C1A908D
:105BB40000ECE0FFA3E0FD128550E49000EFF090CC
:105BC40000ECE09000EF1240175019124204123F0B
:105BD400B91288B39000F1E004F070031243261266
:105BE400432D80DB9000EC124054EF24E2FFEE34AE
:0E5BF400FF12411870031243341240F040B10A
:105C0200229000ECE0FFA3E0FD128550E42212880E
:105C1200B39000F1E004F022128550E49000F2F01B
:035C2200A3F022CA
:0D5ED60090034DEDF0A3EBF090034CEFF0C6
:105EE30090034F1242BD4045124211504090034E61
:105EF300E0900350123FF8126008900352F0A3F0B1
:105F030012600890034FF090034F12416A50101231
:105F13003FAE126015700312433B12434280E812F6
:105F2300413F700312434912410840D42290034C6D
:105F33001241A2505F90034EE09003501241E7904C
:105F4300034DE0FDE4FF12601F90034DE0FDE4FF0D
:105F5300128550E490034FF090034C124054EF2409
:105F63002AFFE43EFE90034F1240245010123FAE2E
:105F7300126015700312433B12434280DB90034CC3
:105F83001240541242CA1241327003124349124161
:105F93000840B62290034C12418D12421040659086
:105FA300034EE075F0A8A4FF900350123FFDAF0528
:105FB30090034DE0FD12601F90034CE0FFA3E0FD52
:105FC300128550E490034FF090034CE090034F127E
:105FD30040175016123FAE1288B3900351E004F0FD
:105FE300700312433B12434280DE90034C12405431
:105FF300EF24EAFFEE34FF124132700312434912D9
:04600300410840B45C
:106007002290034CE0FFA3E0FD128550E4221288A2
:10601700B3900351E004F022128550E4900352F04C
:03602700A3F022C1
:0D7785009000EBEBF09000E9EFF0A3EDF0C9
:10779200E49000ECF09000EFF0128550E49000EDE0
:1077A200F0A3F09000E9E0FFA3E0FD128550E49021
:1077B20000ECF09000EC123FE8502C9000EFE0FF5C
:1077C2009000EBE075F020A4242CF582E5F034194A
:1077D20012415C123FBA1288B39000EFE004F090BD
:1077E20000ECE004F080CC9000EAE004F09000EEBF
:1077F200E004F070069000EDE004F0C39000EEE0CB
:087802009000ED1240D1409B03
:01780A00225B
:0975E5009000F0EFF0AB05AA04E0
:1075EE007D641241AE7D0A1241AEAE02AF0312416E
:1075FE00B790009B124350C004C005C006C0079050
:10760E0002ED124350A804A905AA06AB07D007D075
:10761E0006D005D0041227B09000F0E0FF5023A34F
:10762E00E0FBE4FD12798C9000F0E024109000F263
:10763E0012766524209000F31276652430FFE4FB69
:10764E008010E4FBFD12788D9000F0E02430FF7B7B
:06765E0001E4FD12780BAF
:0E76640022FFE0FBE4FD12798C9000F0E022A2
:10877200C007C005AE02AF03E4FCFD900112122E49
:10878200009001167403F0A37410F0D005D0070214
:02879200707CF9
:066A82009000F01242A793
:106A8800E0FE75F0648475F00A849000F4E5F0F097
:106A9800EE75F00A8475F00A84A3E5F0F0EB75F062
:106AA8000A84A3E5F0F0128550E49000F3F090001A
:106AB800F3E0FFC39438748094805048C3EF940384
:106AC800748094804029D3EF943574809480501F4B
:106AD8009000F2E0C313FFA3E024FDFEEFD39E7DF8
:106AE800017C0040047FBD80027F817E00800A9087
:106AF80000F3E0901A0C123FBD1288B39000F3E047
:106B080004F080AA9000F0E02420FFC007A3E0145E
:106B1800FDC0059000F41240D9D005D007126B7261
:106B28002426FFC007A3E014FDC0059000F512401D
:106B3800D9D005D007126B72242CFFC007A3E0142C
:106B4800FDC0059000F61240D9D005D00712707C20
:106B58009000F0E02432FFA3E014FD7BFF7A8A79ED
:0A6B6800999001157408F0027DD425
:086B720012707C9000F0E0229B
:065C2500900341124083D0
:105C2B0012431F122E0C0000000190034312403947
:105C3B009003471241737003025D55E4900346F0E5
:105C4B00900348122E0C000000019003461241CF26
:105C5B004034900343124039900347E0FE124174E5
:105C6B00FDEF6D701812417CFF900346E0FE900033
:105C7B00A793B50708900348124267800990034623
:105C8B00E02402F080C4900341E0D3947A748094B2
:105C9B00804003124310125D6890034812406E60FF
:105CAB005F125D68E4900346F0900346123FE850A4
:105CBB00229003481240BC123FB91288B39003489C
:105CCB001240462401900348123FD8900346E0044B
:105CDB00F080D6125D56900346123FE8505B90035E
:105CEB00481240BC123FB91288B390034812404689
:105CFB0024019003481241C2900346E004F080D681
:105D0B00900347E004F0900341E0FFA3E0FD128510
:105D1B0050E4900346F0900346123FE850081241BE
:105D2B0000125D7480F0125D56900346123FE850EE
:105D3B0008124100125D7480F0900341E02410F0D2
:0A5D4B00900347E02402F0025C35EB
:105D550022900341E0FFA3E004FD128550E4900387
:105D650046F022900341E0FFA3E0FD128550221288
:095D750088B3900346E004F0221B
:067C4D0090031E124083AB
:107C5300900326122E0C0000000090032612402FE2
:107C6300124183604A1241D5900326401F124305F7
:107C730090032312435990032412421A125C259055
:107C8300031EE024101240422402801A12402F12D5
:107C9300418390032312421A12726F90031EE02451
:0F7CA3000812404224019003261241C2027C5D68
:017CB20022AF
:064D05009000ED1242A730
:104D0B00E49000F1F09000F4F09000F0E06003020A
:104D1B004E15124051C3648094804037124211509B
:104D2B0032123FF19000EDE0FFA3124F64124F36A9
:104D3B001241675010123FAE124F47700312422DB3
:104D4B0012423480EB12409F700312423B12405BC5
:104D5B0040DB229000ED1241A250589000EFE09002
:104D6B0000F21241E79000EEE0FDE4124F7B900061
:104D7B00EEE0FDE4FF128550E49000F1F01240519B
:104D8B00EF242AFFE43EFE9000F112402450101253
:104D9B003FAE124F47700312422D12423480DE1287
:104DAB0040511242CA124092700312423B12405BB6
:104DBB0040BC229000ED12418D1242105003024F65
:104DCB0035123FF1AF059000EE124F64124F3612C1
:104DDB004051C374409FFFE49EFE9000F1124024AB
:104DEB005010123FAE124F71700312422D1242340B
:104DFB0080DD124051EF24EAFFEE34FF1240927037
:104E0B000312423B12405B40C3229000F0E064016E
:104E1B006003024F35123FF19000EEE03395E0C393
:104E2B006480948050689000EDE0FFE4FD128550A3
:104E3B009000EE1240541242CAFE7C007D2A122BC7
:104E4B00E89000F3E02FF09000F2E03EF0E49000E9
:104E5B00F5F0A3F09000EE124054EF2404FFE43E73
:104E6B001242424003024F35124F5112416750100C
:104E7B00123FAE124F71700312422D12423480EB6F
:104E8B009000F41240A2700312423B024E5F12419B
:104E9B008AEF4E703A9000EDE0124F7B9000EDE000
:104EAB00FFA3E0FD128550E49000F1F01241675032
:104EBB0010123FAE124F87700312422D12423480F4
:104ECB00EB12409F700312423B12405B40CE22120A
:104EDB00418AD3EF9400EE64809480404D9000EDB6
:104EEB00E0FF1285509000EEE09000F4F0E4A3F0A8
:104EFB00A3F09000EE124054C374049FFFE49E1283
:104F0B0042425026124F511241675010123FAE12BF
:104F1B004F87700312422D12423480EB9000F41233
:0A4F2B0040A2700312423B024EFD4B
:104F3500229000EDE0FFA3E0FD128550E49000F122
:104F4500F0221288B39000F3E004F0229000EDE027
:104F5500FF9000F4E0FD128550E49000F1F022E0AE
:104F6500FD128550E49000F5F0A3F0221288B3906D
:104F750000F3E004F022FF128550E49000F5F0A361
:0C4F8500F0221288B39000F3E004F02248
:063BCF0090030412408384
:103BD500E490030BF0A3F0A3122E0C00000001E407
:103BE500900311F090030612403990030C124173B3
:103BF5007003023E7EE490030BF090030D122E0C31
:103C05000000000190030B1241CF403490030612CF
:103C1500403990030CE0FE124174FDEF6D701812EF
:103C2500417CFF90030BE0FE9000A793B507089039
:103C3500030D124267800990030BE02402F080C453
:103C4500900304124054D3EF947AEE64809480403C
:103C550006E4F0A3E004F0900305124054EFF4707D
:103C650002EEF4705C123F9112406B602690030DDA
:103C75001240462410123FD5123F91E4900311F0F3
:103C8500900311123FE84003023E6D123E7F12423F
:103C95005580ED90030CE004F0900304E0FFE4FD93
:103CA500128550E4900311F0900311123FE8400390
:103CB500023E6D1241001288B3123FC61242558072
:103CC500E7900305124054EF64FE7002EEF47003B2
:103CD500023E6DEF4E7050123EFD6027123F699017
:103CE500030BF0123FE55008123E7F1242D180F3DC
:103CF500123F34123FE54003023E6D123EBD1242B3
:103D0500D180F0123F2190030BF0123FE5500812CD
:103D15004100123F8780F3123F34123FE540030212
:103D25003E6D123F5780F390030512418DEF6401FC
:103D35004E7064900304E0FF12855012406B6026BC
:103D45001241FC123F46900311123FE85008123E03
:103D5500BD12425580F012419570031242D81240AF
:103D6500C940E0023E6D1241F6123F469003111222
:103D75003FE850137D017C007FFF7E001288B3125F
:103D85003FC612425580E512419570031242D81282
:103D950040C940D5023E6D90030512418DEF640286
:103DA5004E7068900304E0FF12855012406B603A34
:103DB500123F6990030BF0123FE550121240B93ED5
:103DC5001242901288B3123FC61242D180E9123FC7
:103DD5009C123FE54003023E6D1240B9123FB912F5
:103DE50088B3123FC61242D180E7123F2190030BE0
:103DF500F0123FE55005123F5780F6123F9C123FE7
:103E0500E55065124100123F8780F3123EFD602F99
:103E15001241FC123F76900311123FE850111240F7
:103E2500B9123FB91288B3123FC612425580E71244
:103E3500419570031242D81240C940D7023E6D1217
:103E450041F6123F76900311123FE8500E124100E1
:103E55001288B3123FC612425580EA12419570038B
:103E65001242D81240C940DA900304E02410F090C1
:093E7500030CE02402F0023BE919
:103E7E002290030DA3A3E0FEA3E02454F582740167
:103E8E003EF583E493FF7E007D017C001288B390A3
:103E9E00030DE0FCA3E0FDA3E0FEA3E02401FFE49C
:103EAE003EFEE43DFDE43CFC90030D122E002290FC
:103EBE00030DA3A3E0FEA3E02454F58274013EF5A6
:103ECE0083E493F4FFE4F4FE7D017C001288B3904A
:103EDE00030DE0FCA3E0FDA3E0FEA3E02401FFE45C
:103EEE003EFEE43DFDE43CFC90030D122E002290BC
:103EFE000304E0FFA3E0FD128550E47F01FEFDFC0C
:103F0E0090030DE0F8A3E0F9A3E0FAA3E0FBC312DF
:103F1E002DDC2290030CE004F0900304E0FFA3E0FC
:103F2E00FD128550E422900304E0FFA3E004FD128D
:103F3E008550E490030BF022900304E0FFA3E0FD14
:103F4E00128550E4900311F0227D017C007FFF7EEC
:103F5E00001288B390030BE004F022900304E0FFFC
:103F6E00A3E0FD128550E422900304E0FFA3E0FDE0
:103F7E00128550E4900311F0221288B390030BE0E7
:103F8E0004F022900304E0FFE4FD1285502290031A
:103F9E0004E0FFA3E004FD128550E490030BF02231
:06730C0090032A124083E9
:10731200900332122E0C00000000900332A3A3E06F
:10732200FEA3E090032C12403812418360581241B0
:10733200D5900332401C12430590032F12435990FB
:1073420003301273892410F0900332124046240253
:107352008021A3A3E0FEA3E0FF90032C1240391288
:10736200418390032F1273892408F0900332124054
:10737200462401FFE43EFEE43DFDE43CFC90033282
:06738200122E0002731C34
:1073880022F0E4A3F090032AE0FFA3E0FD7B017A5A
:0B73980003792F123BCF90032AE02264
:037A090090011BCE
:107A0C001241DDEB75F020A4FFA3123FFDAF041271
:107A1C008550E4900120F0A3F090011BE0FFA3E05F
:107A2C00FD128550E490011DF090011D123FE850AD
:107A3C001F1240BD123FB91288B390011FE004F031
:107A4C00700690011EE004F090011DE004F080D956
:107A5C0090011CE004F0900121E004F0700690010C
:107A6C0020E004F0C3900121E09402900120E06436
:057A7C0080948040A48D
:017A810022E2
:066D56009001101242A79B
:106D5C0078157C017D017BFF7A8A799B7E007F040C
:106D6C00122B6AE4900119F0A3F0900119F0A3F032
:106D7C00900112E06401702D1242DF25E025E02421
:106D8C004AF582E4342FF5831242ECFD74152FF58D
:106D9C008274013EF583ED124362900119E0FAA36F
:106DAC00E024158047900112E0640270521242DF19
:106DBC0075F028A4246EF582E5F0342FF583C0839A
:106DCC00C082900114E0D082D08375F004122E3D65
:106DDC001242ECFF900119E0FAA3E0FB2415F582B6
:106DEC0074013AF583EF12436274152BF58274012A
:106DFC003AF583E0FB127A09900110E02410F09030
:106E0C00011AE004F07006900119E004F0C390013F
:106E1C001AE09404900119E0648094805003026D90
:016E2C007CE9
:016E2D002242
:03002300027E88D2
:0F7E8800C0E0C083C082C0D075D000C005C00765
:107E9700309907C29990028AE4F030982AC298AFC5
:107EA70099EFFD647F6005ED6480701690039DE097
:107EB700FF04F0D3EF941474809480400A75C76070
:077EC700800590039DE4F02B
:0D7ECE00D007D005D0D0D082D083D0E032D4
:030043000287949D
:10879400C0E0C083C082E59A30E108539AFD90029C
:1087A4008BE4F0E59A30E003539AFED082D083D074
:0287B400E032B1
:03008B000287B633
:1087B600C0E0C083C082E5AC30E10853ACFD900256
:1087C6008CE4F0E5AC30E00353ACFED082D083D02D
:0287D600E0328F
:030093000287D809
:1087D800C0E0C083C082E58430E1085384FD900284
:1087E8008DE4F0E58430E0035384FED082D083D05A
:0287F800E0326D
:03003B00027CB391
:107CB300C0E0C083C082C0D075D000C006C007300A
:107CC300D822C2D8900318E0FEA3E0F5EAEEF5FA55
:107CD300900312E0FEA3E0FF900319E02FF090035E
:107CE30018E03EF030D922C2D990031AE0FEA3E097
:107CF300F5EBEEF5FB900314E0FEA3E0FF90031B0E
:107D0300E02FF090031AE03EF0D007D006D0D0D099
:067D130082D083D0E032B3
:03000300020021D7
:0100210032AC
:03001300020022C6
:0100220032AB
:0300530002004167
:01004100328C
:03005B000200425E
:01004200328B
:0300830002005127
:01005100327C
:078A8C0025642C25640A009B
:0E8A2E00E0FCA3E0FDA3E0FEA3E0FF0228674A
:1068760012001E127E2F1200261288CF12863812A0
:106886006EFC7F011269767F041269767D0A7C00B0
:106896007F031274CBD2A2C2A0C2A112003E7B001B
:1068A6007A0079229000EE7420F0E4FFFE1289212E
:1068B6007B007A0079429000EE7420F0FF7E001291
:1068C600892112697E12664D12840E1288EB12859A
:1068D600B19002EDE0FEA3E0FF1249FC127EDB124E
:1068E6002867AB07C00712591D1228679000EEEF04
:1068F600F09002C7128A2EC006C0079002A7128A1D
:106906002EAD07AC06C004C005E4FFFE7DC87C4280
:106916009002D7E0F8A3E0F9A3E0FAA3E0FB122681
:106926000A7B007A40791C78461227131228679052
:1069360000EFEFF0D005D004D007D006D0031271D7
:10694600CB126FC51237A29002EDE0FFA3E09000D4
:10695600ECCFF0A3EFF09002A3128A2E9000EEEE99
:10696600F0A3EFF07BFF7A8A798C12338A0268CE25
:086976007D0A7C001274CB22A3
:102E8F00426C6163005768697400202055500044FC
:102E9F004F574E0020204E6F002059657300204F72
:102EAF0046460020204F4E00202B355600202B3950
:102EBF0056002B313256002B313556002B323056FF
:102ECF00004C61726700536D616C00204C265200FC
:102EDF002055264400563A007600543A005E0020F2
:102EEF0056657273696F6E3A312E322E312E416CE8
:102EFF007068612000202048617264776172653AC2
:102F0F004C49204A49414E202020002020536F6613
:102F1F0074776172653A20414C4F4E472020202034
:102F2F000020205765623A414C4F4E475849492E71
:102F3F0058595A202020003E003C002D2E2F3037AC
:102F4F0038353603043536313233341E3A12133FD7
:102F5F004041423B3C3D3E25263536676835694E3C
:102F6F004F2F3052512F3050512F300000000000A2
:102F7F000000000000000000000000000000000042
:102F8F000000000000000053545556494A5758009E
:102F9F003A010200000000000000000000000000E5
:102FAF00000000000000000000000000000000050D
:102FBF00060708595A5B5C6263666764654546009D
:102FCF0000000000000000000000000000000000F2
:102FDF00000000000000004B0535304C0535303146
:102FEF0032666700000000000000000000000000D3
:102FFF000000000000000000000000000000001EA4
:10300F003A4A141E3A49145F1335301E3A395D5E41
:10301F001E353631321E3A0000000000000000005D
:10302F0000000000000000151D41420B1D41420C25
:10303F001D41420D1D41420E1D41420F1D414210C7
:10304F001D414200000000000000000000000009C8
:10305F000A353600000000000000000000000000EC
:10306F000000000000000000000000000000000051
:10307F0000000000000000434445461F20212200AD
:10308F000000000000000000000000000000000031
:10309F000000000000000000000000000000000021
:1030AF000000000000000000000000000000000011
:1030BF000000000000000000000000000000000001
:1030CF0000000000000000030304030607010200D4
:1030DF0000000000000000000000000000000000E1
:1030EF0000000000000000000000000000000000D1
:1030FF0000000000000000000000000000000000C1
:10310F0000000000000000000000000000000000B0
:10311F0000000000000000000000000000000000A0
:10312F000000012C00000000000000000000000063
:10313F000000000000000000000000000000000080
:10314F000000000000000000000000000000000070
:10315F000000000000000000000000000000000060
:10316F000000000000000000000000000000000050
:10317F000000000000000000000000000000000040
:10318F000000000000FF00FF00FF00000000000033
:10319F0000000000000000000001000100FF00001F
:1031AF00000000000000000000000000000100010E
:1031BF00000100630000000000000000000000009C
:1031CF00000A003C000100000000000000000000A9
:1031DF0000000000012C025803E703E703E703E7B1
:1031EF00000000000000000003FF03FF03FF03FFC8
:1031FF0003FF03FF03FF00000000000000040000B6
:10320F0000000000000000000000000000000000AF
:10321F00000100010000000000000000000000009D
