:0751B20044039B0000000014
:108748007F807C019000E9E0F8A3E0F9A3E0FAA3B8
:10875800E0FBC3022DDCE6FFAD9FC3ED9FFFE49471
:0887680000FE3395E0FDFC2248
:105D7E0043BA80E59D602078FA12875E7BE07A2830
:105D8E0079017800122CB1E42FFFEE3451FEED3480
:105D9E0025FDEC3402801D78FB12875EE47B807A51
:105DAE00BBF9F8122CB1E42FFFEE3436FEED346E53
:105DBE00FDEC3401FC9000E9122E009000E9E0FCAD
:105DCE00A3E0FDA3E0FEA3E0FFC00790FE01E0FB11
:105DDE00E4FAF9F8D007122D3C9000E9122E007F5C
:105DEE00C07EF67D577C0012874C50097F007E6086
:105DFE007D547C00227FC07E267D827C0012874CE3
:105E0E0050097F807E8D7D5B7C00227F807EED7DC4
:105E1E00AF7C0012874C50097F007EC07DA87C00AD
:105E2E00227F807E2D7DE87C0012874C50097F00FA
:105E3E007E1B7DB77C00227E367D25128748500959
:105E4E007F007E407D197C01227E567D411287485F
:105E5E0050097F007E2D7D317C01227F007EDB7D0F
:105E6E005F12874A50097F007E807D517C01227F20
:105E7E00607E197D8512874A50097F007E367D6EC1
:105E8E007C01227F207EE07DB212874A50097FC0BE
:105E9E007EFC7D9B7C01227FE07EA67DE012874A00
:105EAE0050097F807EC37DC97C01227F607E2B7D61
:105EBE00FF12874A50097F007E407DFA7C01227FC7
:075ECE00C07E0E7D167C0270
:015ED50022AA
:107E6D00125D7E90039B122E00E4F594F593F5922E
:107E7D00F591F596F595F5B2F5B1F5B4F5B3F5CAFD
:107E8D00F5C9F5D8F5D9F5DEF58EF598F59AF5AC79
:107E9D00F584F5A2F5BAF5AFF589F5E9F5F912878F
:107EAD001F9000EC122E0C0001C2009000F0740225
:097EBD00F07B01E4FDFF025777A0
:108A7400900119EFF0FDE4FF128068900119E0FF06
:018A840022CF
:03001E00C2AF224C
:03003E00D2AF221C
:1087E100900378E0FBA3E0FAA3E0F9EF022BD6A90E
:1087F1000553BACFEF142290FE82F090FE817405EA
:02880100F02263
:108A3D00EF1FAA0670011E4A60087D091DED60F04A
:028A4D0080FAAD
:018A4F002204
:1084CE00E49003B0F0A3F0FC90FE82E020E61E7F65
:1084DE00017E00128A3D9003B0E475F001122C9BD0
:1084EE00FEC3E5F0941EEE940040DD7C0190FE820A
:0684FE00E054BFF0AF04E2
:018504002254
:098AE10090FE817401F00284CEC4
:0E8AA30090FE86EFF090FE817402F00284CE09
:098AEA0090FE817403F00284CEB9
:0F8A850090FE817404F01284CE90FE87E0FF22F1
:078B1600E41287F80284CE8F
:088B0E0074011287F80284CE05
:098AF30090FE817406F00284CEAD
:1081C80053BACF43BA80EF14600A14600C14600EDF
:1081D8002403800D43BA10800843BA20800343BAB1
:1081E8003090FE80E04440F0E04480F0C083C082DC
:1081F800E0FB900371A3A3A3E0FFEB4FD082D083F1
:07820800F090FE82E4F02279
:107BAC001287F0600A14600C14600E2403800D43DD
:107BBC00BA10800843BA20800343BA30128AE1EF2E
:107BCC0060037F0122AF01EF25E0FF128AA3EF6073
:107BDC00037F0122128AEAEF60037F0122AF0312B6
:107BEC008AA3EF60037F0122128AEAEF60037F0110
:107BFC00229003A2E0FF128AA3EF60037F012212FE
:107C0C008AEAEF60037F0122128AF3EF60037F019F
:047C1C00227F0022A1
:10773C001287F0600A14600C14600E2403800D4351
:10774C00BA10800843BA20800343BA30128AE1EFA2
:10775C0060037F0122E925E0FF128AA3EF60037F1B
:10776C000122128AEAEF60037F0122AF03128AA37F
:10777C00EF60037F0122128AEAEF60037F0122AFE0
:10778C0001EF25E04401FF128AA3EF60037F012281
:10779C00128AEAEF60037F0122128A859003861217
:1077AC0087E4128B16EF60037F0122128AF3EF60DD
:0777BC00037F01227F002280
:1071F9001287F0600A14600C14600E2403800D439A
:10720900BA10800843BA20800343BA30128AE1EFEA
:1072190060037F0122E925E0FF128AA3EF60037F63
:107229000122128AEAEF60037F0122AF03128AA3C7
:10723900EF60037F0122128AEAEF60037F0122AF28
:1072490001EF25E04401FF128AA3EF60037F0122C9
:10725900128AEAEF60037F012290037BE014F06059
:107269001B128A851287E1128B16EF60037F0122B8
:10727900900379E475F001122C8580DD128A85125C
:1072890087E1128B16EF60037F0122128AF3EF6008
:07729900037F01227F0022A8
:10005E0043BA8053BACFEF14600A14600C14600ECA
:10006E002403800D43BA10800843BA20800343BA9C
:05007E003053BA7F229F
:10877000439A108DD7ECF5D6438E14229000F0E08A
:10878000FB7A00229000EAE0FF7E0022EBF0A3EAF1
:07879000F0A3E9F0AE07229F
:0B5777009000E9EFF0A3EDF0A3EBF0D1
:10578200A3E0F8A3E0F9A3E0FAA3E0FB90039BE017
:10579200FCA3E0FDA3E0FEA3E0FF122D3CE47B04AA
:1057A200FAF9F8122D3CC3E49FFFE49EAD07FC908A
:1057B20000E9E014700302584C1470030258831479
:1057C20070030258CC2403600302591C12877C64C4
:1057D2000170144398508D8BECF58D438E40D28E20
:1057E200E490028AF08011EB64024A700B439850F5
:1057F2008DD7ECF5D6438E1553A23F9000EAE0F91F
:10580200FF7E007008A3E0640170028035EF64023D
:105812004E700D9000EBE06403700543A2408022BD
:10582200E96404700D9000EBE06405700543A2800A
:105832008010E96406700B9000EBE064077003438C
:10584200A2C0E490028AF0D2AC229000F0E064029E
:10585200700312877053BAFE12878464087008A31B
:10586200E0640970028011EF640A4E700B9000EB45
:10587200E0640B700343BA0143AF01E490028BF082
:105882002212877C640270051287708011EB640318
:105892004A700B43AC508DD5ECF5D443D10A53BAC0
:1058A200FD128784640C7008A3E0640D70028011FD
:1058B200EF640E4E700B9000EBE0640F700343BA7E
:1058C2000243AF08E490028CF02212877C640270DB
:1058D200084384101287738011EB64044A700B43EF
:1058E20084508DD3ECF5D243D1A053BAFB128784F6
:1058F20064107008A3E0641170028016EF64124E07
:1059020070109000EBE064137008F5CA75C9044387
:0A591200BA0443AF10E490028DF0D8
:01591C002268
:0F805900A3E475F001122C9BA9F0FA122B90FDF5
:10806800EF14601514601D1460252403702D900210
:108078008AE070FA04F08D992290028BE070FA047D
:10808800F08D9B2290028CE070FA04F08DAD229066
:0C809800028DE070FA04F0AF058F852225
:10888B0090038A12878C90038D74FFF5F0122C9B4A
:10889B0045F0600CAF0690038AE0FB12805980E62E
:0188AB0022AA
:1088AC009003A712878C9003A7E0FBA3E0FAA3E048
:1088BC00F9122B90600AAF069003A712805980E63C
:0188CC002289
:1080A40043BC80EF131313541FFB7A006401701751
:1080B400EF5407FEF87401088002C333D8FCFEF4C1
:1080C4005294EE42938019EB4A7015EF5407FEF870
:1080D4007401088002C333D8FCFEF45292EE42913C
:0980E400ED540F42DE43DE2022C0
:0286C900A90501
:1086CB0053BCF0EF42BC43BC40E5BC30E5FB53BCB4
:1086DB00DFAFBDEFFEADBEEDFFAD01A80508800518
:0886EB00CEC313CE13D8F9FF32
:0186F3002264
:1082E000EF14601814602014602614602C240470AD
:1082F00030E4F58AF58C438904D28C22E4F58BF5C1
:108300008D438940D28E22E4F5D7F5D6438E1822CC
:10831000E4F5D5F5D443D10C22E4F5D3F5D243D11D
:02832000C02279
:10825600EF14601714601E14602514602C2404703B
:1082660030AF8CEFFCAF8AEFFD8026AF8DEFFCAF11
:108276008BEFFD801CAFD6EFFCAFD7EFFD8012AFC2
:10828600D4EFFCAFD5EFFD8008AFD2EFFCAFD3EF54
:05829600FDAF05AE0480
:01829B0022C0
:1080ED00EF14601714601E146027146030240470A0
:1080FD0037C28CE4F58CF58AD28C22C28EE4F58DD4
:10810D00F58BD28E22538EEFE4F5D6F5D7438E1034
:10811D002253D1F7E4F5D4F5D543D1082253D17FBD
:09812D00E4F5D2F5D343D1802220
:057509009000E9EFF025
:10750E007E037FE8122BFA7C007D0C122BE8AB0772
:10751E00AA06E4F9F890039BE0FCA3E0FDA3E0FECD
:10752E00A3E0FF122D3CC3E49FFFE49EFE9000E912
:10753E00E0F9FD7C00700A8F8AEEF58CD28CD2A910
:10754E0022ED64014C700A8F8BEEF58DD28ED2AB8C
:10755E0022E9FD7C006402700C8FD7EEF5D6438EC7
:10756E001043AF0422ED64034C700C8FD5EEF5D4AE
:10757E0043D10843AF2022E96404700B8FD3EEF59C
:07758E00D243D18043AF405E
:0175950022D3
:106C8100F090030FE0F8A3E0F9A3E0FAA3E0FB9092
:106C9100039BE0FCA3E0FDA3E0FEA3E0FF22900044
:106CA100E9FAE0540F75F008A42BFFE5F03A8F8262
:106CB100F583ECF0A3EDF0228D82F583EEF0A3EFE6
:106CC100F0900315A3A3E0FEA3E0FDAC06E975F087
:106CD10050A42410FBE5F022E0FCA3E0FDE412281F
:106CE1002E7B007A40791C784602271312260A125D
:106CF10028679000F3EEF0A3EFF09000F3E0FCA31F
:106D0100E0FD9000F0E0F9228B82F583EDF0900038
:106D1100F2E0FCA3E0FDE42224D0C4540FF975F0A5
:106D210050A422E02401FFE433AB07FA3395E0F9E4
:106D3100F8228F82F583E0FCA3E0FDE402282EE037
:106D4100C394307480948022C4540F75F050A424ED
:106D510000FFE5F022E975F050A42414FDE5F022CE
:0B6D61008F82F583EDF0900319A32250
:05617D009000E9EFF0C5
:10618200E49000F4F07D01124F919000E9E0C454D4
:106192000FFFF87401088002C333D8FC42F143BAFE
:1061A200809000EA126C85122D3C780F122DED9032
:1061B20000F4EFF09000EA126C85122D3CC006C08C
:1061C200079000F4126D24D007D006122D3C9000E7
:1061D200F2EEF0A3EFF09000EE126CD9C004C0050D
:1061E200C006C007126D0F12282ED003D002D001B4
:1061F200D00012260A1228679000F0EEF0A3EFF00A
:106202009000E9E0FF126D419000F4E0FD502FEFA5
:10621200126D1BFFAEF02402FBEE34FF126D092F4C
:10622200FFEE34FF126CAF9000F0E0FCA3E0FD1231
:106232006CCE34FF126C9F126D5634FF803090008A
:10624200E9E0126D19FFAEF02402FBEE34FC126D90
:10625200092FFFEE34FC126CAF9000F0E0FCA3E0DB
:10626200FD126CCE34FC126C9F126D5634FCFC9005
:1062720000E9E0540F75F008A42DFFE5F03C8F8291
:10628200F583E04480F09000E9E0C4540F146015F7
:1062920014601714601914601B14601D2405701C0F
:1062A20043F601801743F610801243F701800D4335
:0F62B200F710800843FE01800343FE1053BA7FAC
:0162C10022BA
:0B794D009000F0EFF0A3ECF0A3EDF0D1
:1079580043BA809000F0126D40502DA3126CD9C02C
:1079680004C005C006C0079000F0E0126D4934FF5E
:10797800126D33D003D002D001D000126CEDC45484
:107988000F126CCF34FF80319000F1126CD9C00413
:10799800C005C006C0079000F0E024D0126D49343D
:1079A800FC126D33D003D002D001D000126CED244C
:1079B800D0C4540F126CCF34FCFAE9126CA453BA39
:0179C8007F3F
:0179C900229B
:056B900090030EEFF080
:106B9500E490031D126C81122D3C780F122DED909F
:106BA500031DEF126C81122D3CC006C00790031D1A
:106BB500126D24D007D006122D3C900319122E0019
:106BC500900313126CD9C004C005C006C00790031A
:106BD50019126C93E4122829D003D002D001D000F9
:106BE50012260A122867900315122E0043BA8090C8
:106BF500030E126D4090031DE0FD90030EE0501F43
:106C0500126D1BFBAAF02402FFEA34FF126D61121C
:106C15006C98E42BFDEA34FF126CB934FF801D1229
:106C25006D19FBAAF02402FFEA34FC126D61126CA7
:106C350098E42BFDEA34FC126CB934FC90030E1277
:106C45006CA290030EE0C4540F1460151460171461
:106C5500601914601B14601D2405701C43F6018027
:106C65001743F610801243F701800D43F710800893
:0B6C750043FE01800343FE1053BA7F72
:016C800022F1
:1051B90046033200000000000046032C00000000F6
:0251C9000000E4
:10829C007E037FE8122BFA7C007D0C122BE8AB07D7
:1082AC00AA06E4F9F890039BE0FCA3E0FDA3E0FE32
:1082BC00A3E0FF022D3C2FFFE03EFE9003ACE02F2D
:1082CC00FF9003ABE03E2290032CE0FEA3E0FF9076
:0482DC000333E02266
:107D5700E4F5D875D906EF64017054EDB40A005004
:107D67004E907D6FF8282873027D8D027D91027DEC
:107D770095027D99027D9D027DA1027DA5027DA9C7
:107D8700027DAD027DB3E4F5DA2275DA422275DAB7
:107D9700632275DA532275DA732275DA202275DACF
:107DA700102275DA302275DA49D2DE2275DA4C22D2
:108A5000EF64017008AFFAEFFCAFEAEFFDAF05AECF
:018A60000411
:018A610022F2
:0A8ACD00EF64017004F5F9F5E922E9
:057AC0009003AAEFF0A5
:107AC500C2DEAFF9EFFFABE9EBA3CFF0A3EFF09088
:107AD50003AAE0702A12829CAC06AD0790032CEC39
:107AE500F0A3EDF075DA49E5E904F5EA85F9FA124E
:107AF50082D39003321282C2900332F0A3EFF0904A
:107B050003AAE06401702712829C90032EEEF0A375
:107B1500EFF075DB49E5E904F5EA85F9FA900335F7
:107B2500E09003341282C2900334F0A3EFF0D2DE6A
:017B3500222D
:107C2000AD07EDFB7A007017900332E0FEA3E0F59C
:107C3000EAEEF5FA1282D32FF0900332E03EF0EB39
:107C400064014A7020900334E0FEA3E0F5EBEEF50A
:107C5000FB90032EE0FEA3E0FF900335E02FF090B1
:107C60000334E03EF0ED64027020900336E0FEA3A2
:107C7000E0F5ECEEF5FC900330E0FEA3E0FF9003AE
:0B7C800037E02FF0900336E03EF022CA
:1085A600EF7007ED24FF9288D2A8EF64017007ED03
:1085B60024FF928AD2AAEFFD7C0064027003758FB5
:1085C60010ED64034C7003758F20ED64044C70034A
:0485D600758F40223B
:0551CB004203B20000E8
:10871F00E47BE07A2EF9F890039BE0FCA3E0FDA345
:10872F00E0FEA3E0FF122D3C9003B2EEF0A3EFF0BA
:09873F0075DC48E4F5D9D2DE2214
:10890B00AFF9EFFEADE9EDFF9003B3E02FFF90035E
:0C891B00B2E03E8FECF5FC30DAFDC2DA71
:01892700222D
:108A2900AB07AA06EB1BAE0270011A4E600512894C
:048A39000B80F1229B
:1085DA00EF540FFEF874010822EFC4540F2410FD63
:1085EA00E434FE8D82F58322EF54F0F9FB7A0022FF
:1085FA00E0FEEF540FFFF874010822E9FB7A0064E9
:02860A0030221C
:10850500EDFB7A00640170131285E3C083C082120B
:1085150085FA8002C333D8FC4E8016EB4A701712D9
:1085250085E3C083C0821285FA8002C333D8FCF488
:078535005ED082D083F0222A
:104F9100ED70781285F2700E1285DA8002C333D873
:104FA100FCF452935294EB64104A700E1285DA802D
:104FB10002C333D8FCF452915292E96420700E126C
:104FC10085DA8002C333D8FCF452955296128605D5
:104FD100700E1285DA8002C333D8FCF452B152B29A
:104FE100EB64404A700E1285DA8002C333D8FCF4B8
:104FF10052B352B4E9645060030251B11285DA80B0
:1050010002C333D8FCF452C952CA22ED64016003D1
:105011000250971285F270101285DA8002C333D8DC
:10502100FCFEF45293EE4294EB64104A7010128528
:10503100DA8002C333D8FCFEF45291EE4292E96465
:105041002070101285DA8002C333D8FCFEF4529529
:10505100EE429612860570101285DA8002C333D8AB
:10506100FCFEF452B1EE42B2EB64404A701012857C
:10507100DA8002C333D8FCFEF452B3EE42B4E964E1
:105081005060030251B11285DA8002C333D8FCFEAD
:10509100F452C90251AEED6402600302512312853C
:1050A100F270101285DA8002C333D8FCFE4293EE0F
:1050B100F45294EB64104A70101285DA8002C33303
:1050C100D8FCFE4291EEF45292E9642070101285F0
:1050D100DA8002C333D8FCFE4295EEF45296128672
:1050E1000570101285DA8002C333D8FCFE42B1EE9E
:1050F100F452B2EB64404A70101285DA8002C33375
:10510100D8FCFE42B3EEF452B4E96450600302519C
:10511100B11285DA8002C333D8FCFE42C9EEF452E3
:10512100CA22ED640360030251B1EF54F0FD7C002B
:10513100700F1285DA8002C333D8FCFE4293EE422F
:1051410094ED64104C700F1285DA8002C333D8FCE1
:10515100FE4291EE4292EF54F06420700F1285DA14
:105161008002C333D8FCFE4295EE4296EF54F0FD27
:105171007C006430700F1285DA8002C333D8FCFEE4
:1051810042B1EE42B2ED64404C700F1285DA8002FA
:10519100C333D8FCFE42B3EE42B4EF54F064507016
:1051A1000F1285DA8002C333D8FCFE42C9EE42CA2F
:0151B10022DB
:1087BD00E0FBA3E475F001122C9BA9F0FA22EBF07B
:1087CD00A3EAF0A3E9F0AD07AC0622F5C375C65ACE
:0487DD0075C6A52296
:068B240043C7800288ED4A
:0400160053C77F222B
:0E8AB100E5C75401640170037F01227F00229B
:1088ED007B407A42790F780090039BE0FCA3E0FD7A
:0D88FD00A3E0FEA3E0FF122D3CEF04F5F513
:01890A00224A
:10869C009000F11287CB75C5019000F4E0FF14F047
:1086AC00EF60198DC4EC1287D89000F11287BDE5EC
:0D86BC00C2122BD60DBD00010C0080DD2286
:10863E009000F11287CB75C5029000F4E0FF14F0A4
:10864E00EF601B8DC4ECF5C39000F11287BD122BA9
:0F865E0090F5C20DBD00010C1287DA0080DB22FF
:0B00460075C5038FC4EE1287D800229E
:1000A600C1C1B5F7BDDABBF9B4A1CABEDDB4E6B4C9
:1000B600A2D0ADD2E9D2BBB6FEC8CBC4CEE5C1F95B
:1000C600C6DFE3D0D6B5CFDEC1E3D2BCB7A1C8FE4A
:1000D600CBC1CEE9C2BDC6E2BDD7CEC2B9F6B6AF78
:1000E600B7BDCFF2CBD9C2CAB2CBB5A5C0E4B6CBA9
:1000F600B2B9B3A5C8ABBED6B2CECAD5FBB6A8D0E8
:10010600DDC3DFCAB1BCE4C9E8D6C3C6C1C4BBB24D
:10011600BDB6C8B5E7D4B4B9DCC0EDBAB8BED7D061
:10012600A3D7BCCDBCB1EAB4F3D0A1B9F6B6AFC97A
:10013600CFCFC2B7D6C3EBC9E8B1C8C0BBB7D6CE1E
:10014600A2B7B4C9ABCFD4CABEB7ADD7AA00000414
:1001560004747454555756545474740404008487B4
:10016600C3613D1D050505057DFD8185E7E340422B
:10017600CECC00FEFE9292FEFE9292FEFE000000A3
:100186003F3F98FF7F1E1E12125EDEFF7F00044473
:1001960044445F5FC4C444445F5FC4C404040000B5
:1001A60000000000FFFF000818180F0700000004F9
:1001B6000404FFFF54545454FFFF040404001111B7
:1001C600998D979391FDFD9193978D9911110484C3
:1001D600E4FC5CC4C47C7C40FFFF407C7C000203E2
:1001E6007F7F103F3F7E7E407F7F40FEFE0090D2A5
:1001F6007634FFFF3476D2F0FF8F08F8F808829A3B
:10020600DE776372DE8E80C0733F3F73C08010104E
:10021600FFFF9090FEFE9292F2F2929E9E8042C264
:10022600FF7F81E07F1FFCFC474744FCFC00040481
:1002360084E4FC1F27242424A4E464240404020385
:1002460001FFFF020242C2FF7F020202020280E0B9
:10025600F8FF879C982024A4FF7F343C2C240000C0
:10026600FFFF007F7F3613FFFF4949FFFF00101095
:10027600FFFF10109090FFFF10F0F08000000000CC
:10028600FFFF0486C3713F4FC0FF7F010706404052
:1002960042CECC001CFCE10706E0FE1E000000007A
:1002A600003FBF98C860331F1F3360C080808080C6
:1002B6008080808080808080808080808080000038
:1002C6000000000000000000000000000000000028
:1002D6000808080808080808080808080000101098
:1002E6001010101010101010101010101010000424
:1002F6008484848484848484848484840400202084
:10030600202020202020202020202020202000FC2B
:10031600FC0404FCFC0404FCFC0404FCFC00007F5C
:100326007F2C2723202020212322227F7F000002EA
:10033600424242C2FE7E424242C2C20202004040E5
:100346004040787F47404040407F7F4040402020EB
:100356002020202021232E2C202020202020004079
:1003660060301C0F0300000103061C7860008080CB
:10037600808080C0FFFF40406020202020000000D9
:10038600000000003F7F404040404078780000F881
:10039600F923A2A2A2A2FEFEAABA32FEFE0000FF26
:1003A600FF10131B4B6B371F1F3BB8FFFF0000806E
:1003B600E0F8FF07E4E4A4BFBFA4E4E404000101FD
:1003C60000FFFF407F7F4A4A4A4A7F7F404000FE47
:1003D600FE7ADE86FEFE92929292FEFE000000FFFC
:1003E600FF0C0F07FFFF60230F1C36634140101CF4
:1003F6000D555555D5FFFFD5555555151C0C0404FF
:10040600060A0B292B6E4CE9B91B0206040400C42C
:10041600C4545454545F5F5454545444C4C08181EA
:10042600809DBDF5D59595D5F5BD9D81818004440A
:100436005454545454545454FFFF05070604008082
:100446009FDF613D3D61DF9F010F3E70F0F00020B0
:1004560020A8EC6E3B39282A6EECA8202000020268
:100466004341484949494949494841430202000034
:10047600FEFE929292125454FFFF547C7C1044E488
:10048600FF5F4454F4F61212FFFF1212121000809E
:10049600E0F8FF074242C2FE7E42C2C202000101EC
:1004A60000FFFF4040787F4740407F7F404000FE8E
:1004B600FE22FADE86888888FFFF8888888000FF0B
:1004C600FF18180F077C7C407F7F40FCFC000088EB
:1004D60099D3622808087FFF888C84E4E4004444AA
:1004E6006525341C0CFFFF0C1C342464444400FEB8
:1004F600FE22FADE4660B09C0F0F9CB0604000FF03
:10050600FF18180F87E07F1F0000FFFF0000107024
:10051600628E8C00FEFE92929292FEFE0000040411
:100526007E7F417E7E427E7E7E7E427E7E40107053
:10053600628E8C24B4DCEDB7D6CC9C342400040443
:100546007E7F213018FCFE662C1D376240404044F9
:10055600C4C44444445010FFFF1010F0F000103C97
:100566003F1314BCF8703E0F41C0C07F3F0008081F
:10057600080808F8F98F8E88888888080808008097
:10058600C060381F070040C0C07F3F00000000F871
:10059600F8080CCECB4948C8C80808F8F80000FF90
:1005A600FF00001F1F08081F1F40C0FF7F004040BC
:1005B60042CECC04F4F494FFFF94F4F4040000401B
:1005C600603F3F684C46435F5F43464C48400014DB
:1005D600B4E46434BDEF66B49444E4B4140008098A
:1005E6000908090909FDFD090B0B08090908040496
:1005F60044C4CF4F44C4E4242FBFB424040440446D
:100606006424351D0CFEFE0C1D3524644440000098
:10061600F8F94B4E4CF8F84C4E4BF9F80000101018
:100626001313121212FFFF121212131310100002EC
:100636000ECCC04060301C2FEFDC30604040020220
:100646007F7F000001091931F1DD0F030000C8C8E2
:10065600090FEEE8485E5E50DFDF505E5E40206FB9
:100666006F3C1F1310FEFE7F7F7EFEFEFE0000081D
:100676000889CBEAB89800FFFF60C080000000023E
:100686000301FFFF070600FFFF00000303000080D1
:10069600E0F8FF773296949F9F949652703001014E
:1006A60000FFFF44E4F45C4C445474E4C4008080CE
:1006B600C06070584CC7C74C587060C080800040FE
:1006C60040444444447F7F44444444404000000046
:1006D600FEFE92929292929292929E9E800040701C
:1006E6003F0F001E1E1212125EDEC07F3F0000206A
:1006F60020A8EC6E3B39A8AA6EECA8202000028246
:10070600839192DA4B4D652632180903020290D284
:100716007634FFFF3476D2F0FF8F08F8F808829A15
:10072600DE776372DE8E80C0733F3F73C0800474D1
:10073600F4D4FFFFD4F4741C7FF7C47C3C04828B92
:1007460089E8EB8B88F9F9AAABA9A9AB8A82101CB8
:100756004C44444445C7C644444444541C0C80C0DD
:10076600603E3E60407F7F444444444440400080B5
:10077600E0F8FF171010D0FFFFD010101010010185
:1007860000FFFF180C0703FFFF03070C181000FCFF
:10079600FC2424FCFCFEFE22E2E2223E3E00003F58
:1007A6003F11113F3FFFFF61271F3961F1F100FC47
:1007B600FC8484FCFC1010101010FFFF1010003F8A
:1007C6003F10103F3F00010746C0FF7F000000F8C2
:1007D600F90706F0F21212F2F20202FEFE0000FF24
:1007E600FF00001F1F11111F1F40C0FF7F00404068
:1007F60042CECC40E0BE9E82829EBEA0202000005B
:10080600003FBF98C8436F3C386E47C180800017D1
:1008160017D5D557577D7D5757D5D5171700404063
:10082600407F7F5555555555557F7F4040400000C8
:10083600FEFE92B2F2D29292D2F2BE9E00004070BA
:100846003F0F84E47F1F0404FFFF0404040000023A
:1008560002FAFAAFAFAAAAAFAFFAFA020200121270
:100866001A7E7E0B0BFEFE2A6A7E3E1A121240404C
:10087600407C7C4040FFFF444444444440408090D8
:1008860098CE4640602F3F10180C0602000000006C
:10089600FCFC2424FCFD2726FCFC242424044070B4
:1008A600BF8F84CC5D752525755DCC80808000006A
:1008B600F8F8888888FFFF888888F8F80000000024
:1008C6001F1F0808087FFF8888889F9FF0F0107018
:1008D600628E8CFEFEF2F25A5E5652F2F202040468
:1008E6007E7F713F2F335BC9FF7F091B332088EC66
:1008F60067A3A6AEAABABEA7A3A62EAAE262000066
:1009060000FFFF4A4A4A4A4A4BFBF80000000484AB
:1009160084FCFC8484FEFE92FEFE92FEFE002060B5
:10092600603F1F10504444447F7F4444444080F05D
:1009360070FFFF30103E3E2A2A2A2A3E3E0080E003
:10094600781F0F3838090909FFFF0909090800FC53
:10095600FC04FCFC00FEFE222222FEFE0000000F2C
:100966000F040F4F407F7F4242427F7F404010106E
:10097600D0FFFF9090C868290F0E2868C888040722
:1009860003FFFF018180C36F3C3C6FC38080000280
:100996000EECE060F8FF4F49FFFE484848080404A3
:1009A6007F7F0000FFFF22223F3F2222222000FEFF
:1009B600FE4262327EDED272321202FEFE0000FF7C
:1009C600FF42425355756D69434242FFFF001010C6
:1009D600D0FFFF9030222222E2E2222222200407C8
:1009E60003FFFF131F0F43C0FF7F01071E182020C0
:1009F6002020202020FFFF20202020202020808073
:100A0600C060301C0F03030F1C3060C080800000E4
:100A160000E0E00000FFFF00002060C08000080C3E
:100A260007030040C0FF7F00000000010F0E10709A
:100A3600628E8C24B4DCEDB7D6CC9C34240004043E
:100A46007E7F213018FCFE662C1D376240404044F4
:100A5600C4C44444445010FFFF1010F0F000103C92
:100A66003F1314BCF8703E0F41C0C07F3F0000002A
:100A760000000000FFFF4040404040400000404072
:100A8600404040407F7F404040404040404002025E
:100A960002020202FEFE0242C282020202020000BC
:100AA60000000000FFFF000000010706000080C0F4
:100AB60060B0988E868080838F9C3060C080008076
:100AC600C060381F0740C0C07F3F000000002424DC
:100AD600A4FEFF2322C0F838FFFF08187060080E36
:100AE60007FFFF078781C04067371C0F03004040A0
:100AF60042CECC40E0BE9E82829EBEA02020000058
:100B0600003FBF98C8436F3C386E47C180800000E5
:100B1600FEFE40404040FFFFC06030180800000065
:100B26007F7F203010103F7F40404040787880E043
:100B3600F8FF0784FC7C24E4E4F8F8FFFF000000DB
:100B4600FFFF84C763331E0F034FCFFF7F002024B0
:100B560024A4FEFF2322FCFC040404FCFC00101861
:100B66000E07FFFF0786E37B1901093BF3C080C030
:100B760060B0988E868080838F9C3060C0800080B5
:100B8600C060381F0740C0C07F3F000000001098BB
:100B9600CCF7B39E9E9F9F9EBEF8DFF7F010010133
:100BA600FFFFC07E3E023E3E98EF7F7FE78000005B
:100BB600FCFC24E4E424262222A3E3620000407025
:100BC600BF8FC04063371C1C366341C08080203015
:100BD600F8EC272724E4E4343C2CE0E00000000095
:100BE6003F7F4242424343424242434378780000B9
:100BF60000FEFE929292929292FEFE000000404209
:100C0600465C587F7F40407F7F50584E464040406C
:100C16004242424242C2C2424242424240402030E6
:100C2600180E0640C0FF7F000002060C383096DE24
:100C36007A7E7F79DD9732FEFE1232FEFE0000FFDD
:100C4600FF7F7FFFFF44C6FF7F46C3FF7F00C8F8D4
:100C5600BFEFE888C84848E8FF5F4848484008189A
:100C660018FFFF0404020B1B32F2DA0E060000E046
:100C7600E0FFFF302888F87F0FE8E8088888010140
:100C860000FFFF101C8FC7673B1F1F7AE3812030D0
:100C960018FFF7545454545454F4F4040400809048
:100CA60090D94D5F772525755D4DC5808080000004
:100CB6007C7C404040FFFF404040FCFC0000007C44
:100CC6007C404040407F7F40404040FCFC000000AC
:100CD600FEFE02020202020202020202020280E09A
:100CE6007F1F0000000000000000000000004040E0
:100CF60042CECC808888FFFF88FFFF88888000402E
:100D0600603F3F60505C4F43405F5F40404002E2BF
:100D1600E2223E3E809E9E92F2F2929E9E8000438A
:100D2600C3C27E7E474744447F7F4454F7E70808A2
:100D360089EBFA98880404FCFC0404FCFC0002031A
:100D460001FFFF87C660381F47C0C07F3F00808213
:100D56008282FEFE82828282FEFE82828280008003
:100D6600C0703F0F00000000FFFF000000001010E1
:100D7600F0FF1FF0F040E0F85F475070E0C04062BF
:100D8600371D1E372100FEFE424242FEFE0000F8DD
:100D9600F8FFFFF8F890DC5FF7F45CCC8480206302
:100DA600633F1F3939101515FFFF1515101000FC8C
:100DB600FC04FCFC00FCFC16776584FCFC00000FC0
:100DC6000F040F0F101313121252D2D27E3E404060
:100DD6004444547465474664745444444040000097
:100DE60000FFFF494949494949FFFF00000020200B
:100DF60020BEBEAAAAAAAAAAAABEBE2020200080F9
:100E060080AFAFAAAAFFFFAAAAAFAF8080008082F8
:100E16008282FEFE82828282FEFE82828280008042
:100E2600C0703F0F00000000FFFF00000000000040
:100E36001011171610F0F01014171310000081810E
:100E4600C14161311D0F0F1D316141C1818140409A
:100E56004242424242FEFE4242424242404000007C
:100E660000000040C0FF7F000000000000008090EE
:100E760090D84C5F772424745C4CC480808000003A
:100E860000FFFF49497F7F4949FFFF00000000003E
:100E9600000000000000002F00000000070007000F
:100EA60000147F147F1400242A7F2A12006264082B
:100EB60013230036495522500000050300000000A8
:100EC6001C224100000041221C000014083E0814A8
:100ED6000008083E0808000000A060000008080896
:100EE6000808000060600000002010080402003EB0
:100EF6005149453E0000427F40000042615149464B
:100F0600002141454B31001814127F10002745453A
:100F16004539003C4A49493000017109050300364C
:100F26004949493600064949291E0000363600005F
:100F36000000563600000008142241000014141464
:100F4600141400004122140800020151090600325F
:100F56004959513E007C1211127C007F494949369D
:100F6600003E41414122007F4141221C007F494908
:100F76004941007F09090901003E4149497A007F3C
:100F86000808087F0000417F4100002040413F01E2
:100F9600007F08142241007F40404040007F020C41
:100FA600027F007F0408107F003E4141413E007FE2
:100FB60009090906003E4151215E007F09192946AB
:100FC6000046494949310001017F0101003F404087
:100FD600403F001F2040201F003F4038403F006335
:100FE6001408146300070870080700615149454357
:100FF60000007F41410000552A552A550000414115
:101006007F00000238444428004040404040000031
:1010160001020400002054545478007F48444438A8
:1010260000384444442000384444487F003854542F
:10103600541800087E0901020018A4A4A47C007FAD
:10104600080404780000447D4000004080847D0050
:10105600007F102844000000417F4000007C0418F7
:101066000478007C0804047800384444443800FCC2
:10107600242424180018242418FC007C08040408DE
:1010860000485454542000043F444020003C404053
:10109600207C001C2040201C003C4030403C00448A
:1010A60028102844001CA0A0A07C004464544C4492
:1010B60014141414141400000000000000000000B2
:1010C600000000000000000000F800000000000022
:1010D60000333000000000100C06100C0600000063
:1010E60000000000000040C07840C0784000043F87
:1010F60004043F040400007088FC08300000001857
:1011060020FF211E0000F008F000E018000000217A
:101116001C031E211E0000F00888700000001E211E
:1011260023241927211010160E00000000000000CD
:10113600000000000000000000E0180402000000AB
:1011460000071820400000020418E00000000040DC
:10115600201807000000404080F080404000020256
:10116600010F01020200000000F000000000010172
:10117600011F01010100000000000000000080B016
:1011860070000000000000000000000000000001E8
:101196000101010101010000000000000000003013
:1011A60030000000000000000000806018040060AD
:1011B60018060100000000F8F8F838F8F800003FBB
:1011C6003F3F383F0F00002038F8F8F800000000D5
:1011D600003F3F3F000000383838B8F8F8000038C4
:1011E6003E3F3F3B390000383838F8F8B800003841
:1011F6003839393F1F000080F8F800F8F800000F72
:101206000F0F3E3F3F0000F8F8F8B8B8B800003BB3
:101216003B39393F1F0000F8F8F8B8B8B800003F6E
:101226003F3B393F1F0000383838B8F8F800000057
:10123600203C3F0F000000F8F8D898F8F800003E70
:101246003F393B3F1C0000F0F8D898F8F800003B07
:101256003B3B3B3F1F00000000C0C00000000000F9
:101266000030300000000000008000000000000098
:1012760080600000000080C0E0F0F8FCFEFF010383
:10128600070F1F3F7FFF404040404040400004049E
:10129600040404040400FFFEFCF8F0E0C080FF7FB5
:1012A6003F1F0F070301007048080808F000000000
:1012B600003036010000C030C828E810E0000718EA
:1012C600272423140B000000C038E0000000203C57
:1012D60023020227382008F8888888700000203FFB
:1012E600202020110E00C030080808083800071812
:1012F60020202010080008F808080810E000203F09
:10130600202020100F0008F88888E8081000203FE9
:1013160020202320180008F88888E8081000203FBD
:10132600200003000000C030080808380000071835
:101336002020221E020008F808000008F808203FB6
:10134600210101213F20000808F8080800000020BC
:10135600203F2020000000000808F8080800C08090
:1013660080807F00000008F888C028180800203F09
:1013760020012638200008F8080000000000203F61
:1013860020202020300008F8F800F8F80800203F58
:10139600003F003F200008F830C00008F808203F52
:1013A600200007183F00E01008080810E0000F10A2
:1013B600202020100F0008F808080808F000203F39
:1013C600210101010000E01008080810E0000F18D4
:1013D600242438504F0008F8888888887000203FF9
:1013E6002000030C302000708808080838000038F8
:1013F600202121221C00180808F8080818000000FF
:10140600203F2000000008F808000008F808001F28
:10141600202020201F000878880000C83808000017
:1014260007380E010000F80800F80008F800033C31
:101436000700073C030008186880806818082030F9
:101446002C03032C30200838C800C83808000000D8
:10145600203F2000000010080808C838080020387F
:10146600262120201800000000FE020202000000D3
:10147600007F40404000000C30C00000000000002B
:1014860000010638C00000020202FE000000004013
:1014960040407F0000000000040202020400000039
:1014A6000000000000000000000000000000808036
:1014B600808080808080000202040000000000001E
:1014C60000000000000000008080808000000019FD
:1014D600242222223F2008F8008080000000003FDE
:1014E600112020110E000000008080800000000EF8
:1014F600112020201100000000808088F800000ED6
:10150600112020103F200000808080800000001FF6
:10151600222222221300008080F08888881800206A
:10152600203F202000000000808080808000006B2B
:1015360094949493600008F8008080800000203F17
:10154600210000203F200080989800000000002025
:10155600203F20200000000000809898000000C076
:101566008080807F000008F8000080808000203F97
:1015760024022D302000000808F80000000000209A
:10158600203F202000008080808080808000203FD7
:1015960020003F20003F8080008080800000203FA8
:1015A600210000203F200000808080800000001F76
:1015B600202020201F00808000808000000080FF07
:1015C600A12020110E000000008080808000000E07
:1015D600112020A0FF808080800080808000202055
:1015E6003F212000010000008080808080000033C1
:1015F600242424241900008080E08080000000005C
:10160600001F202000008080000000808000001F56
:10161600202020103F2080808000008080800001F4
:101626000E300806010080800080008080800F3028
:101636000C030C300F0000808000808080000020AA
:10164600312E0E31200080808000008080808081D5
:101656008E70180601000080808080808000002146
:10166600302C2221300000000000807C02020000A5
:101676000000003F404000000000FF0000000000A6
:101686000000FF0000000002027C80000000004015
:10169600403F0000000000060101020204040000B1
:1016A60000000000000000F0F0F0F0F0F8F8F8F8A4
:1016B600F8F8F8F8F80000FFFFFFFFFFFF07070341
:1016C600FFFFFFFFFF0000FFFFFFFFFFFF8080FE21
:1016D600FFFFFFFFFF00003F3F3F3F3F3F3F3F3FD2
:1016E6001F1F0F070100000080F0F0F0F0F0F0F08F
:1016F600F8F800000000000007070707FFFFFFFFDC
:10170600FFFF00000000000000000000FFFFFFFFD9
:10171600FFFF000000000000000000003F3F3F3FC9
:101726003F1F0000000000F0F0F0F0F0F0F0F0F0E5
:10173600F8F8F8F8F8000007070707070787C7FF54
:10174600FFFFFFFFFF0000C0E0F0F8FEFFFFFFBF56
:101756009F8F87838000003F3F3F3F3F3F3F3F1FB4
:101766001F1F1F1F1F0000F0F0F0F0F0F0F8F8F850
:10177600F8F8F8F8E000000707070707C7FFFFFFBC
:10178600FFFFDFCF830000C080808081838387E7EF
:10179600FFFFFFFFFF00003F3F3F3F3F1F1F1F1F91
:1017A6001F1F0F0703000000F0F0F0F0F00000F834
:1017B600F8F8F8F8000000F8FFFFFFFF0F0000FF41
:1017C600FFFFFFFF0000F0FFFFFFFFFFFCFCFCFF39
:1017D600FFFFFFFFFC0001010101010101013F3F85
:1017E6003F3F3F3F00000000F0F0F0F0F0F0F0F077
:1017F600F0F0F0F8F80000FFFFFFFFFFFFE7E7E774
:10180600E3E3E3E3E300008F8F8F8F8F878787877C
:10181600FFFFFFFFFF00003F3F3F3F3F1F1F1F1F10
:101826001F1F0F07030000F0F0F0F0F0F0F0F0F0EB
:10183600F0F8F8F8F80000FFFFFFFFFFFFE7E7E723
:10184600E7E7E7E7E70000FFFFFFFFFF8F8F8F8FD8
:10185600FFFFFFFFFF00003F3F3F3F3F3F1F1F1FB0
:101866001F1F1F07030000F0F0F0F0F0F0F0F0F09B
:10187600F8F8F8F8F8000007070707070707C7FF93
:10188600FFFFFFFF0F00000000000080F0FEFFFFDB
:10189600FF7F07000000000000203C3F3F3F3F3F26
:1018A60003000000000000F0F0F0F0F0F0F0F0F0BF
:1018B600F0F8F8F8F800003FFFFFFFFFE3E1E1E191
:1018C600FFFFFFFF1F0000FEFFFFFFFF878787CF99
:1018D600FFFFFFFFFF00003F3F3F3F3F1F1F1F1F50
:1018E6001F1F1F07030000F0F0F0F0F0F0F0F0F01B
:1018F600F8F8F8F8F80000FFFFFFFFFF8787C7C773
:10190600FFFFFFFFFF00009F9F9F9F9F9F9F9F9F3F
:10191600FFFFFFFFFF00003F3F3F3F3F3F1F1F1FEF
:101926001F1F0F070300FC0201C181C1F1FF7DF9F2
:10193600E1F1E18102FC3F408EBFBF878183808059
:1019460083BF9F8F403F000000C000C0F8FCFEC070
:10195600E0F0E00000000000021F3F3F7F7F7F7F36
:101966003F3F1F070000000080C080F008041C20D5
:10197600601060C0000000000F1821234040404066
:101986006020180F0000000080FE03FD017E80002D
:10199600021212121200003E410C9E9F9E8C403392
:1019A6000C4049494900000C12120CC0F0F8783876
:1019B60038383878700000000000001F3F7F7870CC
:1019C600707070783800FC0201E1F9FD0D1D1D1DD7
:1019D6000101010102FC3F408E8F8F9F9E9FBFBF7A
:1019E600BFBF9F8E403FFC0281818181810101C57D
:1019F600E5B59D8D02FC3F40B1B9ADA7A3808081BE
:101A060081818181403FFFFF818181818181818147
:101A160081818181818181818181818181818181B0
:101A260081818181818181818181818181818181A0
:101A3600818181818181818181818181FFFF6070C6
:101A4600707070F8FCFE8E0E8EDEFCF86000707012
:101A56007070707070707070707070707060000070
:101A6600000000000000000080808080808081836C
:101A760083838383818180800080E0F0F03838386A
:101A8600F0F0E08080808080000000000000000010
:101A9600000001010101010181C1C1C1C1C18181F2
:101AA60001010001070F0E1C1C1C0F0F070301018B
:101AB600010100000000000000000000060E0E0EEE
:101AC6000E1F3F7F7171717B3F3F0E000E0E0E0E93
:101AD6000E0E0E0E0E0E0E0E0E0E0E040000000062
:101AE600000000000000E0F8FC1E0E0707070707CD
:101AF6000707070707070787C7C7C7C7C7C78707F0
:101B0600070E1EFCF8E000000000000000000000C8
:101B1600FFFFFF00000000000000000000000000C2
:101B260000000101010101037FFF7C0000FFFFFFB0
:101B360000000000000000000000FFFFFF000000A2
:101B4600FCFEFC8000000000000000000000000019
:101B560000000000000000FFFFFF00000000000082
:101B660000000000071F3F7870E0E0E1E3E7E7E7E9
:101B7600E7E7E7E2E0E0E0E0E0E0E0E0E0E0E070B8
:101B8600783F1F0F0000000000000000000000006A
:101B960080C0F07060E0C0C0E07F3F030303030332
:101BA600033F7FE0C0C0E06070F0C080000000002E
:101BB6000000000000000000181E3F73E0C0000097
:101BC6000000C0F038180C0C0C0C1838F0C00000DF
:101BD6000000C0E0733F1E18000000000000000077
:101BE60000001878FCCE070700000000030F1C1841
:101BF60030303030181C0F07000000000707CEFCFD
:101C06007810000000000000000000000000010342
:101C16000F0E0607030307FEFCC0C0C0C0C0C0FC11
:101C2600FE07030306060E0F030100000000000076
:101C3600000000000000000080C0E070381C0C0EA0
:101C460006060703039F9F03030706060E0C1C38B0
:101C560070E0C080000000000000000000000000EE
:101C6600F0FE9F838000000000000000000000FFDF
:101C7600FF0000000000000000000080839FFEF0CF
:101C8600000000000000000000000F7FF1C101000D
:101C96000000000000000000000303060E0C1C18E4
:101CA600100000000001C1F17F0F000000000000DD
:101CB6000000000000000103070E1C183070606071
:101CC600E0C0C0F8F8C0C0E060607030381C0E0795
:101CD60003010000000000000000000000000000FA
:101CE60000000060E0C080000000808080DEDE0032
:101CF60000F0FC1C0E060E1CFCF0000000000000AC
:101D0600000000000000000000808080800080F15C
:101D1600FD1E070303010101010000FFFF00F8F8A3
:101D2600F800FFFF000000000000000000000000B7
:101D36000000000101010100018F3F78E0C0C08072
:101D46000000E0F83C0FC7E0FFFFFFE0870F3CF81C
:101D5600E00000000000000000000000000000009D
:101D6600000607030100000001010000030F1E38F2
:101D760031736367677331381E0F0300000000007C
:101D86000000000000000000000000C0E0603038E5
:101D9600181C0C0C0C1F1F0C0C0C1C18383060E0A7
:101DA600C00000000000000000000000000000006D
:101DB6008080F8FE8F030000F0180C02030181C139
:101DC600C1810103060418F00000038FFEF880802D
:101DD6000000000000000000000001011F7FE1C0BC
:101DE60000000F182040C0808183838180C040207E
:101DF600180F0000C0F17F1F010100000000000065
:101E060000000000000000000003070E0C1C18383C
:101E1600303030F8F830303038181C0C0E0703011B
:101E260000000000000000000000000000000000AC
:101E360000C0E0F078381C1E0E0E060700000000F9
:101E460007060E0E1E1C3C78F0E0C0800000000065
:101E56000000000000000000303E3F1F03000000AD
:101E66000000000080C0E0F0F8BC86808000000022
:101E7600000000030F3F3E3000000000000000009D
:101E860000000C7CFCF0C0000000000000000060B8
:101E9600381F0F07030100000000000000C0F0FC1F
:101EA6007C0C0000000000000000000000000103A0
:101EB600070F1E1C3878707060E000000000E060BC
:101EC600707078383C1E0F07030100000000000008
:101ED60000000000000000E0F81C0C0606060606DE
:101EE600060C1CF8F00000008C8C8C8C8C8C8C8C76
:101EF6008C8C8C8C000000000000000000000000AC
:101F060000071F387060606060606070381F0F00E7
:101F1600000031313131313131313131313100006F
:101F26000000000000000000000000E0F81C0C06A5
:101F360006060606060E1CF8F00000E0F81C0C0665
:101F460006060606060E1CF8E0000000000000006B
:101F56000000000000071F387060606060606070FD
:101F6600381F0F00000F1F3870606060606060707F
:101F7600381F0F00000000000000000000000000F5
:101F86000080C0E0F0F8F8FCFCFEFEFE7E3E3E7EE1
:101F9600FEFEFEFCFCF8F8F0E0C080000000000049
:101FA600000000000000000000F8FEFFFFFFFFFF3A
:101FB600FFFFFFFF0F0F0C0C0C0CFFFFFFFFFFFFD7
:101FC600FFFFFFFFFFFEF80000000000000000001A
:101FD6000000001F7FFFFFFFFFFFFFFFFFFF0F0F48
:101FE600000000000F0FFFFFFFFFFFFFFFFFFF7F57
:101FF6001F000000000000000000000000000001BB
:1020060003070F1F1F3F3F7F7F7F7F7F7F7F7F7F7E
:102016007F3F3F1F1F0F0703010000000000000065
:102026000000000000000000386C446C380000809E
:10203600C0C0C0C0C0C0C0C0C0C08000000000009A
:102046000000000000FCFFFFFFFF0703030303037C
:1020560007070707000000000000000000070F1F29
:102066003F3F3E3C3C3C3C3C3E3E1E0E00000000DA
:10207600000000000000000000000000000000005A
:10208600000000000000000000000000000000004A
:10209600000000000000000000000000000000003A
:1020A600000000000000000000000000000000002A
:1020B6000000000000000000107CC4C46C7C10000E
:1020C6000000FC0000000000FC0000000000000012
:1020D60000000000000000000000000000FF0000FB
:1020E600001C3E73E3321E000000FF0000000000EB
:1020F6000000000000000000000000000000003F9B
:102106000000000000003F0000003E3663233E183A
:10211600000000000000000000000000F8FC0E07B0
:102126000703030303030303036363636363E3C3F5
:10213600070EFCF800000000000000000000FFFF92
:10214600000000E0E00000000000000000000000C9
:102156000F070000FFFF0000000000000000000065
:102166001F3F70E0C0C7CFCCCCCCCCCCC0C0C0C069
:10217600C0C0C0C0E0703F1F0000000000000000AB
:10218600000000000080C0C0F0F8F8FCFCF8F0F891
:10219600FCF8F8F0C080800000000000000000009D
:1021A600000000000000E7FFFFFFFFC7010000007E
:1021B60000000001C7FFFFFFFFCF00000000000086
:1021C6000000000000000000010707071F3F3F7ED8
:1021D6007E3E3E7E7E7F3F3F0707070100000000F0
:1021E6000000000000000000000000C0E0701818A9
:1021F6000C0C0C84840C0C0C181830E0C000000089
:10220600000000000000000000000000FFE70000E2
:1022160000000000001F3F60C08000000000E7FFD4
:1022260000000000000000000000000000000003A5
:10223600070C1818303030202030303018180C07B2
:102246000301000000000000000000000000000084
:10225600000000FC0203F90302FC00000006C6C6EB
:10226600C6C6C6C6C600000000000000000000008A
:1022760000C070180CC7E0E0FFE0E0C70C18F0C023
:1022860000001818181818000000000000000000D0
:10229600000000071C306043C78F8F8FC743603034
:1022A6001C07606063636363630000000000000056
:1022B600000000000000000000C02020109088CF21
:1022C600CF8890102020C000000000000000000011
:1022D6000000000000001818183CC300187EFFFF1D
:1022E600FFFFFFFFFFFF7E1800C33C181818000011
:1022F60000000000000000000000000000030404CD
:10230600080911F3F3110908040403000000000092
:102316000000000000000000000000C0E070381C53
:102326000C060607030000830706060E1C3870E03D
:10233600C0000000000000000000000066E7C300C7
:102346000000000000088CFE7F3110000000000035
:102356000083C7C600000000000000000000000364
:10236600070E1C38706060E0C10000C0E06060705D
:10237600381C0E07030000000000000000000000EB
:10238600F0DC060303010303020EF80000F80C0656
:102396000303010303069CF8000000000000000090
:1023A60000000081C366242424242424E70000E7D7
:1023B60024242424242466C2830000000000000094
:1023C600000000001F3B60C0C08080C040301F007E
:1023D600001F3040C0C080C0C0603B1F000000002E
:1023E6000000000000000080E0F0F8F8FCFEFEFEB1
:1023F6001E1F1EFEFEFEFCFCF8F0E0C00000000002
:1024060000000000000000007EFFFFFFFFFFFFFF4F
:10241600FF710101037FFFFFFFFFFFFFFFFFFF18B3
:10242600000000000000000000000003070F1F3F2F
:102436007F7F7FFCFCFCFCFCFF7F7F3F1F1F0703A9
:10244600000000000000000000000000FFFF838382
:102456008387FEFC0000FFFF636363E3FFBE00FFAC
:10246600FF007FFFC08080C0FF7F0000FFFFB3B387
:10247600B3B3B300FFFF636363E3FFBE010101F182
:10248600F1F1F1E1C0800101000000000101F0F16D
:10249600F1F00000010101C1E0F0F0F0F1F1F1F11D
:1024A600F1F1F1F0F1F1F0F0E0C00101000000FF00
:1024B600FFFFFF071F3F7FFEF8F0E0C08000FFFF31
:1024C600FFFF0000000000FFFFFFFF00000000000C
:1024D600000000000000FFFFFFFF0000000000FFFB
:1024E600FFFFFF000000000001030F1F3F7EFFFFFC
:1024F600FFFF00000000003F7FFFFFF0F0F0F0F06C
:0C250600F0F0F0F0F0F0FFFF7F3F00006D
:108A620012853C90037EE0FBA3E0FAA3E0F9EF025B
:028A72002BD601
:01001A0022C3
:0789FD00C295128A04D29515
:0E8A04007F027E00EF1FAC0670011E4C70F664
:018A12002241
:0F8A9400D294D295128A04C294128A04C29522F7
:0A8AD700C2941289FDD294028A04B1
:10899800AD07C295128A04ED6004C2948002D29495
:0A89A800D295128A04C295028A04D7
:108A13001289FD309406C295E4FEFF22C295128AA4
:068A2300047E007F012229
:04879700E025E0FFFA
:02879B00AD0728
:10879D007B08AF031BEF6015ED30E704D294800228
:1087AD00C294ED25E0FD1289FFC29580E5028A1382
:02853C00AD0789
:10853E00E4FBC295128A04D294E4FAEAC394087456
:10854E008094805011128A041289FDEB25E0FB30D5
:10855E0094010B0A80E5C295128A04AF0512899820
:02856E00AF0359
:0185700022E8
:10892800900125EFF0AA03A905128A94128797AF40
:0C8938000112879BAF0212879B028AD7B6
:0983E5009003B8EDF0AA07A9030A
:1083EE00128A94EA25E0FF12879BE0FF12879BE931
:1083FE0064017003128AD7128A94AF02EF25E0440B
:10840E0001FF12879BE4FF12853CAD07128AD7AF9E
:01841E000558
:01841F00223A
:107DB70090037CEFF0A3EDF0A3EBF0A3EAF0A3E9C7
:107DC700F0128A9490037C128797A3E0FF12879B97
:107DD700900382E064017003128AD7128A94900399
:107DE7007CE025E04401FF12879B900381E014F0BB
:107DF70060117F01128A6290037FE475F001122CF3
:0B7E07008580E7E4FF128A62028AD740
:068B2A0025000000000020
:103FAE00A3E0FEA3E02444F582741A3EF583E49365
:103FBE00FF7E007D017C0022900327E0FCA3E0FD44
:103FCE00A3E0FEA3E02401900327FFE43EFEE43DC0
:103FDE00FDE43CFC022E00900325E0C39410748097
:103FEE009480229000EFE09000F275F0A8A4FFE517
:103FFE00F0F0A3EFF02290011FE075F010A42FF562
:10400E0082E435F0F583E58222FF3395E0FEC3743A
:10401E00409FFFE49EFEE0C39FEE6480F87480989C
:10402E0022A3A3E0FEA3E090033AFFE0FBA3E0FA95
:10403E00A3E0F922F0900340E0FCA3E0FDA3E0FE34
:10404E00A3E0229000EDE0FF3395E0FE22C3900046
:10405E00F6E09000F59404E06480948022900327AB
:10406E00E47F01FEFDFCE0F8A3E0F9A3E0FAA3E093
:10407E00FBC3022DDCEFF0A3EDF0A3EBF0A3EAF00F
:10408E00A3E9F022FE9000F3E02FF09000F2E03E64
:10409E00F09000EEE004F09000F6E004F0229001C3
:1040AE0020E0FFC394087480948022900327A3A37A
:1040BE00E0FEA3E02454F582740122C3900324E0B1
:1040CE009003239402E06480948022E0FFE4FCFDE0
:1040DE00FE900112122E009001167401F0A3740CC2
:1040EE00F022C39000F3E09000F29403E064809419
:1040FE0080227D017C00E4FFFE22C390036DE090E0
:10410E00036C9404E06480948022FE9000F1E02F12
:10411E00F09000F0E03EF09000EDE004F09000F33F
:10412E00E004F022FE90036BE02FF090036AE03E75
:10413E00F0900367E004F090036DE004F02290012C
:10414E001FE075F006A42494F582E5F0340EF58395
:10415E00E5822FF582E43583229000F1E0C3942AA4
:10416E007480948022E0F582758300022BA9EE24E0
:10417E0001FFE433FE8F828E83022BA99000EEE0C6
:10418E00FDFF3395E0FE2290031FE004F090032420
:10419E00E004F022E0FD3395E0FCC36480948022BD
:1041AE007C00AF03AE02122BFA7C007D0A122BFAB2
:1041BE00A3EDF022FFE43EFEE43DFDE43CFC022EC6
:1041CE0000E09000A693FFD3947F7480948022EF3A
:1041DE00F0FCA3EDF0E4A3F02275F0A8A4C39DFEBD
:1041EE00E5F09CF0A3CEF022900326E004F0E490DC
:1041FE000323F0A3F022A3E0FEA3E024BCF5827417
:10420E002022C3EF9416EE6480948022F0E4A3F093
:10421E00900338E0FFA3E0FD7B017A03793D229005
:10422E0000F2E004F0229000F1E004F0229000F59C
:10423E00E004F022FEC39000F6E09FEE6480F8905A
:10424E0000F5E06480982290032BE004F022EF2426
:10425E00B0FFEE33FEE4FDFC22EE75F010A4FFAECF
:10426E00F0E4FCFD022E00E0C39480748094802262
:10427E0024BCF582E58334102224C4F582E5833410
:10428E001022F583E493F4FFE4F4FE7D017C00221A
:10429E009000EEE075F066A422EFF0A3EDF0A3EB34
:1042AE00F022900120E0FFC394067480948022E4F3
:1042BE00F0EF3395E0FEC36480948022C3E49FFF49
:1042CE00E49E22900325E004F022900323E004F004
:1042DE0022900119E0FEA3E0FF900113E022E58297
:1042EE002FF582E5833EF583E49322A4FF9001101F
:1042FE00E02FFFA3E0FD22A3A3A3E0F5828E8302AD
:10430E002BA9E4F0A3E02402F022E4FDFC7F10FED2
:10431E0022E4A3F0A3F0A3229000F0E004F0229098
:10432E0000EFE004F0229000F2E004F02290036A25
:10433E00E004F022900369E004F02290036CE004A4
:10434E00F022E0FCA3E0FDEC02282EF08F828E839B
:0E435E00A3022BA9F0900110E0FFA3E0FD22C6
:098AFC00AB07E4FD7F3C02892870
:098B0500AB077D407F3C0289288A
:10894400900123EEF0A3EFF0ED4C9001236006A319
:0C895400E0FF028B05A3E0FF128AFC226A
:057F6C009003ADEFF0F1
:107F7100E4A3F09003AEE0FF7E001240B1503B124B
:107F8100425C128944E4FDFCFFFE1289441243184D
:107F9100128944E49003AFF09003AF12427550127E
:107FA1009003ADE0123FBE1289449003AFE004F0AC
:0A7FB10080E69003AEE004F080B912
:017FBB0022A3
:10860C00900122EFF0ED24B0FFE433FE12863354D8
:10861C00F0C4540F7E004410FF128633540FFF7EBB
:10862C0000E4FDFC028944E4FDFC12894490012223
:02863C00E0223A
:10813600E49000E9F09000E9E0FF7E001240B150C3
:108146003712425C128944E4FDFCFFFE1289441298
:108156004318128944E49000EAF09000EA1242754E
:10816600500E1241001289449000EAE004F080EAC1
:088176009000E9E004F080BD77
:01817E0022DE
:10800B00E49003B4F09003B4E0FF7E001240B15053
:10801B003C12425C128944E4FDFCFFFE12894412BF
:10802B004318128944E49003B5F09003B5124275DE
:10803B0050137D017C007F017E001289449003B5B3
:0D804B00E004F080E59003B4E004F080B89C
:018058002205
:0B67750090011CEDF090011BEFF0FD07
:10678000E490011FF0A3F0EB24E090011FF0ED1264
:1067900041D54007E490011B124311900000E070C6
:1067A0004790011EE06410702C1268411240AC50FA
:1067B0000E12400412427E123FBA12686480ED123B
:1067C00068521240AC5062124004124287123FBA23
:1067D00012686480ED1268411242B0504C12414C74
:1067E000123FBA12687F80F090011EE0641070269C
:1067F00012686E1240AC500B12400412427E1268B6
:106800002A80F01268521240AC501E12400412420C
:106810008712682A80F012686E1242B0500B124143
:096820004C12429012687F80F0D6
:1068290022F583E493F4FFE4F4FE7D017C001289F0
:1068390044900120E004F02290011BE0FFA3E0FD59
:1068490012860CE4900120F02290011BE0FFA3E0E6
:1068590004FD12860CE4900120F022128944900173
:1068690020E004F02290011BE0FFA3E0FD12860C5A
:10687900E4900120F022128944900120E004F022E2
:067341009000E9124083F8
:1073470012431FF09000EB1240399000F012417386
:10735700607024E09000EEF09000E9E0D3947A7436
:107367008094804006E4F0A3E004F09000E9E0FF99
:10737700A3E01273CA9000EF1240AF50119000EED5
:1073870012400712427E123FBA1273D480E7900070
:10739700E9E0FFA3E0041273CA9000EF1240AF5078
:1073A700119000EE124007124287123FBA1273D4AF
:1073B70080E79000E9E02408F09000F0E004F00294
:0273C700734B06
:1073C90022FD12860CE49000EFF02212894490000D
:0573D900EFE004F022CA
:0883220090011BEFF0A3EDF048
:10832A00A3122E0C0000000190011CE0FF14F0EFD4
:10833A006020A3E0F8A3E0F9A3E0FAA3E0FB900130
:10834A001BE0FFE4FCFDFE122CB190011D122E0071
:09835A0080D690011D124046FF7F
:0183630022F7
:08715100900110EFF0A3EDF036
:10715900E490011AF0900118F0900116E0FF9001F7
:1071690018E0FEC39F40030271F8C3EF9E14FD7F30
:107179000A128322A804A905AA06AB0790011212D4
:107189004046FF122D3CE47B0AFAF9F8122D3C9097
:107199000119EBF0A3E0702E900116E014FF9001A5
:1071A90018E0FEC39F501FA3E07015900117E0FC83
:1071B900C3138EF01242F990011EECF07B2080235C
:1071C90090011A7401F0900117E0FEC313FFA3E0C8
:1071D900FDEF8DF01242F9900119E02430FB900186
:0F71E9001EEEF0126775900118E004F00271625B
:0171F8002274
:067E1200900110124083F4
:107E1800E4900116F09001121240399001161241B7
:107E280073FB6040900110E0FFA3E0FD900115E0B6
:107E380090011EF0126775900115E0641090011012
:107E48007006E02408F08004E02406F0900110E0B9
:107E5800D39478748094804003124310900116E004
:047E680004F080B1F1
:017E6C0022F3
:0A759600900350EFF0900352EBF069
:1075A000E4900357F0A3F0900353E0FF54077008F2
:1075B000EF131313541F800A900353E01313135453
:1075C0001F0490035AF090035AEDF0900353E0FF2C
:1075D00090035AE0FDC39F5049900350E0FF12868C
:1075E0000C900350E0900359F0900352E0FF900399
:1075F00059E0C39F5024900354124039A3E475F01E
:1076000001122C9B85F082F583122BA9123FBE122A
:107610008944900359E004F080CF90035AE004F0CD
:0276200080A93F
:017622002245
:106F12007F647E00128A297FAE126FAF7F40FE121D
:106F220089447FB0126F9B7F81FE128944E4FDFC8D
:106F32007FFFFE1289447FA0126F9B7FA6FE1289FB
:106F4200447FA8126FAF7F1FFE1289447FD3126F56
:106F5200BAFFFE1289447FD5126FBA7FF0FE128902
:106F6200447FD9126FC57F22FE1289447FDA126FE5
:106F7200C57F02FE1289447FDB126FD07F49FE1269
:106F820089447F8D126FD07F14FE128944E4FDFC88
:106F92007FAFFE128944028136E4FDFCFE12894471
:106FA200E4FDFC7FC0FE128944E4FDFC22E4FDFC0A
:106FB200FE128944E4FDFC22E4FDFCFE128944E455
:106FC200FDFC22E4FDFCFE128944E4FDFC22E4FD0A
:096FD200FCFE128944E4FDFC22DE
:0379CA009000F436
:1079CD001241DDEB75F040A4FFA3123FFDAF041291
:1079DD00860CE49000F9F0A3F09000F4E0FFA3E032
:1079ED00FD12860CE49000F6F09000F6123FE85080
:1079FD0027A3E0FEA3E024ACF5827416123FB91262
:107A0D0089449000F8E004F070069000F7E004F06F
:107A1D009000F6E004F080D19000F5E004F09000C5
:107A2D00FAE004F070069000F9E004F0C39000FA5B
:097A3D00E09000F912406340A042
:017A4600221D
:037849009000F4B8
:10784C001241DDEB75F048A4FFA3123FFDAF04120B
:10785C00860CE49000F9F0A3F09000F4E0FFA3E0B4
:10786C00FD12860CE49000F6F09000F6E0C394183C
:10787C00748094805027A3E0FEA3E0242CF582743E
:10788C0020123FB91289449000F8E004F070069081
:10789C0000F7E004F09000F6E004F080CC9000F5E6
:1078AC00E004F09000FAE004F070069000F9E004B7
:0E78BC00F0C39000FAE09000F91240F8409BF3
:0178CA00229B
:0378CB009000F436
:1078CE001241DDEB75F0C0A4FFA3123FFDAF041211
:1078DE00860CE49000F9F0A3F09000F4E0FFA3E032
:1078EE00FD12860CE49000F6F09000F6E0C39430A2
:1078FE00748094805027A3E0FEA3E02452F5827496
:10790E0024123FB91289449000F8E004F0700690FA
:10791E0000F7E004F09000F6E004F080CC9000F563
:10792E00E004F09000FAE004F070069000F9E00434
:0E793E00F0C39000FAE09000F9124110409B57
:01794C002218
:058364009003A3EFF0FF
:108369001241E0A3F09003A3E0FFA3E0FD12860C05
:108379001241001289449003A4E004F09003A6E09E
:1083890004F070069003A5E004F0C39003A6E094FE
:0B839900039003A5E06480948040CABC
:0183A40022B6
:05747500900395EDF00D
:10747A0012431FF0EF1241A35003027508D3ED9493
:10748A0000EC648094804076ED9436EC64809480BD
:10749A00506C900395E0FD12860CE4900399F0A3DA
:1074AA00F0900395E0FDFF12860CE4900396F090AD
:1074BA000396E0C3940A74809480501C124100120F
:1074CA008944900398E004F07006900397E004F072
:1074DA00900396E004F080D7900395E004F09003BF
:1074EA009AE004F07006900399E004F0C390039ABE
:0E74FA00E09403900399E06480948040A42203
:017508002260
:0D5AB7009000EDEDF0A3EBF09000ECEFF0AF
:105AC4009000EF1242BD4052EF941EEE6480948029
:105AD400504812429EFF9000F0123FFD125C03906A
:105AE40000F2F0A3F0125C039000EFF09000EFE0FE
:105AF400C39422748094805013124204123FB9124A
:105B04005C10700312432612432D80E0124125706D
:105B1400031243341240F040CC229000EC1241A214
:105B2400506812429EC39DFEE5F09C9000F0F0A3E5
:105B3400CEF09000EDE0FDE4FF125C1A9000EDE081
:105B4400FDE4FF12860CE49000EFF09000EC1240AC
:105B540054EF2422FFE43EFE9000EF124024501341
:105B6400124204123FB9125C10700312432612430E
:105B74002D80D89000EC1240541242CA1241187081
:105B8400031243341240F040B3229000EC12418DD2
:105B9400C3EF941EEE64809480406312429EFF9093
:105BA40000F0123FFDAF059000EDE0FD125C1A908D
:105BB40000ECE0FFA3E0FD12860CE49000EFF0900F
:105BC40000ECE09000EF1240175019124204123F0B
:105BD400B91289449000F1E004F0700312432612D4
:105BE400432D80DB9000EC124054EF24E2FFEE34AE
:0E5BF400FF12411870031243341240F040B10A
:105C0200229000ECE0FFA3E0FD12860CE422128950
:105C1200449000F1E004F02212860CE49000F2F0CD
:035C2200A3F022CA
:0D5ED600900367EDF0A3EBF0900366EFF092
:105EE3009003691242BD404512421150409003682D
:105EF300E090036A123FF812600890036CF0A3F07D
:105F0300126008900369F090036912416A501012FD
:105F13003FAE126015700312433B12434280E812F6
:105F2300413F700312434912410840D42290036653
:105F33001241A2505F900368E090036A1241E79018
:105F43000367E0FDE4FF12601F900367E0FDE4FFD9
:105F530012860CE4900369F0900366124054EF2418
:105F63002AFFE43EFE9003691240245010123FAE14
:105F7300126015700312433B12434280DB900366A9
:105F83001240541242CA1241327003124349124161
:105F93000840B62290036612418D1242104065906C
:105FA3000368E075F0A8A4FF90036A123FFDAF05F4
:105FB300900367E0FD12601F900366E0FFA3E0FD1E
:105FC30012860CE4900369F0900366E09003691273
:105FD30040175016123FAE12894490036BE004F051
:105FE300700312433B12434280DE90036612405417
:105FF300EF24EAFFEE34FF124132700312434912D9
:04600300410840B45C
:1060070022900366E0FFA3E0FD12860CE4221289CA
:106017004490036BE004F02212860CE490036CF0CA
:03602700A3F022C1
:0D77C3009000F2EBF09000F0EFF0A3EDF07D
:1077D000E49000F3F09000F6F012860CE49000F4D0
:1077E000F0A3F09000F0E0FFA3E0FD12860CE4901F
:1077F00000F3F09000F3123FE8502C9000F6E0FF09
:107800009000F2E075F020A4242CF582E5F0341904
:1078100012415C123FBA1289449000F6E004F090E5
:1078200000F3E004F080CC9000F1E004F09000F56B
:10783000E004F070069000F4E004F0C39000F5E07E
:087840009000F41240D1409BBE
:01784800221D
:097623009000F0EFF0AB05AA04A1
:10762C007D641241AE7D0A1241AEAE02AF0312412F
:10763C00B790009B124350C004C005C006C0079011
:10764C000307124350A804A905AA06AB07D007D01C
:10765C0006D005D0041227B09000F0E0FF5023A311
:10766C00E0FBE4FD1279CA9000F0E024109000F2E7
:10767C001276A324209000F31276A32430FFE4FBAF
:10768C008010E4FBFD1278CB9000F0E02430FF7BFF
:06769C0001E4FD12784933
:0E76A20022FFE0FBE4FD1279CA9000F0E02226
:10880300C007C005AE02AF03E4FCFD900112122EB7
:10881300009001167403F0A37410F0D005D0070282
:02882300715191
:066A98009000F01242A77D
:106A9E00E0FE75F0648475F00A849000F4E5F0F081
:106AAE00EE75F00A8475F00A84A3E5F0F0EB75F04C
:106ABE000A84A3E5F0F012860CE49000F3F0900047
:106ACE00F3E0FFC39438748094805048C3EF94036E
:106ADE00748094804029D3EF943574809480501F35
:106AEE009000F2E0C313FFA3E024FDFEEFD39E7DE2
:106AFE00017C0040047FBD80027F817E00800A9071
:106B0E0000F3E0901A0C123FBD1289449000F3E09E
:106B1E0004F080AA9000F0E02420FFC007A3E01448
:106B2E00FDC0059000F41240D9D005D007126B8835
:106B3E002426FFC007A3E014FDC0059000F5124007
:106B4E00D9D005D007126B88242CFFC007A3E01400
:106B5E00FDC0059000F61240D9D005D00712715134
:106B6E009000F0E02432FFA3E014FD7BFF7A8B79D6
:0A6B7E002A9001157408F0027E123F
:086B88001271519000F0E022AF
:065C250090035B124083B6
:105C2B0012431F122E0C0000000190035D1240392D
:105C3B009003611241737003025D55E4900360F0B1
:105C4B00900362122E0C000000019003601241CFF2
:105C5B00403490035D124039900361E0FE124174B1
:105C6B00FDEF6D701812417CFF900360E0FE900019
:105C7B00A793B507089003621242678009900360EF
:105C8B00E02402F080C490035BE0D3947A74809498
:105C9B00804003124310125D6890036212406E60E5
:105CAB005F125D68E4900360F0900360123FE85070
:105CBB00229003621240BC123FB9128944900362D6
:105CCB001240462401900362123FD8900360E00417
:105CDB00F080D6125D56900360123FE8505B900344
:105CEB00621240BC123FB9128944900362124046C3
:105CFB0024019003621241C2900360E004F080D64D
:105D0B00900361E004F090035BE0FFA3E0FD1286DB
:105D1B000CE4900360F0900360123FE850081241CE
:105D2B0000125D7480F0125D56900360123FE850D4
:105D3B0008124100125D7480F090035BE02410F0B8
:0A5D4B00900361E02402F0025C35D1
:105D55002290035BE0FFA3E004FD12860CE49003B0
:105D650060F02290035BE0FFA3E0FD12860C221297
:095D75008944900360E004F0226F
:067C8B0090033812408353
:107C9100900340122E0C0000000090034012402F70
:107CA100124183604A1241D5900340401F1243059F
:107CB10090033D12435990033E12421A125C2590E3
:107CC1000338E024101240422402801A12402F127D
:107CD100418390033D12421A127341900338E0240C
:0F7CE1000812404224019003401241C2027C9BD2
:017CF0002271
:064D05009000ED1242A730
:104D0B00E49000F1F09000F4F09000F0E06003020A
:104D1B004E15124051C3648094804037124211509B
:104D2B0032123FF19000EDE0FFA3124F64124F36A9
:104D3B001241675010123FAE124F47700312422DB3
:104D4B0012423480EB12409F700312423B12405BC5
:104D5B0040DB229000ED1241A250589000EFE09002
:104D6B0000F21241E79000EEE0FDE4124F7B900061
:104D7B00EEE0FDE4FF12860CE49000F1F0124051DE
:104D8B00EF242AFFE43EFE9000F112402450101253
:104D9B003FAE124F47700312422D12423480DE1287
:104DAB0040511242CA124092700312423B12405BB6
:104DBB0040BC229000ED12418D1242105003024F65
:104DCB0035123FF1AF059000EE124F64124F3612C1
:104DDB004051C374409FFFE49EFE9000F1124024AB
:104DEB005010123FAE124F71700312422D1242340B
:104DFB0080DD124051EF24EAFFEE34FF1240927037
:104E0B000312423B12405B40C3229000F0E064016E
:104E1B006003024F35123FF19000EEE03395E0C393
:104E2B006480948050689000EDE0FFE4FD12860CE6
:104E3B009000EE1240541242CAFE7C007D2A122BC7
:104E4B00E89000F3E02FF09000F2E03EF0E49000E9
:104E5B00F5F0A3F09000EE124054EF2404FFE43E73
:104E6B001242424003024F35124F5112416750100C
:104E7B00123FAE124F71700312422D12423480EB6F
:104E8B009000F41240A2700312423B024E5F12419B
:104E9B008AEF4E703A9000EDE0124F7B9000EDE000
:104EAB00FFA3E0FD12860CE49000F1F01241675075
:104EBB0010123FAE124F87700312422D12423480F4
:104ECB00EB12409F700312423B12405B40CE22120A
:104EDB00418AD3EF9400EE64809480404D9000EDB6
:104EEB00E0FF12860C9000EEE09000F4F0E4A3F0EB
:104EFB00A3F09000EE124054C374049FFFE49E1283
:104F0B0042425026124F511241675010123FAE12BF
:104F1B004F87700312422D12423480EB9000F41233
:0A4F2B0040A2700312423B024EFD4B
:104F3500229000EDE0FFA3E0FD12860CE49000F165
:104F4500F0221289449000F3E004F0229000EDE095
:104F5500FF9000F4E0FD12860CE49000F1F022E0F1
:104F6500FD12860CE49000F5F0A3F022128944901E
:104F750000F3E004F022FF12860CE49000F5F0A3A4
:0C4F8500F0221289449000F3E004F022B6
:063BCF0090031E1240836A
:103BD500E4900325F0A3F0A3122E0C00000001E4ED
:103BE50090032BF090032012403990032612417365
:103BF5007003023E7EE4900325F0900327122E0CFD
:103C0500000000019003251241CF4034900320129B
:103C15004039900326E0FE124174FDEF6D701812D5
:103C2500417CFF900325E0FE9000A793B50708901F
:103C350003271242678009900325E02402F080C41F
:103C450090031E124054D3EF947AEE648094804022
:103C550006E4F0A3E004F090031F124054EFF47063
:103C650002EEF4705C123F9112406B6026900327C0
:103C75001240462410123FD5123F91E490032BF0D9
:103C850090032B123FE84003023E6D123E7F124225
:103C95005580ED900326E004F090031EE0FFE4FD5F
:103CA50012860CE490032BF090032B123FE840039F
:103CB500023E6D124100128944123FC612425580E0
:103CC500E790031F124054EF64FE7002EEF4700398
:103CD500023E6DEF4E7050123EFD6027123F699017
:103CE5000325F0123FE55008123E7F1242D180F3C2
:103CF500123F34123FE54003023E6D123EBD1242B3
:103D0500D180F0123F21900325F0123FE5500812B3
:103D15004100123F8780F3123F34123FE540030212
:103D25003E6D123F5780F390031F12418DEF6401E2
:103D35004E706490031EE0FF12860C12406B6026E5
:103D45001241FC123F4690032B123FE85008123EE9
:103D5500BD12425580F012419570031242D81240AF
:103D6500C940E0023E6D1241F6123F4690032B1208
:103D75003FE850137D017C007FFF7E0012894412CD
:103D85003FC612425580E512419570031242D81282
:103D950040C940D5023E6D90031F12418DEF64026C
:103DA5004E706890031EE0FF12860C12406B603A5D
:103DB500123F69900325F0123FE550121240B93EBB
:103DC500124290128944123FC61242D180E9123F35
:103DD5009C123FE54003023E6D1240B9123FB912F5
:103DE5008944123FC61242D180E7123F2190032534
:103DF500F0123FE55005123F5780F6123F9C123FE7
:103E0500E55065124100123F8780F3123EFD602F99
:103E15001241FC123F7690032B123FE850111240DD
:103E2500B9123FB9128944123FC612425580E712B2
:103E3500419570031242D81240C940D7023E6D1217
:103E450041F6123F7690032B123FE8500E124100C7
:103E5500128944123FC612425580EA1241957003F9
:103E65001242D81240C940DA90031EE02410F090A7
:093E75000326E02402F0023BE9FF
:103E7E0022900327A3A3E0FEA3E02454F58274014D
:103E8E003EF583E493FF7E007D017C001289449011
:103E9E000327E0FCA3E0FDA3E0FEA3E02401FFE482
:103EAE003EFEE43DFDE43CFC900327122E002290E2
:103EBE000327A3A3E0FEA3E02454F58274013EF58C
:103ECE0083E493F4FFE4F4FE7D017C0012894490B8
:103EDE000327E0FCA3E0FDA3E0FEA3E02401FFE442
:103EEE003EFEE43DFDE43CFC900327122E002290A2
:103EFE00031EE0FFA3E0FD12860CE47F01FEFDFC35
:103F0E00900327E0F8A3E0F9A3E0FAA3E0FBC312C5
:103F1E002DDC22900326E004F090031EE0FFA3E0C8
:103F2E00FD12860CE42290031EE0FFA3E004FD12B6
:103F3E00860CE4900325F02290031EE0FFA3E0FD23
:103F4E0012860CE490032BF0227D017C007FFF7E15
:103F5E0000128944900325E004F02290031EE0FF36
:103F6E00A3E0FD12860CE42290031EE0FFA3E0FD09
:103F7E0012860CE490032BF022128944900325E064
:103F8E0004F02290031EE0FFE4FD12860C22900343
:103F9E001EE0FFA3E004FD12860CE4900325F02240
:0673DE00900344124083FD
:1073E40090034C122E0C0000000090034CA3A3E069
:1073F400FEA3E090034612403812418360581241C4
:10740400D590034C401C12430590034912435990F4
:10741400034A12745B2410F090034C124046240279
:107424008021A3A3E0FEA3E0FF900346124039129B
:10743400418390034912745B2408F090034C12407A
:10744400462401FFE43EFEE43DFDE43CFC90034C95
:06745400122E000273EE8F
:10745A0022F0E4A3F0900344E0FFA3E0FD7B017A6D
:0B746A00037949123BCF900344E0225D
:037A470090011B90
:107A4A001241DDEB75F020A4FFA3123FFDAF041233
:107A5A00860CE4900120F0A3F090011BE0FFA3E064
:107A6A00FD12860CE490011DF090011D123FE850B2
:107A7A001F1240BD123FB912894490011FE004F061
:107A8A00700690011EE004F090011DE004F080D918
:107A9A0090011CE004F0900121E004F070069001CE
:107AAA0020E004F0C3900121E09402900120E064F8
:057ABA0080948040A44F
:017ABF0022A4
:066D6C009001101242A785
:106D720078157C017D017BFF7A8B792C7E007F0464
:106D8200122B6AE4900119F0A3F0900119F0A3F01C
:106D9200900112E06401702D1242DF25E025E0240B
:106DA2004AF582E4342FF5831242ECFD74152FF577
:106DB2008274013EF583ED124362900119E0FAA359
:106DC200E024158047900112E0640270521242DF03
:106DD20075F028A4246EF582E5F0342FF583C08384
:106DE200C082900114E0D082D08375F004122E3D4F
:106DF2001242ECFF900119E0FAA3E0FB2415F582A0
:106E020074013AF583EF12436274152BF582740113
:106E12003AF583E0FB127A47900110E02410F090DB
:106E2200011AE004F07006900119E004F0C3900129
:106E32001AE09404900119E0648094805003026D7A
:016E420092BD
:016E4300222C
:03002300027EC694
:0F7EC600C0E0C083C082C0D075D000C005C00727
:107ED500309907C29990028AE4F030982AC298AF87
:107EE50099EFFD647F6005ED648070169003B9E03D
:107EF500FF04F0D3EF941474809480400A75C76032
:077F050080059003B9E4F0D0
:0D7F0C00D007D005D0D0D082D083D0E03295
:030043000288250B
:10882500C0E0C083C082E59A30E108539AFD90020A
:108835008BE4F0E59A30E003539AFED082D083D0E2
:02884500E0321F
:03008B00028847A1
:10884700C0E0C083C082E5AC30E10853ACFD9002C4
:108857008CE4F0E5AC30E00353ACFED082D083D09B
:02886700E032FD
:0300930002886977
:10886900C0E0C083C082E58430E1085384FD9002F2
:108879008DE4F0E58430E0035384FED082D083D0C8
:02888900E032DB
:03003B00027CF153
:107CF100C0E0C083C082C0D075D000C006C00730CC
:107D0100D822C2D8900332E0FEA3E0F5EAEEF5FAFC
:107D110090032CE0FEA3E0FF900333E02FF09003EB
:107D210032E03EF030D922C2D9900334E0FEA3E024
:107D3100F5EBEEF5FB90032EE0FEA3E0FF9003359B
:107D4100E02FF0900334E03EF0D007D006D0D0D041
:067D510082D083D0E03275
:03000300020021D7
:0100210032AC
:03001300020022C6
:0100220032AB
:0300530002004167
:01004100328C
:03005B000200425E
:01004200328B
:0300830002005127
:01005100327C
:078B1D0025642C25640A0009
:0E8ABF00E0FCA3E0FDA3E0FEA3E0FF022867B9
:1068890012001E127E6D1200261289601286F41201
:106899006F127F011269807F041269807D0A7C0072
:1068A9007F03127509D2A2C2A0C2A112003E7B00C9
:1068B9007A0079229000EE7420F0E4FFFE1289B28A
:1068C9007B007A0079429000EE7420F0FF7E00127E
:1068D90089B2126994126532127F19122867AB07BF
:1068E900C00712591D1228679000EEEFF09002E1DF
:1068F900128ABFC006C0079002C1128ABFAD07AC99
:1069090006C004C005E4FFFE7DC87C429002F1E0A8
:10691900F8A3E0F9A3E0FAA3E0FB12260A7B007AC8
:1069290040791C78461227131228679000EFEFF080
:10693900D005D004D007D006D003126FDB12709AAD
:106949001237A212849512866D12897C12698812F7
:1069590049FC1269889000ECEEF0A3EFF09002BDBB
:10696900128ABF9000EEEEF0A3EFF07BFF7A8B79ED
:106979001D12338A0268E17D0A7C00127509229092
:0B6989000307E0FEA3E0FF12817F2265
:102E8F00426C6163005768697400202055500044FC
:102E9F004F574E0020204E6F002059657300204F72
:102EAF0046460020204F4E00202B355600202B3950
:102EBF0056002B313256002B313556002B323056FF
:102ECF00004C61726700536D616C00204C265200FC
:102EDF002055264400563A007600543A005E0020F2
:102EEF0056657273696F6E3A312E322E372E416CE2
:102EFF007068612000202048617264776172653AC2
:102F0F004C49204A49414E202020002020536F6613
:102F1F0074776172653A20414C4F4E472020202034
:102F2F000020205765623A414C4F4E475849492E71
:102F3F0058595A202020003E003C002D2E2F3037AC
:102F4F0038353603043536313233341E3A12133FD7
:102F5F004041423B3C3D3E25263536676835694E3C
:102F6F004F2F3050512F3052512F300000000000A2
:102F7F000000000000000000000000000000000042
:102F8F000000000000000053545556494A5758009E
:102F9F003A010200000000000000000000000000E5
:102FAF00000000000000000000000000000000050D
:102FBF00060708595A5B5C6263666764654546009D
:102FCF0000000000000000000000000000000000F2
:102FDF00000000000000004B0535304C0535303146
:102FEF0032666700000000000000000000000000D3
:102FFF000000000000000000000000000000001EA4
:10300F003A4A141E3A49145F1335301E3A395D5E41
:10301F001E353631321E3A0000000000000000005D
:10302F0000000000000000151D41420B1D41420C25
:10303F001D41420D1D41420E1D41420F1D414210C7
:10304F001D414200000000000000000000000009C8
:10305F000A353600000000000000000000000000EC
:10306F000000000000000000000000000000000051
:10307F0000000000000000434445461F20212200AD
:10308F000000000000000000000000000000000031
:10309F000000000000000000000000000000000021
:1030AF000000000000000000000000000000000011
:1030BF000000000000000000000000000000000001
:1030CF0000000000000000030304030607010200D4
:1030DF0000000000000000000000000000000000E1
:1030EF0000000000000000000000000000000000D1
:1030FF0000000000000000000000000000000000C1
:10310F0000000000000000000000000000000000B0
:10311F0000000000000000000000000000000000A0
:10312F000000012C00000000000000000000000063
:10313F000000000000000000000000000000000080
:10314F000000000000000000000000000000000070
:10315F000000000000000000000000000000000060
:10316F000000000000000000000000000000000050
:10317F000000000000000000000000000000000040
:10318F000000000000FF00FF00FF00000000000033
:10319F0000000000000000000001000100FF00001F
:1031AF00000000000000000000000000000100010E
:1031BF00000100630000000000000000000000009C
:1031CF00001E003C00010000000000000000000095
:1031DF0000000000012C025803E700320258012CB6
:1031EF00000000000000000003FF03FF03FF03FFC8
:1031FF0003FF03FF03FF00000000000000040000B6
:10320F0000000000000000000000000000000000AF
:10321F00000100010000000000000000000000009D
