:07565C004403B5000000004B
:108D36007F807C019000E9E0F8A3E0F9A3E0FAA3C4
:108D4600E0FBC30230ECE6FFAD9FC3ED9FFFE4946A
:088D560000FE3395E0FDFC2254
:1062780043BA80E59D602078FA128D4C7BE07A283D
:1062880079017800122FC1E42FFFEE3451FEED346E
:1062980025FDEC3402801D78FB128D4CE47B807A5E
:1062A800BBF9F8122FC1E42FFFEE3436FEED346E41
:1062B800FDEC3401FC9000E91231109000E9E0FC9B
:1062C800A3E0FDA3E0FEA3E0FFC00790FE01E0FB12
:1062D800E4FAF9F8D00712304C9000E91231107F37
:1062E800C07EF67D577C00128D3A50097F007E6093
:1062F8007D547C00227FC07E267D827C00128D3AF0
:1063080050097F807E8D7D5B7C00227F807EED7DC5
:10631800AF7C00128D3A50097F007EC07DA87C00BA
:10632800227F807E2D7DE87C00128D3A50097F0007
:106338007E1B7DB77C00227E367D25128D36500966
:106348007F007E407D197C01227E567D41128D366C
:1063580050097F007E2D7D317C01227F007EDB7D10
:106368005F128D3850097F007E807D517C01227F2D
:10637800607E197D85128D3850097F007E367D6ECE
:106388007C01227F207EE07DB2128D3850097FC0CB
:106398007EFC7D9B7C01227FE07EA67DE0128D380D
:1063A80050097F807EC37DC97C01227F607E2B7D62
:1063B800FF128D3850097F007E407DFA7C01227FD4
:0763C800C07E0E7D167C0271
:0163CF0022AB
:1083E3001262789003B5123110E4F594F593F59287
:1083F300F591F596F595F5B2F5B1F5B4F5B3F5CA82
:10840300F5C9F5D8F5D9F5DEF58EF598F59AF5ACFD
:10841300F584F5A2F5BAF5AFF589F5E9F5F9128D0D
:108423000D9000EC12311C0001C2009000F07402A8
:09843300F07B01E4FDFF025C7125
:10909500900119EFF0FDE4FF12862A900119E0FF17
:0190A50022A8
:03001E00C2AF224C
:03003E00D2AF221C
:108DCF00900392E0FBA3E0FAA3E0F9EF022EE6A9ED
:108DDF000553BACFEF142290FE82F090FE817405F6
:028DEF00F02270
:10904B00EF1FAA0670011E4A60087D091DED60F036
:02905B0080FA99
:01905D0022F0
:108A9000E49003CAF0A3F0FC90FE82E020E61E7F83
:108AA000017E0012904B9003CAE475F001122FABC7
:108AB000FEC3E5F0941EEE940040DD7C0190FE8242
:068AC000E054BFF0AF041A
:018AC600228D
:0991410090FE817401F0028A9095
:0E90D30090FE86EFF090FE817402F0028A900B
:09914A0090FE817403F0028A908A
:0F90A60090FE817404F0128A9090FE87E0FF2202
:07919000E4128DE6028A9053
:089180007401128DE6028A90D1
:0991530090FE817406F0028A907E
:10878A0053BACF43BA80EF14600A14600C14600E17
:10879A002403800D43BA10800843BA20800343BAE9
:1087AA003090FE80E04440F0E04480F0C083C08214
:1087BA00E0FB90038BA3A3A3E0FFEB4FD082D0830F
:0787CA00F090FE82E4F022B2
:1080B100128DDE600A14600C14600E2403800D43DF
:1080C100BA10800843BA20800343BA30129141EFBD
:1080D10060037F0122AF01EF25E0FF1290D3EF6033
:1080E100037F012212914AEF60037F0122AF031245
:1080F10090D3EF60037F012212914AEF60037F0169
:10810100229003BCE0FF1290D3EF60037F012212A3
:10811100914AEF60037F0122129153EF60037F01C7
:04812100227F002297
:107C4100128DDE600A14600C14600E2403800D4353
:107C5100BA10800843BA20800343BA30129141EF31
:107C610060037F0122E925E0FF1290D3EF60037FDB
:107C7100012212914AEF60037F0122AF031290D3D8
:107C8100EF60037F012212914AEF60037F0122AF6F
:107C910001EF25E04401FF1290D3EF60037F012241
:107CA10012914AEF60037F01221290A69003A01265
:107CB1008DD2129190EF60037F0122129153EF60F8
:077CC100037F01227F002276
:10778B00128DDE600A14600C14600E2403800D430E
:10779B00BA10800843BA20800343BA30129141EFEC
:1077AB0060037F0122E925E0FF1290D3EF60037F96
:1077BB00012212914AEF60037F0122AF031290D393
:1077CB00EF60037F012212914AEF60037F0122AF2A
:1077DB0001EF25E04401FF1290D3EF60037F0122FC
:1077EB0012914AEF60037F0122900395E014F06041
:1077FB001B1290A6128DCF129190EF60037F012286
:10780B00900393E475F001122F9580DD1290A61270
:10781B008DCF129190EF60037F0122129153EF6095
:07782B00037F01227F002210
:10005E0043BA8053BACFEF14600A14600C14600ECA
:10006E002403800D43BA10800843BA20800343BA9C
:05007E003053BA7F229F
:108D5E00439A108DD7ECF5D6438E14229000F0E096
:108D6E00FB7A00229000EAE0FF7E0022EBF0A3EAFD
:078D7E00F0A3E9F0AE0722AB
:0B5C71009000E9EFF0A3EDF0A3EBF0D2
:105C7C00A3E0F8A3E0F9A3E0FAA3E0FB9003B5E0FE
:105C8C00FCA3E0FDA3E0FEA3E0FF12304CE47B0498
:105C9C00FAF9F812304CC3E49FFFE49EAD07FC9078
:105CAC0000E9E0147003025D46147003025D7D147C
:105CBC007003025DC624036003025E16128D6A64D3
:105CCC000170144398508D8BECF58D438E40D28E21
:105CDC00E4900295F08011EB64024A700B439850EB
:105CEC008DD7ECF5D6438E1553A23F9000EAE0F920
:105CFC00FF7E007008A3E0640170028035EF64023F
:105D0C004E700D9000EBE06403700543A2408022BE
:105D1C00E96404700D9000EBE06405700543A2800B
:105D2C008010E96406700B9000EBE064077003438D
:105D3C00A2C0E4900295F0D2AC229000F0E0640294
:105D4C007003128D5E53BAFE128D7264087008A334
:105D5C00E0640970028011EF640A4E700B9000EB46
:105D6C00E0640B700343BA0143AF01E4900296F078
:105D7C0022128D6A64027005128D5E8011EB640331
:105D8C004A700B43AC508DD5ECF5D443D10A53BAC1
:105D9C00FD128D72640C7008A3E0640D700280110A
:105DAC00EF640E4E700B9000EBE0640F700343BA7F
:105DBC000243AF08E4900297F022128D6A640270DD
:105DCC0008438410128D618011EB64044A700B43FC
:105DDC0084508DD3ECF5D243D1A053BAFB128D7203
:105DEC0064107008A3E0641170028016EF64124E08
:105DFC0070109000EBE064137008F5CA75C9044389
:0A5E0C00BA0443AF10E4900298F0CE
:015E16002269
:0F861B00A3E475F001122FABA9F0FA122EA0FD07
:10862A00EF14601514601D1460252403702D900248
:10863A0095E070FA04F08D9922900296E070FA049F
:10864A00F08D9B22900297E070FA04F08DAD229093
:0C865A000298E070FA04F0AF058F852252
:108E79009003A4128D7A9003A774FFF5F0122FAB1B
:108E890045F0600CAF069003A4E0FB12861B80E658
:018E990022B6
:108E9A009003C1128D7A9003C1E0FBA3E0FAA3E02C
:108EAA00F9122EA0600AAF069003C112861B80E653
:018EBA002295
:1086660043BC80EF131313541FFB7A006401701789
:10867600EF5407FEF87401088002C333D8FCFEF4F9
:108686005294EE42938019EB4A7015EF5407FEF8A8
:108696007401088002C333D8FCFEF45292EE429174
:0986A600ED540F42DE43DE2022F8
:028CB700A9050D
:108CB90053BCF0EF42BC43BC40E5BC30E5FB53BCC0
:108CC900DFAFBDEFFEADBEEDFFAD01A80508800524
:088CD900CEC313CE13D8F9FF3E
:018CE1002270
:1088A200EF14601814602014602614602C240470E5
:1088B20030E4F58AF58C438904D28C22E4F58BF5F9
:1088C2008D438940D28E22E4F5D7F5D6438E182205
:1088D200E4F5D5F5D443D10C22E4F5D3F5D243D156
:0288E200C022B2
:10881800EF14601714601E14602514602C24047073
:1088280030AF8CEFFCAF8AEFFD8026AF8DEFFCAF49
:108838008BEFFD801CAFD6EFFCAFD7EFFD8012AFFA
:10884800D4EFFCAFD5EFFD8008AFD2EFFCAFD3EF8C
:05885800FDAF05AE04B8
:01885D0022F8
:1086AF00EF14601714601E146027146030240470D8
:1086BF0037C28CE4F58CF58AD28C22C28EE4F58D0C
:1086CF00F58BD28E22538EEFE4F5D6F5D7438E106D
:1086DF002253D1F7E4F5D4F5D543D1082253D17FF6
:0986EF00E4F5D2F5D343D1802259
:057A9B009000E9EFF08E
:107AA0007E037FE8122F0A7C007D0C122EF8AB07B4
:107AB000AA06E4F9F89003B5E0FCA3E0FDA3E0FE1C
:107AC000A3E0FF12304CC3E49FFFE49EFE9000E968
:107AD000E0F9FD7C00700A8F8AEEF58CD28CD2A979
:107AE00022ED64014C700A8F8BEEF58DD28ED2ABF5
:107AF00022E9FD7C006402700C8FD7EEF5D6438E30
:107B00001043AF0422ED64034C700C8FD5EEF5D416
:107B100043D10843AF2022E96404700B8FD3EEF504
:077B2000D243D18043AF40C6
:017B2700223B
:1073A700F0900329E0F8A3E0F9A3E0FAA3E0FB904B
:1073B70003B5E0FCA3E0FDA3E0FEA3E0FF229000FD
:1073C700E9FAE0540F75F008A42BFFE5F03A8F8235
:1073D700F583ECF0A3EDF0228D82F583EEF0A3EFB9
:1073E700F090032FA3A3E0FEA3E0FDAC06E975F040
:1073F70050A42410FBE5F022E0FCA3E0FDE4122BEF
:107407003E7B007A40791C7846022A2312291A12F9
:107417002B779000F3EEF0A3EFF09000F3E0FCA3DE
:10742700E0FD9000F0E0F9228B82F583EDF090000B
:10743700F2E0FCA3E0FDE42224D0C4540FF975F078
:1074470050A422E02401FFE433AB07FA3395E0F9B7
:10745700F8228F82F583E0FCA3E0FDE4022B3EE0F7
:10746700C394307480948022C4540F75F050A424C0
:1074770000FFE5F022E975F050A42414FDE5F022A1
:0B7487008F82F583EDF0900333A32209
:0567CE009000E9EFF06E
:1067D300E49000F4F07D011258959000E9E0C45470
:1067E3000FFFF87401088002C333D8FC42F143BAA7
:1067F300809000EA1273AB12304C780F1230FD9088
:1068030000F4EFF09000EA1273AB12304CC006C0F4
:10681300079000F412744AD007D00612304C90004F
:10682300F2EEF0A3EFF09000EE1273FFC004C00588
:10683300C006C007127435122B3ED003D002D0011C
:10684300D00012291A122B779000F0EEF0A3EFF08C
:106853009000E9E0FF1274679000F4E0FD502FEF21
:10686300127441FFAEF02402FBEE34FF12742F2F9B
:10687300FFEE34FF1273D59000F0E0FCA3E0FD12AD
:1068830073F434FF1273C512747C34FF80309000AC
:10689300E9E012743FFFAEF02402FBEE34FC127405
:1068A3002F2FFFEE34FC1273D59000F0E0FCA3E031
:1068B300FD1273F434FC1273C512747C34FCFC9027
:1068C30000E9E0540F75F008A42DFFE5F03C8F823A
:1068D300F583E04480F09000E9E0C4540F146015A0
:1068E30014601714601914601B14601D2405701CB8
:1068F30043F601801743F610801243F701800D43DE
:0F690300F710800843FE01800343FE1053BA7F54
:016912002262
:0B7E52009000F0EFF0A3ECF0A3EDF0C7
:107E5D0043BA809000F0127466502DA31273FFC0C8
:107E6D0004C005C006C0079000F0E012746F34FF27
:107E7D00127459D003D002D001D000127413C4541F
:107E8D000F1273F534FF80319000F11273FFC004AF
:107E9D00C005C006C0079000F0E024D012746F3406
:107EAD00FC127459D003D002D001D00012741324E7
:107EBD00D0C4540F1273F534FCFAE91273CA53BAD5
:017ECD007F35
:017ECE002291
:0572B600900328EFF039
:1072BB00E49003371273A712304C780F1230FD9005
:1072CB000337EF1273A712304CC006C00790033779
:1072DB0012744AD007D00612304C9003331231107F
:1072EB0090032D1273FFC004C005C006C0079003A6
:1072FB00331273B9E4122B39D003D002D001D00072
:10730B0012291A122B7790032F12311043BA809047
:10731B000328127466900337E0FD900328E0501F9A
:10732B00127441FBAAF02402FFEA34FF1274871295
:10733B0073BEE42BFDEA34FF1273DF34FF801D12A2
:10734B00743FFBAAF02402FFEA34FC127487127319
:10735B00BEE42BFDEA34FC1273DF34FC90032812DD
:10736B0073C8900328E0C4540F14601514601714ED
:10737B00601914601B14601D2405701C43F60180FA
:10738B001743F610801243F701800D43F710800866
:0B739B0043FE01800343FE1053BA7F45
:0173A60022C4
:1056630046034C0000000000004603460000000013
:02567300000035
:10885E007E037FE8122F0A7C007D0C122EF8AB07E8
:10886E00AA06E4F9F89003B5E0FCA3E0FDA3E0FE50
:10887E00A3E0FF02304C2FFFE03EFE9003C6E02F38
:10888E00FF9003C5E03E22900346E0FEA3E0FF907A
:04889E00034DE02284
:1082CD00E4F5D875D906EF64017054EDB40A005089
:1082DD004E9082E5F82828730283030283070283F8
:1082ED000B02830F02831302831702831B02831F6A
:1082FD00028323028329E4F5DA2275DA422275DA44
:10830D00632275DA532275DA732275DA202275DA53
:10831D00102275DA302275DA49D2DE2275DA4C2256
:10907100EF64017008AFFAEFFCAFEAEFFDAF05AEA8
:0190810004EA
:0190820022CB
:0A912D00EF64017004F5F9F5E92282
:057FC5009003C4EFF081
:107FCA00C2DEAFF9EFFFABE9EBA3CFF0A3EFF0907E
:107FDA0003C4E0702A12885EAC06AD07900346EC33
:107FEA00F0A3EDF075DA49E5E904F5EA85F9FA1244
:107FFA00889590034C12888490034CF0A3EFF0907C
:10800A0003C4E06401702712885E900348EEF0A36F
:10801A00EFF075DB49E5E904F5EA85F9FA90034FD3
:10802A00E090034E12888490034EF0A3EFF0D2DE64
:01803A002223
:10819600AD07EDFB7A00701790034CE0FEA3E0F507
:1081A600EAEEF5FA1288952FF090034CE03EF0EBDC
:1081B60064014A702090034EE0FEA3E0F5EBEEF575
:1081C600FB900348E0FEA3E0FF90034FE02FF09002
:1081D600034EE03EF0ED64027020900350E0FEA3F3
:1081E600E0F5ECEEF5FC90034AE0FEA3E0FF900319
:0B81F60051E02FF0900350E03EF0221B
:108B6800EF7007ED24FF9288D2A8EF64017007ED3B
:108B780024FF928AD2AAEFFD7C0064027003758FED
:108B880010ED64034C7003758F20ED64044C700382
:048B9800758F402273
:055675004203CC00001F
:108D0D00E47BE07A2EF9F89003B5E0FCA3E0FDA337
:108D1D00E0FEA3E0FF12304C9003CCEEF0A3EFF099
:098D2D0075DC48E4F5D9D2DE2220
:1000A600AFF9EFFEADE9EDFF9003CDE02FFF900332
:0C00B600CCE03E8FECF5FC30DAFDC2DA45
:0100C200221B
:10903700AB07AA06EB1BAE0270011A4E60051200C1
:04904700A680F122EC
:108B9C00EF540FFEF874010822EFC4540F2410FD9B
:108BAC00E434FE8D82F58322EF54F0F9FB7A002237
:108BBC00E0FEEF540FFFF874010822E9FB7A006421
:028BCC00302255
:108AC700EDFB7A0064017013128BA5C083C082127C
:108AD7008BBC8002C333D8FC4E8016EB4A7017124A
:108AE7008BA5C083C082128BBC8002C333D8FCF431
:078AF7005ED082D083F02263
:10589500ED7078128BB4700E128B9C8002C333D8D6
:1058A500FCF452935294EB64104A700E128B9C8058
:1058B50002C333D8FCF452915292E96420700E125F
:1058C5008B9C8002C333D8FCF452955296128BC739
:1058D500700E128B9C8002C333D8FCF452B152B2C5
:1058E500EB64404A700E128B9C8002C333D8FCF4E3
:1058F50052B352B4E964506003025AB5128B9C80CE
:1059050002C333D8FCF452C952CA22ED64016003C4
:1059150002599B128BB47010128B9C8002C333D832
:10592500FCFEF45293EE4294EB64104A7010128B15
:105935009C8002C333D8FCFEF45291EE4292E96496
:10594500207010128B9C8002C333D8FCFEF4529554
:10595500EE4296128BC77010128B9C8002C333D80F
:10596500FCFEF452B1EE42B2EB64404A7010128B69
:105975009C8002C333D8FCFEF452B3EE42B4E96412
:10598500506003025AB5128B9C8002C333D8FCFECB
:10599500F452C9025AB2ED64026003025A27128B0F
:1059A500B47010128B9C8002C333D8FCFE4293EE78
:1059B500F45294EB64104A7010128B9C8002C3332E
:1059C500D8FCFE4291EEF45292E964207010128BDD
:1059D5009C8002C333D8FCFE4295EEF45296128B9E
:1059E500C77010128B9C8002C333D8FCFE42B1EE07
:1059F500F452B2EB64404A7010128B9C8002C333A0
:105A0500D8FCFE42B3EEF452B4E964506003025A86
:105A1500B5128B9C8002C333D8FCFE42C9EEF4520A
:105A2500CA22ED64036003025AB5EF54F0FD7C0011
:105A3500700F128B9C8002C333D8FCFE4293EE425A
:105A450094ED64104C700F128B9C8002C333D8FC0C
:105A5500FE4291EE4292EF54F06420700F128B9C3F
:105A65008002C333D8FCFE4295EE4296EF54F0FD1A
:105A75007C006430700F128B9C8002C333D8FCFE0F
:105A850042B1EE42B2ED64404C700F128B9C800225
:105A9500C333D8FCFE42B3EE42B4EF54F064507009
:105AA5000F128B9C8002C333D8FCFE42C9EE42CA5A
:015AB50022CE
:108DAB00E0FBA3E475F001122FABA9F0FA22EBF074
:108DBB00A3EAF0A3E9F0AD07AC0622F5C375C65ADA
:048DCB0075C6A522A2
:0691A50043C780028EFBAF
:0400160053C77F222B
:0E90E100E5C75401640170037F01227F002265
:108EFB007B407A42790F78009003B5E0FCA3E0FD4C
:0D8F0B00A3E0FEA3E0FF12304CEF04F5F5EB
:018F18002236
:108C5E009000F1128DB975C5019000F4E0FF14F08B
:108C6E00EF60198DC4EC128DC69000F1128DABE53C
:0D8C7E00C2122EE60DBD00010C0080DD22AB
:108C00009000F1128DB975C5029000F4E0FF14F0E8
:108C1000EF601B8DC4ECF5C39000F1128DAB122EEA
:0F8C2000A0F5C20DBD00010C128DC80080DB2233
:0B91170075C5038FC4EE128DC6002248
:1000C600C1C1B5F7BDDABBF9B4A1CABEDDB4E6B4A9
:1000D600A2D0ADD2E9D2BBB6FEC8CBC4CEE5C1F93B
:1000E600C6DFE3D0D6B5CFDEC1E3D2BCB7A1C8FE2A
:1000F600CBC1CEE9C2BDC6E2BDD7CEC2B9F6B6AF58
:10010600B7BDCFF2CBD9C2CAB2CBB5A5C0E4B6CB88
:10011600B2B9B3A5C8ABBED6B2CECAD5FBB6A8D0C7
:10012600DDC3DFCAB1BCE4C9E8D6C3C6C1C4BBB22D
:10013600BDB6C8B5E7D4B4B9DCC0EDBAB8BED7D041
:10014600A3D7BCCDBCB1EAB4F3D0A1B9F6B6AFC95A
:10015600CFCFC2B7D6C3EBC9E8B1C8C0BBB7D6CEFE
:10016600A2B7B4C9ABCFD4CABEB7ADD7AA000004F4
:100176000474745455575654547474040400848794
:10018600C3613D1D050505057DFD8185E7E340420B
:10019600CECC00FEFE9292FEFE9292FEFE00000083
:1001A6003F3F98FF7F1E1E12125EDEFF7F00044453
:1001B60044445F5FC4C444445F5FC4C40404000095
:1001C60000000000FFFF000818180F0700000004D9
:1001D6000404FFFF54545454FFFF04040400111197
:1001E600998D979391FDFD9193978D9911110484A3
:1001F600E4FC5CC4C47C7C40FFFF407C7C000203C2
:100206007F7F103F3F7E7E407F7F40FEFE0090D284
:100216007634FFFF3476D2F0FF8F08F8F808829A1A
:10022600DE776372DE8E80C0733F3F73C08010102E
:10023600FFFF9090FEFE9292F2F2929E9E8042C244
:10024600FF7F81E07F1FFCFC474744FCFC00040461
:1002560084E4FC1F27242424A4E464240404020365
:1002660001FFFF020242C2FF7F020202020280E099
:10027600F8FF879C982024A4FF7F343C2C240000A0
:10028600FFFF007F7F3613FFFF4949FFFF00101075
:10029600FFFF10109090FFFF10F0F08000000000AC
:1002A600FFFF0486C3713F4FC0FF7F010706404032
:1002B60042CECC001CFCE10706E0FE1E000000005A
:1002C600003FBF98C860331F1F3360C080808080A6
:1002D6008080808080808080808080808080000018
:1002E6000000000000000000000000000000000008
:1002F6000808080808080808080808080000101078
:100306001010101010101010101010101010000403
:100316008484848484848484848484840400202063
:10032600202020202020202020202020202000FC0B
:10033600FC0404FCFC0404FCFC0404FCFC00007F3C
:100346007F2C2723202020212322227F7F000002CA
:10035600424242C2FE7E424242C2C20202004040C5
:100366004040787F47404040407F7F4040402020CB
:100376002020202021232E2C202020202020004059
:1003860060301C0F0300000103061C7860008080AB
:10039600808080C0FFFF40406020202020000000B9
:1003A600000000003F7F404040404078780000F861
:1003B600F923A2A2A2A2FEFEAABA32FEFE0000FF06
:1003C600FF10131B4B6B371F1F3BB8FFFF0000804E
:1003D600E0F8FF07E4E4A4BFBFA4E4E404000101DD
:1003E60000FFFF407F7F4A4A4A4A7F7F404000FE27
:1003F600FE7ADE86FEFE92929292FEFE000000FFDC
:10040600FF0C0F07FFFF60230F1C36634140101CD3
:100416000D555555D5FFFFD5555555151C0C0404DE
:10042600060A0B292B6E4CE9B91B0206040400C40C
:10043600C4545454545F5F5454545444C4C08181CA
:10044600809DBDF5D59595D5F5BD9D8181800444EA
:100456005454545454545454FFFF05070604008062
:100466009FDF613D3D61DF9F010F3E70F0F0002090
:1004760020A8EC6E3B39282A6EECA8202000020248
:100486004341484949494949494841430202000014
:10049600FEFE929292125454FFFF547C7C1044E468
:1004A600FF5F4454F4F61212FFFF1212121000807E
:1004B600E0F8FF074242C2FE7E42C2C202000101CC
:1004C60000FFFF4040787F4740407F7F404000FE6E
:1004D600FE22FADE86888888FFFF8888888000FFEB
:1004E600FF18180F077C7C407F7F40FCFC000088CB
:1004F60099D3622808087FFF888C84E4E40044448A
:100506006525341C0CFFFF0C1C342464444400FE97
:10051600FE22FADE4660B09C0F0F9CB0604000FFE2
:10052600FF18180F87E07F1F0000FFFF0000107004
:10053600628E8C00FEFE92929292FEFE00000404F1
:100546007E7F417E7E427E7E7E7E427E7E40107033
:10055600628E8C24B4DCEDB7D6CC9C342400040423
:100566007E7F213018FCFE662C1D376240404044D9
:10057600C4C44444445010FFFF1010F0F000103C77
:100586003F1314BCF8703E0F41C0C07F3F000808FF
:10059600080808F8F98F8E88888888080808008077
:1005A600C060381F070040C0C07F3F00000000F851
:1005B600F8080CCECB4948C8C80808F8F80000FF70
:1005C600FF00001F1F08081F1F40C0FF7F0040409C
:1005D60042CECC04F4F494FFFF94F4F404000040FB
:1005E600603F3F684C46435F5F43464C48400014BB
:1005F600B4E46434BDEF66B49444E4B4140008096A
:100606000908090909FDFD090B0B08090908040475
:1006160044C4CF4F44C4E4242FBFB424040440444C
:100626006424351D0CFEFE0C1D3524644440000078
:10063600F8F94B4E4CF8F84C4E4BF9F800001010F8
:100646001313121212FFFF121212131310100002CC
:100656000ECCC04060301C2FEFDC30604040020200
:100666007F7F000001091931F1DD0F030000C8C8C2
:10067600090FEEE8485E5E50DFDF505E5E40206F99
:100686006F3C1F1310FEFE7F7F7EFEFEFE000008FD
:100696000889CBEAB89800FFFF60C080000000021E
:1006A6000301FFFF070600FFFF00000303000080B1
:1006B600E0F8FF773296949F9F949652703001012E
:1006C60000FFFF44E4F45C4C445474E4C4008080AE
:1006D600C06070584CC7C74C587060C080800040DE
:1006E60040444444447F7F44444444404000000026
:1006F600FEFE92929292929292929E9E80004070FC
:100706003F0F001E1E1212125EDEC07F3F00002049
:1007160020A8EC6E3B39A8AA6EECA8202000028225
:10072600839192DA4B4D652632180903020290D264
:100736007634FFFF3476D2F0FF8F08F8F808829AF5
:10074600DE776372DE8E80C0733F3F73C0800474B1
:10075600F4D4FFFFD4F4741C7FF7C47C3C04828B72
:1007660089E8EB8B88F9F9AAABA9A9AB8A82101C98
:100776004C44444445C7C644444444541C0C80C0BD
:10078600603E3E60407F7F44444444444040008095
:10079600E0F8FF171010D0FFFFD010101010010165
:1007A60000FFFF180C0703FFFF03070C181000FCDF
:1007B600FC2424FCFCFEFE22E2E2223E3E00003F38
:1007C6003F11113F3FFFFF61271F3961F1F100FC27
:1007D600FC8484FCFC1010101010FFFF1010003F6A
:1007E6003F10103F3F00010746C0FF7F000000F8A2
:1007F600F90706F0F21212F2F20202FEFE0000FF04
:10080600FF00001F1F11111F1F40C0FF7F00404047
:1008160042CECC40E0BE9E82829EBEA0202000003A
:10082600003FBF98C8436F3C386E47C180800017B1
:1008360017D5D557577D7D5757D5D5171700404043
:10084600407F7F5555555555557F7F4040400000A8
:10085600FEFE92B2F2D29292D2F2BE9E000040709A
:100866003F0F84E47F1F0404FFFF0404040000021A
:1008760002FAFAAFAFAAAAAFAFFAFA020200121250
:100886001A7E7E0B0BFEFE2A6A7E3E1A121240402C
:10089600407C7C4040FFFF444444444440408090B8
:1008A60098CE4640602F3F10180C0602000000004C
:1008B600FCFC2424FCFD2726FCFC24242404407094
:1008C600BF8F84CC5D752525755DCC80808000004A
:1008D600F8F8888888FFFF888888F8F80000000004
:1008E6001F1F0808087FFF8888889F9FF0F01070F8
:1008F600628E8CFEFEF2F25A5E5652F2F202040448
:100906007E7F713F2F335BC9FF7F091B332088EC45
:1009160067A3A6AEAABABEA7A3A62EAAE262000045
:1009260000FFFF4A4A4A4A4A4BFBF800000004848B
:1009360084FCFC8484FEFE92FEFE92FEFE00206095
:10094600603F1F10504444447F7F4444444080F03D
:1009560070FFFF30103E3E2A2A2A2A3E3E0080E0E3
:10096600781F0F3838090909FFFF0909090800FC33
:10097600FC04FCFC00FEFE222222FEFE0000000F0C
:100986000F040F4F407F7F4242427F7F404010104E
:10099600D0FFFF9090C868290F0E2868C888040702
:1009A60003FFFF018180C36F3C3C6FC38080000260
:1009B6000EECE060F8FF4F49FFFE48484808040483
:1009C6007F7F0000FFFF22223F3F2222222000FEDF
:1009D600FE4262327EDED272321202FEFE0000FF5C
:1009E600FF42425355756D69434242FFFF001010A6
:1009F600D0FFFF9030222222E2E2222222200407A8
:100A060003FFFF131F0F43C0FF7F01071E1820209F
:100A16002020202020FFFF20202020202020808052
:100A2600C060301C0F03030F1C3060C080800000C4
:100A360000E0E00000FFFF00002060C08000080C1E
:100A460007030040C0FF7F00000000010F0E10707A
:100A5600628E8C24B4DCEDB7D6CC9C34240004041E
:100A66007E7F213018FCFE662C1D376240404044D4
:100A7600C4C44444445010FFFF1010F0F000103C72
:100A86003F1314BCF8703E0F41C0C07F3F0000000A
:100A960000000000FFFF4040404040400000404052
:100AA600404040407F7F404040404040404002023E
:100AB60002020202FEFE0242C2820202020200009C
:100AC60000000000FFFF000000010706000080C0D4
:100AD60060B0988E868080838F9C3060C080008056
:100AE600C060381F0740C0C07F3F000000002424BC
:100AF600A4FEFF2322C0F838FFFF08187060080E16
:100B060007FFFF078781C04067371C0F030040407F
:100B160042CECC40E0BE9E82829EBEA02020000037
:100B2600003FBF98C8436F3C386E47C180800000C5
:100B3600FEFE40404040FFFFC06030180800000045
:100B46007F7F203010103F7F40404040787880E023
:100B5600F8FF0784FC7C24E4E4F8F8FFFF000000BB
:100B6600FFFF84C763331E0F034FCFFF7F00202490
:100B760024A4FEFF2322FCFC040404FCFC00101841
:100B86000E07FFFF0786E37B1901093BF3C080C010
:100B960060B0988E868080838F9C3060C080008095
:100BA600C060381F0740C0C07F3F0000000010989B
:100BB600CCF7B39E9E9F9F9EBEF8DFF7F010010113
:100BC600FFFFC07E3E023E3E98EF7F7FE78000003B
:100BD600FCFC24E4E424262222A3E3620000407005
:100BE600BF8FC04063371C1C366341C080802030F5
:100BF600F8EC272724E4E4343C2CE0E00000000075
:100C06003F7F424242434342424243437878000098
:100C160000FEFE929292929292FEFE0000004042E8
:100C2600465C587F7F40407F7F50584E464040404C
:100C36004242424242C2C2424242424240402030C6
:100C4600180E0640C0FF7F000002060C383096DE04
:100C56007A7E7F79DD9732FEFE1232FEFE0000FFBD
:100C6600FF7F7FFFFF44C6FF7F46C3FF7F00C8F8B4
:100C7600BFEFE888C84848E8FF5F4848484008187A
:100C860018FFFF0404020B1B32F2DA0E060000E026
:100C9600E0FFFF302888F87F0FE8E8088888010120
:100CA60000FFFF101C8FC7673B1F1F7AE3812030B0
:100CB60018FFF7545454545454F4F4040400809028
:100CC60090D94D5F772525755D4DC58080800000E4
:100CD6007C7C404040FFFF404040FCFC0000007C24
:100CE6007C404040407F7F40404040FCFC0000008C
:100CF600FEFE02020202020202020202020280E07A
:100D06007F1F0000000000000000000000004040BF
:100D160042CECC808888FFFF88FFFF88888000400D
:100D2600603F3F60505C4F43405F5F40404002E29F
:100D3600E2223E3E809E9E92F2F2929E9E8000436A
:100D4600C3C27E7E474744447F7F4454F7E7080882
:100D560089EBFA98880404FCFC0404FCFC000203FA
:100D660001FFFF87C660381F47C0C07F3F008082F3
:100D76008282FEFE82828282FEFE828282800080E3
:100D8600C0703F0F00000000FFFF000000001010C1
:100D9600F0FF1FF0F040E0F85F475070E0C040629F
:100DA600371D1E372100FEFE424242FEFE0000F8BD
:100DB600F8FFFFF8F890DC5FF7F45CCC84802063E2
:100DC600633F1F3939101515FFFF1515101000FC6C
:100DD600FC04FCFC00FCFC16776584FCFC00000FA0
:100DE6000F040F0F101313121252D2D27E3E404040
:100DF6004444547465474664745444444040000077
:100E060000FFFF494949494949FFFF0000002020EA
:100E160020BEBEAAAAAAAAAAAABEBE2020200080D8
:100E260080AFAFAAAAFFFFAAAAAFAF8080008082D8
:100E36008282FEFE82828282FEFE82828280008022
:100E4600C0703F0F00000000FFFF00000000000020
:100E56001011171610F0F0101417131000008181EE
:100E6600C14161311D0F0F1D316141C1818140407A
:100E76004242424242FEFE4242424242404000005C
:100E860000000040C0FF7F000000000000008090CE
:100E960090D84C5F772424745C4CC480808000001A
:100EA60000FFFF49497F7F4949FFFF00000000809E
:100EB600C0703F0F08E8E8080848683818008080C6
:100EC600C06030180E07070E183060C08080000022
:100ED600FEFE82828282FAFA82828282820280E028
:100EE6007F5F404040407F7F40445C5840400080E8
:100EF600E0F8FF073E3E22E2E2223E3E000001010C
:100F060000FFFF31190D07FFFF070D1931201010E3
:100F160010FFFF9090F8F8898F8E8888F8F80444BF
:100F2600C6FFFFC1703F0F00000000000101101056
:100F3600D0FFFF9010FEFE0202FEFE000000040736
:100F460003FFFF83E37F1F00003F7F4078780000A8
:100F560000F8F88C8E8B898888F8F800000000006D
:100F660000FFFF444444444444FFFF000000404463
:100F7600C4C44444445010FFFF1010F0F000103C6D
:100F86003F1314BCF8703E0F41C0C07F3F00000005
:100F9600000000000000002F00000000070007000E
:100FA60000147F147F1400242A7F2A12006264082A
:100FB60013230036495522500000050300000000A7
:100FC6001C224100000041221C000014083E0814A7
:100FD6000008083E0808000000A060000008080895
:100FE6000808000060600000002010080402003EAF
:100FF6005149453E0000427F40000042615149464A
:10100600002141454B31001814127F100027454539
:101016004539003C4A49493000017109050300364B
:101026004949493600064949291E0000363600005E
:101036000000563600000008142241000014141463
:10104600141400004122140800020151090600325E
:101056004959513E007C1211127C007F494949369C
:10106600003E41414122007F4141221C007F494907
:101076004941007F09090901003E4149497A007F3B
:101086000808087F0000417F4100002040413F01E1
:10109600007F08142241007F40404040007F020C40
:1010A600027F007F0408107F003E4141413E007FE1
:1010B60009090906003E4151215E007F09192946AA
:1010C6000046494949310001017F0101003F404086
:1010D600403F001F2040201F003F4038403F006334
:1010E6001408146300070870080700615149454356
:1010F60000007F41410000552A552A550000414114
:101106007F00000238444428004040404040000030
:1011160001020400002054545478007F48444438A7
:1011260000384444442000384444487F003854542E
:10113600541800087E0901020018A4A4A47C007FAC
:10114600080404780000447D4000004080847D004F
:10115600007F102844000000417F4000007C0418F6
:101166000478007C0804047800384444443800FCC1
:10117600242424180018242418FC007C08040408DD
:1011860000485454542000043F444020003C404052
:10119600207C001C2040201C003C4030403C004489
:1011A60028102844001CA0A0A07C004464544C4491
:1011B60014141414141400000000000000000000B1
:1011C600000000000000000000F800000000000021
:1011D60000333000000000100C06100C0600000062
:1011E60000000000000040C07840C0784000043F86
:1011F60004043F040400007088FC08300000001856
:1012060020FF211E0000F008F000E0180000002179
:101216001C031E211E0000F00888700000001E211D
:1012260023241927211010160E00000000000000CC
:10123600000000000000000000E0180402000000AA
:1012460000071820400000020418E00000000040DB
:10125600201807000000404080F080404000020255
:10126600010F01020200000000F000000000010171
:10127600011F01010100000000000000000080B015
:1012860070000000000000000000000000000001E7
:101296000101010101010000000000000000003012
:1012A60030000000000000000000806018040060AC
:1012B60018060100000000F8F8F838F8F800003FBA
:1012C6003F3F383F0F00002038F8F8F800000000D4
:1012D600003F3F3F000000383838B8F8F8000038C3
:1012E6003E3F3F3B390000383838F8F8B800003840
:1012F6003839393F1F000080F8F800F8F800000F71
:101306000F0F3E3F3F0000F8F8F8B8B8B800003BB2
:101316003B39393F1F0000F8F8F8B8B8B800003F6D
:101326003F3B393F1F0000383838B8F8F800000056
:10133600203C3F0F000000F8F8D898F8F800003E6F
:101346003F393B3F1C0000F0F8D898F8F800003B06
:101356003B3B3B3F1F00000000C0C00000000000F8
:101366000030300000000000008000000000000097
:1013760080600000000080C0E0F0F8FCFEFF010382
:10138600070F1F3F7FFF404040404040400004049D
:10139600040404040400FFFEFCF8F0E0C080FF7FB4
:1013A6003F1F0F070301007048080808F0000000FF
:1013B600003036010000C030C828E810E0000718E9
:1013C600272423140B000000C038E0000000203C56
:1013D60023020227382008F8888888700000203FFA
:1013E600202020110E00C030080808083800071811
:1013F60020202010080008F808080810E000203F08
:10140600202020100F0008F88888E8081000203FE8
:1014160020202320180008F88888E8081000203FBC
:10142600200003000000C030080808380000071834
:101436002020221E020008F808000008F808203FB5
:10144600210101213F20000808F8080800000020BB
:10145600203F2020000000000808F8080800C0808F
:1014660080807F00000008F888C028180800203F08
:1014760020012638200008F8080000000000203F60
:1014860020202020300008F8F800F8F80800203F57
:10149600003F003F200008F830C00008F808203F51
:1014A600200007183F00E01008080810E0000F10A1
:1014B600202020100F0008F808080808F000203F38
:1014C600210101010000E01008080810E0000F18D3
:1014D600242438504F0008F8888888887000203FF8
:1014E6002000030C302000708808080838000038F7
:1014F600202121221C00180808F8080818000000FE
:10150600203F2000000008F808000008F808001F27
:10151600202020201F000878880000C83808000016
:1015260007380E010000F80800F80008F800033C30
:101536000700073C030008186880806818082030F8
:101546002C03032C30200838C800C83808000000D7
:10155600203F2000000010080808C838080020387E
:10156600262120201800000000FE020202000000D2
:10157600007F40404000000C30C00000000000002A
:1015860000010638C00000020202FE000000004012
:1015960040407F0000000000040202020400000038
:1015A6000000000000000000000000000000808035
:1015B600808080808080000202040000000000001D
:1015C60000000000000000008080808000000019FC
:1015D600242222223F2008F8008080000000003FDD
:1015E600112020110E000000008080800000000EF7
:1015F600112020201100000000808088F800000ED5
:10160600112020103F200000808080800000001FF5
:10161600222222221300008080F088888818002069
:10162600203F202000000000808080808000006B2A
:1016360094949493600008F8008080800000203F16
:10164600210000203F200080989800000000002024
:10165600203F20200000000000809898000000C075
:101666008080807F000008F8000080808000203F96
:1016760024022D302000000808F800000000002099
:10168600203F202000008080808080808000203FD6
:1016960020003F20003F8080008080800000203FA7
:1016A600210000203F200000808080800000001F75
:1016B600202020201F00808000808000000080FF06
:1016C600A12020110E000000008080808000000E06
:1016D600112020A0FF808080800080808000202054
:1016E6003F212000010000008080808080000033C0
:1016F600242424241900008080E08080000000005B
:10170600001F202000008080000000808000001F55
:10171600202020103F2080808000008080800001F3
:101726000E300806010080800080008080800F3027
:101736000C030C300F0000808000808080000020A9
:10174600312E0E31200080808000008080808081D4
:101756008E70180601000080808080808000002145
:10176600302C2221300000000000807C02020000A4
:101776000000003F404000000000FF0000000000A5
:101786000000FF0000000002027C80000000004014
:10179600403F0000000000060101020204040000B0
:1017A60000000000000000F0F0F0F0F0F8F8F8F8A3
:1017B600F8F8F8F8F80000FFFFFFFFFFFF07070340
:1017C600FFFFFFFFFF0000FFFFFFFFFFFF8080FE20
:1017D600FFFFFFFFFF00003F3F3F3F3F3F3F3F3FD1
:1017E6001F1F0F070100000080F0F0F0F0F0F0F08E
:1017F600F8F800000000000007070707FFFFFFFFDB
:10180600FFFF00000000000000000000FFFFFFFFD8
:10181600FFFF000000000000000000003F3F3F3FC8
:101826003F1F0000000000F0F0F0F0F0F0F0F0F0E4
:10183600F8F8F8F8F8000007070707070787C7FF53
:10184600FFFFFFFFFF0000C0E0F0F8FEFFFFFFBF55
:101856009F8F87838000003F3F3F3F3F3F3F3F1FB3
:101866001F1F1F1F1F0000F0F0F0F0F0F0F8F8F84F
:10187600F8F8F8F8E000000707070707C7FFFFFFBB
:10188600FFFFDFCF830000C080808081838387E7EE
:10189600FFFFFFFFFF00003F3F3F3F3F1F1F1F1F90
:1018A6001F1F0F0703000000F0F0F0F0F00000F833
:1018B600F8F8F8F8000000F8FFFFFFFF0F0000FF40
:1018C600FFFFFFFF0000F0FFFFFFFFFFFCFCFCFF38
:1018D600FFFFFFFFFC0001010101010101013F3F84
:1018E6003F3F3F3F00000000F0F0F0F0F0F0F0F076
:1018F600F0F0F0F8F80000FFFFFFFFFFFFE7E7E773
:10190600E3E3E3E3E300008F8F8F8F8F878787877B
:10191600FFFFFFFFFF00003F3F3F3F3F1F1F1F1F0F
:101926001F1F0F07030000F0F0F0F0F0F0F0F0F0EA
:10193600F0F8F8F8F80000FFFFFFFFFFFFE7E7E722
:10194600E7E7E7E7E70000FFFFFFFFFF8F8F8F8FD7
:10195600FFFFFFFFFF00003F3F3F3F3F3F1F1F1FAF
:101966001F1F1F07030000F0F0F0F0F0F0F0F0F09A
:10197600F8F8F8F8F8000007070707070707C7FF92
:10198600FFFFFFFF0F00000000000080F0FEFFFFDA
:10199600FF7F07000000000000203C3F3F3F3F3F25
:1019A60003000000000000F0F0F0F0F0F0F0F0F0BE
:1019B600F0F8F8F8F800003FFFFFFFFFE3E1E1E190
:1019C600FFFFFFFF1F0000FEFFFFFFFF878787CF98
:1019D600FFFFFFFFFF00003F3F3F3F3F1F1F1F1F4F
:1019E6001F1F1F07030000F0F0F0F0F0F0F0F0F01A
:1019F600F8F8F8F8F80000FFFFFFFFFF8787C7C772
:101A0600FFFFFFFFFF00009F9F9F9F9F9F9F9F9F3E
:101A1600FFFFFFFFFF00003F3F3F3F3F3F1F1F1FEE
:101A26001F1F0F070300FC0201C181C1F1FF7DF9F1
:101A3600E1F1E18102FC3F408EBFBF878183808058
:101A460083BF9F8F403F000000C000C0F8FCFEC06F
:101A5600E0F0E00000000000021F3F3F7F7F7F7F35
:101A66003F3F1F070000000080C080F008041C20D4
:101A7600601060C0000000000F1821234040404065
:101A86006020180F0000000080FE03FD017E80002C
:101A9600021212121200003E410C9E9F9E8C403391
:101AA6000C4049494900000C12120CC0F0F8783875
:101AB60038383878700000000000001F3F7F7870CB
:101AC600707070783800FC0201E1F9FD0D1D1D1DD6
:101AD6000101010102FC3F408E8F8F9F9E9FBFBF79
:101AE600BFBF9F8E403FFC0281818181810101C57C
:101AF600E5B59D8D02FC3F40B1B9ADA7A3808081BD
:101B060081818181403FFFFF818181818181818146
:101B160081818181818181818181818181818181AF
:101B2600818181818181818181818181818181819F
:101B3600818181818181818181818181FFFF6070C5
:101B4600707070F8FCFE8E0E8EDEFCF86000707011
:101B5600707070707070707070707070706000006F
:101B6600000000000000000080808080808081836B
:101B760083838383818180800080E0F0F038383869
:101B8600F0F0E0808080808000000000000000000F
:101B9600000001010101010181C1C1C1C1C18181F1
:101BA60001010001070F0E1C1C1C0F0F070301018A
:101BB600010100000000000000000000060E0E0EED
:101BC6000E1F3F7F7171717B3F3F0E000E0E0E0E92
:101BD6000E0E0E0E0E0E0E0E0E0E0E040000000061
:101BE600000000000000E0F8FC1E0E0707070707CC
:101BF6000707070707070787C7C7C7C7C7C78707EF
:101C0600070E1EFCF8E000000000000000000000C7
:101C1600FFFFFF00000000000000000000000000C1
:101C260000000101010101037FFF7C0000FFFFFFAF
:101C360000000000000000000000FFFFFF000000A1
:101C4600FCFEFC8000000000000000000000000018
:101C560000000000000000FFFFFF00000000000081
:101C660000000000071F3F7870E0E0E1E3E7E7E7E8
:101C7600E7E7E7E2E0E0E0E0E0E0E0E0E0E0E070B7
:101C8600783F1F0F00000000000000000000000069
:101C960080C0F07060E0C0C0E07F3F030303030331
:101CA600033F7FE0C0C0E06070F0C080000000002D
:101CB6000000000000000000181E3F73E0C0000096
:101CC6000000C0F038180C0C0C0C1838F0C00000DE
:101CD6000000C0E0733F1E18000000000000000076
:101CE60000001878FCCE070700000000030F1C1840
:101CF60030303030181C0F07000000000707CEFCFC
:101D06007810000000000000000000000000010341
:101D16000F0E0607030307FEFCC0C0C0C0C0C0FC10
:101D2600FE07030306060E0F030100000000000075
:101D3600000000000000000080C0E070381C0C0E9F
:101D460006060703039F9F03030706060E0C1C38AF
:101D560070E0C080000000000000000000000000ED
:101D6600F0FE9F838000000000000000000000FFDE
:101D7600FF0000000000000000000080839FFEF0CE
:101D8600000000000000000000000F7FF1C101000C
:101D96000000000000000000000303060E0C1C18E3
:101DA600100000000001C1F17F0F000000000000DC
:101DB6000000000000000103070E1C183070606070
:101DC600E0C0C0F8F8C0C0E060607030381C0E0794
:101DD60003010000000000000000000000000000F9
:101DE60000000060E0C080000000808080DEDE0031
:101DF60000F0FC1C0E060E1CFCF0000000000000AB
:101E0600000000000000000000808080800080F15B
:101E1600FD1E070303010101010000FFFF00F8F8A2
:101E2600F800FFFF000000000000000000000000B6
:101E36000000000101010100018F3F78E0C0C08071
:101E46000000E0F83C0FC7E0FFFFFFE0870F3CF81B
:101E5600E00000000000000000000000000000009C
:101E6600000607030100000001010000030F1E38F1
:101E760031736367677331381E0F0300000000007B
:101E86000000000000000000000000C0E0603038E4
:101E9600181C0C0C0C1F1F0C0C0C1C18383060E0A6
:101EA600C00000000000000000000000000000006C
:101EB6008080F8FE8F030000F0180C02030181C138
:101EC600C1810103060418F00000038FFEF880802C
:101ED6000000000000000000000001011F7FE1C0BB
:101EE60000000F182040C0808183838180C040207D
:101EF600180F0000C0F17F1F010100000000000064
:101F060000000000000000000003070E0C1C18383B
:101F1600303030F8F830303038181C0C0E0703011A
:101F260000000000000000000000000000000000AB
:101F360000C0E0F078381C1E0E0E060700000000F8
:101F460007060E0E1E1C3C78F0E0C0800000000064
:101F56000000000000000000303E3F1F03000000AC
:101F66000000000080C0E0F0F8BC86808000000021
:101F7600000000030F3F3E3000000000000000009C
:101F860000000C7CFCF0C0000000000000000060B7
:101F9600381F0F07030100000000000000C0F0FC1E
:101FA6007C0C00000000000000000000000001039F
:101FB600070F1E1C3878707060E000000000E060BB
:101FC600707078383C1E0F07030100000000000007
:101FD60000000000000000E0F81C0C0606060606DD
:101FE600060C1CF8F00000008C8C8C8C8C8C8C8C75
:101FF6008C8C8C8C000000000000000000000000AB
:1020060000071F387060606060606070381F0F00E6
:10201600000031313131313131313131313100006E
:102026000000000000000000000000E0F81C0C06A4
:1020360006060606060E1CF8F00000E0F81C0C0664
:1020460006060606060E1CF8E0000000000000006A
:102056000000000000071F387060606060606070FC
:10206600381F0F00000F1F3870606060606060707E
:10207600381F0F00000000000000000000000000F4
:102086000080C0E0F0F8F8FCFCFEFEFE7E3E3E7EE0
:10209600FEFEFEFCFCF8F8F0E0C080000000000048
:1020A600000000000000000000F8FEFFFFFFFFFF39
:1020B600FFFFFFFF0F0F0C0C0C0CFFFFFFFFFFFFD6
:1020C600FFFFFFFFFFFEF800000000000000000019
:1020D6000000001F7FFFFFFFFFFFFFFFFFFF0F0F47
:1020E600000000000F0FFFFFFFFFFFFFFFFFFF7F56
:1020F6001F000000000000000000000000000001BA
:1021060003070F1F1F3F3F7F7F7F7F7F7F7F7F7F7D
:102116007F3F3F1F1F0F0703010000000000000064
:102126000000000000000000386C446C380000809D
:10213600C0C0C0C0C0C0C0C0C0C080000000000099
:102146000000000000FCFFFFFFFF0703030303037B
:1021560007070707000000000000000000070F1F28
:102166003F3F3E3C3C3C3C3C3E3E1E0E00000000D9
:102176000000000000000000000000000000000059
:102186000000000000000000000000000000000049
:102196000000000000000000000000000000000039
:1021A6000000000000000000000000000000000029
:1021B6000000000000000080C0F0F8783C1E1E0EF3
:1021C6000E8FCFCFCECE1E1E3C78F8F0C08038FFE3
:1021D600FFFF0100000000383EFFFF7F3B080000C4
:1021E600000001FFFFFF0003071F3F3C78F0F0E00F
:1021F600E0E3E1E0E0E0E0F0787C3E1F0F03000062
:1022060080C0E0F0F0700000FEFFFFFE000070F0FE
:10221600F0E0C080000000FEFFFF87010000000024
:102226000F1F1F0F000000000187FFFFFE000000C8
:10223600030F1F3F3C787870F0F0F0F07078783C30
:102246003F1F0F0300000000107CC4C46C7C10000C
:102256000000FC0000000000FC0000000000000080
:1022660000000000000000000000000000FF000069
:10227600001C3E73E3321E000000FF000000000059
:102286000000000000000000000000000000003F09
:102296000000000000003F0000003E3663233E18A9
:1022A600000000000000000000000000F8FC0E071F
:1022B6000703030303030303036363636363E3C364
:1022C600070EFCF800000000000000000000FFFF01
:1022D600000000E0E0000000000000000000000038
:1022E6000F070000FFFF00000000000000000000D4
:1022F6001F3F70E0C0C7CFCCCCCCCCCCC0C0C0C0D8
:10230600C0C0C0C0E0703F1F000000000000000019
:10231600000000000080C0C0F0F8F8FCFCF8F0F8FF
:10232600FCF8F8F0C080800000000000000000000B
:10233600000000000000E7FFFFFFFFC701000000EC
:1023460000000001C7FFFFFFFFCF000000000000F4
:102356000000000000000000010707071F3F3F7E46
:102366007E3E3E7E7E7F3F3F07070701000000005E
:102376000000000000000000000000C0E070181817
:102386000C0C0C84840C0C0C181830E0C0000000F7
:10239600000000000000000000000000FFE7000051
:1023A60000000000001F3F60C08000000000E7FF43
:1023B6000000000000000000000000000000000314
:1023C600070C1818303030202030303018180C0721
:1023D60003010000000000000000000000000000F3
:1023E600000000FC0203F90302FC00000006C6C65A
:1023F600C6C6C6C6C60000000000000000000000F9
:1024060000C070180CC7E0E0FFE0E0C70C18F0C091
:10241600000018181818180000000000000000003E
:10242600000000071C306043C78F8F8FC7436030A2
:102436001C076060636363636300000000000000C4
:10244600000000000000000000C02020109088CF8F
:10245600CF8890102020C00000000000000000007F
:102466000000000000001818183CC300187EFFFF8B
:10247600FFFFFFFFFFFF7E1800C33C18181800007F
:10248600000000000000000000000000000304043B
:10249600080911F3F3110908040403000000000001
:1024A6000000000000000000000000C0E070381CC2
:1024B6000C060607030000830706060E1C3870E0AC
:1024C600C0000000000000000000000066E7C30036
:1024D6000000000000088CFE7F31100000000000A4
:1024E6000083C7C6000000000000000000000003D3
:1024F600070E1C38706060E0C10000C0E0606070CC
:10250600381C0E0703000000000000000000000059
:10251600F0DC060303010303020EF80000F80C06C4
:102526000303010303069CF80000000000000000FE
:1025360000000081C366242424242424E70000E745
:1025460024242424242466C2830000000000000002
:10255600000000001F3B60C0C08080C040301F00EC
:10256600001F3040C0C080C0C0603B1F000000009C
:102576000000000000000080E0F0F8F8FCFEFEFE1F
:102586001E1F1EFEFEFEFCFCF8F0E0C00000000070
:1025960000000000000000007EFFFFFFFFFFFFFFBE
:1025A600FF710101037FFFFFFFFFFFFFFFFFFF1822
:1025B600000000000000000000000003070F1F3F9E
:1025C6007F7F7FFCFCFCFCFCFF7F7F3F1F1F070318
:1025D600000000000000000000000000FFFF8383F1
:1025E6008387FEFC0000FFFF636363E3FFBE00FF1B
:1025F600FF007FFFC08080C0FF7F0000FFFFB3B3F6
:10260600B3B3B300FFFF636363E3FFBE010101F1F0
:10261600F1F1F1E1C0800101000000000101F0F1DB
:10262600F1F00000010101C1E0F0F0F0F1F1F1F18B
:10263600F1F1F1F0F1F1F0F0E0C00101000000FF6E
:10264600FFFFFF071F3F7FFEF8F0E0C08000FFFF9F
:10265600FFFF0000000000FFFFFFFF00000000007A
:10266600000000000000FFFFFFFF0000000000FF69
:10267600FFFFFF000000000001030F1F3F7EFFFF6A
:10268600FFFF00000000003F7FFFFFF0F0F0F0F0DA
:10269600F0F0F0F0F0F0FFFF7F3F0000FCFC8C8CC8
:1026A6008C8CFCF800F8FC0C0C0C0CFCF800FCFC08
:1026B600000000FCFC0000FCFC0000FCFCCCCCCCC8
:1026C600CCCC00FCFC8C8C8C8CFCF8000707010140
:1026D60001010100000707060606060707000103B9
:1026E6000706070303070703010000070706060698
:1026F60006060007070101010307060000FFFFFFAA
:102706000000000000000000000000FEFFFF0707B9
:1027160007070707FFFFFE00000000FFFFFF00009E
:1027260000FFFFFF00000000FFFFFF00001F1F1F4C
:102736001C1C1C1C1C1C1C1C0000000F1F1F1C1C2E
:102746001C1C1C1C1F1F0F0000000003070F1E1C73
:102756001E0F070F1E1C1C1E0F070100FCFC8C8C95
:102766008C8CFCF800F8FC0C0C0C0CFCF800FCFC47
:10277600000000FCFC0000FCFC0000FCFCCCCCCC07
:10278600CCCC00FCFC8C8C8C8CFCF80007070181FF
:1027960081818180808787868686060707008183F8
:1027A60087868783838787838180000707068686D7
:1027B6008686808787818181838706000000FFFFE8
:1027C600FF03030303030303FFFFFF000000FFFFF4
:1027D600FFE3E3E3E3E3E3E3E3E300000000FFFFFB
:1027E600FFE3E3E3E3E3E3E3E3E3000000001F3F8B
:1027F6003F383838383838383F3F1F0000003F3FF1
:102806003F000000000000000000000000003F3F05
:0C2816003F000000000000000000000077
:10908300128AFE900398E0FBA3E0FAA3E0F9EF0253
:029093002EE6C7
:01001A0022C3
:07900B00C295129012D295EC
:0E9012007F027E00EF1FAC0670011E4C70F650
:01902000222D
:0F90B500D294D295129012C294129012C29522A8
:0A913700C29412900BD29402901221
:108FA600AD07C295129012ED6004C2948002D2946D
:0A8FB600D295129012C2950290129B
:1090210012900B309406C295E4FEFF22C295129075
:06903100127E007F012207
:048D8500E025E0FF06
:028D8900AD0734
:108D8B007B08AF031BEF6015ED30E704D294800234
:108D9B00C294ED25E0FD12900DC29580E502902165
:028AFE00AD07C2
:108B0000E4FBC295129012D294E4FAEAC39408747A
:108B1000809480501112901212900BEB25E0FB30E4
:108B200094010B0A80E5C295129012AF05128FA630
:028B3000AF0391
:018B32002220
:108F3600900125EFF0AA03A9051290B5128D85AF11
:0C8F460001128D89AF02128D8902913753
:0989A7009003D0EDF0AA07A9032A
:1089B0001290B5EA25E0FF128D89E0FF128D89E95A
:1089C000640170031291371290B5AF02EF25E044B5
:1089D00001FF128D89E4FF128AFEAD07129137AFB5
:0189E0000591
:0189E1002273
:10832D00900396EFF0A3EDF0A3EBF0A3EAF0A3E931
:10833D00F01290B5900396128D85A3E0FF128D89F2
:10834D0090039CE0640170031291371290B5900375
:10835D0096E025E04401FF128D8990039BE014F017
:10836D0060117F01129083900399E475F001122F33
:0B837D009580E7E4FF12908302913727
:0691AB0025000000000099
:1042C400A3E0FEA3E02444F582741B3EF583E4934B
:1042D400FF7E007D017C0022900341E0FCA3E0FD11
:1042E400A3E0FEA3E02401900341FFE43EFEE43D8D
:1042F400FDE43CFC02311090033FE0C39410748051
:104304009480229000EFE09000F275F0A8A4FFE5FD
:10431400F0F0A3EFF02290011FE075F010A42FF548
:1043240082E435F0F583E58222FF3395E0FEC37421
:10433400409FFFE49EFEE0C39FEE6480F874809883
:1043440022A3A3E0FEA3E0900354FFE0FBA3E0FA62
:10435400A3E0F922F090035AE0FCA3E0FDA3E0FE01
:10436400A3E0229000EDE0FF3395E0FE22C390002D
:10437400F6E09000F59404E0648094802290034178
:10438400E47F01FEFDFCE0F8A3E0F9A3E0FAA3E07A
:10439400FBC30230ECEFF0A3EDF0A3EBF0A3EAF0E3
:1043A400A3E9F022FE9000F3E02FF09000F2E03E4B
:1043B400F09000EEE004F09000F6E004F0229001AA
:1043C40020E0FFC394087480948022900341A3A347
:1043D400E0FEA3E02474F582740122C390033EE05E
:1043E40090033D9402E06480948022E0FFE4FCFDAD
:1043F400FE9001121231109001167401F0A3740C96
:10440400F022C39000F3E09000F29403E0648094FF
:1044140080227D017C00E4FFFE22C3900387E090AC
:1044240003869404E06480948022FE9000F1E02FDF
:10443400F09000F0E03EF09000EDE004F09000F326
:10444400E004F022FE900385E02FF0900384E03E28
:10445400F0900381E004F0900387E004F0229001DF
:104464001FE075F006A42494F582E5F0340FF5837B
:10447400E5822FF582E43583229000F1E0C3942A8B
:104484007480948022E0F582758300022EB9EE24B4
:1044940001FFE433FE8F828E83022EB99000EEE09A
:1044A400FDFF3395E0FE22900339E004F090033ED3
:1044B400E004F022E0FD3395E0FCC36480948022A4
:1044C4007C00AF03AE02122F0A7C007D0A122F0A71
:1044D400A3EDF022FFE43EFEE43DFDE43CFC0231AA
:1044E40010E09000C693FFD3947F7480948022EFF1
:1044F400F0FCA3EDF0E4A3F02275F0A8A4C39DFEA4
:10450400E5F09CF0A3CEF022900340E004F0E490A8
:10451400033DF0A3F022A3E0FEA3E0244CF5827453
:104524002222C3EF9416EE6480948022F0E4A3F078
:10453400900352E0FFA3E0FD7B017A0379572290B8
:1045440000F2E004F0229000F1E004F0229000F583
:10455400E004F022FEC39000F6E09FEE6480F89041
:1045640000F5E064809822900345E004F022EF24F3
:10457400B0FFEE33FEE4FDFC22EE75F010A4FFAEB6
:10458400F0E4FCFD0231109000F0E02430FF22E062
:10459400C39480748094802224BCF582E583341112
:1045A4002224C4F582E583341122F583E493F4FFD5
:1045B400E4F4FE7D017C00229000EEE075F066A438
:1045C40022EFF0A3EDF0A3EBF022900120E0FFC373
:1045D40094067480948022E4F0EF3395E0FEC36483
:1045E40080948022C3E49FFFE49E2290033FE00472
:1045F400F02290033DE004F022900119E0FEA3E0D4
:10460400FF900113E022E5822FF582E5833EF583D6
:10461400E49322A4FF900110E02FFFA3E0FD22A366
:10462400A3A3E0F5828E83022EB9E4F0A3E0240272
:10463400F022E4FDFC7F10FE22E4A3F0A3F0A32209
:104644009000F0E004F0229000EFE004F0229000EB
:10465400F2E004F022900384E004F022900383E06B
:1046640004F022900386E004F022E0FCA3E0FDECD9
:10467400022B3EF08F828E83A3022EB9F09001109C
:06468400E0FFA3E0FD22AF
:09915C00AB07E4FD7F3C028F36F5
:09916500AB077D407F3C028F3610
:108F5200900123EEF0A3EFF0ED4C9001236006A305
:0C8F6200E0FF029165A3E0FF12915C2289
:0584E2009003C7EFF05C
:1084E700E4A3F09003C8E0FF7E001243C7503B129D
:1084F7004572128F52E4FDFCFFFE128F5212463670
:10850700128F52E49003C9F09003C9124593501299
:108517009003C7E01242D4128F529003C9E004F0CF
:0A85270080E69003C8E004F080B97C
:018531002227
:108BCE00900122EFF0ED24B0FFE433FE128BF5544A
:108BDE00F0C4540F7E004410FF128BF5540FFF7E2D
:108BEE0000E4FDFC028F52E4FDFC128F5290012234
:028BFE00E02273
:1086F800E49000E9F09000E9E0FF7E001243C750E3
:1087080037124572128F52E4FDFCFFFE128F52128F
:108718004636128F52E49000EAF09000EA12459330
:10872800500E124416128F529000EAE004F080EACC
:088738009000E9E004F080BDAF
:018740002216
:10858100E49003CEF09003CEE0FF7E001243C7508B
:108591003C124572128F52E4FDFCFFFE128F521203
:1085A1004636128F52E49003CFF09003CF124593D9
:1085B10050137D017C007F017E00128F529003CF0A
:0D85C100E004F080E59003CEE004F080B807
:0185CE00228A
:0B6D9D0090011CEDF090011BEFF0FDD9
:106DA800E490011FF0A3F0EB24E090011FF0ED1236
:106DB80044EB4007E490011B12462F900000E0705E
:106DC8004790011EE06410702C126E691243C25085
:106DD8000E12431A12459C1242D0126E8C80ED128C
:106DE8006E7A1243C2506212431A1245A51242D05B
:106DF800126E8C80ED126E691245CE504C124462B0
:106E08001242D0126EA780F090011EE06410702626
:106E1800126E961243C2500B12431A12459C126E00
:106E28005280F0126E7A1243C2501E12431A124553
:106E3800A5126E5280F0126E961245CE500B124477
:096E4800621245AE126EA780F043
:106E510022F583E493F4FFE4F4FE7D017C00128FBC
:106E610052900120E004F02290011BE0FFA3E0FD1D
:106E7100128BCEE4900120F02290011BE0FFA3E0F1
:106E810004FD128BCEE4900120F022128F5290016A
:106E910020E004F02290011BE0FFA3E0FD128BCE65
:106EA100E4900120F022128F52900120E004F022A0
:0678D3009000E912439948
:1078D90012463DF09000EB12434F9000F01244899C
:1078E900607024E09000EEF09000E9E0D3947A749F
:1078F9008094804006E4F0A3E004F09000E9E0FF02
:10790900A3E012795C9000EF1243C550119000EE8C
:1079190012431D12459C1242D012796680E79000ED
:10792900E9E0FFA3E00412795C9000EF1243C5502F
:10793900119000EE12431D1245A51242D01279662C
:1079490080E79000E9E02408F09000F0E004F002FC
:0279590078DDD7
:10795B0022FD128BCEE49000EFF022128F5290009A
:05796B00EFE004F02232
:0888E40090011BEFF0A3EDF081
:1088EC00A312311C0000000190011CE0FF14F0EFFA
:1088FC006020A3E0F8A3E0F9A3E0FAA3E0FB900169
:10890C001BE0FFE4FCFDFE122FC190011D12311083
:09891C0080D690011D12435CFF9E
:01892500222F
:0876E300900110EFF0A3EDF09F
:1076EB00E490011AF0900118F0900116E0FF900160
:1076FB0018E0FEC39F400302778AC3EF9E14FD7F01
:10770B000A1288E4A804A905AA06AB079001121275
:10771B00435CFF12304CE47B0AFAF9F812304C90C0
:10772B000119EBF0A3E0702E900116E014FF90010D
:10773B0018E0FEC39F501FA3E07015900117E0FCEB
:10774B00C3138EF012461790011EECF07B208023A2
:10775B0090011A7401F0900117E0FEC313FFA3E030
:10776B00FDEF8DF0124617900119E02430FB9001CC
:0F777B001EEEF0126D9D900118E004F00276F4FE
:01778A0022DC
:0683880090011012439960
:10838E00E4900116F090011212434F900116124420
:10839E0089FB6040900110E0FFA3E0FD900115E025
:1083AE0090011EF0126D9D900115E0641090011069
:1083BE007006E02408F08004E02406F0900110E03E
:1083CE00D3947874809480400312462E900116E068
:0483DE0004F080B176
:0183E2002278
:0A7B280090036AEFF090036CEBF09D
:107B3200E4900371F0A3F090036DE0FF5407700826
:107B4200EF131313541F800A90036DE013131354A1
:107B52001F04900374F0900374EDF090036DE0FF46
:107B6200900374E0FDC39F504990036AE0FF128BBB
:107B7200CE90036AE0900373F090036CE0FF9003F1
:107B820073E0C39F502490036E12434FA3E475F039
:107B920001122FAB85F082F583122EB91242D41254
:107BA2008F52900373E004F080CF900374E004F0EE
:027BB20080A9A8
:017BB40022AE
:10756A007FAE1276007F40FE128F527FB01275EC0A
:10757A007F81FE128F52E4FDFC7FFFFE128F527F45
:10758A00A01275EC7FA6FE128F527FA81276007F9A
:10759A001FFE128F527FD312760BFFFE128F527F7D
:1075AA00D512760B7FF0FE128F527FD91276167F94
:1075BA0022FE128F527FDA1276167F02FE128F5245
:1075CA007FDB1276217F49FE128F527F8D12762140
:1075DA007F14FE128F52E4FDFC7FAFFE128F52021F
:1075EA0086F8E4FDFCFE128F52E4FDFC7FC0FE1219
:1075FA008F52E4FDFC22E4FDFCFE128F52E4FDFCF6
:10760A0022E4FDFCFE128F52E4FDFC22E4FDFCFEA6
:10761A00128F52E4FDFC22E4FDFCFE128F52E4FDBF
:02762A00FC2240
:037ECF009000F42C
:107ED2001244F3EB75F040A4FFA3124313AF041254
:107EE2008BCEE49000F9F0A3F09000F4E0FFA3E061
:107EF200FD128BCEE49000F6F09000F61242FE5096
:107F020027A3E0FEA3E024ACF58274171242CF123D
:107F12008F529000F8E004F070069000F7E004F051
:107F22009000F6E004F080D19000F5E004F09000BB
:107F3200FAE004F070069000F9E004F0C39000FA51
:097F4200E09000F912437940A01F
:017F4B002213
:037D4E009000F4AE
:107D51001244F3EB75F048A4FFA3124313AF0412CE
:107D61008BCEE49000F9F0A3F09000F4E0FFA3E0E3
:107D7100FD128BCEE49000F6F09000F6E0C394186B
:107D8100748094805027A3E0FEA3E0242CF5827434
:107D9100211242CF128F529000F8E004F070069049
:107DA10000F7E004F09000F6E004F080CC9000F5DC
:107DB100E004F09000FAE004F070069000F9E004AD
:0E7DC100F0C39000FAE09000F912440E409BCF
:017DCF002291
:037DD0009000F42C
:107DD3001244F3EB75F0C0A4FFA3124313AF0412D4
:107DE3008BCEE49000F9F0A3F09000F4E0FFA3E061
:107DF300FD128BCEE49000F6F09000F6E0C39430D1
:107E0300748094805027A3E0FEA3E024E2F58274FB
:107E1300251242CF128F529000F8E004F0700690C2
:107E230000F7E004F09000F6E004F080CC9000F559
:107E3300E004F09000FAE004F070069000F9E0042A
:0E7E4300F0C39000FAE09000F9124426409B34
:017E5100220E
:058926009003BDEFF01D
:10892B001244F6A3F09003BDE0FFA3E0FD128BCE43
:10893B00124416128F529003BEE004F09003C0E075
:10894B0004F070069003BFE004F0C39003C0E09402
:0B895B00039003BFE06480948040CADA
:0189660022EE
:057A07009003AFEDF05B
:107A0C0012463DF0EF1244B95003027A9AD3ED942A
:107A1C0000EC648094804076ED9436EC6480948025
:107A2C00506C9003AFE0FD128BCEE49003B3F0A347
:107A3C00F09003AFE0FDFF128BCEE49003B0F0901A
:107A4C0003B0E0C3940A74809480501C1244161244
:107A5C008F529003B2E004F070069003B1E004F092
:107A6C009003B0E004F080D79003AFE004F09003F3
:107A7C00B4E004F070069003B3E004F0C39003B4D8
:0E7A8C00E094039003B3E06480948040A42251
:017A9A0022C9
:0D5FB1009000EDEDF0A3EBF09000ECEFF0B0
:105FBE009000EF1245DB4052EF941EEE6480948009
:105FCE0050481245BCFF9000F01243131260FD9032
:105FDE0000F2F0A3F01260FD9000EFF09000EFE001
:105FEE00C3942274809480501312451A1242CF1219
:105FFE00610A700312464412464B80E012443B7015
:10600E000312465212440640CC229000EC1244B8C1
:10601E0050681245BCC39DFEE5F09C9000F0F0A3C5
:10602E00CEF09000EDE0FDE4FF1261149000EDE083
:10603E00FDE4FF128BCEE49000EFF09000EC1243E3
:10604E006AEF2422FFE43EFE9000EF12433A501313
:10605E0012451A1242CF12610A70031246441246BA
:10606E004B80D89000EC12436A1245E812442E7011
:10607E000312465212440640B3229000EC1244A37F
:10608E00C3EF941EEE6480948040631245BCFF9073
:10609E0000F0124313AF059000EDE0FD1261149075
:1060AE0000ECE0FFA3E0FD128BCEE49000EFF09049
:1060BE0000ECE09000EF12432D501912451A1242D7
:1060CE00CF128F529000F1E004F07003124644128A
:1060DE00464B80DB9000EC12436AEF24E2FFEE3475
:0E60EE00FF12442E700312465212440640B1B7
:1060FC00229000ECE0FFA3E0FD128BCEE422128F85
:10610C00529000F1E004F022128BCEE49000F2F0F9
:03611C00A3F022CB
:0D652700900381EDF0A3EBF0900380EFF006
:106534009003831245DB4045124527504090038267
:10654400E090038412430E126659900386F0A3F080
:10655400126659900383F090038312448050101202
:1065640042C4126666700312465912466080E812ED
:106574004455700312466712441E40D4229003808F
:106584001244B8505F900382E09003841244FD905B
:106594000381E0FDE4FF126670900381E0FDE4FFF7
:1065A400128BCEE4900383F090038012436AEF24AD
:1065B4002AFFE43EFE90038312433A50101242C471
:1065C400126666700312465912466080DB9003809F
:1065D40012436A1245E81244487003124667124493
:1065E4001E40B6229003801244A3124526406590B3
:1065F4000382E075F0A8A4FF900384124313AF054F
:10660400900381E0FD126670900380E0FFA3E0FD3B
:10661400128BCEE4900383F0900380E09003831206
:10662400432D50161242C4128F52900385E004F099
:10663400700312465912466080DE90038012436A4A
:10664400EF24EAFFEE34FF12444870031246671247
:04665400441E40B4EC
:1066580022900380E0FFA3E0FD128BCEE422128F8C
:1066680052900385E004F022128BCEE4900386F06A
:03667800A3F0226A
:0D7CC8009000F2EBF09000F0EFF0A3EDF073
:107CD500E49000F3F09000F6F0128BCEE49000F4FF
:107CE500F0A3F09000F0E0FFA3E0FD128BCEE4904E
:107CF50000F3F09000F31242FE502C9000F6E0FFE6
:107D05009000F2E075F020A4242CF582E5F0341AF9
:107D15001244721242D0128F529000F6E004F09095
:107D250000F3E004F080CC9000F1E004F09000F561
:107D3500E004F070069000F4E004F0C39000F5E074
:087D45009000F41243E7409B9B
:017D4D002213
:0971C1009000F0EFF0AB05AA0408
:1071CA007D641244C47D0A1244C4AE02AF03124461
:1071DA00CD900301E0600302727790009B12466E25
:1071EA00C004C005C006C0079002FC12466EA8047F
:1071FA00A905AA06AB07D007D006D005D004122AE3
:10720A00C0503C12728740139000A7E07004A3E0BC
:10721A00640170077B011272AB80489000F0E0A312
:10722A0012729E24109000F212729E2420FF900087
:10723A00F3E0FBE4FD127ECF12458BE4FB802A903B
:10724A0000F0E0FFE4FBFD127DD01272874014903B
:10725A0000A7E07004A3E06401700812458B7B026A
:10726A00E4800612458B7B01E4FD027D4E12458BBC
:0C727A007B03E4FD127D4E7B021272AB20
:1072860022125E17122B77D39000A6E09F7480F827
:107296009000A5E064809822FFE0FBE4FD127ECF1B
:1072A6009000F0E0229000F0E0FFE4FD127DD02295
:108DF100C007C005AE02AF03E4FCFD9001121231C1
:108E0100109001167403F0A37410F0D005D007027E
:028E110076E306
:0670C9009000F01245C525
:1070CF00E0FE75F0648475F00A849000F4E5F0F04A
:1070DF00EE75F00A8475F00A84A3E5F0F0EB75F015
:1070EF000A84A3E5F0F0128BCEE49000F3F0900049
:1070FF00F3E0FFC39438748094805048C3EF940337
:10710F00748094804029D3EF943574809480501FFD
:10711F009000F2E0C313FFA3E024FDFEEFD39E7DAA
:10712F00017C0040047FBD80027F817E00800A9039
:10713F0000F3E0901B0C1242D3128F529000F3E039
:10714F0004F080AA9000F0E02420FFC007A3E01411
:10715F00FDC0059000F41243EFD005D0071271B9AE
:10716F002426FFC007A3E014FDC0059000F51243CD
:10717F00EFD005D0071271B9242CFFC007A3E0147C
:10718F00FDC0059000F61243EFD005D0071276E34D
:10719F009000F0E02432FFA3E014FD7BFF7A917999
:0A71AF00AB9001157408F00283880C
:0871B9001276E39000F0E022E1
:06611F0090037512439984
:1061250012463D12311C0000000190037712434FC7
:1061350090037B124489700302624FE490037AF066
:1061450090037C12311C0000000190037A1244E593
:10615500403490037712434F90037BE0FE12448A4C
:10616500FDEF6D7018124492FF90037AE0FE9000E7
:10617500C793B5070890037C12457D800990037A83
:10618500E02402F080C4900375E0D3947A7480947F
:1061950080400312462E12626290037C1243846093
:1061A5005F126262E490037AF090037A1242FE5025
:1061B5002290037C1243D21242CF128F5290037C5D
:1061C50012435C240190037C1242EE90037AE004B2
:1061D500F080D612625090037A1242FE505B900313
:1061E5007C1243D21242CF128F5290037C12435C31
:1061F500240190037C1244D890037AE004F080D601
:1062050090037BE004F0900375E0FFA3E0FD128BA3
:10621500CEE490037AF090037A1242FE50081244BD
:106225001612626E80F012625090037A1242FE508E
:106235000812441612626E80F0900375E02410F087
:0A62450090037BE02402F002612FB9
:10624F0022900375E0FFA3E004FD128BCEE49003D0
:10625F007AF022900375E0FFA3E0FD128BCE22129D
:09626F008F5290037AE004F02242
:06820100900352124399A4
:1082070090035A12311C0000000090035A12434594
:10821700124499604A1244EB90035A401F124623B6
:1082270090035712467790035812453012611F90FA
:108237000352E024101243582402801A12434512B5
:1082470044999003571245301278D3900352E02493
:0F82570008124358240190035A1244D80282118E
:0182660022F5
:0653D0009000ED1245C53E
:1053D600E49000F1F09000F4F09000F0E060030239
:1053E60054E0124367C364809480403712452750C7
:1053F600321243079000EDE0FFA312562F1256011A
:1054060012447D50101242C41256127003124543C4
:1054160012454A80EB1243B570031245511243718F
:1054260040DB229000ED1244B850589000EFE09017
:1054360000F21244FD9000EEE0FDE41256469000A4
:10544600EEE0FDE4FF128BCEE49000F1F01243672C
:10545600EF242AFFE43EFE9000F112433A50101268
:1054660042C4125612700312454312454A80DE1298
:1054760043671245E81243A870031245511243715F
:1054860040BC229000ED1244A3124526500302565A
:1054960000124307AF059000EE12562F1256011266
:1054A6004367C374409FFFE49EFE9000F112433AA7
:1054B60050101242C412563C700312454312454A1C
:1054C60080DD124367EF24EAFFEE34FF1243A87033
:1054D6000312455112437140C3229000F0E064016B
:1054E60060030256001243079000EEE03395E0C3D6
:1054F6006480948050689000EDE0FFE4FD128BCE4E
:105506009000EE12436A1245E8FE7C007D2A122EB8
:10551600F89000F3E02FF09000F2E03EF0E4900007
:10552600F5F0A3F09000EE12436AEF2404FFE43E88
:10553600124558400302560012561C12447D501064
:105546001242C412563C700312454312454A80EB80
:105556009000F41243B8700312455102552A1244C2
:10556600A0EF4E703A9000EDE01256469000EDE046
:10557600FFA3E0FD128BCEE49000F1F012447D50C3
:10558600101242C4125652700312454312454A8005
:10559600EB1243B5700312455112437140CE2212ED
:1055A60044A0D3EF9400EE64809480404D9000EDCB
:1055B600E0FF128BCE9000EEE09000F4F0E4A3F052
:1055C600A3F09000EE12436AC374049FFFE49E1298
:1055D6004558502612561C12447D50101242C412D1
:1055E6005652700312454312454A80EB9000F4125E
:0A55F60043B870031245510255C876
:10560000229000EDE0FFA3E0FD128BCEE49000F1CC
:10561000F022128F529000F3E004F0229000EDE0AF
:10562000FF9000F4E0FD128BCEE49000F1F022E058
:10563000FD128BCEE49000F5F0A3F022128F529071
:1056400000F3E004F022FF128BCEE49000F5F0A30B
:0C565000F022128F529000F3E004F022D0
:063EE5009003381243991E
:103EEB00E490033FF0A3F0A312311C00000001E4A7
:103EFB00900345F090033A12434F900340124489CC
:103F0B007003024194E490033FF090034112311C83
:103F1B000000000190033F1244E5403490033A1235
:103F2B00434F900340E0FE12448AFDEF6D70181270
:103F3B004492FF90033FE0FE9000C793B5070890B3
:103F4B00034112457D800990033FE02402F080C4B9
:103F5B0090033812436AD3EF947AEE6480948040D6
:103F6B0006E4F0A3E004F090033912436AEFF47017
:103F7B0002EEF4705C1242A712438160269003415B
:103F8B0012435C24101242EB1242A7E4900345F05B
:103F9B009003451242FE40030241831241951245A4
:103FAB006B80ED900340E004F0900338E0FFE4FDFC
:103FBB00128BCEE4900345F09003451242FE400372
:103FCB00024183124416128F521242DC12456B804F
:103FDB00E790033912436AEF64FE7002EEF470034C
:103FEB00024183EF4E7050124213602712427F90B2
:103FFB00033FF01242FB50081241951245EF80F33C
:10400B0012424A1242FB40030241831241D3124532
:10401B00EF80F012423790033FF01242FB50081230
:10402B00441612429D80F312424A1242FB40030295
:10403B00418312426D80F39003391244A3EF640164
:10404B004E7064900338E0FF128BCE1243816026D2
:10405B0012451212425C9003451242FE5008124167
:10406B00D312456B80F01244AB70031245F612432A
:10407B00DF40E002418312450C12425C9003451273
:10408B0042FE50137D017C007FFF7E00128F521287
:10409B0042DC12456B80E51244AB70031245F612FD
:1040AB0043DF40D50241839003391244A3EF6402EE
:1040BB004E7068900338E0FF128BCE124381603A4A
:1040CB0012427F90033FF01242FB50121243CF3E3D
:1040DB001245AE128F521242DC1245EF80E91242AA
:1040EB00B21242FB40030241831243CF1242CF1262
:1040FB008F521242DC1245EF80E712423790033F9A
:10410B00F01242FB500512426D80F61242B212427F
:10411B00FB506512441612429D80F3124213602F1E
:10412B0012451212428C9003451242FE501112435B
:10413B00CF1242CF128F521242DC12456B80E71224
:10414B0044AB70031245F61243DF40D70241831292
:10415B00450C12428C9003451242FE500E1244162F
:10416B00128F521242DC12456B80EA1244AB700381
:10417B001245F61243DF40DA900338E02410F0903A
:09418B000340E02402F0023EFFB3
:1041940022900341A3A3E0FEA3E02474F5827401FA
:1041A4003EF583E493FF7E007D017C00128F5290E4
:1041B4000341E0FCA3E0FDA3E0FEA3E02401FFE44F
:1041C4003EFEE43DFDE43CFC90034112311022909C
:1041D4000341A3A3E0FEA3E02474F58274013EF539
:1041E40083E493F4FFE4F4FE7D017C00128F52908B
:1041F4000341E0FCA3E0FDA3E0FEA3E02401FFE40F
:104204003EFEE43DFDE43CFC90034112311022905B
:104214000338E0FFA3E0FD128BCEE47F01FEFDFC3A
:10422400900341E0F8A3E0F9A3E0FAA3E0FBC31292
:1042340030EC22900340E004F0900338E0FFA3E068
:10424400FD128BCEE422900338E0FFA3E004FD12BC
:104254008BCEE490033FF022900338E0FFA3E0FD0F
:10426400128BCEE4900345F0227D017C007FFF7E1B
:1042740000128F5290033FE004F022900338E0FFD5
:10428400A3E0FD128BCEE422900338E0FFA3E0FD0F
:10429400128BCEE4900345F022128F5290033FE03C
:1042A40004F022900338E0FFE4FD128BCE22900349
:1042B40038E0FFA3E004FD128BCEE490033FF0222C
:0679700090035E12439932
:1079760090036612311C00000000900366A3A3E08A
:10798600FEA3E090036012434E12449960581244DD
:10799600EB900366401C12462390036312467790D1
:1079A60003641279ED2410F090036612435C2402FE
:1079B6008021A3A3E0FEA3E0FF90036012434F12D1
:1079C60044999003631279ED2408F09003661243FC
:1079D6005C2401FFE43EFEE43DFDE43CFC900366CE
:0679E6001231100279804D
:1079EC0022F0E4A3F090035EE0FFA3E0FD7B017ABC
:0B79FC00037963123EE590035EE02279
:037F4C0090011B86
:107F4F001244F3EB75F020A4FFA3124313AF0412F6
:107F5F008BCEE4900120F0A3F090011BE0FFA3E093
:107F6F00FD128BCEE490011DF090011D1242FE50C8
:107F7F001F1243D31242CF128F5290011FE004F011
:107F8F00700690011EE004F090011DE004F080D90E
:107F9F0090011CE004F0900121E004F070069001C4
:107FAF0020E004F0C3900121E09402900120E064EE
:057FBF0080948040A445
:017FC400229A
:067492009001101245C537
:1074980078157C017D017BFF7A9179AD7E007F04B0
:1074A800122E7AE4900119F0A3F0900119F0A3F0DC
:1074B800900112E06401702D1245FD25E025E024BD
:1074C80060F582E43432F58312460AFD74152FF50F
:1074D8008274013EF583ED124680900119E0FAA30B
:1074E800E024158047900112E0640270521245FDB5
:1074F80075F028A42484F582E5F03432F583C0833E
:10750800C082900114E0D082D08375F00412314D0E
:1075180012460AFF900119E0FAA3E0FB2415F58250
:1075280074013AF583EF12468074152BF5827401C5
:107538003AF583E0FB127F4C900110E02410F090A4
:10754800011AE004F07006900119E004F0C39001FC
:107558001AE09404900119E0648094805003027446
:01756800B86A
:0175690022FF
:0300230002843C18
:0F843C00C0E0C083C082C0D075D000C005C007AB
:10844B00309907C299900295E4F030982AC298AF00
:10845B0099EFFD647F6005ED648070169003D1E0A9
:10846B00FF04F0D3EF941474809480400A75C760B6
:07847B0080059003D1E4F03D
:0D848200D007D005D0D0D082D083D0E0321A
:03004300028E1317
:108E1300C0E0C083C082E59A30E108539AFD900216
:108E230096E4F0E59A30E003539AFED082D083D0E3
:028E3300E0322B
:03008B00028E35AD
:108E3500C0E0C083C082E5AC30E10853ACFD9002D0
:108E450097E4F0E5AC30E00353ACFED082D083D09C
:028E5500E03209
:03009300028E5783
:108E5700C0E0C083C082E58430E1085384FD9002FE
:108E670098E4F0E58430E0035384FED082D083D0C9
:028E7700E032E7
:03003B00028267D7
:10826700C0E0C083C082C0D075D000C006C0073050
:10827700D822C2D890034CE0FEA3E0F5EAEEF5FA67
:10828700900346E0FEA3E0FF90034DE02FF090033C
:108297004CE03EF030D922C2D990034EE0FEA3E075
:1082A700F5EBEEF5FB900348E0FEA3E0FF90034FEC
:1082B700E02FF090034EE03EF0D007D006D0D0D0AC
:0682C70082D083D0E032FA
:03000300020021D7
:0100210032AC
:03001300020022C6
:0100220032AB
:0300530002004167
:01004100328C
:03005B000200425E
:01004200328B
:0300830002005226
:01005200327B
:0791970025642C25640A0089
:0E90EF00E0FCA3E0FDA3E0FEA3E0FF022B7770
:106FBE0012001E1283E3120026128F6E128CE21242
:106FCE00756A7F011270B57F041270B57D0A7C0060
:106FDE007F03127A9BD2A2C2A0C2A112003E7B00F6
:106FEE007A0079229000EE7420F0E4FFFE128FC03A
:106FFE007B007A0079429000EE7420F0FF7E001242
:10700E008FC0126C83126A4012848F122B77AB07DB
:10701E00C007125E17122B779000EEEFF09003135D
:10702E001290EFC006C0079002CE1290EFAD07ACE3
:10703E0006C004C005E4FFFE7DC87C42900323E039
:10704E00F8A3E0F9A3E0FAA3E0FB12291A7B007A79
:10705E0040791C7846122A23122B779000EFEFF01E
:10706E00D005D004D007D006D003126EB112762C04
:10707E00123AB8128A57128C2F128F8A1270BD12C2
:10708E004DCB1270BD9000ECEEF0A3EFF09002CA63
:10709E001290EF9000EEEEF0A3EFF07BFF7A917975
:1070AE00971236A00270167D0A7C00127A9B2290EF
:0B70BE0002FCE0FEA3E0FF128741226D
:10319F00426C6163005768697400202055500044E9
:1031AF004F574E0020204E6F002059657300204F5F
:1031BF0046460020204F4E004D00202B3556002054
:1031CF002B3956002B313256002B313556002B320E
:1031DF003056002B0056004C61726700536D616CC6
