:07536F004403A6000000004A
:108953007F807C019000E9E0F8A3E0F9A3E0FAA3AB
:10896300E0FBC3022F1CE6FFAD9FC3ED9FFFE49422
:0889730000FE3395E0FDFC223B
:105F3B0043BA80E59D602078FA1289697BE07A2864
:105F4B0079017800122DF1E42FFFEE3451FEED3480
:105F5B0025FDEC3402801D78FB128969E47B807A85
:105F6B00BBF9F8122DF1E42FFFEE3436FEED346E53
:105F7B00FDEC3401FC9000E9122F409000E9E0FCAD
:105F8B00A3E0FDA3E0FEA3E0FFC00790FE01E0FB52
:105F9B00E4FAF9F8D007122E7C9000E9122F407F1B
:105FAB00C07EF67D577C0012895750097F007E60BA
:105FBB007D547C00227FC07E267D827C0012895717
:105FCB0050097F807E8D7D5B7C00227F807EED7D06
:105FDB00AF7C0012895750097F007EC07DA87C00E2
:105FEB00227F807E2D7DE87C0012895750097F002F
:105FFB007E1B7DB77C00227E367D2512895350098E
:10600B007F007E407D197C01227E567D4112895393
:10601B0050097F007E2D7D317C01227F007EDB7D50
:10602B005F12895550097F007E807D517C01227F54
:10603B00607E197D8512895550097F007E367D6EF5
:10604B007C01227F207EE07DB212895550097FC0F2
:10605B007EFC7D9B7C01227FE07EA67DE012895534
:10606B0050097F807EC37DC97C01227F607E2B7DA2
:10607B00FF12895550097F007E407DFA7C01227FFB
:07608B00C07E0E7D167C02B1
:0160920022EB
:10807800125F3B9003A6122F40E4F594F593F59216
:10808800F591F596F595F5B2F5B1F5B4F5B3F5CAF0
:10809800F5C9F5D8F5D9F5DEF58EF598F59AF5AC6C
:1080A800F584F5A2F5BAF5AFF589F5E9F5F9128980
:1080B8002A9000EC122F4C0001C2009000F07402CC
:0980C800F07B01E4FDFF025934D4
:108C7F00900119EFF0FDE4FF128273900119E0FFEC
:018C8F0022C2
:03001E00C2AF224C
:03003E00D2AF221C
:1089EC00900383E0FBA3E0FAA3E0F9EF022D16A9B4
:1089FC000553BACFEF142290FE82F090FE817405DD
:028A0C00F02256
:108C4800EF1FAA0670011E4A60087D091DED60F03D
:028C580080FAA0
:018C5A0022F7
:1086D900E49003BBF0A3F0FC90FE82E020E61E7F4D
:1086E900017E00128C489003BBE475F001122DDB6A
:1086F900FEC3E5F0941EEE940040DD7C0190FE82FD
:06870900E054BFF0AF04D4
:01870F002247
:098CEC0090FE817401F00286D9AA
:0E8CAE0090FE86EFF090FE817402F00286D9EF
:098CF50090FE817403F00286D99F
:0F8C900090FE817404F01286D990FE87E0FF22D7
:078D2100E4128A030286D967
:088D19007401128A030286D9DD
:098CFE0090FE817406F00286D993
:1083D30053BACF43BA80EF14600A14600C14600ED2
:1083E3002403800D43BA10800843BA20800343BAA4
:1083F3003090FE80E04440F0E04480F0C083C082CF
:10840300E0FB90037CA3A3A3E0FFEB4FD082D083D8
:07841300F090FE82E4F0226C
:107DB7001289FB600A14600C14600E2403800D43C3
:107DC700BA10800843BA20800343BA30128CECEF14
:107DD70060037F0122AF01EF25E0FF128CAEEF6059
:107DE700037F0122128CF5EF60037F0122AF03129C
:107DF7008CAEEF60037F0122128CF5EF60037F01E9
:107E0700229003ADE0FF128CAEEF60037F012212D8
:107E17008CF5EF60037F0122128CFEEF60037F0178
:047E2700227F002294
:107947001289FB600A14600C14600E2403800D4337
:10795700BA10800843BA20800343BA30128CECEF88
:1079670060037F0122E925E0FF128CAEEF60037F01
:107977000122128CF5EF60037F0122AF03128CAE58
:10798700EF60037F0122128CF5EF60037F0122AFC6
:1079970001EF25E04401FF128CAEEF60037F012267
:1079A700128CF5EF60037F0122128C9090039112E5
:1079B70089EF128D21EF60037F0122128CFEEF60A9
:0779C700037F01227F002273
:107491001289FB600A14600C14600E2403800D43F2
:1074A100BA10800843BA20800343BA30128CECEF43
:1074B10060037F0122E925E0FF128CAEEF60037FBC
:1074C1000122128CF5EF60037F0122AF03128CAE13
:1074D100EF60037F0122128CF5EF60037F0122AF81
:1074E10001EF25E04401FF128CAEEF60037F012222
:1074F100128CF5EF60037F0122900386E014F060A7
:107501001B128C901289EC128D21EF60037F0122F6
:10751100900384E475F001122DC580DD128C901268
:1075210089EC128D21EF60037F0122128CFEEF6046
:07753100037F01227F00220D
:10005E0043BA8053BACFEF14600A14600C14600ECA
:10006E002403800D43BA10800843BA20800343BA9C
:05007E003053BA7F229F
:10897B00439A108DD7ECF5D6438E14229000F0E07D
:10898B00FB7A00229000EAE0FF7E0022EBF0A3EAE4
:07899B00F0A3E9F0AE072292
:0B5934009000E9EFF0A3EDF0A3EBF012
:10593F00A3E0F8A3E0F9A3E0FAA3E0FB9003A6E04D
:10594F00FCA3E0FDA3E0FEA3E0FF122E7CE47B04AA
:10595F00FAF9F8122E7CC3E49FFFE49EAD07FC908A
:10596F0000E9E0147003025A09147003025A40143C
:10597F007003025A8924036003025AD9128987647B
:10598F000170144398508D8BECF58D438E40D28E61
:10599F00E4900295F08011EB64024A700B4398502B
:1059AF008DD7ECF5D6438E1553A23F9000EAE0F960
:1059BF00FF7E007008A3E0640170028035EF64027F
:1059CF004E700D9000EBE06403700543A2408022FF
:1059DF00E96404700D9000EBE06405700543A2804C
:1059EF008010E96406700B9000EBE06407700343CE
:1059FF00A2C0E4900295F0D2AC229000F0E06402D5
:105A0F00700312897B53BAFE12898F64087008A342
:105A1F00E0640970028011EF640A4E700B9000EB86
:105A2F00E0640B700343BA0143AF01E4900296F0B8
:105A3F00221289876402700512897B8011EB64033F
:105A4F004A700B43AC508DD5ECF5D443D10A53BA01
:105A5F00FD12898F640C7008A3E0640D7002801131
:105A6F00EF640E4E700B9000EBE0640F700343BABF
:105A7F000243AF08E4900297F02212898764027004
:105A8F000843841012897E8011EB64044A700B4323
:105A9F0084508DD3ECF5D243D1A053BAFB12898F2A
:105AAF0064107008A3E0641170028016EF64124E48
:105ABF0070109000EBE064137008F5CA75C90443C9
:0A5ACF00BA0443AF10E4900298F00F
:015AD90022AA
:0F826400A3E475F001122DDBA9F0FA122CD0FD66
:10827300EF14601514601D1460252403702D900203
:1082830095E070FA04F08D9922900296E070FA045A
:10829300F08D9B22900297E070FA04F08DAD22904E
:0C82A3000298E070FA04F0AF058F85220D
:108A960090039512899790039874FFF5F0122DDBD9
:108AA60045F0600CAF06900395E0FB12826480E609
:018AB600229D
:108AB7009003B21289979003B2E0FBA3E0FAA3E018
:108AC700F9122CD0600AAF069003B212826480E6D6
:018AD700227C
:1082AF0043BC80EF131313541FFB7A006401701744
:1082BF00EF5407FEF87401088002C333D8FCFEF4B4
:1082CF005294EE42938019EB4A7015EF5407FEF863
:1082DF007401088002C333D8FCFEF45292EE42912F
:0982EF00ED540F42DE43DE2022B3
:0288D400A905F4
:1088D60053BCF0EF42BC43BC40E5BC30E5FB53BCA7
:1088E600DFAFBDEFFEADBEEDFFAD01A8050880050B
:0888F600CEC313CE13D8F9FF25
:0188FE002257
:1084EB00EF14601814602014602614602C240470A0
:1084FB0030E4F58AF58C438904D28C22E4F58BF5B4
:10850B008D438940D28E22E4F5D7F5D6438E1822BF
:10851B00E4F5D5F5D443D10C22E4F5D3F5D243D110
:02852B00C0226C
:10846100EF14601714601E14602514602C2404702E
:1084710030AF8CEFFCAF8AEFFD8026AF8DEFFCAF04
:108481008BEFFD801CAFD6EFFCAFD7EFFD8012AFB5
:10849100D4EFFCAFD5EFFD8008AFD2EFFCAFD3EF47
:0584A100FDAF05AE0473
:0184A60022B3
:1082F800EF14601714601E14602714603024047093
:1083080037C28CE4F58CF58AD28C22C28EE4F58DC6
:10831800F58BD28E22538EEFE4F5D6F5D7438E1027
:108328002253D1F7E4F5D4F5D543D1082253D17FB0
:09833800E4F5D2F5D343D1802213
:0577A1009000E9EFF08B
:1077A6007E037FE8122D3A7C007D0C122D28AB0754
:1077B600AA06E4F9F89003A6E0FCA3E0FDA3E0FE28
:1077C600A3E0FF122E7CC3E49FFFE49EFE9000E937
:1077D600E0F9FD7C00700A8F8AEEF58CD28CD2A976
:1077E60022ED64014C700A8F8BEEF58DD28ED2ABF2
:1077F60022E9FD7C006402700C8FD7EEF5D6438E2D
:107806001043AF0422ED64034C700C8FD5EEF5D413
:1078160043D10843AF2022E96404700B8FD3EEF501
:07782600D243D18043AF40C3
:01782D002238
:106E5000F090031AE0F8A3E0F9A3E0FAA3E0FB90B6
:106E600003A6E0FCA3E0FDA3E0FEA3E0FF22900068
:106E7000E9FAE0540F75F008A42BFFE5F03A8F8291
:106E8000F583ECF0A3EDF0228D82F583EEF0A3EF15
:106E9000F0900320A3A3E0FEA3E0FDAC06E975F0AB
:106EA00050A42410FBE5F022E0FCA3E0FDE412294D
:106EB0006E7B007A40791C784602285312274A12CA
:106EC00029A79000F3EEF0A3EFF09000F3E0FCA30D
:106ED000E0FD9000F0E0F9228B82F583EDF0900068
:106EE000F2E0FCA3E0FDE42224D0C4540FF975F0D5
:106EF00050A422E02401FFE433AB07FA3395E0F914
:106F0000F8228F82F583E0FCA3E0FDE402296EE025
:106F1000C394307480948022C4540F75F050A4241C
:106F200000FFE5F022E975F050A42414FDE5F022FD
:0B6F30008F82F583EDF0900324A32274
:056487009000E9EFF0B8
:10648C00E49000F4F07D0112514E9000E9E0C45408
:10649C000FFFF87401088002C333D8FC42F143BAF1
:1064AC00809000EA126E54122E7C780F122F2D90D1
:1064BC0000F4EFF09000EA126E54122E7CC006C06D
:1064CC00079000F4126EF3D007D006122E7C9000C9
:1064DC00F2EEF0A3EFF09000EE126EA8C004C0052F
:1064EC00C006C007126EDE12296ED003D002D00196
:1064FC00D00012274A1229A79000F0EEF0A3EFF07B
:10650C009000E9E0FF126F109000F4E0FD502FEFC7
:10651C00126EEAFFAEF02402FBEE34FF126ED82F9F
:10652C00FFEE34FF126E7E9000F0E0FCA3E0FD1253
:10653C006E9D34FF126E6E126F2534FF803090000A
:10654C00E9E0126EE8FFAEF02402FBEE34FC126EB2
:10655C00D82FFFEE34FC126E7E9000F0E0FCA3E02E
:10656C00FD126E9D34FC126E6E126F2534FCFC9085
:10657C0000E9E0540F75F008A42DFFE5F03C8F8284
:10658C00F583E04480F09000E9E0C4540F146015EA
:10659C0014601714601914601B14601D2405701C02
:1065AC0043F601801743F610801243F701800D4328
:0F65BC00F710800843FE01800343FE1053BA7F9F
:0165CB0022AD
:0B7B58009000F0EFF0A3ECF0A3EDF0C4
:107B630043BA809000F0126F0F502DA3126EA8C07D
:107B730004C005C006C0079000F0E0126F1834FF80
:107B8300126F02D003D002D001D000126EBCC454D5
:107B93000F126E9E34FF80319000F1126EA8C00464
:107BA300C005C006C0079000F0E024D0126F18345F
:107BB300FC126F02D003D002D001D000126EBC249D
:107BC300D0C4540F126E9E34FCFAE9126E7353BA8A
:017BD3007F32
:017BD400228E
:056D5F00900319EFF0A4
:106D6400E4900328126E50122E7C780F122F2D906F
:106D74000328EF126E50122E7CC006C00790032821
:106D8400126EF3D007D006122E7C900324122F40EB
:106D940090031E126EA8C004C005C006C00790036D
:106DA40024126E62E4122969D003D002D001D0000B
:106DB40012274A1229A7900320122F4043BA809029
:106DC4000319126F0F900328E0FD900319E0501F80
:106DD400126EEAFBAAF02402FFEA34FF126F3012AB
:106DE4006E67E42BFDEA34FF126E8834FF801D12B7
:106DF4006EE8FBAAF02402FFEA34FC126F30126E34
:106E040067E42BFDEA34FC126E8834FC90031912FB
:106E14006E71900319E0C4540F14601514601714B4
:106E2400601914601B14601D2405701C43F6018056
:106E34001743F610801243F701800D43F7108008C2
:0B6E440043FE01800343FE1053BA7FA1
:016E4F002220
:1053760046033D0000000000004603370000000021
:02538600000025
:1084A7007E037FE8122D3A7C007D0C122D28AB0746
:1084B700AA06E4F9F89003A6E0FCA3E0FDA3E0FE1A
:1084C700A3E0FF022E7C2FFFE03EFE9003B7E02FD4
:1084D700FF9003B6E03E22900337E0FEA3E0FF9053
:0484E700033EE0224E
:107F6200E4F5D875D906EF64017054EDB40A0050F7
:107F72004E907F7AF8282873027F98027F9C027FB6
:107F8200A0027FA4027FA8027FAC027FB0027FB46E
:107F9200027FB8027FBEE4F5DA2275DA422275DA90
:107FA200632275DA532275DA732275DA202275DAC2
:107FB200102275DA302275DA49D2DE2275DA4C22C5
:108C5B00EF64017008AFFAEFFCAFEAEFFDAF05AEC2
:018C6B000404
:018C6C0022E5
:0A8CD800EF64017004F5F9F5E922DC
:057CCB009003B5EFF08D
:107CD000C2DEAFF9EFFFABE9EBA3CFF0A3EFF0907B
:107CE00003B5E0702A1284A7AC06AD07900337EC09
:107CF000F0A3EDF075DA49E5E904F5EA85F9FA1241
:107D000084DE90033D1284CD90033DF0A3EFF0900C
:107D100003B5E0640170271284A7900339EEF0A345
:107D2000EFF075DB49E5E904F5EA85F9FA900340DF
:107D3000E090033F1284CD90033FF0A3EFF0D2DE3A
:017D40002220
:107E2B00AD07EDFB7A00701790033DE0FEA3E0F584
:107E3B00EAEEF5FA1284DE2FF090033DE03EF0EB14
:107E4B0064014A702090033FE0FEA3E0F5EBEEF5F2
:107E5B00FB900339E0FEA3E0FF900340E02FF0908E
:107E6B00033FE03EF0ED64027020900341E0FEA37F
:107E7B00E0F5ECEEF5FC90033BE0FEA3E0FF900396
:0B7E8B0042E02FF0900341E03EF022A7
:1087B100EF7007ED24FF9288D2A8EF64017007EDF6
:1087C10024FF928AD2AAEFFD7C0064027003758FA8
:1087D10010ED64034C7003758F20ED64044C70033D
:0487E100758F40222E
:055388004203BD00001E
:10892A00E47BE07A2EF9F89003A6E0FCA3E0FDA32D
:10893A00E0FEA3E0FF122E7C9003BDEEF0A3EFF061
:09894A0075DC48E4F5D9D2DE2207
:108B1600AFF9EFFEADE9EDFF9003BEE02FFF900346
:0C8B2600BDE03E8FECF5FC30DAFDC2DA59
:018B32002220
:108C3400AB07AA06EB1BAE0270011A4E6005128B3D
:048C44001680F12283
:1087E500EF540FFEF874010822EFC4540F2410FD56
:1087F500E434FE8D82F58322EF54F0F9FB7A0022F2
:10880500E0FEEF540FFFF874010822E9FB7A0064DB
:0288150030220F
:10871000EDFB7A00640170131287EEC083C08212F1
:1087200088058002C333D8FC4E8016EB4A701712BE
:1087300087EEC083C0821288058002C333D8FCF460
:078740005ED082D083F0221D
:10514E00ED70781287FD700E1287E58002C333D89A
:10515E00FCF452935294EB64104A700E1287E58061
:10516E0002C333D8FCF452915292E96420700E12AD
:10517E0087E58002C333D8FCF452955296128810FC
:10518E00700E1287E58002C333D8FCF452B152B2CE
:10519E00EB64404A700E1287E58002C333D8FCF4EC
:1051AE0052B352B4E96450600302536E1287E58025
:1051BE0002C333D8FCF452C952CA22ED6401600313
:1051CE000252541287FD70101287E58002C333D845
:1051DE00FCFEF45293EE4294EB64104A7010128768
:1051EE00E58002C333D8FCFEF45291EE4292E9649C
:1051FE002070101287E58002C333D8FCFEF452955E
:10520E00EE429612881070101287E58002C333D8D2
:10521E00FCFEF452B1EE42B2EB64404A70101287BB
:10522E00E58002C333D8FCFEF452B3EE42B4E96417
:10523E0050600302536E1287E58002C333D8FCFE22
:10524E00F452C902536BED640260030252E01287FE
:10525E00FD70101287E58002C333D8FCFE4293EE38
:10526E00F45294EB64104A70101287E58002C33337
:10527E00D8FCFE4291EEF45292E96420701012872F
:10528E00E58002C333D8FCFE4295EEF452961288A6
:10529E001070101287E58002C333D8FCFE42B1EEC7
:1052AE00F452B2EB64404A70101287E58002C333A9
:1052BE00D8FCFE42B3EEF452B4E9645060030253DC
:1052CE006E1287E58002C333D8FCFE42C9EEF4525B
:1052DE00CA22ED6403600302536EEF54F0FD7C00AE
:1052EE00700F1287E58002C333D8FCFE4293EE4264
:1052FE0094ED64104C700F1287E58002C333D8FC16
:10530E00FE4291EE4292EF54F06420700F1287E548
:10531E008002C333D8FCFE4295EE4296EF54F0FD68
:10532E007C006430700F1287E58002C333D8FCFE18
:10533E0042B1EE42B2ED64404C700F1287E580022E
:10534E00C333D8FCFE42B3EE42B4EF54F064507057
:10535E000F1287E58002C333D8FCFE42C9EE42CA63
:01536E00221C
:1089C800E0FBA3E475F001122DDBA9F0FA22EBF02D
:1089D800A3EAF0A3E9F0AD07AC0622F5C375C65AC1
:0489E80075C6A52289
:068D2F0043C780028AF830
:0400160053C77F222B
:0E8CBC00E5C75401640170037F01227F00228E
:108AF8007B407A42790F78009003A6E0FCA3E0FD62
:0D8B0800A3E0FEA3E0FF122E7CEF04F5F5C4
:018B1500223D
:1088A7009000F11289D675C5019000F4E0FF14F02D
:1088B700EF60198DC4EC1289E39000F11289C8E5C5
:0D88C700C2122D160DBD00010C0080DD2237
:108849009000F11289D675C5029000F4E0FF14F08A
:10885900EF601B8DC4ECF5C39000F11289C8122C8E
:0F886900D0F5C20DBD00010C1289E50080DB22A5
:0B00460075C5038FC4EE1289E3002291
:1000A600C1C1B5F7BDDABBF9B4A1CABEDDB4E6B4C9
:1000B600A2D0ADD2E9D2BBB6FEC8CBC4CEE5C1F95B
:1000C600C6DFE3D0D6B5CFDEC1E3D2BCB7A1C8FE4A
:1000D600CBC1CEE9C2BDC6E2BDD7CEC2B9F6B6AF78
:1000E600B7BDCFF2CBD9C2CAB2CBB5A5C0E4B6CBA9
:1000F600B2B9B3A5C8ABBED6B2CECAD5FBB6A8D0E8
:10010600DDC3DFCAB1BCE4C9E8D6C3C6C1C4BBB24D
:10011600BDB6C8B5E7D4B4B9DCC0EDBAB8BED7D061
:10012600A3D7BCCDBCB1EAB4F3D0A1B9F6B6AFC97A
:10013600CFCFC2B7D6C3EBC9E8B1C8C0BBB7D6CE1E
:10014600A2B7B4C9ABCFD4CABEB7ADD7AA00000414
:1001560004747454555756545474740404008487B4
:10016600C3613D1D050505057DFD8185E7E340422B
:10017600CECC00FEFE9292FEFE9292FEFE000000A3
:100186003F3F98FF7F1E1E12125EDEFF7F00044473
:1001960044445F5FC4C444445F5FC4C404040000B5
:1001A60000000000FFFF000818180F0700000004F9
:1001B6000404FFFF54545454FFFF040404001111B7
:1001C600998D979391FDFD9193978D9911110484C3
:1001D600E4FC5CC4C47C7C40FFFF407C7C000203E2
:1001E6007F7F103F3F7E7E407F7F40FEFE0090D2A5
:1001F6007634FFFF3476D2F0FF8F08F8F808829A3B
:10020600DE776372DE8E80C0733F3F73C08010104E
:10021600FFFF9090FEFE9292F2F2929E9E8042C264
:10022600FF7F81E07F1FFCFC474744FCFC00040481
:1002360084E4FC1F27242424A4E464240404020385
:1002460001FFFF020242C2FF7F020202020280E0B9
:10025600F8FF879C982024A4FF7F343C2C240000C0
:10026600FFFF007F7F3613FFFF4949FFFF00101095
:10027600FFFF10109090FFFF10F0F08000000000CC
:10028600FFFF0486C3713F4FC0FF7F010706404052
:1002960042CECC001CFCE10706E0FE1E000000007A
:1002A600003FBF98C860331F1F3360C080808080C6
:1002B6008080808080808080808080808080000038
:1002C6000000000000000000000000000000000028
:1002D6000808080808080808080808080000101098
:1002E6001010101010101010101010101010000424
:1002F6008484848484848484848484840400202084
:10030600202020202020202020202020202000FC2B
:10031600FC0404FCFC0404FCFC0404FCFC00007F5C
:100326007F2C2723202020212322227F7F000002EA
:10033600424242C2FE7E424242C2C20202004040E5
:100346004040787F47404040407F7F4040402020EB
:100356002020202021232E2C202020202020004079
:1003660060301C0F0300000103061C7860008080CB
:10037600808080C0FFFF40406020202020000000D9
:10038600000000003F7F404040404078780000F881
:10039600F923A2A2A2A2FEFEAABA32FEFE0000FF26
:1003A600FF10131B4B6B371F1F3BB8FFFF0000806E
:1003B600E0F8FF07E4E4A4BFBFA4E4E404000101FD
:1003C60000FFFF407F7F4A4A4A4A7F7F404000FE47
:1003D600FE7ADE86FEFE92929292FEFE000000FFFC
:1003E600FF0C0F07FFFF60230F1C36634140101CF4
:1003F6000D555555D5FFFFD5555555151C0C0404FF
:10040600060A0B292B6E4CE9B91B0206040400C42C
:10041600C4545454545F5F5454545444C4C08181EA
:10042600809DBDF5D59595D5F5BD9D81818004440A
:100436005454545454545454FFFF05070604008082
:100446009FDF613D3D61DF9F010F3E70F0F00020B0
:1004560020A8EC6E3B39282A6EECA8202000020268
:100466004341484949494949494841430202000034
:10047600FEFE929292125454FFFF547C7C1044E488
:10048600FF5F4454F4F61212FFFF1212121000809E
:10049600E0F8FF074242C2FE7E42C2C202000101EC
:1004A60000FFFF4040787F4740407F7F404000FE8E
:1004B600FE22FADE86888888FFFF8888888000FF0B
:1004C600FF18180F077C7C407F7F40FCFC000088EB
:1004D60099D3622808087FFF888C84E4E4004444AA
:1004E6006525341C0CFFFF0C1C342464444400FEB8
:1004F600FE22FADE4660B09C0F0F9CB0604000FF03
:10050600FF18180F87E07F1F0000FFFF0000107024
:10051600628E8C00FEFE92929292FEFE0000040411
:100526007E7F417E7E427E7E7E7E427E7E40107053
:10053600628E8C24B4DCEDB7D6CC9C342400040443
:100546007E7F213018FCFE662C1D376240404044F9
:10055600C4C44444445010FFFF1010F0F000103C97
:100566003F1314BCF8703E0F41C0C07F3F0008081F
:10057600080808F8F98F8E88888888080808008097
:10058600C060381F070040C0C07F3F00000000F871
:10059600F8080CCECB4948C8C80808F8F80000FF90
:1005A600FF00001F1F08081F1F40C0FF7F004040BC
:1005B60042CECC04F4F494FFFF94F4F4040000401B
:1005C600603F3F684C46435F5F43464C48400014DB
:1005D600B4E46434BDEF66B49444E4B4140008098A
:1005E6000908090909FDFD090B0B08090908040496
:1005F60044C4CF4F44C4E4242FBFB424040440446D
:100606006424351D0CFEFE0C1D3524644440000098
:10061600F8F94B4E4CF8F84C4E4BF9F80000101018
:100626001313121212FFFF121212131310100002EC
:100636000ECCC04060301C2FEFDC30604040020220
:100646007F7F000001091931F1DD0F030000C8C8E2
:10065600090FEEE8485E5E50DFDF505E5E40206FB9
:100666006F3C1F1310FEFE7F7F7EFEFEFE0000081D
:100676000889CBEAB89800FFFF60C080000000023E
:100686000301FFFF070600FFFF00000303000080D1
:10069600E0F8FF773296949F9F949652703001014E
:1006A60000FFFF44E4F45C4C445474E4C4008080CE
:1006B600C06070584CC7C74C587060C080800040FE
:1006C60040444444447F7F44444444404000000046
:1006D600FEFE92929292929292929E9E800040701C
:1006E6003F0F001E1E1212125EDEC07F3F0000206A
:1006F60020A8EC6E3B39A8AA6EECA8202000028246
:10070600839192DA4B4D652632180903020290D284
:100716007634FFFF3476D2F0FF8F08F8F808829A15
:10072600DE776372DE8E80C0733F3F73C0800474D1
:10073600F4D4FFFFD4F4741C7FF7C47C3C04828B92
:1007460089E8EB8B88F9F9AAABA9A9AB8A82101CB8
:100756004C44444445C7C644444444541C0C80C0DD
:10076600603E3E60407F7F444444444440400080B5
:10077600E0F8FF171010D0FFFFD010101010010185
:1007860000FFFF180C0703FFFF03070C181000FCFF
:10079600FC2424FCFCFEFE22E2E2223E3E00003F58
:1007A6003F11113F3FFFFF61271F3961F1F100FC47
:1007B600FC8484FCFC1010101010FFFF1010003F8A
:1007C6003F10103F3F00010746C0FF7F000000F8C2
:1007D600F90706F0F21212F2F20202FEFE0000FF24
:1007E600FF00001F1F11111F1F40C0FF7F00404068
:1007F60042CECC40E0BE9E82829EBEA0202000005B
:10080600003FBF98C8436F3C386E47C180800017D1
:1008160017D5D557577D7D5757D5D5171700404063
:10082600407F7F5555555555557F7F4040400000C8
:10083600FEFE92B2F2D29292D2F2BE9E00004070BA
:100846003F0F84E47F1F0404FFFF0404040000023A
:1008560002FAFAAFAFAAAAAFAFFAFA020200121270
:100866001A7E7E0B0BFEFE2A6A7E3E1A121240404C
:10087600407C7C4040FFFF444444444440408090D8
:1008860098CE4640602F3F10180C0602000000006C
:10089600FCFC2424FCFD2726FCFC242424044070B4
:1008A600BF8F84CC5D752525755DCC80808000006A
:1008B600F8F8888888FFFF888888F8F80000000024
:1008C6001F1F0808087FFF8888889F9FF0F0107018
:1008D600628E8CFEFEF2F25A5E5652F2F202040468
:1008E6007E7F713F2F335BC9FF7F091B332088EC66
:1008F60067A3A6AEAABABEA7A3A62EAAE262000066
:1009060000FFFF4A4A4A4A4A4BFBF80000000484AB
:1009160084FCFC8484FEFE92FEFE92FEFE002060B5
:10092600603F1F10504444447F7F4444444080F05D
:1009360070FFFF30103E3E2A2A2A2A3E3E0080E003
:10094600781F0F3838090909FFFF0909090800FC53
:10095600FC04FCFC00FEFE222222FEFE0000000F2C
:100966000F040F4F407F7F4242427F7F404010106E
:10097600D0FFFF9090C868290F0E2868C888040722
:1009860003FFFF018180C36F3C3C6FC38080000280
:100996000EECE060F8FF4F49FFFE484848080404A3
:1009A6007F7F0000FFFF22223F3F2222222000FEFF
:1009B600FE4262327EDED272321202FEFE0000FF7C
:1009C600FF42425355756D69434242FFFF001010C6
:1009D600D0FFFF9030222222E2E2222222200407C8
:1009E60003FFFF131F0F43C0FF7F01071E182020C0
:1009F6002020202020FFFF20202020202020808073
:100A0600C060301C0F03030F1C3060C080800000E4
:100A160000E0E00000FFFF00002060C08000080C3E
:100A260007030040C0FF7F00000000010F0E10709A
:100A3600628E8C24B4DCEDB7D6CC9C34240004043E
:100A46007E7F213018FCFE662C1D376240404044F4
:100A5600C4C44444445010FFFF1010F0F000103C92
:100A66003F1314BCF8703E0F41C0C07F3F0000002A
:100A760000000000FFFF4040404040400000404072
:100A8600404040407F7F404040404040404002025E
:100A960002020202FEFE0242C282020202020000BC
:100AA60000000000FFFF000000010706000080C0F4
:100AB60060B0988E868080838F9C3060C080008076
:100AC600C060381F0740C0C07F3F000000002424DC
:100AD600A4FEFF2322C0F838FFFF08187060080E36
:100AE60007FFFF078781C04067371C0F03004040A0
:100AF60042CECC40E0BE9E82829EBEA02020000058
:100B0600003FBF98C8436F3C386E47C180800000E5
:100B1600FEFE40404040FFFFC06030180800000065
:100B26007F7F203010103F7F40404040787880E043
:100B3600F8FF0784FC7C24E4E4F8F8FFFF000000DB
:100B4600FFFF84C763331E0F034FCFFF7F002024B0
:100B560024A4FEFF2322FCFC040404FCFC00101861
:100B66000E07FFFF0786E37B1901093BF3C080C030
:100B760060B0988E868080838F9C3060C0800080B5
:100B8600C060381F0740C0C07F3F000000001098BB
:100B9600CCF7B39E9E9F9F9EBEF8DFF7F010010133
:100BA600FFFFC07E3E023E3E98EF7F7FE78000005B
:100BB600FCFC24E4E424262222A3E3620000407025
:100BC600BF8FC04063371C1C366341C08080203015
:100BD600F8EC272724E4E4343C2CE0E00000000095
:100BE6003F7F4242424343424242434378780000B9
:100BF60000FEFE929292929292FEFE000000404209
:100C0600465C587F7F40407F7F50584E464040406C
:100C16004242424242C2C2424242424240402030E6
:100C2600180E0640C0FF7F000002060C383096DE24
:100C36007A7E7F79DD9732FEFE1232FEFE0000FFDD
:100C4600FF7F7FFFFF44C6FF7F46C3FF7F00C8F8D4
:100C5600BFEFE888C84848E8FF5F4848484008189A
:100C660018FFFF0404020B1B32F2DA0E060000E046
:100C7600E0FFFF302888F87F0FE8E8088888010140
:100C860000FFFF101C8FC7673B1F1F7AE3812030D0
:100C960018FFF7545454545454F4F4040400809048
:100CA60090D94D5F772525755D4DC5808080000004
:100CB6007C7C404040FFFF404040FCFC0000007C44
:100CC6007C404040407F7F40404040FCFC000000AC
:100CD600FEFE02020202020202020202020280E09A
:100CE6007F1F0000000000000000000000004040E0
:100CF60042CECC808888FFFF88FFFF88888000402E
:100D0600603F3F60505C4F43405F5F40404002E2BF
:100D1600E2223E3E809E9E92F2F2929E9E8000438A
:100D2600C3C27E7E474744447F7F4454F7E70808A2
:100D360089EBFA98880404FCFC0404FCFC0002031A
:100D460001FFFF87C660381F47C0C07F3F00808213
:100D56008282FEFE82828282FEFE82828280008003
:100D6600C0703F0F00000000FFFF000000001010E1
:100D7600F0FF1FF0F040E0F85F475070E0C04062BF
:100D8600371D1E372100FEFE424242FEFE0000F8DD
:100D9600F8FFFFF8F890DC5FF7F45CCC8480206302
:100DA600633F1F3939101515FFFF1515101000FC8C
:100DB600FC04FCFC00FCFC16776584FCFC00000FC0
:100DC6000F040F0F101313121252D2D27E3E404060
:100DD6004444547465474664745444444040000097
:100DE60000FFFF494949494949FFFF00000020200B
:100DF60020BEBEAAAAAAAAAAAABEBE2020200080F9
:100E060080AFAFAAAAFFFFAAAAAFAF8080008082F8
:100E16008282FEFE82828282FEFE82828280008042
:100E2600C0703F0F00000000FFFF00000000000040
:100E36001011171610F0F01014171310000081810E
:100E4600C14161311D0F0F1D316141C1818140409A
:100E56004242424242FEFE4242424242404000007C
:100E660000000040C0FF7F000000000000008090EE
:100E760090D84C5F772424745C4CC480808000003A
:100E860000FFFF49497F7F4949FFFF0000000080BE
:100E9600C0703F0F08E8E8080848683818008080E6
:100EA600C06030180E07070E183060C08080000042
:100EB600FEFE82828282FAFA82828282820280E048
:100EC6007F5F404040407F7F40445C584040008008
:100ED600E0F8FF073E3E22E2E2223E3E000001012C
:100EE60000FFFF31190D07FFFF070D193120101004
:100EF60010FFFF9090F8F8898F8E8888F8F80444E0
:100F0600C6FFFFC1703F0F00000000000101000096
:100F1600000000000000002F00000000070007008E
:100F260000147F147F1400242A7F2A1200626408AA
:100F36001323003649552250000005030000000027
:100F46001C224100000041221C000014083E081427
:100F56000008083E0808000000A060000008080815
:100F66000808000060600000002010080402003E2F
:100F76005149453E0000427F4000004261514946CA
:100F8600002141454B31001814127F1000274545BA
:100F96004539003C4A4949300001710905030036CC
:100FA6004949493600064949291E000036360000DF
:100FB60000005636000000081422410000141414E4
:100FC60014140000412214080002015109060032DF
:100FD6004959513E007C1211127C007F494949361D
:100FE600003E41414122007F4141221C007F494988
:100FF6004941007F09090901003E4149497A007FBC
:101006000808087F0000417F4100002040413F0161
:10101600007F08142241007F40404040007F020CC0
:10102600027F007F0408107F003E4141413E007F61
:1010360009090906003E4151215E007F091929462A
:101046000046494949310001017F0101003F404006
:10105600403F001F2040201F003F4038403F0063B4
:1010660014081463000708700807006151494543D6
:1010760000007F41410000552A552A550000414194
:101086007F000002384444280040404040400000B1
:1010960001020400002054545478007F4844443828
:1010A60000384444442000384444487F00385454AF
:1010B600541800087E0901020018A4A4A47C007F2D
:1010C600080404780000447D4000004080847D00D0
:1010D600007F102844000000417F4000007C041877
:1010E6000478007C0804047800384444443800FC42
:1010F600242424180018242418FC007C080404085E
:1011060000485454542000043F444020003C4040D2
:10111600207C001C2040201C003C4030403C004409
:1011260028102844001CA0A0A07C004464544C4411
:101136001414141414140000000000000000000031
:10114600000000000000000000F8000000000000A1
:1011560000333000000000100C06100C06000000E2
:1011660000000000000040C07840C0784000043F06
:1011760004043F040400007088FC083000000018D6
:1011860020FF211E0000F008F000E01800000021FA
:101196001C031E211E0000F00888700000001E219E
:1011A60023241927211010160E000000000000004D
:1011B600000000000000000000E01804020000002B
:1011C60000071820400000020418E000000000405C
:1011D600201807000000404080F0804040000202D6
:1011E600010F01020200000000F0000000000101F2
:1011F600011F01010100000000000000000080B096
:101206007000000000000000000000000000000167
:101216000101010101010000000000000000003092
:10122600300000000000000000008060180400602C
:1012360018060100000000F8F8F838F8F800003F3A
:101246003F3F383F0F00002038F8F8F80000000054
:10125600003F3F3F000000383838B8F8F800003843
:101266003E3F3F3B390000383838F8F8B8000038C0
:101276003839393F1F000080F8F800F8F800000FF1
:101286000F0F3E3F3F0000F8F8F8B8B8B800003B33
:101296003B39393F1F0000F8F8F8B8B8B800003FEE
:1012A6003F3B393F1F0000383838B8F8F8000000D7
:1012B600203C3F0F000000F8F8D898F8F800003EF0
:1012C6003F393B3F1C0000F0F8D898F8F800003B87
:1012D6003B3B3B3F1F00000000C0C0000000000079
:1012E6000030300000000000008000000000000018
:1012F60080600000000080C0E0F0F8FCFEFF010303
:10130600070F1F3F7FFF404040404040400004041D
:10131600040404040400FFFEFCF8F0E0C080FF7F34
:101326003F1F0F070301007048080808F00000007F
:10133600003036010000C030C828E810E000071869
:10134600272423140B000000C038E0000000203CD6
:1013560023020227382008F8888888700000203F7A
:10136600202020110E00C030080808083800071891
:1013760020202010080008F808080810E000203F88
:10138600202020100F0008F88888E8081000203F69
:1013960020202320180008F88888E8081000203F3D
:1013A600200003000000C0300808083800000718B5
:1013B6002020221E020008F808000008F808203F36
:1013C600210101213F20000808F80808000000203C
:1013D600203F2020000000000808F8080800C08010
:1013E60080807F00000008F888C028180800203F89
:1013F60020012638200008F8080000000000203FE1
:1014060020202020300008F8F800F8F80800203FD7
:10141600003F003F200008F830C00008F808203FD1
:10142600200007183F00E01008080810E0000F1021
:10143600202020100F0008F808080808F000203FB8
:10144600210101010000E01008080810E0000F1853
:10145600242438504F0008F8888888887000203F78
:101466002000030C30200070880808083800003877
:10147600202121221C00180808F80808180000007E
:10148600203F2000000008F808000008F808001FA8
:10149600202020201F000878880000C83808000097
:1014A60007380E010000F80800F80008F800033CB1
:1014B6000700073C03000818688080681808203079
:1014C6002C03032C30200838C800C8380800000058
:1014D600203F2000000010080808C83808002038FF
:1014E600262120201800000000FE02020200000053
:1014F600007F40404000000C30C0000000000000AB
:1015060000010638C00000020202FE000000004092
:1015160040407F00000000000402020204000000B8
:1015260000000000000000000000000000008080B5
:10153600808080808080000202040000000000009D
:10154600000000000000000080808080000000197C
:10155600242222223F2008F8008080000000003F5D
:10156600112020110E000000008080800000000E77
:10157600112020201100000000808088F800000E55
:10158600112020103F200000808080800000001F76
:10159600222222221300008080F0888888180020EA
:1015A600203F202000000000808080808000006BAB
:1015B60094949493600008F8008080800000203F97
:1015C600210000203F2000809898000000000020A5
:1015D600203F20200000000000809898000000C0F6
:1015E6008080807F000008F8000080808000203F17
:1015F60024022D302000000808F80000000000201A
:10160600203F202000008080808080808000203F56
:1016160020003F20003F8080008080800000203F27
:10162600210000203F200000808080800000001FF5
:10163600202020201F00808000808000000080FF86
:10164600A12020110E000000008080808000000E86
:10165600112020A0FF8080808000808080002020D4
:101666003F21200001000000808080808000003340
:10167600242424241900008080E0808000000000DB
:10168600001F202000008080000000808000001FD6
:10169600202020103F208080800000808080000174
:1016A6000E300806010080800080008080800F30A8
:1016B6000C030C300F00008080008080800000202A
:1016C600312E0E3120008080800000808080808155
:1016D6008E701806010000808080808080000021C6
:1016E600302C2221300000000000807C0202000025
:1016F6000000003F404000000000FF000000000026
:101706000000FF0000000002027C80000000004094
:10171600403F000000000006010102020404000030
:1017260000000000000000F0F0F0F0F0F8F8F8F823
:10173600F8F8F8F8F80000FFFFFFFFFFFF070703C0
:10174600FFFFFFFFFF0000FFFFFFFFFFFF8080FEA0
:10175600FFFFFFFFFF00003F3F3F3F3F3F3F3F3F51
:101766001F1F0F070100000080F0F0F0F0F0F0F00E
:10177600F8F800000000000007070707FFFFFFFF5B
:10178600FFFF00000000000000000000FFFFFFFF59
:10179600FFFF000000000000000000003F3F3F3F49
:1017A6003F1F0000000000F0F0F0F0F0F0F0F0F065
:1017B600F8F8F8F8F8000007070707070787C7FFD4
:1017C600FFFFFFFFFF0000C0E0F0F8FEFFFFFFBFD6
:1017D6009F8F87838000003F3F3F3F3F3F3F3F1F34
:1017E6001F1F1F1F1F0000F0F0F0F0F0F0F8F8F8D0
:1017F600F8F8F8F8E000000707070707C7FFFFFF3C
:10180600FFFFDFCF830000C080808081838387E76E
:10181600FFFFFFFFFF00003F3F3F3F3F1F1F1F1F10
:101826001F1F0F0703000000F0F0F0F0F00000F8B3
:10183600F8F8F8F8000000F8FFFFFFFF0F0000FFC0
:10184600FFFFFFFF0000F0FFFFFFFFFFFCFCFCFFB8
:10185600FFFFFFFFFC0001010101010101013F3F04
:101866003F3F3F3F00000000F0F0F0F0F0F0F0F0F6
:10187600F0F0F0F8F80000FFFFFFFFFFFFE7E7E7F3
:10188600E3E3E3E3E300008F8F8F8F8F87878787FC
:10189600FFFFFFFFFF00003F3F3F3F3F1F1F1F1F90
:1018A6001F1F0F07030000F0F0F0F0F0F0F0F0F06B
:1018B600F0F8F8F8F80000FFFFFFFFFFFFE7E7E7A3
:1018C600E7E7E7E7E70000FFFFFFFFFF8F8F8F8F58
:1018D600FFFFFFFFFF00003F3F3F3F3F3F1F1F1F30
:1018E6001F1F1F07030000F0F0F0F0F0F0F0F0F01B
:1018F600F8F8F8F8F8000007070707070707C7FF13
:10190600FFFFFFFF0F00000000000080F0FEFFFF5A
:10191600FF7F07000000000000203C3F3F3F3F3FA5
:1019260003000000000000F0F0F0F0F0F0F0F0F03E
:10193600F0F8F8F8F800003FFFFFFFFFE3E1E1E110
:10194600FFFFFFFF1F0000FEFFFFFFFF878787CF18
:10195600FFFFFFFFFF00003F3F3F3F3F1F1F1F1FCF
:101966001F1F1F07030000F0F0F0F0F0F0F0F0F09A
:10197600F8F8F8F8F80000FFFFFFFFFF8787C7C7F2
:10198600FFFFFFFFFF00009F9F9F9F9F9F9F9F9FBF
:10199600FFFFFFFFFF00003F3F3F3F3F3F1F1F1F6F
:1019A6001F1F0F070300FC0201C181C1F1FF7DF972
:1019B600E1F1E18102FC3F408EBFBF8781838080D9
:1019C60083BF9F8F403F000000C000C0F8FCFEC0F0
:1019D600E0F0E00000000000021F3F3F7F7F7F7FB6
:1019E6003F3F1F070000000080C080F008041C2055
:1019F600601060C0000000000F18212340404040E6
:101A06006020180F0000000080FE03FD017E8000AC
:101A1600021212121200003E410C9E9F9E8C403311
:101A26000C4049494900000C12120CC0F0F87838F5
:101A360038383878700000000000001F3F7F78704B
:101A4600707070783800FC0201E1F9FD0D1D1D1D56
:101A56000101010102FC3F408E8F8F9F9E9FBFBFF9
:101A6600BFBF9F8E403FFC0281818181810101C5FC
:101A7600E5B59D8D02FC3F40B1B9ADA7A38080813D
:101A860081818181403FFFFF8181818181818181C7
:101A96008181818181818181818181818181818130
:101AA6008181818181818181818181818181818120
:101AB600818181818181818181818181FFFF607046
:101AC600707070F8FCFE8E0E8EDEFCF86000707092
:101AD60070707070707070707070707070600000F0
:101AE60000000000000000008080808080808183EC
:101AF60083838383818180800080E0F0F0383838EA
:101B0600F0F0E0808080808000000000000000008F
:101B1600000001010101010181C1C1C1C1C1818171
:101B260001010001070F0E1C1C1C0F0F070301010A
:101B3600010100000000000000000000060E0E0E6D
:101B46000E1F3F7F7171717B3F3F0E000E0E0E0E12
:101B56000E0E0E0E0E0E0E0E0E0E0E0400000000E1
:101B6600000000000000E0F8FC1E0E07070707074C
:101B76000707070707070787C7C7C7C7C7C787076F
:101B8600070E1EFCF8E00000000000000000000048
:101B9600FFFFFF0000000000000000000000000042
:101BA60000000101010101037FFF7C0000FFFFFF30
:101BB60000000000000000000000FFFFFF00000022
:101BC600FCFEFC8000000000000000000000000099
:101BD60000000000000000FFFFFF00000000000002
:101BE60000000000071F3F7870E0E0E1E3E7E7E769
:101BF600E7E7E7E2E0E0E0E0E0E0E0E0E0E0E07038
:101C0600783F1F0F000000000000000000000000E9
:101C160080C0F07060E0C0C0E07F3F0303030303B1
:101C2600033F7FE0C0C0E06070F0C08000000000AD
:101C36000000000000000000181E3F73E0C0000016
:101C46000000C0F038180C0C0C0C1838F0C000005E
:101C56000000C0E0733F1E180000000000000000F6
:101C660000001878FCCE070700000000030F1C18C0
:101C760030303030181C0F07000000000707CEFC7C
:101C860078100000000000000000000000000103C2
:101C96000F0E0607030307FEFCC0C0C0C0C0C0FC91
:101CA600FE07030306060E0F0301000000000000F6
:101CB600000000000000000080C0E070381C0C0E20
:101CC60006060703039F9F03030706060E0C1C3830
:101CD60070E0C0800000000000000000000000006E
:101CE600F0FE9F838000000000000000000000FF5F
:101CF600FF0000000000000000000080839FFEF04F
:101D0600000000000000000000000F7FF1C101008C
:101D16000000000000000000000303060E0C1C1863
:101D2600100000000001C1F17F0F0000000000005C
:101D36000000000000000103070E1C1830706060F0
:101D4600E0C0C0F8F8C0C0E060607030381C0E0714
:101D56000301000000000000000000000000000079
:101D660000000060E0C080000000808080DEDE00B1
:101D760000F0FC1C0E060E1CFCF00000000000002B
:101D8600000000000000000000808080800080F1DC
:101D9600FD1E070303010101010000FFFF00F8F823
:101DA600F800FFFF00000000000000000000000037
:101DB6000000000101010100018F3F78E0C0C080F2
:101DC6000000E0F83C0FC7E0FFFFFFE0870F3CF89C
:101DD600E00000000000000000000000000000001D
:101DE600000607030100000001010000030F1E3872
:101DF60031736367677331381E0F030000000000FC
:101E06000000000000000000000000C0E060303864
:101E1600181C0C0C0C1F1F0C0C0C1C18383060E026
:101E2600C0000000000000000000000000000000EC
:101E36008080F8FE8F030000F0180C02030181C1B8
:101E4600C1810103060418F00000038FFEF88080AC
:101E56000000000000000000000001011F7FE1C03B
:101E660000000F182040C0808183838180C04020FD
:101E7600180F0000C0F17F1F0101000000000000E4
:101E860000000000000000000003070E0C1C1838BC
:101E9600303030F8F830303038181C0C0E0703019B
:101EA600000000000000000000000000000000002C
:101EB60000C0E0F078381C1E0E0E06070000000079
:101EC60007060E0E1E1C3C78F0E0C08000000000E5
:101ED6000000000000000000303E3F1F030000002D
:101EE6000000000080C0E0F0F8BC868080000000A2
:101EF600000000030F3F3E3000000000000000001D
:101F060000000C7CFCF0C000000000000000006037
:101F1600381F0F07030100000000000000C0F0FC9E
:101F26007C0C00000000000000000000000001031F
:101F3600070F1E1C3878707060E000000000E0603B
:101F4600707078383C1E0F07030100000000000087
:101F560000000000000000E0F81C0C06060606065D
:101F6600060C1CF8F00000008C8C8C8C8C8C8C8CF5
:101F76008C8C8C8C0000000000000000000000002B
:101F860000071F387060606060606070381F0F0067
:101F960000003131313131313131313131310000EF
:101FA6000000000000000000000000E0F81C0C0625
:101FB60006060606060E1CF8F00000E0F81C0C06E5
:101FC60006060606060E1CF8E000000000000000EB
:101FD6000000000000071F3870606060606060707D
:101FE600381F0F00000F1F387060606060606070FF
:101FF600381F0F0000000000000000000000000075
:102006000080C0E0F0F8F8FCFCFEFEFE7E3E3E7E60
:10201600FEFEFEFCFCF8F8F0E0C0800000000000C8
:10202600000000000000000000F8FEFFFFFFFFFFB9
:10203600FFFFFFFF0F0F0C0C0C0CFFFFFFFFFFFF56
:10204600FFFFFFFFFFFEF800000000000000000099
:102056000000001F7FFFFFFFFFFFFFFFFFFF0F0FC7
:10206600000000000F0FFFFFFFFFFFFFFFFFFF7FD6
:102076001F0000000000000000000000000000013A
:1020860003070F1F1F3F3F7F7F7F7F7F7F7F7F7FFE
:102096007F3F3F1F1F0F07030100000000000000E5
:1020A6000000000000000000386C446C380000801E
:1020B600C0C0C0C0C0C0C0C0C0C08000000000001A
:1020C6000000000000FCFFFFFFFF070303030303FC
:1020D60007070707000000000000000000070F1FA9
:1020E6003F3F3E3C3C3C3C3C3E3E1E0E000000005A
:1020F60000000000000000000000000000000000DA
:1021060000000000000000000000000000000000C9
:1021160000000000000000000000000000000000B9
:1021260000000000000000000000000000000000A9
:102136000000000000000000107CC4C46C7C10008D
:102146000000FC0000000000FC0000000000000091
:1021560000000000000000000000000000FF00007A
:10216600001C3E73E3321E000000FF00000000006A
:102176000000000000000000000000000000003F1A
:102186000000000000003F0000003E3663233E18BA
:10219600000000000000000000000000F8FC0E0730
:1021A6000703030303030303036363636363E3C375
:1021B600070EFCF800000000000000000000FFFF12
:1021C600000000E0E0000000000000000000000049
:1021D6000F070000FFFF00000000000000000000E5
:1021E6001F3F70E0C0C7CFCCCCCCCCCCC0C0C0C0E9
:1021F600C0C0C0C0E0703F1F00000000000000002B
:10220600000000000080C0C0F0F8F8FCFCF8F0F810
:10221600FCF8F8F0C080800000000000000000001C
:10222600000000000000E7FFFFFFFFC701000000FD
:1022360000000001C7FFFFFFFFCF00000000000005
:102246000000000000000000010707071F3F3F7E57
:102256007E3E3E7E7E7F3F3F07070701000000006F
:102266000000000000000000000000C0E070181828
:102276000C0C0C84840C0C0C181830E0C000000008
:10228600000000000000000000000000FFE7000062
:1022960000000000001F3F60C08000000000E7FF54
:1022A6000000000000000000000000000000000325
:1022B600070C1818303030202030303018180C0732
:1022C6000301000000000000000000000000000004
:1022D600000000FC0203F90302FC00000006C6C66B
:1022E600C6C6C6C6C600000000000000000000000A
:1022F60000C070180CC7E0E0FFE0E0C70C18F0C0A3
:10230600000018181818180000000000000000004F
:10231600000000071C306043C78F8F8FC7436030B3
:102326001C076060636363636300000000000000D5
:10233600000000000000000000C02020109088CFA0
:10234600CF8890102020C000000000000000000090
:102356000000000000001818183CC300187EFFFF9C
:10236600FFFFFFFFFFFF7E1800C33C181818000090
:10237600000000000000000000000000000304044C
:10238600080911F3F3110908040403000000000012
:102396000000000000000000000000C0E070381CD3
:1023A6000C060607030000830706060E1C3870E0BD
:1023B600C0000000000000000000000066E7C30047
:1023C6000000000000088CFE7F31100000000000B5
:1023D6000083C7C6000000000000000000000003E4
:1023E600070E1C38706060E0C10000C0E0606070DD
:1023F600381C0E070300000000000000000000006B
:10240600F0DC060303010303020EF80000F80C06D5
:102416000303010303069CF800000000000000000F
:1024260000000081C366242424242424E70000E756
:1024360024242424242466C2830000000000000013
:10244600000000001F3B60C0C08080C040301F00FD
:10245600001F3040C0C080C0C0603B1F00000000AD
:102466000000000000000080E0F0F8F8FCFEFEFE30
:102476001E1F1EFEFEFEFCFCF8F0E0C00000000081
:1024860000000000000000007EFFFFFFFFFFFFFFCF
:10249600FF710101037FFFFFFFFFFFFFFFFFFF1833
:1024A600000000000000000000000003070F1F3FAF
:1024B6007F7F7FFCFCFCFCFCFF7F7F3F1F1F070329
:1024C600000000000000000000000000FFFF838302
:1024D6008387FEFC0000FFFF636363E3FFBE00FF2C
:1024E600FF007FFFC08080C0FF7F0000FFFFB3B307
:1024F600B3B3B300FFFF636363E3FFBE010101F102
:10250600F1F1F1E1C0800101000000000101F0F1EC
:10251600F1F00000010101C1E0F0F0F0F1F1F1F19C
:10252600F1F1F1F0F1F1F0F0E0C00101000000FF7F
:10253600FFFFFF071F3F7FFEF8F0E0C08000FFFFB0
:10254600FFFF0000000000FFFFFFFF00000000008B
:10255600000000000000FFFFFFFF0000000000FF7A
:10256600FFFFFF000000000001030F1F3F7EFFFF7B
:10257600FFFF00000000003F7FFFFFF0F0F0F0F0EB
:10258600F0F0F0F0F0F0FFFF7F3F0000FCFC8C8CD9
:102596008C8CFCF800F8FC0C0C0C0CFCF800FCFC19
:1025A600000000FCFC0000FCFC0000FCFCCCCCCCD9
:1025B600CCCC00FCFC8C8C8C8CFCF8000707010151
:1025C60001010100000707060606060707000103CA
:1025D60007060703030707030100000707060606A9
:1025E60006060007070101010307060000FFFFFFBB
:1025F6000000000000000000000000FEFFFF0707CB
:1026060007070707FFFFFE00000000FFFFFF0000AF
:1026160000FFFFFF00000000FFFFFF00001F1F1F5D
:102626001C1C1C1C1C1C1C1C0000000F1F1F1C1C3F
:102636001C1C1C1C1F1F0F0000000003070F1E1C84
:0C2646001E0F070F1E1C1C1E0F070100BA
:108C6D00128747900389E0FBA3E0FAA3E0F9EF0236
:028C7D002D16B2
:01001A0022C3
:078C0800C295128C0FD295FA
:0E8C0F007F027E00EF1FAC0670011E4C70F657
:018C1D002234
:0F8C9F00D294D295128C0FC294128C0FC29522D0
:0A8CE200C294128C08D294028C0F89
:108BA300AD07C295128C0FED6004C2948002D2947B
:0A8BB300D295128C0FC295028C0FB0
:108C1E00128C08309406C295E4FEFF22C295128C87
:068C2E000F7E007F012211
:0489A200E025E0FFED
:0289A600AD071B
:1089A8007B08AF031BEF6015ED30E704D29480021B
:1089B800C294ED25E0FD128C0AC29580E5028C1E5A
:02874700AD077C
:10874900E4FBC295128C0FD294E4FAEAC39408743C
:108759008094805011128C0F128C08EB25E0FB30AD
:1087690094010B0A80E5C295128C0FAF05128BA3F9
:02877900AF034C
:01877B0022DB
:108B3300900125EFF0AA03A905128C9F1289A2AF19
:0C8B4300011289A6AF021289A6028CE282
:0985F0009003C3EDF0AA07A903F2
:1085F900128C9FEA25E0FF1289A6E0FF1289A6E9FD
:1086090064017003128CE2128C9FAF02EF25E044E3
:1086190001FF1289A6E4FF128747AD07128CE2AF6A
:01862900054B
:01862A00222D
:107FC200900387EFF0A3EDF0A3EBF0A3EAF0A3E9AF
:107FD200F0128C9F9003871289A2A3E0FF1289A658
:107FE20090038DE064017003128CE2128C9F900367
:107FF20087E025E04401FF1289A690038CE014F08B
:1080020060117F01128C6D90038AE475F001122DCC
:0B801200C580E7E4FF128C6D028CE2D9
:068D350025000000000013
:1040F200A3E0FEA3E024C4F582741A3EF583E493A0
:10410200FF7E007D017C0022900332E0FCA3E0FDF3
:10411200A3E0FEA3E02401900332FFE43EFEE43D6F
:10412200FDE43CFC022F40900330E0C39410748005
:104132009480229000EFE09000F275F0A8A4FFE5D1
:10414200F0F0A3EFF02290011FE075F010A42FF51C
:1041520082E435F0F583E58222FF3395E0FEC374F5
:10416200409FFFE49EFEE0C39FEE6480F874809857
:1041720022A3A3E0FEA3E0900345FFE0FBA3E0FA45
:10418200A3E0F922F090034BE0FCA3E0FDA3E0FEE4
:10419200A3E0229000EDE0FF3395E0FE22C3900001
:1041A200F6E09000F59404E064809480229003325B
:1041B200E47F01FEFDFCE0F8A3E0F9A3E0FAA3E04E
:1041C200FBC3022F1CEFF0A3EDF0A3EBF0A3EAF088
:1041D200A3E9F022FE9000F3E02FF09000F2E03E1F
:1041E200F09000EEE004F09000F6E004F02290017E
:1041F20020E0FFC394087480948022900332A3A32A
:10420200E0FEA3E02454F582740122C390032FE060
:1042120090032E9402E06480948022E0FFE4FCFD8F
:10422200FE900112122F409001167401F0A3740C3B
:10423200F022C39000F3E09000F29403E0648094D3
:1042420080227D017C00E4FFFE22C3900378E0908F
:1042520003779404E06480948022FE9000F1E02FC2
:10426200F09000F0E03EF09000EDE004F09000F3FA
:10427200E004F022FE900376E02FF0900375E03E1A
:10428200F0900372E004F0900378E004F0229001D1
:104292001FE075F006A42414F582E5F0340FF583CF
:1042A200E5822FF582E43583229000F1E0C3942A5F
:1042B2007480948022E0F582758300022CE9EE245A
:1042C20001FFE433FE8F828E83022CE99000EEE040
:1042D200FDFF3395E0FE2290032AE004F090032FC5
:1042E200E004F022E0FD3395E0FCC3648094802278
:1042F2007C00AF03AE02122D3A7C007D0A122D3AE9
:10430200A3EDF022FFE43EFEE43DFDE43CFC022F7F
:1043120040E09000A693FFD3947F7480948022EFB4
:10432200F0FCA3EDF0E4A3F02275F0A8A4C39DFE77
:10433200E5F09CF0A3CEF022900331E004F0E4908B
:10434200032EF0A3F022A3E0FEA3E0243CF5827446
:104352002122C3EF9416EE6480948022F0E4A3F04D
:10436200900343E0FFA3E0FD7B017A0379482290AA
:1043720000F2E004F0229000F1E004F0229000F557
:10438200E004F022FEC39000F6E09FEE6480F89015
:1043920000F5E064809822900336E004F022EF24D6
:1043A200B0FFEE33FEE4FDFC22EE75F010A4FFAE8A
:1043B200F0E4FCFD022F40E0C394807480948022DC
:1043C200243CF582E5833411222444F582E58334CA
:1043D2001122F583E493F4FFE4F4FE7D017C0022D4
:1043E2009000EEE075F066A422EFF0A3EDF0A3EBEF
:1043F200F022900120E0FFC394067480948022E4AE
:10440200F0EF3395E0FEC36480948022C3E49FFF03
:10441200E49E22900330E004F02290032EE004F0A8
:1044220022900119E0FEA3E0FF900113E022E58251
:104432002FF582E5833EF583E49322A4FF900110D9
:10444200E02FFFA3E0FD22A3A3A3E0F5828E830267
:104452002CE9E4F0A3E02402F022E4FDFC7F10FE4C
:1044620022E4A3F0A3F0A3229000F0E004F0229053
:1044720000EFE004F0229000F2E004F022900375D5
:10448200E004F022900374E004F022900377E00449
:10449200F022E0FCA3E0FDEC02296EF08F828E8315
:0E44A200A3022CE9F0900110E0FFA3E0FD2240
:098D0700AB07E4FD7F3C028B3355
:098D1000AB077D407F3C028B3370
:108B4F00900123EEF0A3EFF0ED4C9001236006A30C
:0C8B5F00E0FF028D10A3E0FF128D072242
:058177009003B8EFF0D9
:10817C00E4A3F09003B9E0FF7E001241F5503B12EE
:10818C0043A0128B4FE4FDFCFFFE128B4F12445C9C
:10819C00128B4FE49003BAF09003BA1243B9501209
:1081AC009003B8E0124102128B4F9003BAE004F036
:0A81BC0080E69003B9E004F080B9FA
:0181C6002296
:10881700900122EFF0ED24B0FFE433FE12883E54BE
:10882700F0C4540F7E004410FF12883E540FFF7EA1
:1088370000E4FDFC028B4FE4FDFC128B4F900122FC
:02884700E0222D
:10834100E49000E9F09000E9E0FF7E001241F55071
:10835100371243A0128B4FE4FDFCFFFE128B4F122C
:10836100445C128B4FE49000EAF09000EA1243B9AA
:10837100500E124244128B4F9000EAE004F080EA62
:088381009000E9E004F080BD6A
:0183890022D1
:10821600E49003BFF09003BFE0FF7E001241F550EB
:108226003C1243A0128B4FE4FDFCFFFE128B4F1253
:10823600445C128B4FE49003C0F09003C01243B924
:1082460050137D017C007F017E00128B4F9003C08E
:0D825600E004F080E59003BFE004F080B884
:0182630022F8
:0B693C0090011CEDF090011BEFF0FD3E
:10694700E490011FF0A3F0EB24E090011FF0ED129B
:1069570043194007E490011B124455900000E07072
:106967004790011EE06410702C126A081241F05023
:106977000E1241481243C21240FE126A2B80ED12DA
:106987006A191241F050621241481243CB1240FE7D
:10699700126A2B80ED126A081243F4504C1242908F
:1069A7001240FE126A4680F090011EE064107026C5
:1069B700126A351241F0500B1241481243C2126954
:1069C700F180F0126A191241F0501E124148124329
:1069D700CB1269F180F0126A351243F4500B124260
:0969E700901243D4126A4680F0BC
:1069F00022F583E493F4FFE4F4FE7D017C00128B26
:106A00004F900120E004F02290011BE0FFA3E0FD85
:106A1000128817E4900120F02290011BE0FFA3E010
:106A200004FD128817E4900120F022128B4F900190
:106A300020E004F02290011BE0FFA3E0FD12881784
:106A4000E4900120F022128B4F900120E004F0220C
:0675D9009000E91241C719
:1075DF00124463F09000EB12417D9000F01242B71D
:1075EF00607024E09000EEF09000E9E0D3947A749C
:1075FF008094804006E4F0A3E004F09000E9E0FFFF
:10760F00A3E01276629000EF1241F350119000EE5A
:10761F0012414B1243C21240FE12766C80E790006B
:10762F00E9E0FFA3E0041276629000EF1241F350FD
:10763F00119000EE12414B1243CB1240FE12766CAA
:10764F0080E79000E9E02408F09000F0E004F002F9
:02765F0075E3D1
:1076610022FD128817E49000EFF022128B4F900058
:05767100EFE004F0222F
:08852D0090011BEFF0A3EDF03B
:10853500A3122F4C0000000190011CE0FF14F0EF86
:108545006020A3E0F8A3E0F9A3E0FAA3E0FB900123
:108555001BE0FFE4FCFDFE122DF190011D122F40E2
:0985650080D690011D12418AFF2D
:01856E0022EA
:0873E900900110EFF0A3EDF09C
:1073F100E490011AF0900118F0900116E0FF90015D
:1074010018E0FEC39F4003027490C3EF9E14FD7FFA
:107411000A12852DA804A905AA06AB07900112122C
:10742100418AFF122E7CE47B0AFAF9F8122E7C9035
:107431000119EBF0A3E0702E900116E014FF90010A
:1074410018E0FEC39F501FA3E07015900117E0FCE8
:10745100C3138EF012443D90011EECF07B2080237B
:1074610090011A7401F0900117E0FEC313FFA3E02D
:10747100FDEF8DF012443D900119E02430FB9001A5
:0F7481001EEEF012693C900118E004F00273FA5D
:0174900022D9
:06801D009001101241C7A2
:10802300E4900116F090011212417D900116124264
:10803300B7FB6040900110E0FFA3E0FD900115E065
:1080430090011EF012693C900115E064109001103C
:108053007006E02408F08004E02406F0900110E0AC
:10806300D39478748094804003124454900116E0B2
:0480730004F080B1E4
:0180770022E6
:0A782E0090035BEFF090035DEBF0B8
:10783800E4900362F0A3F090035EE0FF5407700841
:10784800EF131313541F800A90035EE013131354AD
:107858001F04900365F0900365EDF090035EE0FF70
:10786800900365E0FDC39F504990035BE0FF1288D9
:107878001790035BE0900364F090035DE0FF9003D2
:1078880064E0C39F502490035F12417DA3E475F028
:1078980001122DDB85F082F583122CE912410212C8
:1078A8008B4F900364E004F080CF900365E004F010
:0278B80080A9A5
:0178BA0022AB
:1070E1007F647E00128C347FAE12717E7F40FE126F
:1070F1008B4F7FB012716A7F81FE128B4FE4FDFCD2
:107101007FFFFE128B4F7FA012716A7FA6FE128B4A
:107111004F7FA812717E7F1FFE128B4F7FD312719A
:1071210089FFFE128B4F7FD51271897FF0FE128B82
:107131004F7FD91271947F22FE128B4F7FDA127129
:10714100947F02FE128B4F7FDB12719F7F49FE12EB
:107151008B4F7F8D12719F7F14FE128B4FE4FDFCCC
:107161007FAFFE128B4F028341E4FDFCFE128B4F79
:10717100E4FDFC7FC0FE128B4FE4FDFC22E4FDFC2C
:10718100FE128B4FE4FDFC22E4FDFCFE128B4FE46A
:10719100FDFC22E4FDFCFE128B4FE4FDFC22E4FD2C
:0971A100FCFE128B4FE4FDFC2200
:037BD5009000F429
:107BD800124321EB75F040A4FFA3124141AF0412F8
:107BE8008817E49000F9F0A3F09000F4E0FFA3E018
:107BF800FD128817E49000F6F09000F612412C5020
:107C080027A3E0FEA3E0242CF58274171240FD128E
:107C18008B4F9000F8E004F070069000F7E004F055
:107C28009000F6E004F080D19000F5E004F09000B8
:107C3800FAE004F070069000F9E004F0C39000FA4E
:097C4800E09000F91241A740A0F0
:017C51002210
:037A54009000F4AB
:107A5700124321EB75F048A4FFA3124141AF041272
:107A67008817E49000F9F0A3F09000F4E0FFA3E09A
:107A7700FD128817E49000F6F09000F6E0C3941822
:107A8700748094805027A3E0FEA3E024ACF58274B1
:107A9700201240FD128B4F9000F8E004F070069022
:107AA70000F7E004F09000F6E004F080CC9000F5D9
:107AB700E004F09000FAE004F070069000F9E004AA
:0E7AC700F0C39000FAE09000F912423C409BA0
:017AD500228E
:037AD6009000F429
:107AD900124321EB75F0C0A4FFA3124141AF041278
:107AE9008817E49000F9F0A3F09000F4E0FFA3E018
:107AF900FD128817E49000F6F09000F6E0C3943088
:107B0900748094805027A3E0FEA3E024D2F5827408
:107B1900241240FD128B4F9000F8E004F07006909B
:107B290000F7E004F09000F6E004F080CC9000F556
:107B3900E004F09000FAE004F070069000F9E00427
:0E7B4900F0C39000FAE09000F9124254409B05
:017B5700220B
:05856F009003AEEFF0E7
:10857400124324A3F09003AEE0FFA3E0FD1288179A
:10858400124244128B4F9003AFE004F09003B1E029
:1085940004F070069003B0E004F0C39003B1E094DB
:0B85A400039003B0E06480948040CAA4
:0185AF0022A9
:05770D009003A0EDF067
:10771200124463F0EF1242E750030277A0D3ED94D4
:1077220000EC648094804076ED9436EC6480948022
:10773200506C9003A0E0FD128817E49003A4F0A31C
:10774200F09003A0E0FDFF128817E49003A1F090EF
:1077520003A1E0C3940A74809480501C1242441224
:107762008B4F9003A3E004F070069003A2E004F0B4
:107772009003A1E004F080D79003A0E004F090030E
:10778200A5E004F070069003A4E004F0C39003A502
:0E779200E094039003A4E06480948040A4225D
:0177A00022C6
:0D5C74009000EDEDF0A3EBF09000ECEFF0F0
:105C81009000EF1244014052EF941EEE6480948024
:105C910050481243E2FF9000F0124141125DC09062
:105CA10000F2F0A3F0125DC09000EFF09000EFE081
:105CB100C394227480948050131243481240FD1201
:105CC1005DCD700312446A12447180E01242697022
:105CD1000312447812423440CC229000EC1242E686
:105CE10050681243E2C39DFEE5F09C9000F0F0A3E2
:105CF100CEF09000EDE0FDE4FF125DD79000EDE005
:105D0100FDE4FF128817E49000EFF09000EC1241DF
:105D110098EF2422FFE43EFE9000EF1241685013F9
:105D21001243481240FD125DCD700312446A1244C1
:105D31007180D89000EC12419812440E12425C70AE
:105D41000312447812423440B3229000EC1242D143
:105D5100C3EF941EEE6480948040631243E2FF908F
:105D610000F0124141AF059000EDE0FD125DD790CA
:105D710000ECE0FFA3E0FD128817E49000EFF09043
:105D810000ECE09000EF12415B50191243481240C1
:105D9100FD128B4F9000F1E004F0700312446A127F
:105DA100447180DB9000EC124198EF24E2FFEE3465
:0E5DB100FF12425C700312447812423440B17B
:105DBF00229000ECE0FFA3E0FD128817E422128B83
:105DCF004F9000F1E004F022128817E49000F2F0F7
:035DDF00A3F0220C
:0D609300900372EDF0A3EBF0900371EFF0BD
:1060A00090037412440140451243555040900373CD
:1060B000E090037512413C1261C5900377F0A3F0A4
:1060C0001261C5900374F09003741242AE50101226
:1060D00040F21261D2700312447F12448680E812AB
:1060E0004283700312448D12424C40D422900371BB
:1060F0001242E6505F900373E090037512432B90B9
:106100000372E0FDE4FF1261DC900372E0FDE4FF46
:10611000128817E4900374F0900371124198EF24F1
:106120002AFFE43EFE90037412416850101240F2C0
:106130001261D2700312447F12448680DB90037197
:1061400012419812440E124276700312448D12428C
:106150004C40B6229003711242D1124354406590D4
:106160000373E075F0A8A4FF900375124141AF05D9
:10617000900372E0FD1261DC900371E0FFA3E0FD8B
:10618000128817E4900374F0900371E09003741286
:10619000415B50161240F2128B4F900376E004F0F0
:1061A000700312447F12448680DE9003711241987E
:1061B000EF24EAFFEE34FF124276700312448D1290
:0461C000424C40B459
:1061C40022900371E0FFA3E0FD128817E422128BF2
:1061D4004F900376E004F022128817E4900377F0DE
:0361E400A3F02203
:0D79CE009000F2EBF09000F0EFF0A3EDF070
:1079DB00E49000F3F09000F6F0128817E49000F4B6
:1079EB00F0A3F09000F0E0FFA3E0FD128817E49005
:1079FB0000F3F09000F312412C502C9000F6E0FFB6
:107A0B009000F2E075F020A424ACF582E5F0341977
:107A1B001242A01240FE128B4F9000F6E004F09041
:107A2B0000F3E004F080CC9000F1E004F09000F55E
:107A3B00E004F070069000F4E004F0C39000F5E071
:087A4B009000F4124215409B6B
:017A53002210
:09726F009000F0EFF0AB05AA0459
:107278007D641242F27D0A1242F2AE02AF0312425C
:10728800FB125ADA1229A7D39000A6E09F7480F85F
:107298009000A5E0648098401A9000A7E07004A3CD
:1072A800E06401700E9000F0E0FF7B01E4127323AC
:1072B80002731190009B124494C004C005C006C01C
:1072C80007900312124494A804A905AA06AB07D094
:1072D80007D006D005D0041228F09000F0E0FF5047
:1072E80023A3E0FBE4FD127BD59000F0E02410908E
:1072F80000F212731624209000F31273162430FF44
:0D730800E4FB8005E4FB127323FD127A54B0
:1073150022FFE0FBE4FD127BD59000F0E022FD1298
:0D7325007AD69000F0E02430FF7B01E422D6
:108A0E00C007C005AE02AF03E4FCFD900112122FA9
:108A1E00409001167403F0A37410F0D005D0070235
:028A2E0073E9EA
:066C67009000F01243EB67
:106C6D00E0FE75F0648475F00A849000F4E5F0F0B0
:106C7D00EE75F00A8475F00A84A3E5F0F0EB75F07B
:106C8D000A84A3E5F0F0128817E49000F3F0900069
:106C9D00F3E0FFC39438748094805048C3EF94039D
:106CAD00748094804029D3EF943574809480501F64
:106CBD009000F2E0C313FFA3E024FDFEEFD39E7D11
:106CCD00017C0040047FBD80027F817E00800A90A0
:106CDD0000F3E0901A8C124101128B4F9000F3E0FB
:106CED0004F080AA9000F0E02420FFC007A3E01478
:106CFD00FDC0059000F412421DD005D007126D574E
:106D0D002426FFC007A3E014FDC0059000F5124234
:106D1D001DD005D007126D57242CFFC007A3E0141A
:106D2D00FDC0059000F612421DD005D0071273E983
:106D3D009000F0E02432FFA3E014FD7BFF7A8D7903
:0A6D4D00359001157408F002801D56
:086D57001273E99000F0E02244
:065DE2009003661241C7A8
:105DE800124463122F4C0000000190036812417D99
:105DF80090036C1242B77003025F12E490036BF0D9
:105E080090036D122F4C0000000190036B12431396
:105E1800403490036812417D90036CE0FE1242B852
:105E2800FDEF6D70181242C0FF90036BE0FE90000A
:105E3800A793B5070890036D1243AB800990036BD5
:105E4800E02402F080C4900366E0D3947A748094CE
:105E5800804003124454125F2590036D1241B260D2
:105E68005F125F25E490036BF090036B12412C5096
:105E78002290036D1242001240FD128B4F90036D69
:105E880012418A240190036D12411C90036BE004B7
:105E9800F080D6125F1390036B12412C505B900375
:105EA8006D1242001240FD128B4F90036D12418A11
:105EB800240190036D12430690036BE004F080D632
:105EC80090036CE004F0900366E0FFA3E0FD128805
:105ED80017E490036BF090036B12412C50081242A8
:105EE80044125F3180F0125F1390036B12412C5003
:105EF80008124244125F3180F0900366E02410F0EB
:0A5F080090036CE02402F0025DF249
:105F120022900366E0FFA3E004FD128817E49003D9
:105F22006BF022900366E0FFA3E0FD1288172212B5
:095F32008B4F90036BE004F02298
:067E96009003431241C7F6
:107E9C0090034B122F4C0000000090034B124173C7
:107EAC001242C7604A12431990034B401F124449B7
:107EBC0090034812449D90034912435E125DE29078
:107ECC000343E024101241862402801A12417312DB
:107EDC0042C790034812435E1275D9900343E024C5
:0F7EEC0008124186240190034B124306027EA622
:017EFB002264
:064EC2009000ED1243EB2D
:104EC800E49000F1F09000F4F09000F0E06003024C
:104ED8004FD2124195C36480948040371243555095
:104EE800321241359000EDE0FFA31251211250F328
:104EF8001242AB50101240F2125104700312437167
:104F080012437880EB1241E3700312437F12419FF2
:104F180040DB229000ED1242E650589000EFE090FE
:104F280000F212432B9000EEE0FDE412513890009D
:104F3800EEE0FDE4FF128817E49000F1F0124195CD
:104F4800EF242AFFE43EFE9000F11241685010124F
:104F580040F2125104700312437112437880DE123A
:104F6800419512440E1241D6700312437F12419F9D
:104F780040BC229000ED1242D1124354500302501B
:104F8800F2124135AF059000EE1251211250F31282
:104F98004195C374409FFFE49EFE9000F112416862
:104FA80050101240F212512E7003124371124378BE
:104FB80080DD124195EF24EAFFEE34FF1241D670EE
:104FC8000312437F12419F40C3229000F0E0640126
:104FD80060030250F21241359000EEE03395E0C3D1
:104FE8006480948050689000EDE0FFE4FD1288171B
:104FF8009000EE12419812440EFE7C007D2A122D7C
:10500800289000F3E02FF09000F2E03EF0E49000EA
:10501800F5F0A3F09000EE124198EF2404FFE43E6F
:1050280012438640030250F212510E1242AB501046
:105038001240F212512E700312437112437880EB22
:105048009000F41241E6700312437F02501C124292
:10505800CEEF4E703A9000EDE01251389000EDE03E
:10506800FFA3E0FD128817E49000F1F01242AB5064
:10507800101240F2125144700312437112437880A7
:10508800EB1241E3700312437F12419F40CE22127C
:1050980042CED3EF9400EE64809480404D9000EDB2
:1050A800E0FF1288179000EEE09000F4F0E4A3F01F
:1050B800A3F09000EE124198C374049FFFE49E127F
:1050C8004386502612510E1242AB50101240F21273
:1050D8005144700312437112437880EB9000F4122C
:0A50E80041E6700312437F0250BA44
:1050F200229000EDE0FFA3E0FD128817E49000F19A
:10510200F022128B4F9000F3E004F0229000EDE0C9
:10511200FF9000F4E0FD128817E49000F1F022E025
:10512200FD128817E49000F5F0A3F022128B4F9045
:1051320000F3E004F022FF128817E49000F5F0A3D8
:0C514200F022128B4F9000F3E004F022EA
:063D13009003291241C7D4
:103D1900E4900330F0A3F0A3122F4C00000001E45B
:103D2900900336F090032B12417D9003311242B774
:103D39007003023FC2E4900330F0900332122F4C1B
:103D490000000001900330124313403490032B12FA
:103D5900417D900331E0FE1242B8FDEF6D701812FB
:103D690042C0FF900330E0FE9000A793B50708908A
:103D790003321243AB8009900330E02402F080C47F
:103D8900900329124198D3EF947AEE64809480408D
:103D990006E4F0A3E004F090032A124198EFF470CE
:103DA90002EEF4705C1240D51241AF6026900332E6
:103DB90012418A24101241191240D5E4900336F0B9
:103DC90090033612412C4003023FB1123FC3124304
:103DD9009980ED900331E004F0900329E0FFE4FDC0
:103DE900128817E4900336F090033612412C4003F1
:103DF900023FB1124244128B4F12410A1243998079
:103E0900E790032A124198EF64FE7002EEF4700302
:103E1900023FB1EF4E705012404160271240AD9001
:103E29000330F01241295008123FC312441580F3A0
:103E39001240781241294003023FB1124001124455
:103E49001580F0124065900330F012412950081294
:103E590042441240CB80F3124078124129400302B8
:103E69003FB112409B80F390032A1242D1EF6401C3
:103E79004E7064900329E0FF1288171241AF602643
:103E890012434012408A90033612412C50081240C6
:103E99000112439980F01242D9700312441C124254
:103EA9000D40E0023FB112433A12408A90033612A4
:103EB900412C50137D017C007FFF7E00128B4F1235
:103EC900410A12439980E51242D9700312441C1227
:103ED900420D40D5023FB190032A1242D1EF64024C
:103EE9004E7068900329E0FF1288171241AF603ABB
:103EF9001240AD900330F012412950121241FD3E9B
:103F09001243D4128B4F12410A12441580E9124010
:103F1900E01241294003023FB11241FD1240FD1256
:103F29008B4F12410A12441580E712406590033005
:103F3900F0124129500512409B80F61240E01241CF
:103F49002950651242441240CB80F3124041602F40
:103F59001243401240BA90033612412C50111241BB
:103F6900FD1240FD128B4F12410A12439980E7124C
:103F790042D9700312441C12420D40D7023FB112BC
:103F8900433A1240BA90033612412C500E12424461
:103F9900128B4F12410A12439980EA1242D97003D7
:103FA90012441C12420D40DA900329E02410F090CB
:093FB9000331E02402F0023D2D69
:103FC20022900332A3A3E0FEA3E02454F5827401FD
:103FD2003EF583E493FF7E007D017C00128B4F90BF
:103FE2000332E0FCA3E0FDA3E0FEA3E02401FFE432
:103FF2003EFEE43DFDE43CFC900332122F40229051
:104002000332A3A3E0FEA3E02454F58274013EF53B
:1040120083E493F4FFE4F4FE7D017C00128B4F9065
:104022000332E0FCA3E0FDA3E0FEA3E02401FFE4F1
:104032003EFEE43DFDE43CFC900332122F40229010
:104042000329E0FFA3E0FD128817E47F01FEFDFCD7
:10405200900332E0F8A3E0F9A3E0FAA3E0FBC31275
:104062002F1C22900331E004F0900329E0FFA3E02B
:10407200FD128817E422900329E0FFA3E004FD1259
:104082008817E4900330F022900329E0FFA3E0FDBB
:10409200128817E4900336F0227D017C007FFF7EB8
:1040A20000128B4F900330E004F022900329E0FFCE
:1040B200A3E0FD128817E422900329E0FFA3E0FDAC
:1040C200128817E4900336F022128B4F900330E0EF
:1040D20004F022900329E0FFE4FD128817229003E6
:1040E20029E0FFA3E004FD128817E4900330F022D8
:0676760090034F1241C712
:10767C00900357122F4C00000000900357A3A3E077
:10768C00FEA3E090035112417C1242C76058124392
:10769C0019900357401C12444990035412449D9076
:1076AC0003551276F32410F090035712418A2402EA
:1076BC008021A3A3E0FEA3E0FF90035112417D12B1
:1076CC0042C79003541276F32408F09003571241EA
:1076DC008A2401FFE43EFEE43DFDE43CFC900357AC
:0676EC00122F4002768619
:1076F20022F0E4A3F090034FE0FFA3E0FD7B017AC8
:0B770200037954123D1390034FE02266
:037C520090011B83
:107C5500124321EB75F020A4FFA3124141AF04129A
:107C65008817E4900120F0A3F090011BE0FFA3E04A
:107C7500FD128817E490011DF090011D12412C5052
:107C85001F1242011240FD128B4F90011FE004F0BC
:107C9500700690011EE004F090011DE004F080D90B
:107CA50090011CE004F0900121E004F070069001C1
:107CB50020E004F0C3900121E09402900120E064EB
:057CC50080948040A442
:017CCA002297
:066F3B009001101243EB6F
:106F410078157C017D017BFF7A8D79377E007F0486
:106F5100122CAAE4900119F0A3F0900119F0A3F00A
:106F6100900112E06401702D12442325E025E024F4
:106F71008EF582E43430F583124430FD74152FF51B
:106F81008274013EF583ED1244A6900119E0FAA343
:106F9100E024158047900112E064027052124423EC
:106FA10075F028A424B2F582E5F03430F583C0836E
:106FB100C082900114E0D082D08375F004122F7D3D
:106FC100124430FF900119E0FAA3E0FB2415F58289
:106FD10074013AF583EF1244A674152BF5827401FE
:106FE1003AF583E0FB127C52900110E02410F090FE
:106FF100011AE004F07006900119E004F0C3900159
:107001001AE09404900119E0648094805003026FA7
:01701100611D
:01701200225B
:030023000280D187
:0F80D100C0E0C083C082C0D075D000C005C0071A
:1080E000309907C299900295E4F030982AC298AF6F
:1080F00099EFFD647F6005ED648070169003C4E025
:10810000FF04F0D3EF941474809480400A75C76024
:0781100080059003C4E4F0B8
:0D811700D007D005D0D0D082D083D0E03288
:03004300028A30FE
:108A3000C0E0C083C082E59A30E108539AFD9002FD
:108A400096E4F0E59A30E003539AFED082D083D0CA
:028A5000E03212
:03008B00028A5294
:108A5200C0E0C083C082E5AC30E10853ACFD9002B7
:108A620097E4F0E5AC30E00353ACFED082D083D083
:028A7200E032F0
:03009300028A746A
:108A7400C0E0C083C082E58430E1085384FD9002E5
:108A840098E4F0E58430E0035384FED082D083D0B0
:028A9400E032CE
:03003B00027EFC46
:107EFC00C0E0C083C082C0D075D000C006C00730BF
:107F0C00D822C2D890033DE0FEA3E0F5EAEEF5FAE4
:107F1C00900337E0FEA3E0FF90033EE02FF09003C8
:107F2C003DE03EF030D922C2D990033FE0FEA3E001
:107F3C00F5EBEEF5FB900339E0FEA3E0FF90034078
:107F4C00E02FF090033FE03EF0D007D006D0D0D029
:067F5C0082D083D0E03268
:03000300020021D7
:0100210032AC
:03001300020022C6
:0100220032AB
:0300530002004167
:01004100328C
:03005B000200425E
:01004200328B
:0300830002005127
:01005100327C
:078D280025642C25640A00FC
:0E8CCA00E0FCA3E0FDA3E0FEA3E0FF0229A76B
:106B5C0012001E128078120026128B6B1288FF1204
:106B6C0070E17F01126C537F04126C537D0A7C0020
:106B7C007F031277A1D2A2C2A0C2A112003E7B0059
:106B8C007A0079229000EE7420F0E4FFFE128BBDA7
:106B9C007B007A0079429000EE7420F0FF7E0012A8
:106BAC008BBD126A501266F91281241229A7AB0709
:106BBC00C007125ADA1229A79000EEEFF09002ECFF
:106BCC00128CCAC006C0079002CC128CCAAD07AC9E
:106BDC0006C004C005E4FFFE7DC87C429002FCE0C8
:106BEC00F8A3E0F9A3E0FAA3E0FB12274A7B007AB2
:106BFC0040791C78461228531229A79000EFEFF029
:106C0C00D005D004D007D006D0031271AA1273326B
:106C1C001238E61286A0128878128B87126C5B12DF
:106C2C004BB9126C5B9000ECEEF0A3EFF09002C845
:106C3C00128CCA9000EEEEF0A3EFF07BFF7A8D7908
:106C4C00281234CE026BB47D0A7C001277A12290FC
:0B6C5C000312E0FEA3E0FF12838A2277
:102FCF00426C6163005768697400202055500044BB
:102FDF004F574E0020204E6F002059657300204F31
:102FEF0046460020204F4E00202B355600202B390F
:102FFF0056002B313256002B313556002B323056BE
:10300F00002B0056004C61726700536D616C0020FD
:10301F004C2652002055264400563A007600543A6A
:10302F00005E002056657273696F6E3A312E322E34
:10303F00382E416C706861200020204861726477DF
:10304F006172653A4C49204A49414E2020200020A8
:10305F0020536F6674776172653A20414C4F4E472B
:10306F00202020200020205765623A414C4F4E47C8
:10307F005849492E58595A202020003E003C002D17
:10308F002E2F303738353603043536313233341E70
:10309F003A12133F4041423B3C3D3E2526353667B1
:1030AF006835694E4F2F3050512F3052512F30000D
:1030BF000000000000000000000000000000000001
:1030CF000000000000000000000000535455564956
:1030DF004A5758003A0102000000000000000000AB
:1030EF0000000000000000000000000000000000D1
:1030FF0000000005060708595A5B5C626366676447
:10310F0065454600000000000000000000000000C0
:10311F0000000000000000000000004B0535304C9F
:10312F0005353031326667000000000000000000F6
:10313F000000000000000000000000000000000080
:10314F000000001E3A4A141E3A49145F1335301E10
:10315F003A395D5E1E353631321E3A0000000000EE
:10316F000000000000000000000000151D41420B90
:10317F001D41420C1D41420D1D41420E1D41420F8A
:10318F001D4142101D4142000000000000000000E0
:10319F00000000090A35366A6B35366A6B6C6D00B4
:1031AF000000000000000000000000000000000010
:1031BF000000000000000000000000434445461FCF
:1031CF00202122000000000000000000000000008D
:1031DF0000000000000000000000000000000000E0
:1031EF0000000000000000000000000000000000D0
